{
    "contractName": "GenFactory",
    "abi": [
        {
            "inputs": [
                {
                    "internalType": "address",
                    "name": "_feeToSetter",
                    "type": "address"
                }
            ],
            "stateMutability": "nonpayable",
            "type": "constructor"
        },
        {
            "anonymous": false,
            "inputs": [
                {
                    "indexed": true,
                    "internalType": "address",
                    "name": "caller",
                    "type": "address"
                },
                {
                    "indexed": true,
                    "internalType": "address",
                    "name": "genTicket",
                    "type": "address"
                }
            ],
            "name": "TicketCreated",
            "type": "event"
        },
        {
            "inputs": [],
            "name": "feeTo",
            "outputs": [
                {
                    "internalType": "address",
                    "name": "",
                    "type": "address"
                }
            ],
            "stateMutability": "view",
            "type": "function",
            "constant": true
        },
        {
            "inputs": [],
            "name": "feeToSetter",
            "outputs": [
                {
                    "internalType": "address",
                    "name": "",
                    "type": "address"
                }
            ],
            "stateMutability": "view",
            "type": "function",
            "constant": true
        },
        {
            "inputs": [
                {
                    "internalType": "uint256",
                    "name": "",
                    "type": "uint256"
                }
            ],
            "name": "genTickets",
            "outputs": [
                {
                    "internalType": "address",
                    "name": "",
                    "type": "address"
                }
            ],
            "stateMutability": "view",
            "type": "function",
            "constant": true
        },
        {
            "inputs": [
                {
                    "internalType": "address",
                    "name": "",
                    "type": "address"
                }
            ],
            "name": "getGenTicket",
            "outputs": [
                {
                    "internalType": "uint256",
                    "name": "",
                    "type": "uint256"
                }
            ],
            "stateMutability": "view",
            "type": "function",
            "constant": true
        },
        {
            "inputs": [],
            "name": "genTicketsLength",
            "outputs": [
                {
                    "internalType": "uint256",
                    "name": "",
                    "type": "uint256"
                }
            ],
            "stateMutability": "view",
            "type": "function",
            "constant": true
        },
        {
            "inputs": [
                {
                    "internalType": "address",
                    "name": "_underlyingToken",
                    "type": "address"
                },
                {
                    "internalType": "uint256[]",
                    "name": "_numTickets",
                    "type": "uint256[]"
                },
                {
                    "internalType": "uint256[]",
                    "name": "_ticketSizes",
                    "type": "uint256[]"
                },
                {
                    "internalType": "uint256[]",
                    "name": "_totalTranches",
                    "type": "uint256[]"
                },
                {
                    "internalType": "uint256[]",
                    "name": "_cliffTranches",
                    "type": "uint256[]"
                },
                {
                    "internalType": "uint256[]",
                    "name": "_trancheLength",
                    "type": "uint256[]"
                },
                {
                    "internalType": "string",
                    "name": "_uri",
                    "type": "string"
                }
            ],
            "name": "createGenTicket",
            "outputs": [
                {
                    "internalType": "address",
                    "name": "",
                    "type": "address"
                }
            ],
            "stateMutability": "nonpayable",
            "type": "function"
        },
        {
            "inputs": [
                {
                    "internalType": "address",
                    "name": "_feeTo",
                    "type": "address"
                }
            ],
            "name": "setFeeTo",
            "outputs": [],
            "stateMutability": "nonpayable",
            "type": "function"
        },
        {
            "inputs": [
                {
                    "internalType": "address",
                    "name": "_feeToSetter",
                    "type": "address"
                }
            ],
            "name": "setFeeToSetter",
            "outputs": [],
            "stateMutability": "nonpayable",
            "type": "function"
        }
    ],
    "bytecode": "0x608060405234801561001057600080fd5b506040516150053803806150058339818101604052602081101561003357600080fd5b810190808051906020019092919050505080600160006101000a81548173ffffffffffffffffffffffffffffffffffffffff021916908373ffffffffffffffffffffffffffffffffffffffff16021790555050614f70806100956000396000f3fe60806040523480156200001157600080fd5b5060043610620000945760003560e01c8063a2e74af61162000063578063a2e74af61462000180578063f46901ed14620001c7578063f83a9869146200020e578063feb0940b146200060c5762000094565b8063017e7e58146200009957806308647d9114620000cf578063094b741514620000ef5780637145a6b21462000125575b600080fd5b620000a362000667565b604051808273ffffffffffffffffffffffffffffffffffffffff16815260200191505060405180910390f35b620000d96200068b565b6040518082815260200191505060405180910390f35b620000f962000698565b604051808273ffffffffffffffffffffffffffffffffffffffff16815260200191505060405180910390f35b62000154600480360360208110156200013d57600080fd5b8101908080359060200190929190505050620006be565b604051808273ffffffffffffffffffffffffffffffffffffffff16815260200191505060405180910390f35b620001c5600480360360208110156200019857600080fd5b81019080803573ffffffffffffffffffffffffffffffffffffffff169060200190929190505050620006fb565b005b6200020c60048036036020811015620001df57600080fd5b81019080803573ffffffffffffffffffffffffffffffffffffffff16906020019092919050505062000803565b005b620005e0600480360360e08110156200022657600080fd5b81019080803573ffffffffffffffffffffffffffffffffffffffff169060200190929190803590602001906401000000008111156200026457600080fd5b8201836020820111156200027757600080fd5b803590602001918460208302840111640100000000831117156200029a57600080fd5b919080806020026020016040519081016040528093929190818152602001838360200280828437600081840152601f19601f82011690508083019250505050505050919291929080359060200190640100000000811115620002fb57600080fd5b8201836020820111156200030e57600080fd5b803590602001918460208302840111640100000000831117156200033157600080fd5b919080806020026020016040519081016040528093929190818152602001838360200280828437600081840152601f19601f820116905080830192505050505050509192919290803590602001906401000000008111156200039257600080fd5b820183602082011115620003a557600080fd5b80359060200191846020830284011164010000000083111715620003c857600080fd5b919080806020026020016040519081016040528093929190818152602001838360200280828437600081840152601f19601f820116905080830192505050505050509192919290803590602001906401000000008111156200042957600080fd5b8201836020820111156200043c57600080fd5b803590602001918460208302840111640100000000831117156200045f57600080fd5b919080806020026020016040519081016040528093929190818152602001838360200280828437600081840152601f19601f82011690508083019250505050505050919291929080359060200190640100000000811115620004c057600080fd5b820183602082011115620004d357600080fd5b80359060200191846020830284011164010000000083111715620004f657600080fd5b919080806020026020016040519081016040528093929190818152602001838360200280828437600081840152601f19601f820116905080830192505050505050509192919290803590602001906401000000008111156200055757600080fd5b8201836020820111156200056a57600080fd5b803590602001918460018302840111640100000000831117156200058d57600080fd5b91908080601f016020809104026020016040519081016040528093929190818152602001838380828437600081840152601f19601f8201169050808301925050505050505091929192905050506200090a565b604051808273ffffffffffffffffffffffffffffffffffffffff16815260200191505060405180910390f35b62000651600480360360208110156200062457600080fd5b81019080803573ffffffffffffffffffffffffffffffffffffffff16906020019092919050505062000d93565b6040518082815260200191505060405180910390f35b60008054906101000a900473ffffffffffffffffffffffffffffffffffffffff1681565b6000600280549050905090565b600160009054906101000a900473ffffffffffffffffffffffffffffffffffffffff1681565b60028181548110620006cc57fe5b906000526020600020016000915054906101000a900473ffffffffffffffffffffffffffffffffffffffff1681565b600160009054906101000a900473ffffffffffffffffffffffffffffffffffffffff1673ffffffffffffffffffffffffffffffffffffffff163373ffffffffffffffffffffffffffffffffffffffff1614620007bf576040517f08c379a00000000000000000000000000000000000000000000000000000000081526004018080602001828103825260158152602001807f47656e466163746f72793a20464f5242494444454e000000000000000000000081525060200191505060405180910390fd5b80600160006101000a81548173ffffffffffffffffffffffffffffffffffffffff021916908373ffffffffffffffffffffffffffffffffffffffff16021790555050565b600160009054906101000a900473ffffffffffffffffffffffffffffffffffffffff1673ffffffffffffffffffffffffffffffffffffffff163373ffffffffffffffffffffffffffffffffffffffff1614620008c7576040517f08c379a00000000000000000000000000000000000000000000000000000000081526004018080602001828103825260158152602001807f47656e466163746f72793a20464f5242494444454e000000000000000000000081525060200191505060405180910390fd5b806000806101000a81548173ffffffffffffffffffffffffffffffffffffffff021916908373ffffffffffffffffffffffffffffffffffffffff16021790555050565b6000600a87511062000968576040517f08c379a000000000000000000000000000000000000000000000000000000000815260040180806020018281038252602181526020018062004f1a6021913960400191505060405180910390fd5b855187511480156200097b575084518651145b801562000989575083518551145b801562000997575082518451145b62000a0a576040517f08c379a000000000000000000000000000000000000000000000000000000000815260040180806020018281038252601f8152602001807f47656e466163746f72793a2041525241592053495a45204d49534d415443480081525060200191505060405180910390fd5b600088888888888888303360405162000a239062000dab565b808a73ffffffffffffffffffffffffffffffffffffffff1681526020018060200180602001806020018060200180602001806020018973ffffffffffffffffffffffffffffffffffffffff1681526020018873ffffffffffffffffffffffffffffffffffffffff16815260200187810387528f818151815260200191508051906020019060200280838360005b8381101562000acd57808201518184015260208101905062000ab0565b5050505090500187810386528e818151815260200191508051906020019060200280838360005b8381101562000b1157808201518184015260208101905062000af4565b5050505090500187810385528d818151815260200191508051906020019060200280838360005b8381101562000b5557808201518184015260208101905062000b38565b5050505090500187810384528c818151815260200191508051906020019060200280838360005b8381101562000b9957808201518184015260208101905062000b7c565b5050505090500187810383528b818151815260200191508051906020019060200280838360005b8381101562000bdd57808201518184015260208101905062000bc0565b5050505090500187810382528a818151815260200191508051906020019080838360005b8381101562000c1e57808201518184015260208101905062000c01565b50505050905090810190601f16801562000c4c5780820380516001836020036101000a031916815260200191505b509f50505050505050505050505050505050604051809103906000f08015801562000c7b573d6000803e3d6000fd5b509050600280549050600360008373ffffffffffffffffffffffffffffffffffffffff1673ffffffffffffffffffffffffffffffffffffffff168152602001908152602001600020819055506002819080600181540180825580915050600190039060005260206000200160009091909190916101000a81548173ffffffffffffffffffffffffffffffffffffffff021916908373ffffffffffffffffffffffffffffffffffffffff1602179055508073ffffffffffffffffffffffffffffffffffffffff163373ffffffffffffffffffffffffffffffffffffffff167f06fc06f67fb05203b463f5748557476bb73e3e18256f04a7b63f31ae43a4c6f360405160405180910390a380915050979650505050505050565b60036020528060005260406000206000915090505481565b6141608062000dba8339019056fe60806040526000600760146101000a81548160ff02191690831515021790555060006008557fffffffffffffffffffffffffffffffffffffffffffffffffffffffffffffffff6009553480156200005557600080fd5b50604051620041603803806200416083398181016040526101208110156200007c57600080fd5b810190808051906020019092919080516040519392919084640100000000821115620000a757600080fd5b83820191506020820185811115620000be57600080fd5b8251866020820283011164010000000082111715620000dc57600080fd5b8083526020830192505050908051906020019060200280838360005b8381101562000115578082015181840152602081019050620000f8565b50505050905001604052602001805160405193929190846401000000008211156200013f57600080fd5b838201915060208201858111156200015657600080fd5b82518660208202830111640100000000821117156200017457600080fd5b8083526020830192505050908051906020019060200280838360005b83811015620001ad57808201518184015260208101905062000190565b5050505090500160405260200180516040519392919084640100000000821115620001d757600080fd5b83820191506020820185811115620001ee57600080fd5b82518660208202830111640100000000821117156200020c57600080fd5b8083526020830192505050908051906020019060200280838360005b838110156200024557808201518184015260208101905062000228565b50505050905001604052602001805160405193929190846401000000008211156200026f57600080fd5b838201915060208201858111156200028657600080fd5b8251866020820283011164010000000082111715620002a457600080fd5b8083526020830192505050908051906020019060200280838360005b83811015620002dd578082015181840152602081019050620002c0565b50505050905001604052602001805160405193929190846401000000008211156200030757600080fd5b838201915060208201858111156200031e57600080fd5b82518660208202830111640100000000821117156200033c57600080fd5b8083526020830192505050908051906020019060200280838360005b838110156200037557808201518184015260208101905062000358565b50505050905001604052602001805160405193929190846401000000008211156200039f57600080fd5b83820191506020820185811115620003b657600080fd5b8251866001820283011164010000000082111715620003d457600080fd5b8083526020830192505050908051906020019080838360005b838110156200040a578082015181840152602081019050620003ed565b50505050905090810190601f168015620004385780820380516001836020036101000a031916815260200191505b506040526020018051906020019092919080519060200190929190505050826200046f6301ffc9a760e01b6200072d60201b60201c565b62000480816200083660201b60201c565b6200049863d9b67a2660e01b6200072d60201b60201c565b620004b0630e89341c60e01b6200072d60201b60201c565b50620004d263bc197c8160e01b63f23a6e6160e01b186200072d60201b60201c565b88600460006101000a81548173ffffffffffffffffffffffffffffffffffffffff021916908373ffffffffffffffffffffffffffffffffffffffff16021790555081600660016101000a81548173ffffffffffffffffffffffffffffffffffffffff021916908373ffffffffffffffffffffffffffffffffffffffff16021790555080600760006101000a81548173ffffffffffffffffffffffffffffffffffffffff021916908373ffffffffffffffffffffffffffffffffffffffff16021790555060005b60328160ff1610156200071d578060ff1689511415620005d35780600660006101000a81548160ff021916908360ff1602179055506200071d565b6200061b888260ff1681518110620005e757fe5b60200260200101518a8360ff1681518110620005ff57fe5b60200260200101516200085260201b620026c51790919060201c565b6008600082825401925050819055506040518060a001604052808a8360ff16815181106200064557fe5b60200260200101518152602001898360ff16815181106200066257fe5b60200260200101518152602001888360ff16815181106200067f57fe5b60200260200101518152602001878360ff16815181106200069c57fe5b60200260200101518152602001868360ff1681518110620006b957fe5b6020026020010151815250600560008360ff1681526020019081526020016000206000820151816000015560208201518160010155604082015181600201556060820151816003015560808201518160040155905050808060010191505062000598565b5050505050505050505062000983565b63ffffffff60e01b817bffffffffffffffffffffffffffffffffffffffffffffffffffffffff19161415620007ca576040517f08c379a000000000000000000000000000000000000000000000000000000000815260040180806020018281038252601c8152602001807f4552433136353a20696e76616c696420696e746572666163652069640000000081525060200191505060405180910390fd5b6001600080837bffffffffffffffffffffffffffffffffffffffffffffffffffffffff19167bffffffffffffffffffffffffffffffffffffffffffffffffffffffff1916815260200190815260200160002060006101000a81548160ff02191690831515021790555050565b80600390805190602001906200084e929190620008dd565b5050565b600080831415620008675760009050620008d7565b60008284029050828482816200087957fe5b0414620008d2576040517f08c379a00000000000000000000000000000000000000000000000000000000081526004018080602001828103825260218152602001806200413f6021913960400191505060405180910390fd5b809150505b92915050565b828054600181600116156101000203166002900490600052602060002090601f016020900481019282601f106200092057805160ff191683800117855562000951565b8280016001018555821562000951579182015b828111156200095057825182559160200191906001019062000933565b5b50905062000960919062000964565b5090565b5b808211156200097f57600081600090555060010162000965565b5090565b6137ac80620009936000396000f3fe608060405234801561001057600080fd5b50600436106101415760003560e01c80638867596f116100b8578063c45a01551161007c578063c45a015514610a5e578063e118658b14610a92578063e985e9c514610ab3578063ed61cc9514610b2d578063f23a6e6114610b4b578063f242432a14610c4b57610141565b80638867596f146107ce5780638da5cb5b146107ec578063a22cb46514610820578063a27c282e14610870578063bc197c81146108c857610141565b80632495a5991161010a5780632495a599146103065780632eb2c2d61461033a5780634e1273f41461055d5780637145a6b2146106fe57806371e928af1461075c578063833ce3e1146107a057610141565b8062fdd58e1461014657806301ffc9a7146101a857806302fb0c5e1461020b5780630e89341c1461022b5780631d143848146102d2575b600080fd5b6101926004803603604081101561015c57600080fd5b81019080803573ffffffffffffffffffffffffffffffffffffffff16906020019092919080359060200190929190505050610d5a565b6040518082815260200191505060405180910390f35b6101f3600480360360208110156101be57600080fd5b8101908080357bffffffffffffffffffffffffffffffffffffffffffffffffffffffff19169060200190929190505050610e3a565b60405180821515815260200191505060405180910390f35b610213610ea1565b60405180821515815260200191505060405180910390f35b6102576004803603602081101561024157600080fd5b8101908080359060200190929190505050610eb4565b6040518080602001828103825283818151815260200191508051906020019080838360005b8381101561029757808201518184015260208101905061027c565b50505050905090810190601f1680156102c45780820380516001836020036101000a031916815260200191505b509250505060405180910390f35b6102da610f58565b604051808273ffffffffffffffffffffffffffffffffffffffff16815260200191505060405180910390f35b61030e610f7e565b604051808273ffffffffffffffffffffffffffffffffffffffff16815260200191505060405180910390f35b61055b600480360360a081101561035057600080fd5b81019080803573ffffffffffffffffffffffffffffffffffffffff169060200190929190803573ffffffffffffffffffffffffffffffffffffffff169060200190929190803590602001906401000000008111156103ad57600080fd5b8201836020820111156103bf57600080fd5b803590602001918460208302840111640100000000831117156103e157600080fd5b919080806020026020016040519081016040528093929190818152602001838360200280828437600081840152601f19601f8201169050808301925050505050505091929192908035906020019064010000000081111561044157600080fd5b82018360208201111561045357600080fd5b8035906020019184602083028401116401000000008311171561047557600080fd5b919080806020026020016040519081016040528093929190818152602001838360200280828437600081840152601f19601f820116905080830192505050505050509192919290803590602001906401000000008111156104d557600080fd5b8201836020820111156104e757600080fd5b8035906020019184600183028401116401000000008311171561050957600080fd5b91908080601f016020809104026020016040519081016040528093929190818152602001838380828437600081840152601f19601f820116905080830192505050505050509192919290505050610fa4565b005b6106a76004803603604081101561057357600080fd5b810190808035906020019064010000000081111561059057600080fd5b8201836020820111156105a257600080fd5b803590602001918460208302840111640100000000831117156105c457600080fd5b919080806020026020016040519081016040528093929190818152602001838360200280828437600081840152601f19601f8201169050808301925050505050505091929192908035906020019064010000000081111561062457600080fd5b82018360208201111561063657600080fd5b8035906020019184602083028401116401000000008311171561065857600080fd5b919080806020026020016040519081016040528093929190818152602001838360200280828437600081840152601f19601f82011690508083019250505050505050919291929050505061142f565b6040518080602001828103825283818151815260200191508051906020019060200280838360005b838110156106ea5780820151818401526020810190506106cf565b505050509050019250505060405180910390f35b61072a6004803603602081101561071457600080fd5b8101908080359060200190929190505050611541565b604051808681526020018581526020018481526020018381526020018281526020019550505050505060405180910390f35b61079e6004803603602081101561077257600080fd5b81019080803573ffffffffffffffffffffffffffffffffffffffff169060200190929190505050611577565b005b6107cc600480360360208110156107b657600080fd5b810190808035906020019092919050505061195b565b005b6107d6611ae8565b6040518082815260200191505060405180910390f35b6107f4611aee565b604051808273ffffffffffffffffffffffffffffffffffffffff16815260200191505060405180910390f35b61086e6004803603604081101561083657600080fd5b81019080803573ffffffffffffffffffffffffffffffffffffffff169060200190929190803515159060200190929190505050611b18565b005b6108c66004803603606081101561088657600080fd5b81019080803573ffffffffffffffffffffffffffffffffffffffff1690602001909291908035906020019092919080359060200190929190505050611cb1565b005b610a29600480360360a08110156108de57600080fd5b81019080803573ffffffffffffffffffffffffffffffffffffffff169060200190929190803573ffffffffffffffffffffffffffffffffffffffff1690602001909291908035906020019064010000000081111561093b57600080fd5b82018360208201111561094d57600080fd5b8035906020019184602083028401116401000000008311171561096f57600080fd5b90919293919293908035906020019064010000000081111561099057600080fd5b8201836020820111156109a257600080fd5b803590602001918460208302840111640100000000831117156109c457600080fd5b9091929391929390803590602001906401000000008111156109e557600080fd5b8201836020820111156109f757600080fd5b80359060200191846001830284011164010000000083111715610a1957600080fd5b909192939192939050505061217f565b60405180827bffffffffffffffffffffffffffffffffffffffffffffffffffffffff1916815260200191505060405180910390f35b610a666121ff565b604051808273ffffffffffffffffffffffffffffffffffffffff16815260200191505060405180910390f35b610a9a612225565b604051808260ff16815260200191505060405180910390f35b610b1560048036036040811015610ac957600080fd5b81019080803573ffffffffffffffffffffffffffffffffffffffff169060200190929190803573ffffffffffffffffffffffffffffffffffffffff169060200190929190505050612238565b60405180821515815260200191505060405180910390f35b610b356122cc565b6040518082815260200191505060405180910390f35b610c16600480360360a0811015610b6157600080fd5b81019080803573ffffffffffffffffffffffffffffffffffffffff169060200190929190803573ffffffffffffffffffffffffffffffffffffffff169060200190929190803590602001909291908035906020019092919080359060200190640100000000811115610bd257600080fd5b820183602082011115610be457600080fd5b80359060200191846001830284011164010000000083111715610c0657600080fd5b90919293919293905050506122d2565b60405180827bffffffffffffffffffffffffffffffffffffffffffffffffffffffff1916815260200191505060405180910390f35b610d58600480360360a0811015610c6157600080fd5b81019080803573ffffffffffffffffffffffffffffffffffffffff169060200190929190803573ffffffffffffffffffffffffffffffffffffffff169060200190929190803590602001909291908035906020019092919080359060200190640100000000811115610cd257600080fd5b820183602082011115610ce457600080fd5b80359060200191846001830284011164010000000083111715610d0657600080fd5b91908080601f016020809104026020016040519081016040528093929190818152602001838380828437600081840152601f19601f820116905080830192505050505050509192919290505050612350565b005b60008073ffffffffffffffffffffffffffffffffffffffff168373ffffffffffffffffffffffffffffffffffffffff161415610de1576040517f08c379a000000000000000000000000000000000000000000000000000000000815260040180806020018281038252602b81526020018061353e602b913960400191505060405180910390fd5b6001600083815260200190815260200160002060008473ffffffffffffffffffffffffffffffffffffffff1673ffffffffffffffffffffffffffffffffffffffff16815260200190815260200160002054905092915050565b6000806000837bffffffffffffffffffffffffffffffffffffffffffffffffffffffff19167bffffffffffffffffffffffffffffffffffffffffffffffffffffffff1916815260200190815260200160002060009054906101000a900460ff169050919050565b600760149054906101000a900460ff1681565b606060038054600181600116156101000203166002900480601f016020809104026020016040519081016040528092919081815260200182805460018160011615610100020316600290048015610f4c5780601f10610f2157610100808354040283529160200191610f4c565b820191906000526020600020905b815481529060010190602001808311610f2f57829003601f168201915b50505050509050919050565b600760009054906101000a900473ffffffffffffffffffffffffffffffffffffffff1681565b600460009054906101000a900473ffffffffffffffffffffffffffffffffffffffff1681565b8151835114610ffe576040517f08c379a00000000000000000000000000000000000000000000000000000000081526004018080602001828103825260288152602001806136df6028913960400191505060405180910390fd5b600073ffffffffffffffffffffffffffffffffffffffff168473ffffffffffffffffffffffffffffffffffffffff161415611084576040517f08c379a00000000000000000000000000000000000000000000000000000000081526004018080602001828103825260258152602001806135926025913960400191505060405180910390fd5b61108c61274b565b73ffffffffffffffffffffffffffffffffffffffff168573ffffffffffffffffffffffffffffffffffffffff1614806110d257506110d1856110cc61274b565b612238565b5b611127576040517f08c379a00000000000000000000000000000000000000000000000000000000081526004018080602001828103825260328152602001806135b76032913960400191505060405180910390fd5b600061113161274b565b9050611141818787878787612753565b60005b845181101561131257600085828151811061115b57fe5b60200260200101519050600085838151811061117357fe5b602002602001015190506111fa816040518060600160405280602a81526020016135e9602a91396001600086815260200190815260200160002060008d73ffffffffffffffffffffffffffffffffffffffff1673ffffffffffffffffffffffffffffffffffffffff1681526020019081526020016000205461275b9092919063ffffffff16565b6001600084815260200190815260200160002060008b73ffffffffffffffffffffffffffffffffffffffff1673ffffffffffffffffffffffffffffffffffffffff168152602001908152602001600020819055506112b1816001600085815260200190815260200160002060008b73ffffffffffffffffffffffffffffffffffffffff1673ffffffffffffffffffffffffffffffffffffffff1681526020019081526020016000205461281590919063ffffffff16565b6001600084815260200190815260200160002060008a73ffffffffffffffffffffffffffffffffffffffff1673ffffffffffffffffffffffffffffffffffffffff168152602001908152602001600020819055505050806001019050611144565b508473ffffffffffffffffffffffffffffffffffffffff168673ffffffffffffffffffffffffffffffffffffffff168273ffffffffffffffffffffffffffffffffffffffff167f4a39dc06d4c0dbc64b70af90fd698a233a518aa5d07e595d983b8c0526c8f7fb8787604051808060200180602001838103835285818151815260200191508051906020019060200280838360005b838110156113c25780820151818401526020810190506113a7565b50505050905001838103825284818151815260200191508051906020019060200280838360005b838110156114045780820151818401526020810190506113e9565b5050505090500194505050505060405180910390a461142781878787878761289d565b505050505050565b6060815183511461148b576040517f08c379a00000000000000000000000000000000000000000000000000000000081526004018080602001828103825260298152602001806136b66029913960400191505060405180910390fd5b6060835167ffffffffffffffff811180156114a557600080fd5b506040519080825280602002602001820160405280156114d45781602001602082028036833780820191505090505b50905060005b8451811015611536576115138582815181106114f257fe5b602002602001015185838151811061150657fe5b6020026020010151610d5a565b82828151811061151f57fe5b6020026020010181815250508060010190506114da565b508091505092915050565b60056020528060005260406000206000915090508060000154908060010154908060020154908060030154908060040154905085565b600760009054906101000a900473ffffffffffffffffffffffffffffffffffffffff1673ffffffffffffffffffffffffffffffffffffffff163373ffffffffffffffffffffffffffffffffffffffff161461161d576040517f08c379a000000000000000000000000000000000000000000000000000000000815260040180806020018281038252602c815260200180613707602c913960400191505060405180910390fd5b600760149054906101000a900460ff1615611683576040517f08c379a00000000000000000000000000000000000000000000000000000000081526004018080602001828103825260238152602001806137546023913960400191505060405180910390fd5b600460009054906101000a900473ffffffffffffffffffffffffffffffffffffffff1673ffffffffffffffffffffffffffffffffffffffff166323b872dd33306008546040518463ffffffff1660e01b8152600401808473ffffffffffffffffffffffffffffffffffffffff1681526020018373ffffffffffffffffffffffffffffffffffffffff1681526020018281526020019350505050602060405180830381600087803b15801561173657600080fd5b505af115801561174a573d6000803e3d6000fd5b505050506040513d602081101561176057600080fd5b8101908080519060200190929190505050506000600660019054906101000a900473ffffffffffffffffffffffffffffffffffffffff1673ffffffffffffffffffffffffffffffffffffffff1663017e7e586040518163ffffffff1660e01b815260040160206040518083038186803b1580156117dc57600080fd5b505afa1580156117f0573d6000803e3d6000fd5b505050506040513d602081101561180657600080fd5b81019080805190602001909291905050509050606060005b60328160ff16101561193a578060ff16600660009054906101000a900460ff1660ff16141561184c5761193a565b61185461335c565b600560008360ff1681526020019081526020016000206040518060a001604052908160008201548152602001600182015481526020016002820154815260200160038201548152602001600482015481525050905060008073ffffffffffffffffffffffffffffffffffffffff168573ffffffffffffffffffffffffffffffffffffffff1614611916576118f660648360000151612c2c90919063ffffffff16565b9050600081141561190657600190505b611915858460ff168387612cb5565b5b61192b868460ff168385600001510387612cb5565b5050808060010191505061181e565b506001600760146101000a81548160ff021916908315150217905550505050565b600760009054906101000a900473ffffffffffffffffffffffffffffffffffffffff1673ffffffffffffffffffffffffffffffffffffffff163373ffffffffffffffffffffffffffffffffffffffff1614611a01576040517f08c379a00000000000000000000000000000000000000000000000000000000081526004018080602001828103825260268152602001806136676026913960400191505060405180910390fd5b600954611a0c612eb8565b10611a7f576040517f08c379a00000000000000000000000000000000000000000000000000000000081526004018080602001828103825260208152602001807f47656e5469636b6574733a2054474520616c7265616479206f6363757272656481525060200191505060405180910390fd5b80611a88612eb8565b10611ade576040517f08c379a00000000000000000000000000000000000000000000000000000000081526004018080602001828103825260298152602001806135156029913960400191505060405180910390fd5b8060098190555050565b60095481565b6000600760009054906101000a900473ffffffffffffffffffffffffffffffffffffffff16905090565b8173ffffffffffffffffffffffffffffffffffffffff16611b3761274b565b73ffffffffffffffffffffffffffffffffffffffff161415611ba4576040517f08c379a000000000000000000000000000000000000000000000000000000000815260040180806020018281038252602981526020018061368d6029913960400191505060405180910390fd5b8060026000611bb161274b565b73ffffffffffffffffffffffffffffffffffffffff1673ffffffffffffffffffffffffffffffffffffffff16815260200190815260200160002060008473ffffffffffffffffffffffffffffffffffffffff1673ffffffffffffffffffffffffffffffffffffffff16815260200190815260200160002060006101000a81548160ff0219169083151502179055508173ffffffffffffffffffffffffffffffffffffffff16611c5e61274b565b73ffffffffffffffffffffffffffffffffffffffff167f17307eab39ab6107e8899845ad3d59bd9653f200f220920489ca2b5937696c318360405180821515815260200191505060405180910390a35050565b6000611cd8600660009054906101000a900460ff1660ff1684612ec090919063ffffffff16565b9050611ce261335c565b600560008381526020019081526020016000206040518060a0016040529081600082015481526020016001820154815260200160028201548152602001600382015481526020016004820154815250509050611d63600954611d55836060015184608001516126c590919063ffffffff16565b61281590919063ffffffff16565b611d6b612eb8565b11611dc1576040517f08c379a000000000000000000000000000000000000000000000000000000000815260040180806020018281038252602f8152602001806134bc602f913960400191505060405180910390fd5b6000611de8600660009054906101000a900460ff1660ff1686612c2c90919063ffffffff16565b9050611e41600954611e33611e0a8486608001516126c590919063ffffffff16565b611e25866060015187608001516126c590919063ffffffff16565b61281590919063ffffffff16565b61281590919063ffffffff16565b611e49612eb8565b11611e9f576040517f08c379a00000000000000000000000000000000000000000000000000000000081526004018080602001828103825260338152602001806136346033913960400191505060405180910390fd5b611eba82606001518360400151612f4990919063ffffffff16565b8110611f11576040517f08c379a000000000000000000000000000000000000000000000000000000000815260040180806020018281038252602a8152602001806134eb602a913960400191505060405180910390fd5b6000611f618360800151611f4a600954611f3c876060015188608001516126c590919063ffffffff16565b61281590919063ffffffff16565b611f52612eb8565b03612c2c90919063ffffffff16565b90508260400151811115611f7b5782604001519050611f9b565b60008111158015611f90575060008360600151145b15611f9a57600190505b5b6000611fbe84606001518560400151038560200151612c2c90919063ffffffff16565b90506000611fd98560000151836126c590919063ffffffff16565b90506000600185106120155761201285612004886000015189602001516126c590919063ffffffff16565b6126c590919063ffffffff16565b90505b60008161202b84876126c590919063ffffffff16565b03905061207033308c8c6040518060400160405280600281526020017f4a43000000000000000000000000000000000000000000000000000000000000815250612350565b600460009054906101000a900473ffffffffffffffffffffffffffffffffffffffff1673ffffffffffffffffffffffffffffffffffffffff1663a9059cbb8c836040518363ffffffff1660e01b8152600401808373ffffffffffffffffffffffffffffffffffffffff16815260200182815260200192505050602060405180830381600087803b15801561210357600080fd5b505af1158015612117573d6000803e3d6000fd5b505050506040513d602081101561212d57600080fd5b81019080805190602001909291905050505060606121718c61216a600660009054906101000a900460ff1660ff168e61281590919063ffffffff16565b8c84612cb5565b505050505050505050505050565b60006040518060400160405280600281526020017f4a43000000000000000000000000000000000000000000000000000000000000815250805190602001208383604051808383808284378083019250505092505050604051809103902014156121f25763bc197c8160e01b90506121f3565b5b98975050505050505050565b600660019054906101000a900473ffffffffffffffffffffffffffffffffffffffff1681565b600660009054906101000a900460ff1681565b6000600260008473ffffffffffffffffffffffffffffffffffffffff1673ffffffffffffffffffffffffffffffffffffffff16815260200190815260200160002060008373ffffffffffffffffffffffffffffffffffffffff1673ffffffffffffffffffffffffffffffffffffffff16815260200190815260200160002060009054906101000a900460ff16905092915050565b60085481565b60006040518060400160405280600281526020017f4a43000000000000000000000000000000000000000000000000000000000000815250805190602001208383604051808383808284378083019250505092505050604051809103902014156123455763f23a6e6160e01b9050612346565b5b9695505050505050565b600073ffffffffffffffffffffffffffffffffffffffff168473ffffffffffffffffffffffffffffffffffffffff1614156123d6576040517f08c379a00000000000000000000000000000000000000000000000000000000081526004018080602001828103825260258152602001806135926025913960400191505060405180910390fd5b6123de61274b565b73ffffffffffffffffffffffffffffffffffffffff168573ffffffffffffffffffffffffffffffffffffffff16148061242457506124238561241e61274b565b612238565b5b612479576040517f08c379a00000000000000000000000000000000000000000000000000000000081526004018080602001828103825260298152602001806135696029913960400191505060405180910390fd5b600061248361274b565b90506124a381878761249488612fcc565b61249d88612fcc565b87612753565b612520836040518060600160405280602a81526020016135e9602a91396001600088815260200190815260200160002060008a73ffffffffffffffffffffffffffffffffffffffff1673ffffffffffffffffffffffffffffffffffffffff1681526020019081526020016000205461275b9092919063ffffffff16565b6001600086815260200190815260200160002060008873ffffffffffffffffffffffffffffffffffffffff1673ffffffffffffffffffffffffffffffffffffffff168152602001908152602001600020819055506125d7836001600087815260200190815260200160002060008873ffffffffffffffffffffffffffffffffffffffff1673ffffffffffffffffffffffffffffffffffffffff1681526020019081526020016000205461281590919063ffffffff16565b6001600086815260200190815260200160002060008773ffffffffffffffffffffffffffffffffffffffff1673ffffffffffffffffffffffffffffffffffffffff168152602001908152602001600020819055508473ffffffffffffffffffffffffffffffffffffffff168673ffffffffffffffffffffffffffffffffffffffff168273ffffffffffffffffffffffffffffffffffffffff167fc3d58168c5ae7397731d063d5bbf3d657854427343f4c083240f7aacaa2d0f628787604051808381526020018281526020019250505060405180910390a46126bd81878787878761303c565b505050505050565b6000808314156126d85760009050612745565b60008284029050828482816126e957fe5b0414612740576040517f08c379a00000000000000000000000000000000000000000000000000000000081526004018080602001828103825260218152602001806136136021913960400191505060405180910390fd5b809150505b92915050565b600033905090565b505050505050565b6000838311158290612808576040517f08c379a00000000000000000000000000000000000000000000000000000000081526004018080602001828103825283818151815260200191508051906020019080838360005b838110156127cd5780820151818401526020810190506127b2565b50505050905090810190601f1680156127fa5780820380516001836020036101000a031916815260200191505b509250505060405180910390fd5b5082840390509392505050565b600080828401905083811015612893576040517f08c379a000000000000000000000000000000000000000000000000000000000815260040180806020018281038252601b8152602001807f536166654d6174683a206164646974696f6e206f766572666c6f77000000000081525060200191505060405180910390fd5b8091505092915050565b6128bc8473ffffffffffffffffffffffffffffffffffffffff16613349565b15612c24578373ffffffffffffffffffffffffffffffffffffffff1663bc197c8187878686866040518663ffffffff1660e01b8152600401808673ffffffffffffffffffffffffffffffffffffffff1681526020018573ffffffffffffffffffffffffffffffffffffffff168152602001806020018060200180602001848103845287818151815260200191508051906020019060200280838360005b83811015612974578082015181840152602081019050612959565b50505050905001848103835286818151815260200191508051906020019060200280838360005b838110156129b657808201518184015260208101905061299b565b50505050905001848103825285818151815260200191508051906020019080838360005b838110156129f55780820151818401526020810190506129da565b50505050905090810190601f168015612a225780820380516001836020036101000a031916815260200191505b5098505050505050505050602060405180830381600087803b158015612a4757600080fd5b505af1925050508015612a7b57506040513d6020811015612a6757600080fd5b810190808051906020019092919050505060015b612b8557612a876133a9565b80612a925750612b34565b806040517f08c379a00000000000000000000000000000000000000000000000000000000081526004018080602001828103825283818151815260200191508051906020019080838360005b83811015612af9578082015181840152602081019050612ade565b50505050905090810190601f168015612b265780820380516001836020036101000a031916815260200191505b509250505060405180910390fd5b6040517f08c379a00000000000000000000000000000000000000000000000000000000081526004018080602001828103825260348152602001806134606034913960400191505060405180910390fd5b63bc197c8160e01b7bffffffffffffffffffffffffffffffffffffffffffffffffffffffff1916817bffffffffffffffffffffffffffffffffffffffffffffffffffffffff191614612c22576040517f08c379a00000000000000000000000000000000000000000000000000000000081526004018080602001828103825260288152602001806134946028913960400191505060405180910390fd5b505b505050505050565b6000808211612ca3576040517f08c379a000000000000000000000000000000000000000000000000000000000815260040180806020018281038252601a8152602001807f536166654d6174683a206469766973696f6e206279207a65726f00000000000081525060200191505060405180910390fd5b818381612cac57fe5b04905092915050565b600073ffffffffffffffffffffffffffffffffffffffff168473ffffffffffffffffffffffffffffffffffffffff161415612d3b576040517f08c379a00000000000000000000000000000000000000000000000000000000081526004018080602001828103825260218152602001806137336021913960400191505060405180910390fd5b6000612d4561274b565b9050612d6681600087612d5788612fcc565b612d6088612fcc565b87612753565b612dc9836001600087815260200190815260200160002060008873ffffffffffffffffffffffffffffffffffffffff1673ffffffffffffffffffffffffffffffffffffffff1681526020019081526020016000205461281590919063ffffffff16565b6001600086815260200190815260200160002060008773ffffffffffffffffffffffffffffffffffffffff1673ffffffffffffffffffffffffffffffffffffffff168152602001908152602001600020819055508473ffffffffffffffffffffffffffffffffffffffff16600073ffffffffffffffffffffffffffffffffffffffff168273ffffffffffffffffffffffffffffffffffffffff167fc3d58168c5ae7397731d063d5bbf3d657854427343f4c083240f7aacaa2d0f628787604051808381526020018281526020019250505060405180910390a4612eb18160008787878761303c565b5050505050565b600042905090565b6000808211612f37576040517f08c379a00000000000000000000000000000000000000000000000000000000081526004018080602001828103825260188152602001807f536166654d6174683a206d6f64756c6f206279207a65726f000000000000000081525060200191505060405180910390fd5b818381612f4057fe5b06905092915050565b600082821115612fc1576040517f08c379a000000000000000000000000000000000000000000000000000000000815260040180806020018281038252601e8152602001807f536166654d6174683a207375627472616374696f6e206f766572666c6f77000081525060200191505060405180910390fd5b818303905092915050565b606080600167ffffffffffffffff81118015612fe757600080fd5b506040519080825280602002602001820160405280156130165781602001602082028036833780820191505090505b509050828160008151811061302757fe5b60200260200101818152505080915050919050565b61305b8473ffffffffffffffffffffffffffffffffffffffff16613349565b15613341578373ffffffffffffffffffffffffffffffffffffffff1663f23a6e6187878686866040518663ffffffff1660e01b8152600401808673ffffffffffffffffffffffffffffffffffffffff1681526020018573ffffffffffffffffffffffffffffffffffffffff16815260200184815260200183815260200180602001828103825283818151815260200191508051906020019080838360005b838110156131145780820151818401526020810190506130f9565b50505050905090810190601f1680156131415780820380516001836020036101000a031916815260200191505b509650505050505050602060405180830381600087803b15801561316457600080fd5b505af192505050801561319857506040513d602081101561318457600080fd5b810190808051906020019092919050505060015b6132a2576131a46133a9565b806131af5750613251565b806040517f08c379a00000000000000000000000000000000000000000000000000000000081526004018080602001828103825283818151815260200191508051906020019080838360005b838110156132165780820151818401526020810190506131fb565b50505050905090810190601f1680156132435780820380516001836020036101000a031916815260200191505b509250505060405180910390fd5b6040517f08c379a00000000000000000000000000000000000000000000000000000000081526004018080602001828103825260348152602001806134606034913960400191505060405180910390fd5b63f23a6e6160e01b7bffffffffffffffffffffffffffffffffffffffffffffffffffffffff1916817bffffffffffffffffffffffffffffffffffffffffffffffffffffffff19161461333f576040517f08c379a00000000000000000000000000000000000000000000000000000000081526004018080602001828103825260288152602001806134946028913960400191505060405180910390fd5b505b505050505050565b600080823b905060008111915050919050565b6040518060a0016040528060008152602001600081526020016000815260200160008152602001600081525090565b6000601f19601f8301169050919050565b60008160e01c9050919050565b600060443d10156133b95761345c565b60046000803e6133ca60005161339c565b6308c379a081146133db575061345c565b60405160043d036004823e80513d602482011167ffffffffffffffff821117156134075750505061345c565b808201805167ffffffffffffffff81111561342657505050505061345c565b8060208301013d85018111156134415750505050505061345c565b61344a8261338b565b60208401016040528296505050505050505b9056fe455243313135353a207472616e7366657220746f206e6f6e2045524331313535526563656976657220696d706c656d656e746572455243313135353a204552433131353552656365697665722072656a656374656420746f6b656e7347656e5469636b6574733a205469636b6574206973207374696c6c2077697468696e20636c69666620706572696f6447656e5469636b6574733a205469636b6574206861732072656465656d656420616c6c20746f6b656e7347656e5469636b6574733a204e657720544745206d75737420626520696e2074686520667574757265455243313135353a2062616c616e636520717565727920666f7220746865207a65726f2061646472657373455243313135353a2063616c6c6572206973206e6f74206f776e6572206e6f7220617070726f766564455243313135353a207472616e7366657220746f20746865207a65726f2061646472657373455243313135353a207472616e736665722063616c6c6572206973206e6f74206f776e6572206e6f7220617070726f766564455243313135353a20696e73756666696369656e742062616c616e636520666f72207472616e73666572536166654d6174683a206d756c7469706c69636174696f6e206f766572666c6f7747656e5469636b6574733a20546f6b656e7320666f722074686973207469636b657420617265206265696e672076657374656447656e5469636b6574733a204f6e6c79206973737565722063616e2075706461746520544745455243313135353a2073657474696e6720617070726f76616c2073746174757320666f722073656c66455243313135353a206163636f756e747320616e6420696473206c656e677468206d69736d61746368455243313135353a2069647320616e6420616d6f756e7473206c656e677468206d69736d6174636847656e5469636b6574733a204f6e6c79206973737565722063616e2069737375652074686520746f6b656e73455243313135353a206d696e7420746f20746865207a65726f206164647265737347656e5469636b6574733a20546f6b656e20697320616c726561647920616374697665a26469706673582212205cce5f4187619e1a32a5a98ff34b43c929b2d61d1e476f33ca97c8ea7eaadacb64736f6c634300060c0033536166654d6174683a206d756c7469706c69636174696f6e206f766572666c6f7747656e466163746f72793a204d4158204e554d424552204f46205449434b455453a2646970667358221220e15addd450e80962644cafdad0a8948871f9f55683393841ed55e27e83833fbe64736f6c634300060c0033",
    "immutableReferences": {},
    "source": "pragma solidity 0.6.12;\n\nimport {GenTickets} from \"./GenTickets.sol\";\nimport './interfaces/IGenFactory.sol';\nimport \"@openzeppelin/contracts/math/SafeMath.sol\";\nimport \"@openzeppelin/contracts/token/ERC20/IERC20.sol\";\n\n//A: where GenTickets is connected to - create Gen ticket is connected to here\ncontract GenFactory is IGenFactory {\n    using SafeMath for uint;\n    \n    // Address that receives fees\n    address public override feeTo;\n    \n    // Address that gets to set the feeTo address\n    address public override feeToSetter;\n    \n    // List of genToken addresses\n    address[] public override genTickets;\n    \n    mapping(address => uint) public override getGenTicket;\n    \n    event TicketCreated(address indexed caller, address indexed genTicket);\n    \n    function genTicketsLength() external override view returns (uint) {\n        return genTickets.length;\n    }\n    \n    constructor(address _feeToSetter) public {\n        feeToSetter = _feeToSetter;\n    }\n\n    //A: when you click lock after filling in datas to create ticket\n    function createGenTicket(\n        address _underlyingToken, \n        uint256[] memory _numTickets,\n        uint256[] memory _ticketSizes,\n        uint[] memory _totalTranches,\n        uint[] memory _cliffTranches,\n        uint[] memory _trancheLength,\n        string memory _uri\n    ) external override returns (address) {\n        require(_numTickets.length < 10, 'GenFactory: MAX NUMBER OF TICKETS');\n        require(_numTickets.length == _ticketSizes.length && \n        _ticketSizes.length == _totalTranches.length &&\n        _totalTranches.length == _cliffTranches.length &&\n        _cliffTranches.length == _trancheLength.length, 'GenFactory: ARRAY SIZE MISMATCH');\n        //address issuer = msg.sender;\n        //A: creating a new ticket //this GenFactory is mainly creating new contract on chain - GenTickets contract (ERC1155) \n        GenTickets gt = new GenTickets(_underlyingToken, _numTickets, _ticketSizes, _totalTranches, _cliffTranches, _trancheLength, _uri, this, msg.sender);\n        // Populate mapping\n        getGenTicket[address(gt)] = genTickets.length;\n        // Add to list\n        genTickets.push(address(gt));\n        emit TicketCreated(msg.sender, address(gt));\n        \n        return address(gt);\n    }\n    \n    function setFeeTo(address _feeTo) external override {\n        require(msg.sender == feeToSetter, 'GenFactory: FORBIDDEN');\n        feeTo = _feeTo;\n    }\n    \n    function setFeeToSetter(address _feeToSetter) external override {\n        require(msg.sender == feeToSetter, 'GenFactory: FORBIDDEN');\n        feeToSetter = _feeToSetter;\n    }\n}",
    "sourcePath": "/Users/52150749/My_Repo/genesis-shards/contracts/GenFactory.sol",
    "compiler": {
        "name": "solc",
        "version": "0.6.12+commit.27d51765.Emscripten.clang"
    },
    "schemaVersion": "3.4.3",
    "updatedAt": "2021-09-29T13:04:42.791Z",
    "networkType": "ethereum",
    "devdoc": {
        "kind": "dev",
        "methods": {},
        "version": 1
    },
    "userdoc": {
        "kind": "user",
        "methods": {},
        "version": 1
    }
}