{
  "contractName": "GenIDO",
  "abi": [
    {
      "anonymous": false,
      "inputs": [
        {
          "indexed": false,
          "internalType": "uint8",
          "name": "version",
          "type": "uint8"
        }
      ],
      "name": "Initialized",
      "type": "event"
    },
    {
      "anonymous": false,
      "inputs": [
        {
          "indexed": true,
          "internalType": "address",
          "name": "_user",
          "type": "address"
        },
        {
          "indexed": false,
          "internalType": "uint256",
          "name": "_amount",
          "type": "uint256"
        },
        {
          "indexed": false,
          "internalType": "bool",
          "name": "_nft",
          "type": "bool"
        }
      ],
      "name": "allocationBought",
      "type": "event"
    },
    {
      "anonymous": false,
      "inputs": [
        {
          "indexed": true,
          "internalType": "address",
          "name": "_user",
          "type": "address"
        },
        {
          "indexed": true,
          "internalType": "uint256",
          "name": "_amount",
          "type": "uint256"
        }
      ],
      "name": "claimed",
      "type": "event"
    },
    {
      "anonymous": false,
      "inputs": [
        {
          "indexed": false,
          "internalType": "bool",
          "name": "_active",
          "type": "bool"
        }
      ],
      "name": "idoSaleStausFlipped",
      "type": "event"
    },
    {
      "anonymous": false,
      "inputs": [
        {
          "indexed": false,
          "internalType": "uint256",
          "name": "_timestamp",
          "type": "uint256"
        }
      ],
      "name": "saleStartTimeUpdated",
      "type": "event"
    },
    {
      "inputs": [],
      "name": "TGE",
      "outputs": [
        {
          "internalType": "uint256",
          "name": "",
          "type": "uint256"
        }
      ],
      "stateMutability": "view",
      "type": "function"
    },
    {
      "inputs": [],
      "name": "active",
      "outputs": [
        {
          "internalType": "bool",
          "name": "",
          "type": "bool"
        }
      ],
      "stateMutability": "view",
      "type": "function"
    },
    {
      "inputs": [
        {
          "internalType": "address",
          "name": "",
          "type": "address"
        }
      ],
      "name": "blacklist",
      "outputs": [
        {
          "internalType": "bool",
          "name": "",
          "type": "bool"
        }
      ],
      "stateMutability": "view",
      "type": "function"
    },
    {
      "inputs": [
        {
          "internalType": "uint256",
          "name": "_pay",
          "type": "uint256"
        },
        {
          "internalType": "uint256",
          "name": "_staked",
          "type": "uint256"
        }
      ],
      "name": "buyAnAllocation",
      "outputs": [],
      "stateMutability": "nonpayable",
      "type": "function"
    },
    {
      "inputs": [],
      "name": "flipIDOStatus",
      "outputs": [],
      "stateMutability": "nonpayable",
      "type": "function"
    },
    {
      "inputs": [],
      "name": "getAmountRaised",
      "outputs": [
        {
          "internalType": "uint256",
          "name": "amountRaised",
          "type": "uint256"
        }
      ],
      "stateMutability": "view",
      "type": "function"
    },
    {
      "inputs": [],
      "name": "getProjectInfo",
      "outputs": [
        {
          "internalType": "contract IERC20Extented",
          "name": "_underlyingToken",
          "type": "address"
        },
        {
          "internalType": "contract IERC20Extented",
          "name": "_usdt",
          "type": "address"
        },
        {
          "internalType": "uint256",
          "name": "_totalTokensAllocated",
          "type": "uint256"
        },
        {
          "internalType": "uint256",
          "name": "_tokenRate",
          "type": "uint256"
        },
        {
          "internalType": "uint256",
          "name": "_guranteedSaleDuration",
          "type": "uint256"
        },
        {
          "internalType": "uint256",
          "name": "_minTokenAllocationPermitted",
          "type": "uint256"
        },
        {
          "internalType": "uint256",
          "name": "_maxTokenAllocationPermitted",
          "type": "uint256"
        },
        {
          "internalType": "uint256[]",
          "name": "_maxTokenAllocPerUserPerTier",
          "type": "uint256[]"
        },
        {
          "internalType": "uint256[]",
          "name": "_trancheLength",
          "type": "uint256[]"
        },
        {
          "internalType": "uint256[]",
          "name": "_trancheWeightage",
          "type": "uint256[]"
        }
      ],
      "stateMutability": "view",
      "type": "function"
    },
    {
      "inputs": [],
      "name": "getTokensInfo",
      "outputs": [
        {
          "internalType": "uint256",
          "name": "_tokensSold",
          "type": "uint256"
        },
        {
          "internalType": "uint256",
          "name": "_tokensDepositedByAdmin",
          "type": "uint256"
        },
        {
          "internalType": "uint256",
          "name": "_tokensWithdrawnByAdmin",
          "type": "uint256"
        }
      ],
      "stateMutability": "view",
      "type": "function"
    },
    {
      "inputs": [
        {
          "internalType": "address",
          "name": "_underlyingToken",
          "type": "address"
        },
        {
          "internalType": "uint256",
          "name": "_totalTokenAllocation",
          "type": "uint256"
        },
        {
          "internalType": "uint256[]",
          "name": "_maxTokenAllocPerUserPerTier",
          "type": "uint256[]"
        },
        {
          "internalType": "uint256",
          "name": "_maxTokenAllocationPermitted",
          "type": "uint256"
        },
        {
          "internalType": "uint256",
          "name": "_tokenPerUsd",
          "type": "uint256"
        },
        {
          "internalType": "address",
          "name": "_usdt",
          "type": "address"
        },
        {
          "internalType": "uint256[]",
          "name": "_trancheWeightage",
          "type": "uint256[]"
        },
        {
          "internalType": "uint256[]",
          "name": "_trancheLength",
          "type": "uint256[]"
        },
        {
          "internalType": "uint256",
          "name": "_guranteedSaleDuration",
          "type": "uint256"
        }
      ],
      "name": "initialize1",
      "outputs": [],
      "stateMutability": "nonpayable",
      "type": "function"
    },
    {
      "inputs": [],
      "name": "issuer",
      "outputs": [
        {
          "internalType": "address",
          "name": "",
          "type": "address"
        }
      ],
      "stateMutability": "view",
      "type": "function"
    },
    {
      "inputs": [
        {
          "internalType": "address",
          "name": "",
          "type": "address"
        }
      ],
      "name": "purchases",
      "outputs": [
        {
          "internalType": "uint112",
          "name": "tokenAllocationBought",
          "type": "uint112"
        },
        {
          "internalType": "uint112",
          "name": "position",
          "type": "uint112"
        }
      ],
      "stateMutability": "view",
      "type": "function"
    },
    {
      "inputs": [],
      "name": "redeem",
      "outputs": [],
      "stateMutability": "nonpayable",
      "type": "function"
    },
    {
      "inputs": [
        {
          "internalType": "address[]",
          "name": "addresses",
          "type": "address[]"
        },
        {
          "internalType": "bool",
          "name": "blackListOn",
          "type": "bool"
        }
      ],
      "name": "setBlackList",
      "outputs": [],
      "stateMutability": "nonpayable",
      "type": "function"
    },
    {
      "inputs": [],
      "name": "startTime",
      "outputs": [
        {
          "internalType": "uint256",
          "name": "",
          "type": "uint256"
        }
      ],
      "stateMutability": "view",
      "type": "function"
    },
    {
      "inputs": [
        {
          "internalType": "uint256",
          "name": "_amount",
          "type": "uint256"
        }
      ],
      "name": "submitTokens",
      "outputs": [],
      "stateMutability": "nonpayable",
      "type": "function"
    },
    {
      "inputs": [
        {
          "internalType": "address",
          "name": "",
          "type": "address"
        },
        {
          "internalType": "uint256",
          "name": "",
          "type": "uint256"
        }
      ],
      "name": "tokensBought",
      "outputs": [
        {
          "internalType": "uint256",
          "name": "",
          "type": "uint256"
        }
      ],
      "stateMutability": "view",
      "type": "function"
    },
    {
      "inputs": [
        {
          "internalType": "uint256",
          "name": "timestamp",
          "type": "uint256"
        }
      ],
      "name": "updateStartTime",
      "outputs": [],
      "stateMutability": "nonpayable",
      "type": "function"
    },
    {
      "inputs": [
        {
          "internalType": "uint256",
          "name": "timestamp",
          "type": "uint256"
        }
      ],
      "name": "updateTGE",
      "outputs": [],
      "stateMutability": "nonpayable",
      "type": "function"
    },
    {
      "inputs": [
        {
          "internalType": "uint256",
          "name": "_amount",
          "type": "uint256"
        }
      ],
      "name": "withdrawTokens",
      "outputs": [],
      "stateMutability": "nonpayable",
      "type": "function"
    }
  ],
  "bytecode": "0x60806040526000600760146101000a81548160ff0219169083151502179055507fffffffffffffffffffffffffffffffffffffffffffffffffffffffffffffffff6008557fffffffffffffffffffffffffffffffffffffffffffffffffffffffffffffffff6011553480156200007457600080fd5b50604051620051413803806200514183398181016040528101906200009a91906200077b565b8a6000806101000a81548173ffffffffffffffffffffffffffffffffffffffff021916908373ffffffffffffffffffffffffffffffffffffffff16021790555089600a8190555088600160006101000a81548173ffffffffffffffffffffffffffffffffffffffff021916908373ffffffffffffffffffffffffffffffffffffffff16021790555087600590805190602001906200013a92919062000621565b5086600490805190602001906200015392919062000621565b5085600390805190602001906200016c92919062000621565b5084600290805190602001906200018592919062000621565b508260188190555081600660006101000a81548173ffffffffffffffffffffffffffffffffffffffff021916908373ffffffffffffffffffffffffffffffffffffffff16021790555080600760006101000a81548173ffffffffffffffffffffffffffffffffffffffff021916908373ffffffffffffffffffffffffffffffffffffffff16021790555060008054906101000a900473ffffffffffffffffffffffffffffffffffffffff1673ffffffffffffffffffffffffffffffffffffffff1663313ce5676040518163ffffffff1660e01b815260040160206040518083038186803b1580156200027657600080fd5b505afa1580156200028b573d6000803e3d6000fd5b505050506040513d601f19601f82011682018060405250810190620002b19190620008e6565b60ff16601981905550600160009054906101000a900473ffffffffffffffffffffffffffffffffffffffff1673ffffffffffffffffffffffffffffffffffffffff1663313ce5676040518163ffffffff1660e01b815260040160206040518083038186803b1580156200032357600080fd5b505afa15801562000338573d6000803e3d6000fd5b505050506040513d601f19601f820116820180604052508101906200035e9190620008e6565b60ff16601a8190555060005b6032811015620003e7578060058054905014156200038857620003e7565b620003ca8982815181106200039957fe5b6020026020010151898381518110620003ae57fe5b60200260200101516200055160201b62002b191790919060201c565b600b6000828254019250508190555080806001019150506200036a565b50620004616200040d601a54600a0a600b54620005c760201b62002b891790919060201c565b6200044d670de0b6b3a764000062000439601954600a0a8f620005c760201b62002b891790919060201c565b6200055160201b62002b191790919060201c565b620005c760201b62002b891790919060201c565b600f8190555060026005600160058054905003815481106200047f57fe5b9060005260206000200154816200049257fe5b04600c81905550620004f06064620004dc670de0b6b3a7640000620004c888600b546200055160201b62002b191790919060201c565b620005c760201b62002b891790919060201c565b620005c760201b62002b891790919060201c565b600d81905550600c54600d54101562000540576040517f08c379a0000000000000000000000000000000000000000000000000000000008152600401620005379062000a4a565b60405180910390fd5b505050505050505050505062000bdf565b600080831415620005665760009050620005c1565b60008284029050828482816200057857fe5b0414620005bc576040517f08c379a0000000000000000000000000000000000000000000000000000000008152600401620005b39062000a8e565b60405180910390fd5b809150505b92915050565b60008082116200060e576040517f08c379a0000000000000000000000000000000000000000000000000000000008152600401620006059062000a6c565b60405180910390fd5b8183816200061857fe5b04905092915050565b82805482825590600052602060002090810192821562000660579160200282015b828111156200065f57825182559160200191906001019062000642565b5b5090506200066f919062000673565b5090565b5b808211156200068e57600081600090555060010162000674565b5090565b600081519050620006a38162000b77565b92915050565b600082601f830112620006bb57600080fd5b8151620006d2620006cc8262000ade565b62000ab0565b91508181835260208401935060208101905083856020840282011115620006f857600080fd5b60005b838110156200072c57816200071188826200074d565b845260208401935060208301925050600181019050620006fb565b5050505092915050565b600081519050620007478162000b91565b92915050565b6000815190506200075e8162000bab565b92915050565b600081519050620007758162000bc5565b92915050565b60008060008060008060008060008060006101608c8e0312156200079e57600080fd5b6000620007ae8e828f0162000692565b9b50506020620007c18e828f016200074d565b9a50506040620007d48e828f0162000692565b99505060608c015167ffffffffffffffff811115620007f257600080fd5b620008008e828f01620006a9565b98505060808c015167ffffffffffffffff8111156200081e57600080fd5b6200082c8e828f01620006a9565b97505060a08c015167ffffffffffffffff8111156200084a57600080fd5b620008588e828f01620006a9565b96505060c08c015167ffffffffffffffff8111156200087657600080fd5b620008848e828f01620006a9565b95505060e0620008978e828f016200074d565b945050610100620008ab8e828f016200074d565b935050610120620008bf8e828f0162000736565b925050610140620008d38e828f0162000692565b9150509295989b509295989b9093969950565b600060208284031215620008f957600080fd5b6000620009098482850162000764565b91505092915050565b600062000921604b8362000b07565b91507f47656e49444f3a204d617820616c6c6f636174696f6e20616c6c6f776564207360008301527f686f756c642062652067726561746572206f7220657175616c20746f206d696e60208301527f20616c6c6f636174696f6e0000000000000000000000000000000000000000006040830152606082019050919050565b6000620009af601a8362000b07565b91507f536166654d6174683a206469766973696f6e206279207a65726f0000000000006000830152602082019050919050565b6000620009f160218362000b07565b91507f536166654d6174683a206d756c7469706c69636174696f6e206f766572666c6f60008301527f77000000000000000000000000000000000000000000000000000000000000006020830152604082019050919050565b6000602082019050818103600083015262000a658162000912565b9050919050565b6000602082019050818103600083015262000a8781620009a0565b9050919050565b6000602082019050818103600083015262000aa981620009e2565b9050919050565b6000604051905081810181811067ffffffffffffffff8211171562000ad457600080fd5b8060405250919050565b600067ffffffffffffffff82111562000af657600080fd5b602082029050602081019050919050565b600082825260208201905092915050565b600062000b258262000b40565b9050919050565b600062000b398262000b18565b9050919050565b600073ffffffffffffffffffffffffffffffffffffffff82169050919050565b6000819050919050565b600060ff82169050919050565b62000b828162000b18565b811462000b8e57600080fd5b50565b62000b9c8162000b2c565b811462000ba857600080fd5b50565b62000bb68162000b60565b811462000bc257600080fd5b50565b62000bd08162000b6a565b811462000bdc57600080fd5b50565b6145528062000bef6000396000f3fe608060405234801561001057600080fd5b506004361061021c5760003560e01c80636f9fb98a116101255780638f85a043116100ad578063b5f5a3a21161007c578063b5f5a3a2146105b5578063bbc517fc146105d3578063c45a0155146105f1578063ee7c0db01461060f578063f9f92be41461062d5761021c565b80638f85a0431461054157806395a2251f1461055d578063a1e98a6d14610579578063a9e133ef146105975761021c565b80637c4b414d116100f45780637c4b414d146104ac578063833ce3e1146104b6578063842a77d3146104d25780638867596f146105055780638899a646146105235761021c565b80636f9fb98a14610433578063715c25e41461045257806378e97925146104705780637919c2701461048e5761021c565b80632d57795c116101a857806350642b421161017757806350642b421461038d57806351d51e4d146103ab57806356531e7e146103c95780635d726641146103f95780636d1af018146104155761021c565b80632d57795c146103195780632f48ab7d14610337578063315a095d146103555780633f875190146103715761021c565b8063195ec9ee116101ef578063195ec9ee146102835780631d143848146102a157806320ae0f54146102bf5780632495a599146102dd5780632b070733146102fb5761021c565b806302fb0c5e14610221578063034b306a1461023f57806306bcf02f1461025d5780630bd0ffb014610279575b600080fd5b61022961065d565b6040516102369190613ded565b60405180910390f35b610247610670565b6040516102549190613d65565b60405180910390f35b61027760048036038101906102729190612e85565b6106fe565b005b61028161082c565b005b61028b610a58565b6040516102989190613d65565b60405180910390f35b6102a9610ae6565b6040516102b69190613ca6565b60405180910390f35b6102c7610b0c565b6040516102d49190613d87565b60405180910390f35b6102e5610bd5565b6040516102f29190613e08565b60405180910390f35b610303610bf9565b604051610310919061423e565b60405180910390f35b610321610bff565b60405161032e919061423e565b60405180910390f35b61033f610c05565b60405161034c9190613e08565b60405180910390f35b61036f600480360381019061036a9190612e85565b610c2b565b005b61038b60048036038101906103869190612ed7565b610de9565b005b61039561183a565b6040516103a29190613dcb565b60405180910390f35b6103b3611892565b6040516103c09190613da9565b60405180910390f35b6103e360048036038101906103de9190612e85565b611951565b6040516103f0919061423e565b60405180910390f35b610413600480360381019061040e9190612e85565b611972565b005b61041d611ba0565b60405161042a919061423e565b60405180910390f35b61043b611c06565b604051610449929190614259565b60405180910390f35b61045a611d65565b604051610467919061423e565b60405180910390f35b610478611d6b565b604051610485919061423e565b60405180910390f35b610496611d71565b6040516104a39190613d65565b60405180910390f35b6104b4611dff565b005b6104d060048036038101906104cb9190612e85565b61209b565b005b6104ec60048036038101906104e79190612ddf565b6121c9565b6040516104fc9493929190614282565b60405180910390f35b61050d6121f9565b60405161051a919061423e565b60405180910390f35b61052b6121ff565b6040516105389190613dcb565b60405180910390f35b61055b60048036038101906105569190612e08565b612257565b005b61057760048036038101906105729190612ddf565b612443565b005b610581612a5f565b60405161058e919061423e565b60405180910390f35b61059f612a65565b6040516105ac919061423e565b60405180910390f35b6105bd612a6b565b6040516105ca919061423e565b60405180910390f35b6105db612a71565b6040516105e89190613dcb565b60405180910390f35b6105f9612ac9565b6040516106069190613e23565b60405180910390f35b610617612aef565b604051610624919061423e565b60405180910390f35b61064760048036038101906106429190612ddf565b612af9565b6040516106549190613ded565b60405180910390f35b600760149054906101000a900460ff1681565b606060178054806020026020016040519081016040528092919081815260200182805480156106f457602002820191906000526020600020905b8160009054906101000a900473ffffffffffffffffffffffffffffffffffffffff1673ffffffffffffffffffffffffffffffffffffffff16815260200190600101908083116106aa575b5050505050905090565b600760009054906101000a900473ffffffffffffffffffffffffffffffffffffffff1673ffffffffffffffffffffffffffffffffffffffff163373ffffffffffffffffffffffffffffffffffffffff161461078e576040517f08c379a000000000000000000000000000000000000000000000000000000000815260040161078590613f3e565b60405180910390fd5b601154610799612bdf565b106107d9576040517f08c379a00000000000000000000000000000000000000000000000000000000081526004016107d09061417e565b60405180910390fd5b806107e2612bdf565b10610822576040517f08c379a0000000000000000000000000000000000000000000000000000000008152600401610819906140be565b60405180910390fd5b8060118190555050565b600760009054906101000a900473ffffffffffffffffffffffffffffffffffffffff1673ffffffffffffffffffffffffffffffffffffffff163373ffffffffffffffffffffffffffffffffffffffff16146108bc576040517f08c379a00000000000000000000000000000000000000000000000000000000081526004016108b3906141be565b60405180910390fd5b600760149054906101000a900460ff1615610a2c57600160009054906101000a900473ffffffffffffffffffffffffffffffffffffffff1673ffffffffffffffffffffffffffffffffffffffff1663a9059cbb33600160009054906101000a900473ffffffffffffffffffffffffffffffffffffffff1673ffffffffffffffffffffffffffffffffffffffff166370a08231306040518263ffffffff1660e01b815260040161096b9190613ca6565b60206040518083038186803b15801561098357600080fd5b505afa158015610997573d6000803e3d6000fd5b505050506040513d601f19601f820116820180604052508101906109bb9190612eae565b6040518363ffffffff1660e01b81526004016109d8929190613d13565b602060405180830381600087803b1580156109f257600080fd5b505af1158015610a06573d6000803e3d6000fd5b505050506040513d601f19601f82011682018060405250810190610a2a9190612e5c565b505b600760149054906101000a900460ff1615600760146101000a81548160ff021916908315150217905550565b60606015805480602002602001604051908101604052809291908181526020018280548015610adc57602002820191906000526020600020905b8160009054906101000a900473ffffffffffffffffffffffffffffffffffffffff1673ffffffffffffffffffffffffffffffffffffffff1681526020019060010190808311610a92575b5050505050905090565b600760009054906101000a900473ffffffffffffffffffffffffffffffffffffffff1681565b60606012805480602002602001604051908101604052809291908181526020016000905b82821015610bcc57838290600052602060002090600302016040518060600160405290816000820160009054906101000a900473ffffffffffffffffffffffffffffffffffffffff1673ffffffffffffffffffffffffffffffffffffffff1673ffffffffffffffffffffffffffffffffffffffff1681526020016001820154815260200160028201548152505081526020019060010190610b30565b50505050905090565b60008054906101000a900473ffffffffffffffffffffffffffffffffffffffff1681565b600b5481565b600c5481565b600160009054906101000a900473ffffffffffffffffffffffffffffffffffffffff1681565b60008054906101000a900473ffffffffffffffffffffffffffffffffffffffff1673ffffffffffffffffffffffffffffffffffffffff166370a08231306040518263ffffffff1660e01b8152600401610c849190613ca6565b60206040518083038186803b158015610c9c57600080fd5b505afa158015610cb0573d6000803e3d6000fd5b505050506040513d601f19601f82011682018060405250810190610cd49190612eae565b811115610d16576040517f08c379a0000000000000000000000000000000000000000000000000000000008152600401610d0d9061407e565b60405180910390fd5b60008054906101000a900473ffffffffffffffffffffffffffffffffffffffff1673ffffffffffffffffffffffffffffffffffffffff1663a9059cbb600760009054906101000a900473ffffffffffffffffffffffffffffffffffffffff16836040518363ffffffff1660e01b8152600401610d93929190613d3c565b602060405180830381600087803b158015610dad57600080fd5b505af1158015610dc1573d6000803e3d6000fd5b505050506040513d601f19601f82011682018060405250810190610de59190612e5c565b5050565b60008211610e2c576040517f08c379a0000000000000000000000000000000000000000000000000000000008152600401610e239061419e565b60405180910390fd5b600760149054906101000a900460ff16610e7b576040517f08c379a0000000000000000000000000000000000000000000000000000000008152600401610e7290613fde565b60405180910390fd5b601154610e86612bdf565b1015610ec7576040517f08c379a0000000000000000000000000000000000000000000000000000000008152600401610ebe9061401e565b60405180910390fd5b600a54610f3b610f2a601a54600a0a610f1c601954600a0a610f0e670de0b6b3a7640000610f00600f548b612b1990919063ffffffff16565b612b8990919063ffffffff16565b612b1990919063ffffffff16565b612b8990919063ffffffff16565b600e54612be790919063ffffffff16565b1115610f7c576040517f08c379a0000000000000000000000000000000000000000000000000000000008152600401610f739061413e565b60405180910390fd5b600069065a4da25d3016c000008210610f98576000905061106f565b69032d26d12e980b6000008210158015610fbb575069065a4da25d3016c0000082105b15610fc9576001905061106e565b6901969368974c05b000008210158015610fec575069032d26d12e980b60000082105b15610ffa576002905061106d565b686c6b935b8bbd400000821015801561101c57506901969368974c05b0000082105b1561102a576003905061106c565b600161106b576040517f08c379a000000000000000000000000000000000000000000000000000000000815260040161106290613f5e565b60405180910390fd5b5b5b5b5b600c546110c784601460003373ffffffffffffffffffffffffffffffffffffffff1673ffffffffffffffffffffffffffffffffffffffff16815260200190815260200160002060000154612be790919063ffffffff16565b1015611108576040517f08c379a00000000000000000000000000000000000000000000000000000000081526004016110ff9061403e565b60405180910390fd5b61111f601854601154612be790919063ffffffff16565b611127612bdf565b10611394576005818154811061113957fe5b906000526020600020015461119984601460003373ffffffffffffffffffffffffffffffffffffffff1673ffffffffffffffffffffffffffffffffffffffff16815260200190815260200160002060000154612be790919063ffffffff16565b11156111da576040517f08c379a00000000000000000000000000000000000000000000000000000000081526004016111d190613f9e565b60405180910390fd5b600c54601460003373ffffffffffffffffffffffffffffffffffffffff1673ffffffffffffffffffffffffffffffffffffffff1681526020019081526020016000206000015410156112ce576016339080600181540180825580915050600190039060005260206000200160009091909190916101000a81548173ffffffffffffffffffffffffffffffffffffffff021916908373ffffffffffffffffffffffffffffffffffffffff16021790555080601060003373ffffffffffffffffffffffffffffffffffffffff1673ffffffffffffffffffffffffffffffffffffffff168152602001908152602001600020819055505b6112d6612c8c565b60405180606001604052803373ffffffffffffffffffffffffffffffffffffffff168152602001858152602001838152509050601281908060018154018082558091505060019003906000526020600020906003020160009091909190915060008201518160000160006101000a81548173ffffffffffffffffffffffffffffffffffffffff021916908373ffffffffffffffffffffffffffffffffffffffff16021790555060208201518160010155604082015181600201555050505b600d546113ec84601460003373ffffffffffffffffffffffffffffffffffffffff1673ffffffffffffffffffffffffffffffffffffffff16815260200190815260200160002060000154612be790919063ffffffff16565b111561142d576040517f08c379a000000000000000000000000000000000000000000000000000000000815260040161142490613e9e565b60405180910390fd5b600c54601460003373ffffffffffffffffffffffffffffffffffffffff1673ffffffffffffffffffffffffffffffffffffffff1681526020019081526020016000206000015410156114dd576015339080600181540180825580915050600190039060005260206000200160009091909190916101000a81548173ffffffffffffffffffffffffffffffffffffffff021916908373ffffffffffffffffffffffffffffffffffffffff1602179055505b6114e5612cc3565b60405180604001604052803373ffffffffffffffffffffffffffffffffffffffff168152602001858152509050601381908060018154018082558091505060019003906000526020600020906002020160009091909190915060008201518160000160006101000a81548173ffffffffffffffffffffffffffffffffffffffff021916908373ffffffffffffffffffffffffffffffffffffffff16021790555060208201518160010155505083601460003373ffffffffffffffffffffffffffffffffffffffff1673ffffffffffffffffffffffffffffffffffffffff1681526020019081526020016000206000016000828254019250508190555061163e601a54600a0a611630601954600a0a611622670de0b6b3a7640000611614600f548b612b1990919063ffffffff16565b612b8990919063ffffffff16565b612b1990919063ffffffff16565b612b8990919063ffffffff16565b601460003373ffffffffffffffffffffffffffffffffffffffff1673ffffffffffffffffffffffffffffffffffffffff16815260200190815260200160002060010160008282540192505081905550601460003373ffffffffffffffffffffffffffffffffffffffff1673ffffffffffffffffffffffffffffffffffffffff16815260200190815260200160002060010154601460003373ffffffffffffffffffffffffffffffffffffffff1673ffffffffffffffffffffffffffffffffffffffff16815260200190815260200160002060020181905550611773601a54600a0a611765601954600a0a611757670de0b6b3a7640000611749600f548b612b1990919063ffffffff16565b612b8990919063ffffffff16565b612b1990919063ffffffff16565b612b8990919063ffffffff16565b600e60008282540192505081905550600160009054906101000a900473ffffffffffffffffffffffffffffffffffffffff1673ffffffffffffffffffffffffffffffffffffffff166323b872dd3330876040518463ffffffff1660e01b81526004016117e193929190613cdc565b602060405180830381600087803b1580156117fb57600080fd5b505af115801561180f573d6000803e3d6000fd5b505050506040513d601f19601f820116820180604052508101906118339190612e5c565b5050505050565b6060600480548060200260200160405190810160405280929190818152602001828054801561188857602002820191906000526020600020905b815481526020019060010190808311611874575b5050505050905090565b60606013805480602002602001604051908101604052809291908181526020016000905b8282101561194857838290600052602060002090600202016040518060400160405290816000820160009054906101000a900473ffffffffffffffffffffffffffffffffffffffff1673ffffffffffffffffffffffffffffffffffffffff1673ffffffffffffffffffffffffffffffffffffffff168152602001600182015481525050815260200190600101906118b6565b50505050905090565b6005818154811061195e57fe5b906000526020600020016000915090505481565b600760009054906101000a900473ffffffffffffffffffffffffffffffffffffffff1673ffffffffffffffffffffffffffffffffffffffff163373ffffffffffffffffffffffffffffffffffffffff1614611a02576040517f08c379a00000000000000000000000000000000000000000000000000000000081526004016119f99061415e565b60405180910390fd5b8060008054906101000a900473ffffffffffffffffffffffffffffffffffffffff1673ffffffffffffffffffffffffffffffffffffffff166370a08231336040518263ffffffff1660e01b8152600401611a5c9190613cc1565b60206040518083038186803b158015611a7457600080fd5b505afa158015611a88573d6000803e3d6000fd5b505050506040513d601f19601f82011682018060405250810190611aac9190612eae565b1015611aed576040517f08c379a0000000000000000000000000000000000000000000000000000000008152600401611ae49061405e565b60405180910390fd5b60008054906101000a900473ffffffffffffffffffffffffffffffffffffffff1673ffffffffffffffffffffffffffffffffffffffff166323b872dd3330846040518463ffffffff1660e01b8152600401611b4a93929190613cdc565b602060405180830381600087803b158015611b6457600080fd5b505af1158015611b78573d6000803e3d6000fd5b505050506040513d601f19601f82011682018060405250810190611b9c9190612e5c565b5050565b6000611c01601954600a0a611bf3601a54600a0a611be5600f54611bd7670de0b6b3a7640000600e54612b1990919063ffffffff16565b612b8990919063ffffffff16565b612b1990919063ffffffff16565b612b8990919063ffffffff16565b905090565b600080600160009054906101000a900473ffffffffffffffffffffffffffffffffffffffff1673ffffffffffffffffffffffffffffffffffffffff166370a08231306040518263ffffffff1660e01b8152600401611c649190613ca6565b60206040518083038186803b158015611c7c57600080fd5b505afa158015611c90573d6000803e3d6000fd5b505050506040513d601f19601f82011682018060405250810190611cb49190612eae565b915060008054906101000a900473ffffffffffffffffffffffffffffffffffffffff1673ffffffffffffffffffffffffffffffffffffffff166370a08231306040518263ffffffff1660e01b8152600401611d0f9190613ca6565b60206040518083038186803b158015611d2757600080fd5b505afa158015611d3b573d6000803e3d6000fd5b505050506040513d601f19601f82011682018060405250810190611d5f9190612eae565b90509091565b600d5481565b60115481565b60606016805480602002602001604051908101604052809291908181526020018280548015611df557602002820191906000526020600020905b8160009054906101000a900473ffffffffffffffffffffffffffffffffffffffff1673ffffffffffffffffffffffffffffffffffffffff1681526020019060010190808311611dab575b5050505050905090565b600760009054906101000a900473ffffffffffffffffffffffffffffffffffffffff1673ffffffffffffffffffffffffffffffffffffffff163373ffffffffffffffffffffffffffffffffffffffff1614611e8f576040517f08c379a0000000000000000000000000000000000000000000000000000000008152600401611e869061415e565b60405180910390fd5b600760149054906101000a900460ff1615611edf576040517f08c379a0000000000000000000000000000000000000000000000000000000008152600401611ed690613f1e565b60405180910390fd5b600a5460008054906101000a900473ffffffffffffffffffffffffffffffffffffffff1673ffffffffffffffffffffffffffffffffffffffff166370a08231336040518263ffffffff1660e01b8152600401611f3b9190613cc1565b60206040518083038186803b158015611f5357600080fd5b505afa158015611f67573d6000803e3d6000fd5b505050506040513d601f19601f82011682018060405250810190611f8b9190612eae565b1015611fcc576040517f08c379a0000000000000000000000000000000000000000000000000000000008152600401611fc39061405e565b60405180910390fd5b60008054906101000a900473ffffffffffffffffffffffffffffffffffffffff1673ffffffffffffffffffffffffffffffffffffffff166323b872dd3330600a546040518463ffffffff1660e01b815260040161202b93929190613cdc565b602060405180830381600087803b15801561204557600080fd5b505af1158015612059573d6000803e3d6000fd5b505050506040513d601f19601f8201168201806040525081019061207d9190612e5c565b506001600760146101000a81548160ff021916908315150217905550565b600760009054906101000a900473ffffffffffffffffffffffffffffffffffffffff1673ffffffffffffffffffffffffffffffffffffffff163373ffffffffffffffffffffffffffffffffffffffff161461212b576040517f08c379a000000000000000000000000000000000000000000000000000000000815260040161212290613f7e565b60405180910390fd5b600854612136612bdf565b10612176576040517f08c379a000000000000000000000000000000000000000000000000000000000815260040161216d906141fe565b60405180910390fd5b8061217f612bdf565b106121bf576040517f08c379a00000000000000000000000000000000000000000000000000000000081526004016121b69061409e565b60405180910390fd5b8060088190555050565b60146020528060005260406000206000915090508060000154908060010154908060020154908060030154905084565b60085481565b6060600280548060200260200160405190810160405280929190818152602001828054801561224d57602002820191906000526020600020905b815481526020019060010190808311612239575b5050505050905090565b600760009054906101000a900473ffffffffffffffffffffffffffffffffffffffff1673ffffffffffffffffffffffffffffffffffffffff163373ffffffffffffffffffffffffffffffffffffffff16146122e7576040517f08c379a00000000000000000000000000000000000000000000000000000000081526004016122de906140de565b60405180910390fd5b60c882511061232b576040517f08c379a000000000000000000000000000000000000000000000000000000000815260040161232290613e7e565b60405180910390fd5b60005b60c88160ff16101561243e5782518160ff16141561234b5761243e565b8160096000858460ff168151811061235f57fe5b602002602001015173ffffffffffffffffffffffffffffffffffffffff1673ffffffffffffffffffffffffffffffffffffffff16815260200190815260200160002060006101000a81548160ff0219169083151502179055506017838260ff16815181106123c957fe5b60200260200101519080600181540180825580915050600190039060005260206000200160009091909190916101000a81548173ffffffffffffffffffffffffffffffffffffffff021916908373ffffffffffffffffffffffffffffffffffffffff160217905550808060010191505061232e565b505050565b600960003373ffffffffffffffffffffffffffffffffffffffff1673ffffffffffffffffffffffffffffffffffffffff16815260200190815260200160002060009054906101000a900460ff16156124d0576040517f08c379a00000000000000000000000000000000000000000000000000000000081526004016124c79061421e565b60405180910390fd5b60026005600160058054905003815481106124e757fe5b9060005260206000200154816124f957fe5b04601460003373ffffffffffffffffffffffffffffffffffffffff1673ffffffffffffffffffffffffffffffffffffffff168152602001908152602001600020600001541161257d576040517f08c379a00000000000000000000000000000000000000000000000000000000081526004016125749061411e565b60405180910390fd5b600854612588612bdf565b116125c8576040517f08c379a00000000000000000000000000000000000000000000000000000000081526004016125bf90613ebe565b60405180910390fd5b6000806000806000601460003373ffffffffffffffffffffffffffffffffffffffff1673ffffffffffffffffffffffffffffffffffffffff1681526020019081526020016000206003015490506000601460003373ffffffffffffffffffffffffffffffffffffffff1673ffffffffffffffffffffffffffffffffffffffff168152602001908152602001600020600201541161269a576040517f08c379a000000000000000000000000000000000000000000000000000000000815260040161269190613e5e565b60405180910390fd5b600280549050601460003373ffffffffffffffffffffffffffffffffffffffff1673ffffffffffffffffffffffffffffffffffffffff1681526020019081526020016000206003015410612723576040517f08c379a000000000000000000000000000000000000000000000000000000000815260040161271a906141de565b60405180910390fd5b60005b60028054905081101561280057818110156127765761276b655af3107a40006003838154811061275257fe5b9060005260206000200154612b8990919063ffffffff16565b850194506001830192505b61277e612bdf565b6127aa6002838154811061278e57fe5b9060005260206000200154600854612be790919063ffffffff16565b116127ee576127df655af3107a4000600383815481106127c657fe5b9060005260206000200154612b8990919063ffffffff16565b860195506001840193506127f3565b612800565b8080600101915050612726565b5060008511612844576040517f08c379a000000000000000000000000000000000000000000000000000000000815260040161283b90613efe565b60405180910390fd5b818311612886576040517f08c379a000000000000000000000000000000000000000000000000000000000815260040161287d90613e3e565b60405180910390fd5b60006128f4620f42406128e6878903601460003373ffffffffffffffffffffffffffffffffffffffff1673ffffffffffffffffffffffffffffffffffffffff16815260200190815260200160002060010154612b1990919063ffffffff16565b612b8990919063ffffffff16565b905060008054906101000a900473ffffffffffffffffffffffffffffffffffffffff1673ffffffffffffffffffffffffffffffffffffffff1663a9059cbb88836040518363ffffffff1660e01b8152600401612951929190613d3c565b602060405180830381600087803b15801561296b57600080fd5b505af115801561297f573d6000803e3d6000fd5b505050506040513d601f19601f820116820180604052508101906129a39190612e5c565b5080601460003373ffffffffffffffffffffffffffffffffffffffff1673ffffffffffffffffffffffffffffffffffffffff16815260200190815260200160002060020160008282540392505081905550612a078385612c3c90919063ffffffff16565b601460003373ffffffffffffffffffffffffffffffffffffffff1673ffffffffffffffffffffffffffffffffffffffff1681526020019081526020016000206003016000828254019250508190555050505050505050565b600f5481565b600a5481565b60185481565b60606003805480602002602001604051908101604052809291908181526020018280548015612abf57602002820191906000526020600020905b815481526020019060010190808311612aab575b5050505050905090565b600660009054906101000a900473ffffffffffffffffffffffffffffffffffffffff1681565b6000600e54905090565b60096020528060005260406000206000915054906101000a900460ff1681565b600080831415612b2c5760009050612b83565b6000828402905082848281612b3d57fe5b0414612b7e576040517f08c379a0000000000000000000000000000000000000000000000000000000008152600401612b75906140fe565b60405180910390fd5b809150505b92915050565b6000808211612bcd576040517f08c379a0000000000000000000000000000000000000000000000000000000008152600401612bc490613ffe565b60405180910390fd5b818381612bd657fe5b04905092915050565b600042905090565b600080828401905083811015612c32576040517f08c379a0000000000000000000000000000000000000000000000000000000008152600401612c2990613ede565b60405180910390fd5b8091505092915050565b600082821115612c81576040517f08c379a0000000000000000000000000000000000000000000000000000000008152600401612c7890613fbe565b60405180910390fd5b818303905092915050565b6040518060600160405280600073ffffffffffffffffffffffffffffffffffffffff16815260200160008152602001600081525090565b6040518060400160405280600073ffffffffffffffffffffffffffffffffffffffff168152602001600081525090565b600081359050612d02816144d7565b92915050565b600082601f830112612d1957600080fd5b8135612d2c612d27826142f4565b6142c7565b91508181835260208401935060208101905083856020840282011115612d5157600080fd5b60005b83811015612d815781612d678882612cf3565b845260208401935060208301925050600181019050612d54565b5050505092915050565b600081359050612d9a816144ee565b92915050565b600081519050612daf816144ee565b92915050565b600081359050612dc481614505565b92915050565b600081519050612dd981614505565b92915050565b600060208284031215612df157600080fd5b6000612dff84828501612cf3565b91505092915050565b60008060408385031215612e1b57600080fd5b600083013567ffffffffffffffff811115612e3557600080fd5b612e4185828601612d08565b9250506020612e5285828601612d8b565b9150509250929050565b600060208284031215612e6e57600080fd5b6000612e7c84828501612da0565b91505092915050565b600060208284031215612e9757600080fd5b6000612ea584828501612db5565b91505092915050565b600060208284031215612ec057600080fd5b6000612ece84828501612dca565b91505092915050565b60008060408385031215612eea57600080fd5b6000612ef885828601612db5565b9250506020612f0985828601612db5565b9150509250929050565b6000612f1f8383612f82565b60208301905092915050565b6000612f378383613c17565b60608301905092915050565b6000612f4f8383613c59565b60408301905092915050565b6000612f678383613c88565b60208301905092915050565b612f7c81614459565b82525050565b612f8b81614411565b82525050565b612f9a81614411565b82525050565b6000612fab8261435c565b612fb581856143bc565b9350612fc08361431c565b8060005b83811015612ff1578151612fd88882612f13565b9750612fe383614388565b925050600181019050612fc4565b5085935050505092915050565b600061300982614367565b61301381856143cd565b935061301e8361432c565b8060005b8381101561304f5781516130368882612f2b565b975061304183614395565b925050600181019050613022565b5085935050505092915050565b600061306782614372565b61307181856143de565b935061307c8361433c565b8060005b838110156130ad5781516130948882612f43565b975061309f836143a2565b925050600181019050613080565b5085935050505092915050565b60006130c58261437d565b6130cf81856143ef565b93506130da8361434c565b8060005b8381101561310b5781516130f28882612f5b565b97506130fd836143af565b9250506001810190506130de565b5085935050505092915050565b61312181614423565b82525050565b6131308161446b565b82525050565b61313f8161448f565b82525050565b6000613152601f83614400565b91507f47656e49444f3a20546f6b656e7320617265206265696e6720766573746564006000830152602082019050919050565b6000613192602383614400565b91507f47656e49444f3a20557365722068617320636c61696d656420616c6c20746f6b60008301527f656e7300000000000000000000000000000000000000000000000000000000006020830152604082019050919050565b60006131f8602983614400565b91507f47656e49444f3a20426c61636b6c697374206c657373207468616e203230302060008301527f617420612074696d6500000000000000000000000000000000000000000000006020830152604082019050919050565b600061325e602283614400565b91507f47656e49444f3a204d6178205075726368617365204c696d697420526561636860008301527f65640000000000000000000000000000000000000000000000000000000000006020830152604082019050919050565b60006132c4601f83614400565b91507f47656e49444f3a2050726f6a65637420544745206e6f74206f636375726564006000830152602082019050919050565b6000613304601b83614400565b91507f536166654d6174683a206164646974696f6e206f766572666c6f7700000000006000830152602082019050919050565b6000613344602583614400565b91507f47656e49444f3a207a65726f20616d6f756e742063616e6e6f7420626520636c60008301527f61696d65640000000000000000000000000000000000000000000000000000006020830152604082019050919050565b60006133aa601f83614400565b91507f47656e49444f3a20546f6b656e20697320616c726561647920616374697665006000830152602082019050919050565b60006133ea602a83614400565b91507f47656e49444f3a204f6e6c792063726561746f722063616e207570646174652060008301527f73746172742074696d65000000000000000000000000000000000000000000006020830152604082019050919050565b6000613450601483614400565b91507f47656e49444f3a20496e76616c696420557365720000000000000000000000006000830152602082019050919050565b6000613490602283614400565b91507f47656e49444f3a204f6e6c79206973737565722063616e20757064617465205460008301527f47450000000000000000000000000000000000000000000000000000000000006020830152604082019050919050565b60006134f6602383614400565b91507f47656e7a746b3a2055736572206d61782070757263686173652076696f6c617460008301527f696f6e00000000000000000000000000000000000000000000000000000000006020830152604082019050919050565b600061355c601e83614400565b91507f536166654d6174683a207375627472616374696f6e206f766572666c6f7700006000830152602082019050919050565b600061359c601c83614400565b91507f47656e49444f3a204d61726b6574206973206e6f7420616374697665000000006000830152602082019050919050565b60006135dc601a83614400565b91507f536166654d6174683a206469766973696f6e206279207a65726f0000000000006000830152602082019050919050565b600061361c601c83614400565b91507f47656e49444f3a2053746172742074696d65206d7573742070617373000000006000830152602082019050919050565b600061365c602383614400565b91507f47656e7a746b3a2055736572206d696e2070757263686173652076696f6c617460008301527f696f6e00000000000000000000000000000000000000000000000000000000006020830152604082019050919050565b60006136c2604c83614400565b91507f47656e466163746f72793a2054686520756e6465726c79696e6720746f6b656e60008301527f7320617474656d7074656420746f206c6f636b206973206d6f7265207468616e60208301527f207468652062616c616e636500000000000000000000000000000000000000006040830152606082019050919050565b600061374e602283614400565b91507f47656e49444f3a20496e76616c696420616d6f756e7420746f2077697468647260008301527f61770000000000000000000000000000000000000000000000000000000000006020830152604082019050919050565b60006137b4602583614400565b91507f47656e49444f3a204e657720544745206d75737420626520696e20746865206660008301527f75747572650000000000000000000000000000000000000000000000000000006020830152604082019050919050565b600061381a602c83614400565b91507f47656e49444f3a204e65772073746172742074696d65206d757374206265206960008301527f6e207468652066757475726500000000000000000000000000000000000000006020830152604082019050919050565b6000613880602883614400565b91507f47656e49444f3a204f6e6c79206973737565722063616e20757064617465206260008301527f6c61636b6c6973740000000000000000000000000000000000000000000000006020830152604082019050919050565b60006138e6602183614400565b91507f536166654d6174683a206d756c7469706c69636174696f6e206f766572666c6f60008301527f77000000000000000000000000000000000000000000000000000000000000006020830152604082019050919050565b600061394c601583614400565b91507f47656e49444f3a20496e76616c696420436c61696d00000000000000000000006000830152602082019050919050565b600061398c601083614400565b91507f47656e49444f3a20536f6c64204f7574000000000000000000000000000000006000830152602082019050919050565b60006139cc603683614400565b91507f47656e49444f3a204f6e6c79206973737565722063616e206465706f7369742060008301527f746f6b656e7320746f2074686520636f6e7472616374000000000000000000006020830152604082019050919050565b6000613a32602383614400565b91507f47656e49444f3a2053746172742074696d6520616c7265616479206f6363757260008301527f72656400000000000000000000000000000000000000000000000000000000006020830152604082019050919050565b6000613a98601e83614400565b91507f47656e49444f3a205061796d656e742063616e6e6f74206265207a65726f00006000830152602082019050919050565b6000613ad8603683614400565b91507f47656e49444f3a204f6e6c7920746865206973737565722063616e20666c697060008301527f207468652069646f2061637469766520737461747573000000000000000000006020830152604082019050919050565b6000613b3e602283614400565b91507f47656e49444f3a20416c6c207472616e636865732066756c6c7920636c61696d60008301527f65640000000000000000000000000000000000000000000000000000000000006020830152604082019050919050565b6000613ba4601c83614400565b91507f47656e49444f3a2054474520616c7265616479206f63637572726564000000006000830152602082019050919050565b6000613be4601983614400565b91507f47656e49444f3a205573657220696e20626c61636b6c697374000000000000006000830152602082019050919050565b606082016000820151613c2d6000850182612f82565b506020820151613c406020850182613c88565b506040820151613c536040850182613c88565b50505050565b604082016000820151613c6f6000850182612f82565b506020820151613c826020850182613c88565b50505050565b613c918161444f565b82525050565b613ca08161444f565b82525050565b6000602082019050613cbb6000830184612f91565b92915050565b6000602082019050613cd66000830184612f73565b92915050565b6000606082019050613cf16000830186612f73565b613cfe6020830185612f91565b613d0b6040830184613c97565b949350505050565b6000604082019050613d286000830185612f73565b613d356020830184613c97565b9392505050565b6000604082019050613d516000830185612f91565b613d5e6020830184613c97565b9392505050565b60006020820190508181036000830152613d7f8184612fa0565b905092915050565b60006020820190508181036000830152613da18184612ffe565b905092915050565b60006020820190508181036000830152613dc3818461305c565b905092915050565b60006020820190508181036000830152613de581846130ba565b905092915050565b6000602082019050613e026000830184613118565b92915050565b6000602082019050613e1d6000830184613127565b92915050565b6000602082019050613e386000830184613136565b92915050565b60006020820190508181036000830152613e5781613145565b9050919050565b60006020820190508181036000830152613e7781613185565b9050919050565b60006020820190508181036000830152613e97816131eb565b9050919050565b60006020820190508181036000830152613eb781613251565b9050919050565b60006020820190508181036000830152613ed7816132b7565b9050919050565b60006020820190508181036000830152613ef7816132f7565b9050919050565b60006020820190508181036000830152613f1781613337565b9050919050565b60006020820190508181036000830152613f378161339d565b9050919050565b60006020820190508181036000830152613f57816133dd565b9050919050565b60006020820190508181036000830152613f7781613443565b9050919050565b60006020820190508181036000830152613f9781613483565b9050919050565b60006020820190508181036000830152613fb7816134e9565b9050919050565b60006020820190508181036000830152613fd78161354f565b9050919050565b60006020820190508181036000830152613ff78161358f565b9050919050565b60006020820190508181036000830152614017816135cf565b9050919050565b600060208201905081810360008301526140378161360f565b9050919050565b600060208201905081810360008301526140578161364f565b9050919050565b60006020820190508181036000830152614077816136b5565b9050919050565b6000602082019050818103600083015261409781613741565b9050919050565b600060208201905081810360008301526140b7816137a7565b9050919050565b600060208201905081810360008301526140d78161380d565b9050919050565b600060208201905081810360008301526140f781613873565b9050919050565b60006020820190508181036000830152614117816138d9565b9050919050565b600060208201905081810360008301526141378161393f565b9050919050565b600060208201905081810360008301526141578161397f565b9050919050565b60006020820190508181036000830152614177816139bf565b9050919050565b6000602082019050818103600083015261419781613a25565b9050919050565b600060208201905081810360008301526141b781613a8b565b9050919050565b600060208201905081810360008301526141d781613acb565b9050919050565b600060208201905081810360008301526141f781613b31565b9050919050565b6000602082019050818103600083015261421781613b97565b9050919050565b6000602082019050818103600083015261423781613bd7565b9050919050565b60006020820190506142536000830184613c97565b92915050565b600060408201905061426e6000830185613c97565b61427b6020830184613c97565b9392505050565b60006080820190506142976000830187613c97565b6142a46020830186613c97565b6142b16040830185613c97565b6142be6060830184613c97565b95945050505050565b6000604051905081810181811067ffffffffffffffff821117156142ea57600080fd5b8060405250919050565b600067ffffffffffffffff82111561430b57600080fd5b602082029050602081019050919050565b6000819050602082019050919050565b6000819050602082019050919050565b6000819050602082019050919050565b6000819050602082019050919050565b600081519050919050565b600081519050919050565b600081519050919050565b600081519050919050565b6000602082019050919050565b6000602082019050919050565b6000602082019050919050565b6000602082019050919050565b600082825260208201905092915050565b600082825260208201905092915050565b600082825260208201905092915050565b600082825260208201905092915050565b600082825260208201905092915050565b600061441c8261442f565b9050919050565b60008115159050919050565b600073ffffffffffffffffffffffffffffffffffffffff82169050919050565b6000819050919050565b6000614464826144b3565b9050919050565b60006144768261447d565b9050919050565b60006144888261442f565b9050919050565b600061449a826144a1565b9050919050565b60006144ac8261442f565b9050919050565b60006144be826144c5565b9050919050565b60006144d08261442f565b9050919050565b6144e081614411565b81146144eb57600080fd5b50565b6144f781614423565b811461450257600080fd5b50565b61450e8161444f565b811461451957600080fd5b5056fea26469706673582212208e978f6a4943a3b8aa45e652e40f040b8734cf72d8063fbf628130f095b823cd64736f6c634300060c0033",
  "immutableReferences": {},
  "source": "\npragma solidity 0.6.12;\n\nimport \"@openzeppelin/contracts/math/SafeMath.sol\";\nimport \"./interfaces/IGenIDOFactory.sol\";\nimport \"@openzeppelin/contracts/token/ERC20/IERC20.sol\";\n\npragma experimental ABIEncoderV2;\n\nabstract contract IERC20Extented is IERC20 {\n    function decimals() public virtual view returns (uint8);\n}\n\ncontract GenIDO {\n    using SafeMath for uint;\n\n    IERC20Extented public underlyingToken;\n    IERC20Extented public usdt;\n\n    uint256[] private trancheLength;\n    uint256[] private trancheWeightage;\n    uint256[] private numApplicantsPerTier;\n    uint256[] public maxAllocPerUserPerTier;\n    IGenIDOFactory public factory;\n    address public issuer;\n    // for IDO to be active for sale\n    bool public active = false;\n    // Expected TGE timestamp, start at max uint256\n    uint public TGE = type(uint).max;\n\n    mapping(address => bool) public blacklist;\n\n    uint256 public totalTokenAllocation;\n    uint256 public totalUsdtAllocation;\n\n    uint256 public minAllocationPermitted;\n    uint256 public maxAllocationPermitted;\n\n    uint256 private tokensPurchased;\n\n    uint256 public tokenPerUsd;\n\n    mapping(address => uint256) private  guaranteedTier;\n\n    uint public startTime = type(uint).max;\n\n    struct Purchases{\n        uint256 usdAllocationBought;//usd\n        uint256 tokenAllocationBought;//tokens respective to payment\n        uint256 tokenAllocationRemaining;//tokens remaining after each tranch claim \n        uint256 position;\n    }\n\n    struct GuranteedInfo{\n        address addr;\n        uint256 pay;\n        uint256 id;\n    }\n    GuranteedInfo[] private guranteedInfo;\n\n    struct ParticipantsInfo{\n        address addr;\n        uint256 pay;\n    }\n    ParticipantsInfo[] private participantsInfo;\n\n    mapping(address => Purchases) public purchases;\n\n    bytes private constant VALIDATOR = bytes('AS');\n\n    address[] private participants;\n    address[] private guranteedParticipants;\n    address[] private blacklistedAddresses;\n\n    uint256 public guranteedSaleDuration;\n\n    uint256 private tokenDec;\n    uint256 private usdDec;\n\n    constructor (\n        address _underlyingToken,\n        uint256 _totalTokenAllocation,//enter details as per decimals of _underlyingToken\n        address _usdt,\n        uint256[] memory _maxAllocPerUserPerTier,//enter details as per decimals of _usdt\n        uint256[] memory _numApplicantsPerTier,\n        uint[] memory _trancheWeightage,//in wei\n        uint[] memory _trancheLength,//in seconds\n        uint256 _maxClaimPercentage,//in wei\n        uint256 _guranteedSaleDuration,\n        IGenIDOFactory _factory,\n        address _issuer\n    ) \n        public \n    {\n        underlyingToken = IERC20Extented(_underlyingToken);\n        totalTokenAllocation = _totalTokenAllocation;\n        usdt = IERC20Extented(_usdt);\n        maxAllocPerUserPerTier = _maxAllocPerUserPerTier;\n        numApplicantsPerTier = _numApplicantsPerTier;\n        trancheWeightage = _trancheWeightage;\n        trancheLength = _trancheLength;\n        guranteedSaleDuration = _guranteedSaleDuration;\n        factory = _factory;\n        issuer = _issuer;\n        tokenDec = underlyingToken.decimals();\n        usdDec = usdt.decimals();\n\n         for (uint i = 0; i < 50; i++){\n            if (maxAllocPerUserPerTier.length == i){\n                break;\n            }\n            \n            totalUsdtAllocation += _numApplicantsPerTier[i].mul(_maxAllocPerUserPerTier[i]);\n        }\n\n        tokenPerUsd = ((_totalTokenAllocation.div(10**tokenDec)).mul(10**18)).div(totalUsdtAllocation.div(10**usdDec));\n        minAllocationPermitted = maxAllocPerUserPerTier[maxAllocPerUserPerTier.length -1]/2;\n        maxAllocationPermitted = totalUsdtAllocation.mul(_maxClaimPercentage).div(10**18).div(100);\n\n        require(maxAllocationPermitted >= minAllocationPermitted, \"GenIDO: Max allocation allowed should be greater or equal to min allocation\");\n\n    }\n\n    function returnTrancheLength() public view returns (uint256[] memory) {\n        return (trancheLength);\n    }\n    function returnTrancheWeightage() public view returns (uint256[] memory) {\n        return (trancheWeightage);\n    }\n\n    function updateTGE(uint timestamp) external {\n        require(msg.sender == issuer, \"GenIDO: Only issuer can update TGE\");\n        require(getBlockTimestamp() < TGE, \"GenIDO: TGE already occurred\");\n        require(getBlockTimestamp() < timestamp, \"GenIDO: New TGE must be in the future\");\n\n        TGE = timestamp;\n    }\n\n    // first deposit underlying tokens to contract\n    function depositTokens() external {\n        require(msg.sender == issuer, \"GenIDO: Only issuer can deposit tokens to the contract\");\n        require(!active, \"GenIDO: Token is already active\");\n        require(IERC20(underlyingToken).balanceOf(msg.sender) >= totalTokenAllocation, \"GenFactory: The underlying tokens attempted to lock is more than the balance\");//18\n\n        IERC20(underlyingToken).transferFrom(msg.sender, address(this), totalTokenAllocation);//18\n\n        active = true;\n    }\n\n    // This methods allows issuer to deposit tokens anytime - even after TGE\n    function submitTokens(uint256 _amount) external {\n        require(msg.sender == issuer, \"GenIDO: Only issuer can deposit tokens to the contract\");\n        require(IERC20(underlyingToken).balanceOf(msg.sender) >= _amount, \"GenFactory: The underlying tokens attempted to lock is more than the balance\");\n\n        IERC20(underlyingToken).transferFrom(msg.sender, address(this), _amount);\n    }\n\n    function updateStartTime(uint timestamp) external {\n        require(msg.sender == issuer, \"GenIDO: Only creator can update start time\");\n        require(getBlockTimestamp() < startTime, \"GenIDO: Start time already occurred\");\n        require(getBlockTimestamp() < timestamp, \"GenIDO: New start time must be in the future\");\n\n        startTime = timestamp;\n    }\n\n    // to end the sale and claim proceeds\n    function flipIDOStatus() external {\n        require(msg.sender == issuer, \"GenIDO: Only the issuer can flip the ido active status\");\n        if(active){\n            usdt.transfer(msg.sender, usdt.balanceOf(address(this)));\n        }\n        active = !active;\n    }\n\n    // Buying from contract directly might lead to the loss of busd submitted\n    function buyAnAllocation(uint256 _pay, uint256 _staked) external {\n        require(_pay > 0, \"GenIDO: Payment cannot be zero\");\n        require(active, \"GenIDO: Market is not active\");\n        require(getBlockTimestamp() >= startTime, \"GenIDO: Start time must pass\");\n        require(tokensPurchased.add(((_pay.mul(tokenPerUsd)).div(10**18)).mul(10**tokenDec).div(10**usdDec)) <= totalTokenAllocation, \"GenIDO: Sold Out\");//18\n\n        uint256 id;//id needed for guranteed participants\n        if (_staked >= 30000 * 10**18){\n            id =0;\n        } else if (_staked >= 15000 * 10**18 && _staked < 30000 * 10**18){\n            id =1;\n        } else if(_staked >= 7500 * 10**18 && _staked < 15000 * 10**18){\n            id =2;\n        } else if(_staked >= 2000 * 10**18 && _staked < 7500 * 10**18){\n            id =3;\n        } else{\n            require(true, \"GenIDO: Invalid User\");\n        }\n\n        require((purchases[msg.sender].usdAllocationBought).add(_pay) >= minAllocationPermitted , \"Genztk: User min purchase violation\");//6\n        // only for guranteed sale\n        if (getBlockTimestamp() >= startTime.add(guranteedSaleDuration)){//false\n            require((purchases[msg.sender].usdAllocationBought).add(_pay) <= maxAllocPerUserPerTier[id], \"Genztk: User max purchase violation\");//6\n            if ((purchases[msg.sender].usdAllocationBought) < minAllocationPermitted){//to check if at least bought some allocation as guranteed user\n                guranteedParticipants.push(msg.sender);\n                 guaranteedTier[msg.sender] = id;\n            }\n            GuranteedInfo memory newInfo = GuranteedInfo({\n                    addr: msg.sender,\n                    pay: _pay,\n                    id: id\n                });\n            guranteedInfo.push(newInfo);\n        }\n        require(purchases[msg.sender].usdAllocationBought.add(_pay) <= maxAllocationPermitted, \"GenIDO: Max Purchase Limit Reached\");//6\n\n        if ((purchases[msg.sender].usdAllocationBought) < minAllocationPermitted){\n            participants.push(msg.sender);\n        }\n        ParticipantsInfo memory newInfo = ParticipantsInfo({\n            addr: msg.sender,\n            pay: _pay\n        });\n        participantsInfo.push(newInfo);   \n        \n        purchases[msg.sender].usdAllocationBought += _pay;//this will keep track of who purchased how much in usd?\n        purchases[msg.sender].tokenAllocationBought += (_pay.mul(tokenPerUsd).div(10**18)).mul(10**tokenDec).div(10**usdDec);//to keep track of token holdings per user//?\n        purchases[msg.sender].tokenAllocationRemaining = purchases[msg.sender].tokenAllocationBought;//6//tokensBought/??\n\n        tokensPurchased += (_pay.mul(tokenPerUsd).div(10**18)).mul(10**tokenDec).div(10**usdDec);\n\n        // payment made by User\n        usdt.transferFrom(msg.sender, address(this), _pay);\n    }\n\n    // returns total balance of the contract\n    function getContractBalance() public view returns (uint256 usdBalance, uint256 tokenBalance){\n        usdBalance = usdt.balanceOf(address(this));\n        tokenBalance = underlyingToken.balanceOf(address(this));\n    }\n\n    function getTokensSold() public view returns (uint256 tokensSold) {\n         tokensSold = tokensPurchased;\n    }\n\n    function getAmountRaised() public view returns (uint256 amountRaised) {\n        amountRaised = ((tokensPurchased.mul(10**18)).div(tokenPerUsd)).mul(10**usdDec).div(10**tokenDec);\n    }\n\n    function getWinnerCounts() public view returns(uint256[] memory _numApplicantsPerTier){\n        return numApplicantsPerTier;\n    }\n\n    function getGuranteedParticipants() public view returns(address[] memory allGuranteedParticipants){\n        return (guranteedParticipants);\n    }\n\n    function getGuranteedDetails() public view returns (GuranteedInfo[] memory){\n        return guranteedInfo;\n    }\n\n    function getParticipantsDetails() public view returns (ParticipantsInfo[] memory){\n        return participantsInfo;\n    }\n\n    function getAllParticipants() public view returns(address[] memory allParticipants){\n        return (participants);\n    }\n\n    function getAllBlacklistedAddresses() public view returns(address[] memory allBlacklistedAddresses){\n        return blacklistedAddresses;\n    }\n\n    //issuer's responsibility to decide on claim amount - in case of blacklisted user or any emergency case\n    function withdrawTokens(uint256 _amount) external {\n        require (_amount <= underlyingToken.balanceOf(address(this)), \"GenIDO: Invalid amount to withdraw\");\n        underlyingToken.transfer(issuer, _amount);\n    }\n\n    //for users who bought from contract rather than web app\n    function setBlackList(address[] memory addresses, bool blackListOn) external {\n        require(msg.sender == issuer, \"GenIDO: Only issuer can update blacklist\");\n        require(addresses.length < 200, \"GenIDO: Blacklist less than 200 at a time\");\n\n        for (uint8 i=0; i<200; i++) {\n            if (i == addresses.length) {\n                break;\n            }\n\n            blacklist[addresses[i]] = blackListOn;\n            blacklistedAddresses.push(addresses[i]);\n        }\n    }\n\n    function redeem(address _to) public {\n        require(!blacklist[msg.sender], \"GenIDO: User in blacklist\");\n        require(purchases[msg.sender].usdAllocationBought > maxAllocPerUserPerTier[maxAllocPerUserPerTier.length - 1]/2, \"GenIDO: Invalid Claim\");\n        require(getBlockTimestamp() > TGE, \"GenIDO: Project TGE not occured\");\n\n        uint256 redeemablePercentage;\n        uint256 redeemedPercentage;\n        uint256 redeemableCounter;\n        uint256 redeemedCounter;\n\n        uint tranche = purchases[msg.sender].position;\n        \n        require(purchases[msg.sender].tokenAllocationRemaining > 0, \"GenIDO: User has claimed all tokens\");\n        require(purchases[msg.sender].position < trancheLength.length, \"GenIDO: All tranches fully claimed\");        \n\n        for (uint i=0; i< trancheLength.length ; i++){\n            \n            if (i < tranche ){\n                redeemedPercentage += (trancheWeightage[i].div(10**14));\n                redeemedCounter += 1;\n            }\n\n            if (TGE.add(trancheLength[i]) <= getBlockTimestamp()){\n                redeemablePercentage += (trancheWeightage[i].div(10**14));\n                redeemableCounter += 1;\n            } else{\n                break;\n            }\n        }\n        require(redeemablePercentage > 0, \"GenIDO: zero amount cannot be claimed\");\n        require(redeemableCounter > redeemedCounter, \"GenIDO: Tokens are being vested\");\n\n        uint256 tokens = (purchases[msg.sender].tokenAllocationBought).mul(redeemablePercentage - redeemedPercentage).div(1000000);\n\n        // Transfer underlying tokens with corresponding size or allocation bought\n        IERC20(underlyingToken).transfer(_to, tokens);\n        purchases[msg.sender].tokenAllocationRemaining -= tokens;\n        purchases[msg.sender].position += redeemableCounter.sub(redeemedCounter);\n    }\n\n    function getBlockTimestamp() internal view returns (uint) {\n        // solium-disable-next-line security/no-block-members\n        return block.timestamp;\n    }\n\n}",
  "sourcePath": "/Users/anandsinha/workspace/genesis-shards/contracts/GenIDO.sol",
  "compiler": {
    "name": "solc",
    "version": "0.6.12+commit.27d51765.Emscripten.clang"
  },
  "schemaVersion": "3.4.3",
  "updatedAt": "2022-04-11T17:25:14.888Z",
  "devdoc": {
    "kind": "dev",
    "methods": {},
    "version": 1
  },
  "userdoc": {
    "kind": "user",
    "methods": {},
    "version": 1
  }
}