{
  "contractName": "GenMarketPlace",
  "abi": [
    {
      "inputs": [
        {
          "internalType": "address",
          "name": "_genTicket",
          "type": "address"
        },
        {
          "internalType": "uint256[]",
          "name": "_prices",
          "type": "uint256[]"
        },
        {
          "internalType": "uint256[]",
          "name": "_numTicketsTransferable",
          "type": "uint256[]"
        },
        {
          "internalType": "contract IGenMarketPlaceFactory",
          "name": "_factory",
          "type": "address"
        },
        {
          "internalType": "address",
          "name": "_creator",
          "type": "address"
        }
      ],
      "stateMutability": "nonpayable",
      "type": "constructor"
    },
    {
      "inputs": [],
      "name": "active",
      "outputs": [
        {
          "internalType": "bool",
          "name": "",
          "type": "bool"
        }
      ],
      "stateMutability": "view",
      "type": "function"
    },
    {
      "inputs": [],
      "name": "allow",
      "outputs": [
        {
          "internalType": "bool",
          "name": "",
          "type": "bool"
        }
      ],
      "stateMutability": "view",
      "type": "function"
    },
    {
      "inputs": [],
      "name": "creator",
      "outputs": [
        {
          "internalType": "address",
          "name": "",
          "type": "address"
        }
      ],
      "stateMutability": "view",
      "type": "function"
    },
    {
      "inputs": [],
      "name": "enable",
      "outputs": [
        {
          "internalType": "bool",
          "name": "",
          "type": "bool"
        }
      ],
      "stateMutability": "view",
      "type": "function"
    },
    {
      "inputs": [],
      "name": "factory",
      "outputs": [
        {
          "internalType": "contract IGenMarketPlaceFactory",
          "name": "",
          "type": "address"
        }
      ],
      "stateMutability": "view",
      "type": "function"
    },
    {
      "inputs": [],
      "name": "genTicket",
      "outputs": [
        {
          "internalType": "address",
          "name": "",
          "type": "address"
        }
      ],
      "stateMutability": "view",
      "type": "function"
    },
    {
      "inputs": [
        {
          "internalType": "address",
          "name": "",
          "type": "address"
        },
        {
          "internalType": "uint256",
          "name": "",
          "type": "uint256"
        },
        {
          "internalType": "address",
          "name": "",
          "type": "address"
        }
      ],
      "name": "listings",
      "outputs": [
        {
          "internalType": "uint256",
          "name": "sprice",
          "type": "uint256"
        },
        {
          "internalType": "address",
          "name": "seller",
          "type": "address"
        },
        {
          "internalType": "bool",
          "name": "listed",
          "type": "bool"
        }
      ],
      "stateMutability": "view",
      "type": "function"
    },
    {
      "inputs": [
        {
          "internalType": "uint256",
          "name": "",
          "type": "uint256"
        }
      ],
      "name": "numTicketsTransferable",
      "outputs": [
        {
          "internalType": "uint256",
          "name": "",
          "type": "uint256"
        }
      ],
      "stateMutability": "view",
      "type": "function"
    },
    {
      "inputs": [
        {
          "internalType": "uint256",
          "name": "",
          "type": "uint256"
        }
      ],
      "name": "prices",
      "outputs": [
        {
          "internalType": "uint256",
          "name": "",
          "type": "uint256"
        }
      ],
      "stateMutability": "view",
      "type": "function"
    },
    {
      "inputs": [
        {
          "internalType": "uint256",
          "name": "",
          "type": "uint256"
        },
        {
          "internalType": "address",
          "name": "",
          "type": "address"
        }
      ],
      "name": "purchases",
      "outputs": [
        {
          "internalType": "uint256",
          "name": "",
          "type": "uint256"
        }
      ],
      "stateMutability": "view",
      "type": "function"
    },
    {
      "inputs": [
        {
          "internalType": "bytes4",
          "name": "interfaceId",
          "type": "bytes4"
        }
      ],
      "name": "supportsInterface",
      "outputs": [
        {
          "internalType": "bool",
          "name": "",
          "type": "bool"
        }
      ],
      "stateMutability": "view",
      "type": "function"
    },
    {
      "inputs": [
        {
          "internalType": "uint256",
          "name": "",
          "type": "uint256"
        }
      ],
      "name": "ticketsPurchased",
      "outputs": [
        {
          "internalType": "uint256",
          "name": "",
          "type": "uint256"
        }
      ],
      "stateMutability": "view",
      "type": "function"
    },
    {
      "inputs": [
        {
          "internalType": "uint256",
          "name": "",
          "type": "uint256"
        }
      ],
      "name": "ticketsRemaining",
      "outputs": [
        {
          "internalType": "uint256",
          "name": "",
          "type": "uint256"
        }
      ],
      "stateMutability": "view",
      "type": "function"
    },
    {
      "inputs": [],
      "name": "ticketTypes",
      "outputs": [
        {
          "internalType": "uint256",
          "name": "",
          "type": "uint256"
        }
      ],
      "stateMutability": "view",
      "type": "function"
    },
    {
      "inputs": [
        {
          "internalType": "address",
          "name": "_to",
          "type": "address"
        },
        {
          "internalType": "uint256",
          "name": "_id",
          "type": "uint256"
        },
        {
          "internalType": "uint256",
          "name": "_amount",
          "type": "uint256"
        }
      ],
      "name": "depositBoughtTickets",
      "outputs": [],
      "stateMutability": "nonpayable",
      "type": "function"
    },
    {
      "inputs": [
        {
          "internalType": "address",
          "name": "_to",
          "type": "address"
        },
        {
          "internalType": "uint256[]",
          "name": "_numTicketsToTransfer",
          "type": "uint256[]"
        }
      ],
      "name": "transferTickets",
      "outputs": [],
      "stateMutability": "nonpayable",
      "type": "function"
    },
    {
      "inputs": [],
      "name": "deposit",
      "outputs": [],
      "stateMutability": "nonpayable",
      "type": "function"
    },
    {
      "inputs": [
        {
          "internalType": "uint256",
          "name": "_id",
          "type": "uint256"
        },
        {
          "internalType": "uint256",
          "name": "_amount",
          "type": "uint256"
        }
      ],
      "name": "buy",
      "outputs": [],
      "stateMutability": "payable",
      "type": "function"
    },
    {
      "inputs": [],
      "name": "transferUnsoldTickets",
      "outputs": [],
      "stateMutability": "nonpayable",
      "type": "function"
    },
    {
      "inputs": [],
      "name": "flipMarketStatus",
      "outputs": [],
      "stateMutability": "nonpayable",
      "type": "function"
    },
    {
      "inputs": [],
      "name": "flipAllowStatus",
      "outputs": [],
      "stateMutability": "nonpayable",
      "type": "function"
    },
    {
      "inputs": [],
      "name": "flipEnableStatus",
      "outputs": [],
      "stateMutability": "nonpayable",
      "type": "function"
    },
    {
      "inputs": [
        {
          "internalType": "uint256",
          "name": "_id",
          "type": "uint256"
        },
        {
          "internalType": "uint256",
          "name": "sprice",
          "type": "uint256"
        }
      ],
      "name": "addListing",
      "outputs": [],
      "stateMutability": "nonpayable",
      "type": "function"
    },
    {
      "inputs": [
        {
          "internalType": "uint256",
          "name": "_id",
          "type": "uint256"
        }
      ],
      "name": "cancelListing",
      "outputs": [],
      "stateMutability": "nonpayable",
      "type": "function"
    },
    {
      "inputs": [
        {
          "internalType": "uint256",
          "name": "_id",
          "type": "uint256"
        },
        {
          "internalType": "uint256",
          "name": "_amount",
          "type": "uint256"
        },
        {
          "internalType": "address",
          "name": "_seller",
          "type": "address"
        }
      ],
      "name": "purchase",
      "outputs": [],
      "stateMutability": "payable",
      "type": "function"
    },
    {
      "inputs": [],
      "name": "claim",
      "outputs": [],
      "stateMutability": "nonpayable",
      "type": "function"
    },
    {
      "inputs": [
        {
          "internalType": "address",
          "name": "_operator",
          "type": "address"
        },
        {
          "internalType": "address",
          "name": "_from",
          "type": "address"
        },
        {
          "internalType": "uint256",
          "name": "_id",
          "type": "uint256"
        },
        {
          "internalType": "uint256",
          "name": "_value",
          "type": "uint256"
        },
        {
          "internalType": "bytes",
          "name": "_data",
          "type": "bytes"
        }
      ],
      "name": "onERC1155Received",
      "outputs": [
        {
          "internalType": "bytes4",
          "name": "",
          "type": "bytes4"
        }
      ],
      "stateMutability": "nonpayable",
      "type": "function"
    },
    {
      "inputs": [
        {
          "internalType": "address",
          "name": "_operator",
          "type": "address"
        },
        {
          "internalType": "address",
          "name": "_from",
          "type": "address"
        },
        {
          "internalType": "uint256[]",
          "name": "_ids",
          "type": "uint256[]"
        },
        {
          "internalType": "uint256[]",
          "name": "_values",
          "type": "uint256[]"
        },
        {
          "internalType": "bytes",
          "name": "_data",
          "type": "bytes"
        }
      ],
      "name": "onERC1155BatchReceived",
      "outputs": [
        {
          "internalType": "bytes4",
          "name": "",
          "type": "bytes4"
        }
      ],
      "stateMutability": "nonpayable",
      "type": "function"
    }
  ],
  "bytecode": "0x60806040526000600560146101000a81548160ff0219169083151502179055506000600560156101000a81548160ff0219169083151502179055506000600560166101000a81548160ff0219169083151502179055503480156200006257600080fd5b506040516200463f3803806200463f833981810160405260a08110156200008857600080fd5b810190808051906020019092919080516040519392919084640100000000821115620000b357600080fd5b83820191506020820185811115620000ca57600080fd5b8251866020820283011164010000000082111715620000e857600080fd5b8083526020830192505050908051906020019060200280838360005b838110156200012157808201518184015260208101905062000104565b50505050905001604052602001805160405193929190846401000000008211156200014b57600080fd5b838201915060208201858111156200016257600080fd5b82518660208202830111640100000000821117156200018057600080fd5b8083526020830192505050908051906020019060200280838360005b83811015620001b95780820151818401526020810190506200019c565b505050509050016040526020018051906020019092919080519060200190929190505050620001f56301ffc9a760e01b6200032b60201b60201c565b6200021663bc197c8160e01b63f23a6e6160e01b186200032b60201b60201c565b84600160006101000a81548173ffffffffffffffffffffffffffffffffffffffff021916908373ffffffffffffffffffffffffffffffffffffffff16021790555083600290805190602001906200026f92919062000434565b5082600390805190602001906200028892919062000434565b5081600460006101000a81548173ffffffffffffffffffffffffffffffffffffffff021916908373ffffffffffffffffffffffffffffffffffffffff16021790555080600560006101000a81548173ffffffffffffffffffffffffffffffffffffffff021916908373ffffffffffffffffffffffffffffffffffffffff160217905550600360089080546200031f92919062000486565b505050505050620004fc565b63ffffffff60e01b817bffffffffffffffffffffffffffffffffffffffffffffffffffffffff19161415620003c8576040517f08c379a000000000000000000000000000000000000000000000000000000000815260040180806020018281038252601c8152602001807f4552433136353a20696e76616c696420696e746572666163652069640000000081525060200191505060405180910390fd5b6001600080837bffffffffffffffffffffffffffffffffffffffffffffffffffffffff19167bffffffffffffffffffffffffffffffffffffffffffffffffffffffff1916815260200190815260200160002060006101000a81548160ff02191690831515021790555050565b82805482825590600052602060002090810192821562000473579160200282015b828111156200047257825182559160200191906001019062000455565b5b509050620004829190620004dd565b5090565b828054828255906000526020600020908101928215620004ca5760005260206000209182015b82811115620004c9578254825591600101919060010190620004ac565b5b509050620004d99190620004dd565b5090565b5b80821115620004f8576000816000905550600101620004de565b5090565b614133806200050c6000396000f3fe6080604052600436106101b75760003560e01c8063a51df996116100ec578063c45a01551161008a578063d6febde811610064578063d6febde814610993578063ea3bd5df146109cb578063f23a6e6114610a23578063fed7bfc114610b30576101b7565b8063c45a015514610856578063d0e30db014610897578063d5797622146108ae576101b7565b8063b1b3d3f6116100c6578063b1b3d3f6146105e8578063ba5ef73614610615578063bc197c8114610664578063bc31c1c114610807576101b7565b8063a51df9961461056b578063a5a1bf36146105ba578063a9419147146105d1576101b7565b8063305a67a8116101595780635ee56fda116101335780635ee56fda146103f55780636bd3a64b14610444578063836cf6e9146104f9578063a3907d711461053e576101b7565b8063305a67a81461038c5780634e71d92d146103c757806355662c26146103de576101b7565b806307fc6e511161019557806307fc6e511461029a57806314715d2b146102db5780631c09e5c6146102f25780632fbbe93714610361576101b7565b806301ffc9a7146101bc57806302d05d3f1461022c57806302fb0c5e1461026d575b600080fd5b3480156101c857600080fd5b50610214600480360360208110156101df57600080fd5b8101908080357bffffffffffffffffffffffffffffffffffffffffffffffffffffffff19169060200190929190505050610b95565b60405180821515815260200191505060405180910390f35b34801561023857600080fd5b50610241610bfc565b604051808273ffffffffffffffffffffffffffffffffffffffff16815260200191505060405180910390f35b34801561027957600080fd5b50610282610c22565b60405180821515815260200191505060405180910390f35b3480156102a657600080fd5b506102af610c35565b604051808273ffffffffffffffffffffffffffffffffffffffff16815260200191505060405180910390f35b3480156102e757600080fd5b506102f0610c5b565b005b3480156102fe57600080fd5b5061034b6004803603604081101561031557600080fd5b8101908080359060200190929190803573ffffffffffffffffffffffffffffffffffffffff16906020019092919050505061100a565b6040518082815260200191505060405180910390f35b34801561036d57600080fd5b5061037661102f565b6040518082815260200191505060405180910390f35b34801561039857600080fd5b506103c5600480360360208110156103af57600080fd5b810190808035906020019092919050505061103c565b005b3480156103d357600080fd5b506103dc6114e6565b005b3480156103ea57600080fd5b506103f361166f565b005b34801561040157600080fd5b5061042e6004803603602081101561041857600080fd5b8101908080359060200190929190505050611741565b6040518082815260200191505060405180910390f35b34801561045057600080fd5b506104bd6004803603606081101561046757600080fd5b81019080803573ffffffffffffffffffffffffffffffffffffffff16906020019092919080359060200190929190803573ffffffffffffffffffffffffffffffffffffffff169060200190929190505050611762565b604051808481526020018373ffffffffffffffffffffffffffffffffffffffff1681526020018215158152602001935050505060405180910390f35b34801561050557600080fd5b5061053c6004803603604081101561051c57600080fd5b8101908080359060200190929190803590602001909291905050506117d3565b005b34801561054a57600080fd5b50610553611c65565b60405180821515815260200191505060405180910390f35b34801561057757600080fd5b506105a46004803603602081101561058e57600080fd5b8101908080359060200190929190505050611c78565b6040518082815260200191505060405180910390f35b3480156105c657600080fd5b506105cf611c99565b005b3480156105dd57600080fd5b506105e6611d6b565b005b3480156105f457600080fd5b506105fd611e3d565b60405180821515815260200191505060405180910390f35b34801561062157600080fd5b5061064e6004803603602081101561063857600080fd5b8101908080359060200190929190505050611e50565b6040518082815260200191505060405180910390f35b34801561067057600080fd5b506107d2600480360360a081101561068757600080fd5b81019080803573ffffffffffffffffffffffffffffffffffffffff169060200190929190803573ffffffffffffffffffffffffffffffffffffffff169060200190929190803590602001906401000000008111156106e457600080fd5b8201836020820111156106f657600080fd5b8035906020019184602083028401116401000000008311171561071857600080fd5b90919293919293908035906020019064010000000081111561073957600080fd5b82018360208201111561074b57600080fd5b8035906020019184602083028401116401000000008311171561076d57600080fd5b90919293919293908035906020019064010000000081111561078e57600080fd5b8201836020820111156107a057600080fd5b803590602001918460018302840111640100000000831117156107c257600080fd5b9091929391929390505050611e68565b60405180827bffffffffffffffffffffffffffffffffffffffffffffffffffffffff1916815260200191505060405180910390f35b34801561081357600080fd5b506108406004803603602081101561082a57600080fd5b8101908080359060200190929190505050611ee8565b6040518082815260200191505060405180910390f35b34801561086257600080fd5b5061086b611f09565b604051808273ffffffffffffffffffffffffffffffffffffffff16815260200191505060405180910390f35b3480156108a357600080fd5b506108ac611f2f565b005b3480156108ba57600080fd5b50610991600480360360408110156108d157600080fd5b81019080803573ffffffffffffffffffffffffffffffffffffffff1690602001909291908035906020019064010000000081111561090e57600080fd5b82018360208201111561092057600080fd5b8035906020019184602083028401116401000000008311171561094257600080fd5b919080806020026020016040519081016040528093929190818152602001838360200280828437600081840152601f19601f8201169050808301925050505050505091929192905050506122dc565b005b6109c9600480360360408110156109a957600080fd5b8101908080359060200190929190803590602001909291905050506125c3565b005b610a21600480360360608110156109e157600080fd5b810190808035906020019092919080359060200190929190803573ffffffffffffffffffffffffffffffffffffffff169060200190929190505050612cfb565b005b348015610a2f57600080fd5b50610afb600480360360a0811015610a4657600080fd5b81019080803573ffffffffffffffffffffffffffffffffffffffff169060200190929190803573ffffffffffffffffffffffffffffffffffffffff169060200190929190803590602001909291908035906020019092919080359060200190640100000000811115610ab757600080fd5b820183602082011115610ac957600080fd5b80359060200191846001830284011164010000000083111715610aeb57600080fd5b909192939192939050505061377d565b60405180827bffffffffffffffffffffffffffffffffffffffffffffffffffffffff1916815260200191505060405180910390f35b348015610b3c57600080fd5b50610b9360048036036060811015610b5357600080fd5b81019080803573ffffffffffffffffffffffffffffffffffffffff16906020019092919080359060200190929190803590602001909291905050506137fb565b005b6000806000837bffffffffffffffffffffffffffffffffffffffffffffffffffffffff19167bffffffffffffffffffffffffffffffffffffffffffffffffffffffff1916815260200190815260200160002060009054906101000a900460ff169050919050565b600560009054906101000a900473ffffffffffffffffffffffffffffffffffffffff1681565b600560149054906101000a900460ff1681565b600160009054906101000a900473ffffffffffffffffffffffffffffffffffffffff1681565b600560009054906101000a900473ffffffffffffffffffffffffffffffffffffffff1673ffffffffffffffffffffffffffffffffffffffff163373ffffffffffffffffffffffffffffffffffffffff1614610d01576040517f08c379a00000000000000000000000000000000000000000000000000000000081526004018080602001828103825260288152602001806140d66028913960400191505060405180910390fd5b600560149054906101000a900460ff1615610d84576040517f08c379a000000000000000000000000000000000000000000000000000000000815260040180806020018281038252601b8152602001807f47656e4d61726b65743a204d61726b657420697320616374697665000000000081525060200191505060405180910390fd5b606060038054905067ffffffffffffffff81118015610da257600080fd5b50604051908082528060200260200182016040528015610dd15781602001602082028036833780820191505090505b50905060005b6003805490508160ff161015610e13578060ff16828260ff1681518110610dfa57fe5b6020026020010181815250508080600101915050610dd7565b50600160009054906101000a900473ffffffffffffffffffffffffffffffffffffffff1673ffffffffffffffffffffffffffffffffffffffff16632eb2c2d630338460086040518060400160405280600281526020017f4a430000000000000000000000000000000000000000000000000000000000008152506040518663ffffffff1660e01b8152600401808673ffffffffffffffffffffffffffffffffffffffff1681526020018573ffffffffffffffffffffffffffffffffffffffff168152602001806020018060200180602001848103845287818151815260200191508051906020019060200280838360005b83811015610f1f578082015181840152602081019050610f04565b505050509050018481038352868181548152602001915080548015610f6357602002820191906000526020600020905b815481526020019060010190808311610f4f575b5050848103825285818151815260200191508051906020019080838360005b83811015610f9d578082015181840152602081019050610f82565b50505050905090810190601f168015610fca5780820380516001836020036101000a031916815260200191505b5098505050505050505050600060405180830381600087803b158015610fef57600080fd5b505af1158015611003573d6000803e3d6000fd5b5050505050565b6006602052816000526040600020602052806000526040600020600091509150505481565b6000600380549050905090565b611044613d15565b60096000600160009054906101000a900473ffffffffffffffffffffffffffffffffffffffff1673ffffffffffffffffffffffffffffffffffffffff1673ffffffffffffffffffffffffffffffffffffffff168152602001908152602001600020600083815260200190815260200160002060003373ffffffffffffffffffffffffffffffffffffffff1673ffffffffffffffffffffffffffffffffffffffff168152602001908152602001600020604051806060016040529081600082015481526020016001820160009054906101000a900473ffffffffffffffffffffffffffffffffffffffff1673ffffffffffffffffffffffffffffffffffffffff1673ffffffffffffffffffffffffffffffffffffffff1681526020016001820160149054906101000a900460ff16151515158152505090503373ffffffffffffffffffffffffffffffffffffffff16816020015173ffffffffffffffffffffffffffffffffffffffff1614611203576040517f08c379a000000000000000000000000000000000000000000000000000000000815260040180806020018281038252602c8152602001806140aa602c913960400191505060405180910390fd5b600115158160400151151514611264576040517f08c379a000000000000000000000000000000000000000000000000000000000815260040180806020018281038252602f815260200180613f50602f913960400191505060405180910390fd5b6000600160009054906101000a900473ffffffffffffffffffffffffffffffffffffffff1673ffffffffffffffffffffffffffffffffffffffff1662fdd58e33856040518363ffffffff1660e01b8152600401808373ffffffffffffffffffffffffffffffffffffffff1681526020018281526020019250505060206040518083038186803b1580156112f657600080fd5b505afa15801561130a573d6000803e3d6000fd5b505050506040513d602081101561132057600080fd5b810190808051906020019092919050505011611387576040517f08c379a0000000000000000000000000000000000000000000000000000000008152600401808060200182810382526031815260200180613ea16031913960400191505060405180910390fd5b6040518060600160405280826000015181526020013373ffffffffffffffffffffffffffffffffffffffff1681526020016000151581525060096000600160009054906101000a900473ffffffffffffffffffffffffffffffffffffffff1673ffffffffffffffffffffffffffffffffffffffff1673ffffffffffffffffffffffffffffffffffffffff168152602001908152602001600020600084815260200190815260200160002060003373ffffffffffffffffffffffffffffffffffffffff1673ffffffffffffffffffffffffffffffffffffffff1681526020019081526020016000206000820151816000015560208201518160010160006101000a81548173ffffffffffffffffffffffffffffffffffffffff021916908373ffffffffffffffffffffffffffffffffffffffff16021790555060408201518160010160146101000a81548160ff0219169083151502179055509050505050565b600560009054906101000a900473ffffffffffffffffffffffffffffffffffffffff1673ffffffffffffffffffffffffffffffffffffffff163373ffffffffffffffffffffffffffffffffffffffff161461158c576040517f08c379a000000000000000000000000000000000000000000000000000000000815260040180806020018281038252602a815260200180614080602a913960400191505060405180910390fd5b600060603373ffffffffffffffffffffffffffffffffffffffff164760405180600001905060006040518083038185875af1925050503d80600081146115ee576040519150601f19603f3d011682016040523d82523d6000602084013e6115f3565b606091505b50915091508161166b576040517f08c379a000000000000000000000000000000000000000000000000000000000815260040180806020018281038252601f8152602001807f47656e4d61726b65743a204661696c656420746f2073656e642045746865720081525060200191505060405180910390fd5b5050565b600560009054906101000a900473ffffffffffffffffffffffffffffffffffffffff1673ffffffffffffffffffffffffffffffffffffffff163373ffffffffffffffffffffffffffffffffffffffff1614611715576040517f08c379a0000000000000000000000000000000000000000000000000000000008152600401808060200182810382526036815260200180613f1a6036913960400191505060405180910390fd5b600560149054906101000a900460ff1615600560146101000a81548160ff021916908315150217905550565b6003818154811061174e57fe5b906000526020600020016000915090505481565b600960205282600052604060002060205281600052604060002060205280600052604060002060009250925050508060000154908060010160009054906101000a900473ffffffffffffffffffffffffffffffffffffffff16908060010160149054906101000a900460ff16905083565b600560169054906101000a900460ff16611838576040517f08c379a0000000000000000000000000000000000000000000000000000000008152600401808060200182810382526037815260200180613db76037913960400191505060405180910390fd5b611840613d15565b60096000600160009054906101000a900473ffffffffffffffffffffffffffffffffffffffff1673ffffffffffffffffffffffffffffffffffffffff1673ffffffffffffffffffffffffffffffffffffffff168152602001908152602001600020600084815260200190815260200160002060003373ffffffffffffffffffffffffffffffffffffffff1673ffffffffffffffffffffffffffffffffffffffff168152602001908152602001600020604051806060016040529081600082015481526020016001820160009054906101000a900473ffffffffffffffffffffffffffffffffffffffff1673ffffffffffffffffffffffffffffffffffffffff1673ffffffffffffffffffffffffffffffffffffffff1681526020016001820160149054906101000a900460ff16151515158152505090506000600160009054906101000a900473ffffffffffffffffffffffffffffffffffffffff1673ffffffffffffffffffffffffffffffffffffffff1662fdd58e33866040518363ffffffff1660e01b8152600401808373ffffffffffffffffffffffffffffffffffffffff1681526020018281526020019250505060206040518083038186803b158015611a0957600080fd5b505afa158015611a1d573d6000803e3d6000fd5b505050506040513d6020811015611a3357600080fd5b810190808051906020019092919050505011611a9a576040517f08c379a0000000000000000000000000000000000000000000000000000000008152600401808060200182810382526031815260200180613ea16031913960400191505060405180910390fd5b60011515816040015115151415611b09578060000151821115611b08576040517f08c379a000000000000000000000000000000000000000000000000000000000815260040180806020018281038252608b815260200180613dee608b913960a00191505060405180910390fd5b5b60405180606001604052808381526020013373ffffffffffffffffffffffffffffffffffffffff1681526020016001151581525060096000600160009054906101000a900473ffffffffffffffffffffffffffffffffffffffff1673ffffffffffffffffffffffffffffffffffffffff1673ffffffffffffffffffffffffffffffffffffffff168152602001908152602001600020600085815260200190815260200160002060003373ffffffffffffffffffffffffffffffffffffffff1673ffffffffffffffffffffffffffffffffffffffff1681526020019081526020016000206000820151816000015560208201518160010160006101000a81548173ffffffffffffffffffffffffffffffffffffffff021916908373ffffffffffffffffffffffffffffffffffffffff16021790555060408201518160010160146101000a81548160ff021916908315150217905550905050505050565b600560169054906101000a900460ff1681565b60088181548110611c8557fe5b906000526020600020016000915090505481565b600560009054906101000a900473ffffffffffffffffffffffffffffffffffffffff1673ffffffffffffffffffffffffffffffffffffffff163373ffffffffffffffffffffffffffffffffffffffff1614611d3f576040517f08c379a000000000000000000000000000000000000000000000000000000000815260040180806020018281038252603781526020018061400a6037913960400191505060405180910390fd5b600560169054906101000a900460ff1615600560166101000a81548160ff021916908315150217905550565b600560009054906101000a900473ffffffffffffffffffffffffffffffffffffffff1673ffffffffffffffffffffffffffffffffffffffff163373ffffffffffffffffffffffffffffffffffffffff1614611e11576040517f08c379a000000000000000000000000000000000000000000000000000000000815260040180806020018281038252603d815260200180613f7f603d913960400191505060405180910390fd5b600560159054906101000a900460ff1615600560156101000a81548160ff021916908315150217905550565b600560159054906101000a900460ff1681565b60076020528060005260406000206000915090505481565b60006040518060400160405280600281526020017f4a4300000000000000000000000000000000000000000000000000000000000081525080519060200120838360405180838380828437808301925050509250505060405180910390201415611edb5763bc197c8160e01b9050611edc565b5b98975050505050505050565b60028181548110611ef557fe5b906000526020600020016000915090505481565b600460009054906101000a900473ffffffffffffffffffffffffffffffffffffffff1681565b600560009054906101000a900473ffffffffffffffffffffffffffffffffffffffff1673ffffffffffffffffffffffffffffffffffffffff163373ffffffffffffffffffffffffffffffffffffffff1614611fd5576040517f08c379a0000000000000000000000000000000000000000000000000000000008152600401808060200182810382526038815260200180613d4f6038913960400191505060405180910390fd5b600560149054906101000a900460ff161561203b576040517f08c379a0000000000000000000000000000000000000000000000000000000008152600401808060200182810382526028815260200180613e796028913960400191505060405180910390fd5b606060038054905067ffffffffffffffff8111801561205957600080fd5b506040519080825280602002602001820160405280156120885781602001602082028036833780820191505090505b50905060005b6003805490508160ff1610156120ca578060ff16828260ff16815181106120b157fe5b602002602001018181525050808060010191505061208e565b50600160009054906101000a900473ffffffffffffffffffffffffffffffffffffffff1673ffffffffffffffffffffffffffffffffffffffff16632eb2c2d633308460036040518060400160405280600281526020017f4a430000000000000000000000000000000000000000000000000000000000008152506040518663ffffffff1660e01b8152600401808673ffffffffffffffffffffffffffffffffffffffff1681526020018573ffffffffffffffffffffffffffffffffffffffff168152602001806020018060200180602001848103845287818151815260200191508051906020019060200280838360005b838110156121d65780820151818401526020810190506121bb565b50505050905001848103835286818154815260200191508054801561221a57602002820191906000526020600020905b815481526020019060010190808311612206575b5050848103825285818151815260200191508051906020019080838360005b83811015612254578082015181840152602081019050612239565b50505050905090810190601f1680156122815780820380516001836020036101000a031916815260200191505b5098505050505050505050600060405180830381600087803b1580156122a657600080fd5b505af11580156122ba573d6000803e3d6000fd5b505050506001600560146101000a81548160ff02191690831515021790555050565b600560159054906101000a900460ff16612341576040517f08c379a0000000000000000000000000000000000000000000000000000000008152600401808060200182810382526030815260200180613d876030913960400191505060405180910390fd5b6060815167ffffffffffffffff8111801561235b57600080fd5b5060405190808252806020026020018201604052801561238a5781602001602082028036833780820191505090505b50905060005b82518160ff1610156123c8578060ff16828260ff16815181106123af57fe5b6020026020010181815250508080600101915050612390565b50600160009054906101000a900473ffffffffffffffffffffffffffffffffffffffff1673ffffffffffffffffffffffffffffffffffffffff16632eb2c2d6338584866040518060400160405280600281526020017f4a430000000000000000000000000000000000000000000000000000000000008152506040518663ffffffff1660e01b8152600401808673ffffffffffffffffffffffffffffffffffffffff1681526020018573ffffffffffffffffffffffffffffffffffffffff168152602001806020018060200180602001848103845287818151815260200191508051906020019060200280838360005b838110156124d35780820151818401526020810190506124b8565b50505050905001848103835286818151815260200191508051906020019060200280838360005b838110156125155780820151818401526020810190506124fa565b50505050905001848103825285818151815260200191508051906020019080838360005b83811015612554578082015181840152602081019050612539565b50505050905090810190601f1680156125815780820380516001836020036101000a031916815260200191505b5098505050505050505050600060405180830381600087803b1580156125a657600080fd5b505af11580156125ba573d6000803e3d6000fd5b50505050505050565b600560149054906101000a900460ff16612628576040517f08c379a000000000000000000000000000000000000000000000000000000000815260040180806020018281038252602a815260200180613fe0602a913960400191505060405180910390fd5b6003828154811061263557fe5b9060005260206000200154612666826007600086815260200190815260200160002054613afb90919063ffffffff16565b11156126bd576040517f08c379a0000000000000000000000000000000000000000000000000000000008152600401808060200182810382526027815260200180613ef36027913960400191505060405180910390fd5b346126e882600285815481106126cf57fe5b9060005260206000200154613b8390919063ffffffff16565b111561275c576040517f08c379a000000000000000000000000000000000000000000000000000000000815260040180806020018281038252601f8152602001807f47656e4d61726b65743a20496e73756666696369656e74207061796d656e740081525060200191505060405180910390fd5b6127bf816006600085815260200190815260200160002060003373ffffffffffffffffffffffffffffffffffffffff1673ffffffffffffffffffffffffffffffffffffffff16815260200190815260200160002054613afb90919063ffffffff16565b6006600084815260200190815260200160002060003373ffffffffffffffffffffffffffffffffffffffff1673ffffffffffffffffffffffffffffffffffffffff16815260200190815260200160002081905550612839816007600085815260200190815260200160002054613afb90919063ffffffff16565b600760008481526020019081526020016000208190555061288d60076000848152602001908152602001600020546003848154811061287457fe5b9060005260206000200154613c0990919063ffffffff16565b6008838154811061289a57fe5b9060005260206000200181905550600073ffffffffffffffffffffffffffffffffffffffff16600460009054906101000a900473ffffffffffffffffffffffffffffffffffffffff1673ffffffffffffffffffffffffffffffffffffffff1663017e7e586040518163ffffffff1660e01b815260040160206040518083038186803b15801561292857600080fd5b505afa15801561293c573d6000803e3d6000fd5b505050506040513d602081101561295257600080fd5b810190808051906020019092919050505073ffffffffffffffffffffffffffffffffffffffff1614612bb65760006060600460009054906101000a900473ffffffffffffffffffffffffffffffffffffffff1673ffffffffffffffffffffffffffffffffffffffff1663017e7e586040518163ffffffff1660e01b815260040160206040518083038186803b1580156129ea57600080fd5b505afa1580156129fe573d6000803e3d6000fd5b505050506040513d6020811015612a1457600080fd5b810190808051906020019092919050505073ffffffffffffffffffffffffffffffffffffffff16612af0600460009054906101000a900473ffffffffffffffffffffffffffffffffffffffff1673ffffffffffffffffffffffffffffffffffffffff16639a36f9326040518163ffffffff1660e01b815260040160206040518083038186803b158015612aa657600080fd5b505afa158015612aba573d6000803e3d6000fd5b505050506040513d6020811015612ad057600080fd5b810190808051906020019092919050505034613c8c90919063ffffffff16565b60405180600001905060006040518083038185875af1925050503d8060008114612b36576040519150601f19603f3d011682016040523d82523d6000602084013e612b3b565b606091505b509150915081612bb3576040517f08c379a000000000000000000000000000000000000000000000000000000000815260040180806020018281038252601f8152602001807f47656e4d61726b65743a204661696c656420746f2073656e642045746865720081525060200191505060405180910390fd5b50505b6060600160009054906101000a900473ffffffffffffffffffffffffffffffffffffffff1673ffffffffffffffffffffffffffffffffffffffff1663f242432a30338686866040518663ffffffff1660e01b8152600401808673ffffffffffffffffffffffffffffffffffffffff1681526020018573ffffffffffffffffffffffffffffffffffffffff16815260200184815260200183815260200180602001828103825283818151815260200191508051906020019080838360005b83811015612c8e578082015181840152602081019050612c73565b50505050905090810190601f168015612cbb5780820380516001836020036101000a031916815260200191505b509650505050505050600060405180830381600087803b158015612cde57600080fd5b505af1158015612cf2573d6000803e3d6000fd5b50505050505050565b612d03613d15565b60096000600160009054906101000a900473ffffffffffffffffffffffffffffffffffffffff1673ffffffffffffffffffffffffffffffffffffffff1673ffffffffffffffffffffffffffffffffffffffff168152602001908152602001600020600085815260200190815260200160002060008373ffffffffffffffffffffffffffffffffffffffff1673ffffffffffffffffffffffffffffffffffffffff168152602001908152602001600020604051806060016040529081600082015481526020016001820160009054906101000a900473ffffffffffffffffffffffffffffffffffffffff1673ffffffffffffffffffffffffffffffffffffffff1673ffffffffffffffffffffffffffffffffffffffff1681526020016001820160149054906101000a900460ff1615151515815250509050600115158160400151151514612e9b576040517f08c379a000000000000000000000000000000000000000000000000000000000815260040180806020018281038252602f815260200180613f50602f913960400191505060405180910390fd5b82600160009054906101000a900473ffffffffffffffffffffffffffffffffffffffff1673ffffffffffffffffffffffffffffffffffffffff1662fdd58e8360200151876040518363ffffffff1660e01b8152600401808373ffffffffffffffffffffffffffffffffffffffff1681526020018281526020019250505060206040518083038186803b158015612f3057600080fd5b505afa158015612f44573d6000803e3d6000fd5b505050506040513d6020811015612f5a57600080fd5b81019080805190602001909291905050501015612fc2576040517f08c379a000000000000000000000000000000000000000000000000000000000815260040180806020018281038252603f815260200180614041603f913960400191505060405180910390fd5b34612fda848360000151613b8390919063ffffffff16565b1115613031576040517f08c379a0000000000000000000000000000000000000000000000000000000008152600401808060200182810382526024815260200180613fbc6024913960400191505060405180910390fd5b6000600460009054906101000a900473ffffffffffffffffffffffffffffffffffffffff1673ffffffffffffffffffffffffffffffffffffffff1663e5a70ef76040518163ffffffff1660e01b815260040160206040518083038186803b15801561309b57600080fd5b505afa1580156130af573d6000803e3d6000fd5b505050506040513d60208110156130c557600080fd5b8101908080519060200190929190505050106132a45760006060826020015173ffffffffffffffffffffffffffffffffffffffff166131dc60646131ce670de0b6b3a76400006131c0600460009054906101000a900473ffffffffffffffffffffffffffffffffffffffff1673ffffffffffffffffffffffffffffffffffffffff1663e5a70ef76040518163ffffffff1660e01b815260040160206040518083038186803b15801561317657600080fd5b505afa15801561318a573d6000803e3d6000fd5b505050506040513d60208110156131a057600080fd5b810190808051906020019092919050505034613b8390919063ffffffff16565b613c8c90919063ffffffff16565b613c8c90919063ffffffff16565b340360405180600001905060006040518083038185875af1925050503d8060008114613224576040519150601f19603f3d011682016040523d82523d6000602084013e613229565b606091505b5091509150816132a1576040517f08c379a000000000000000000000000000000000000000000000000000000000815260040180806020018281038252601f8152602001807f47656e4d61726b65743a204661696c656420746f2073656e642045746865720081525060200191505060405180910390fd5b50505b604051806060016040528060008152602001600073ffffffffffffffffffffffffffffffffffffffff1681526020016000151581525060096000600160009054906101000a900473ffffffffffffffffffffffffffffffffffffffff1673ffffffffffffffffffffffffffffffffffffffff1673ffffffffffffffffffffffffffffffffffffffff168152602001908152602001600020600086815260200190815260200160002060003373ffffffffffffffffffffffffffffffffffffffff1673ffffffffffffffffffffffffffffffffffffffff1681526020019081526020016000206000820151816000015560208201518160010160006101000a81548173ffffffffffffffffffffffffffffffffffffffff021916908373ffffffffffffffffffffffffffffffffffffffff16021790555060408201518160010160146101000a81548160ff0219169083151502179055509050506060600160009054906101000a900473ffffffffffffffffffffffffffffffffffffffff1673ffffffffffffffffffffffffffffffffffffffff1663f242432a8360200151338888866040518663ffffffff1660e01b8152600401808673ffffffffffffffffffffffffffffffffffffffff1681526020018573ffffffffffffffffffffffffffffffffffffffff16815260200184815260200183815260200180602001828103825283818151815260200191508051906020019080838360005b838110156134d95780820151818401526020810190506134be565b50505050905090810190601f1680156135065780820380516001836020036101000a031916815260200191505b509650505050505050600060405180830381600087803b15801561352957600080fd5b505af115801561353d573d6000803e3d6000fd5b505050506000600160009054906101000a900473ffffffffffffffffffffffffffffffffffffffff1673ffffffffffffffffffffffffffffffffffffffff1662fdd58e8460200151886040518363ffffffff1660e01b8152600401808373ffffffffffffffffffffffffffffffffffffffff1681526020018281526020019250505060206040518083038186803b1580156135d757600080fd5b505afa1580156135eb573d6000803e3d6000fd5b505050506040513d602081101561360157600080fd5b8101908080519060200190929190505050141561377657604051806060016040528060008152602001600073ffffffffffffffffffffffffffffffffffffffff1681526020016000151581525060096000600160009054906101000a900473ffffffffffffffffffffffffffffffffffffffff1673ffffffffffffffffffffffffffffffffffffffff1673ffffffffffffffffffffffffffffffffffffffff16815260200190815260200160002060008781526020019081526020016000206000846020015173ffffffffffffffffffffffffffffffffffffffff1673ffffffffffffffffffffffffffffffffffffffff1681526020019081526020016000206000820151816000015560208201518160010160006101000a81548173ffffffffffffffffffffffffffffffffffffffff021916908373ffffffffffffffffffffffffffffffffffffffff16021790555060408201518160010160146101000a81548160ff0219169083151502179055509050505b5050505050565b60006040518060400160405280600281526020017f4a43000000000000000000000000000000000000000000000000000000000000815250805190602001208383604051808383808284378083019250505092505050604051809103902014156137f05763f23a6e6160e01b90506137f1565b5b9695505050505050565b600560159054906101000a900460ff16613860576040517f08c379a0000000000000000000000000000000000000000000000000000000008152600401808060200182810382526030815260200180613d876030913960400191505060405180910390fd5b6000600160009054906101000a900473ffffffffffffffffffffffffffffffffffffffff1673ffffffffffffffffffffffffffffffffffffffff1662fdd58e33856040518363ffffffff1660e01b8152600401808373ffffffffffffffffffffffffffffffffffffffff1681526020018281526020019250505060206040518083038186803b1580156138f257600080fd5b505afa158015613906573d6000803e3d6000fd5b505050506040513d602081101561391c57600080fd5b810190808051906020019092919050505011613983576040517f08c379a0000000000000000000000000000000000000000000000000000000008152600401808060200182810382526031815260200180613ea16031913960400191505060405180910390fd5b600160009054906101000a900473ffffffffffffffffffffffffffffffffffffffff1673ffffffffffffffffffffffffffffffffffffffff1663f242432a338585856040518060400160405280600281526020017f4a430000000000000000000000000000000000000000000000000000000000008152506040518663ffffffff1660e01b8152600401808673ffffffffffffffffffffffffffffffffffffffff1681526020018573ffffffffffffffffffffffffffffffffffffffff16815260200184815260200183815260200180602001828103825283818151815260200191508051906020019080838360005b83811015613a8e578082015181840152602081019050613a73565b50505050905090810190601f168015613abb5780820380516001836020036101000a031916815260200191505b509650505050505050600060405180830381600087803b158015613ade57600080fd5b505af1158015613af2573d6000803e3d6000fd5b50505050505050565b600080828401905083811015613b79576040517f08c379a000000000000000000000000000000000000000000000000000000000815260040180806020018281038252601b8152602001807f536166654d6174683a206164646974696f6e206f766572666c6f77000000000081525060200191505060405180910390fd5b8091505092915050565b600080831415613b965760009050613c03565b6000828402905082848281613ba757fe5b0414613bfe576040517f08c379a0000000000000000000000000000000000000000000000000000000008152600401808060200182810382526021815260200180613ed26021913960400191505060405180910390fd5b809150505b92915050565b600082821115613c81576040517f08c379a000000000000000000000000000000000000000000000000000000000815260040180806020018281038252601e8152602001807f536166654d6174683a207375627472616374696f6e206f766572666c6f77000081525060200191505060405180910390fd5b818303905092915050565b6000808211613d03576040517f08c379a000000000000000000000000000000000000000000000000000000000815260040180806020018281038252601a8152602001807f536166654d6174683a206469766973696f6e206279207a65726f00000000000081525060200191505060405180910390fd5b818381613d0c57fe5b04905092915050565b604051806060016040528060008152602001600073ffffffffffffffffffffffffffffffffffffffff168152602001600015158152509056fe47656e4d61726b6574506c6163653a204f6e6c79207468652063726561746f722063616e206465706f73697420746865207469636b65747347656e4d61726b6574506c6163653a20546865206f7065726174696f6e206973206e6f7420616c6c6f7765642079657447656e4d61726b6574506c6163653a204d61726b657420706c61636520646f6573206e6f7420616c6c6f77206c697374696e672079657447656e4d61726b6574506c6163653a20546865206e65772073616c65207072696365206d757374206265206c6f776572207468616e207468652063757272656e742070726963652e20496620796f75206e65656420746f207365742061206869676865722070726963652c2063616e63656c20746865206c697374696e6720616e642072652d6c6973742e47656e4d61726b6574506c6163653a204d61726b657420697320616c72656164792061637469766547656e4d61726b6574506c6163653a20546865207469636b6574206973206e6f74206f776e65642062792043616c6c6572536166654d6174683a206d756c7469706c69636174696f6e206f766572666c6f7747656e4d61726b65743a204e6f7420656e6f756768207469636b6574732072656d61696e696e6747656e4d61726b65743a204f6e6c79207468652063726561746f722063616e20666c697020746865206d61726b65742073746174757347656e4d61726b6574506c6163653a20546865206974656d206973206e6f74206c697374656420666f722073616c6547656e4d61726b65743a204f6e6c79207468652063726561746f722063616e20666c69702074686520616c6c6f77206465706f7369742073746174757347656e4d61726b6574506c6163653a20496e73756666696369656e74207061796d656e7447656e4d61726b6574506c6163653a204d61726b657420706c616365206973206e6f742061637469766547656e4d61726b65743a204f6e6c79207468652063726561746f722063616e20666c697020656e61626c65206c6973742073746174757347656e4d61726b6574506c6163653a204e6f7420656e6f756768207469636b6574732070726573656e7465642f6c69737465642066726f6d2053656c6c657247656e4d61726b6574506c6163653a204f6e6c79207468652063726561746f722063616e20636c61696d47656e4d61726b6574506c6163653a205468652063616c6c6572206973206e6f74207468652073656c6c657247656e4d61726b65743a204f6e6c79207468652063726561746f722063616e207472616e73666572a26469706673582212200b4eb00117fb85bc237bb44ad052b78d9a9e7d1c8ae1042454723e1c9aed7a5c64736f6c634300060c0033",
  "immutableReferences": {},
  "source": "pragma solidity 0.6.12;\n\nimport \"@openzeppelin/contracts/token/ERC1155/IERC1155.sol\";\nimport \"@openzeppelin/contracts/token/ERC1155/ERC1155Receiver.sol\";\nimport \"@openzeppelin/contracts/math/SafeMath.sol\";\nimport \"./interfaces/IGenMarketPlaceFactory.sol\";\n\ncontract GenMarketPlace is ERC1155Receiver {\n    using SafeMath for uint;\n\n    address public genTicket;\n\n    uint256[] public prices;\n    uint256[] public numTicketsTransferable;\n    IGenMarketPlaceFactory public factory;\n    address public creator;\n    bool public active = false;\n    bool public allow = false;\n    bool public enable = false;\n    mapping(uint256 => mapping(address => uint256)) public purchases;\n    mapping(uint256 => uint256) public ticketsPurchased;\n    uint256[] public ticketsRemaining;\n\n    struct Listing {\n        uint256 sprice;\n        address seller;\n        bool listed;\n    }\n\n    // mapping(gt => mapping(id => mapping(seller => Listing))) public listings;\n    mapping(address => mapping(uint256 => mapping(address => Listing))) public listings;\n\n\n    bytes private constant VALIDATOR = bytes('JC');\n    \n    constructor (\n        address _genTicket,\n        uint256[] memory _prices,\n        uint256[] memory _numTicketsTransferable,\n        IGenMarketPlaceFactory _factory,\n        address _creator\n    ) \n        public \n    {\n        genTicket = _genTicket;\n        prices = _prices;\n        numTicketsTransferable = _numTicketsTransferable;\n        factory = _factory;\n        creator = _creator;\n        ticketsRemaining = numTicketsTransferable;\n    }\n\n    function ticketTypes() external view returns (uint) {\n        return numTicketsTransferable.length;\n    }\n\n    // To allow buyer to deposit bought tickets to _to address\n    function depositBoughtTickets (address _to, uint256 _id, uint256 _amount) external {\n        require(allow, \"GenMarketPlace: The operation is not allowed yet\");\n        require(IERC1155(genTicket).balanceOf(msg.sender, _id) > 0, \"GenMarketPlace: The ticket is not owned by Caller\");\n        IERC1155(genTicket).safeTransferFrom(msg.sender, _to, _id, _amount, VALIDATOR);\n    }\n\n    // to batch transfer NFTs to _to address eg (0x_to, [0,5,0,3])\n    function transferTickets(address _to, uint256[] memory _numTicketsToTransfer) external {\n        require(allow, \"GenMarketPlace: The operation is not allowed yet\");\n        uint256[] memory tokenIDs = new uint256[](_numTicketsToTransfer.length);\n        for (uint8 i=0; i < _numTicketsToTransfer.length; i++) {\n            tokenIDs[i] = i;\n        }\n        IERC1155(genTicket).safeBatchTransferFrom(msg.sender, _to, tokenIDs, _numTicketsToTransfer, VALIDATOR);\n    }\n\n    function deposit () external {\n        require(msg.sender == creator, \"GenMarketPlace: Only the creator can deposit the tickets\");\n        require(!active, \"GenMarketPlace: Market is already active\");\n        uint256[] memory tokenIDs = new uint256[](numTicketsTransferable.length);\n        for (uint8 i = 0; i < numTicketsTransferable.length; i++)\n            tokenIDs[i] = i;\n        IERC1155(genTicket).safeBatchTransferFrom(msg.sender, address(this), tokenIDs, numTicketsTransferable, VALIDATOR);\n\n        active = true;\n    }\n\n    function buy(uint256 _id, uint256 _amount) external payable {\n        require(active, \"GenMarketPlace: Market place is not active\");\n        require(ticketsPurchased[_id].add(_amount) <= numTicketsTransferable[_id], \"GenMarket: Not enough tickets remaining\");\n        require(prices[_id].mul(_amount) <= msg.value, \"GenMarket: Insufficient payment\");\n\n        purchases[_id][msg.sender] = purchases[_id][msg.sender].add(_amount);\n        ticketsPurchased[_id] = ticketsPurchased[_id].add(_amount);\n        ticketsRemaining[_id] = numTicketsTransferable[_id].sub(ticketsPurchased[_id]);\n\n        if (factory.feeTo() != address(0)) {\n            // Send fees to fee address\n            (bool sent, bytes memory data) = factory.feeTo().call{value: msg.value.div(factory.feeDivisor())}(\"\");\n            require(sent, \"GenMarket: Failed to send Ether\");\n        }\n        \n        bytes memory data;\n        IERC1155(genTicket).safeTransferFrom(address(this), msg.sender, _id, _amount, data);\n    }\n\n    // if at all we want to take back the remaining NFTs from this contract\n    // call only once\n    function transferUnsoldTickets() external {\n        require(msg.sender == creator, \"GenMarket: Only the creator can transfer\");\n        require(!active, \"GenMarket: Market is active\");\n\n        uint256[] memory tokenIDs = new uint256[](numTicketsTransferable.length);\n\n        for (uint8 i=0; i < numTicketsTransferable.length; i++) {\n            tokenIDs[i] = i;\n        }\n        IERC1155(genTicket).safeBatchTransferFrom(address(this), msg.sender, tokenIDs, ticketsRemaining, VALIDATOR);      \n    }\n\n    // to make market place active\n    function flipMarketStatus() external {\n        require(msg.sender == creator, \"GenMarket: Only the creator can flip the market status\");\n        active = !active;\n    }\n\n    // to allow buyers to deposit their tickets\n    function flipAllowStatus() external {\n        require(msg.sender == creator, \"GenMarket: Only the creator can flip the allow deposit status\");\n        allow = !allow;\n    }\n\n    // to enable users to list their tickets on market place\n    function flipEnableStatus() external {\n        require(msg.sender == creator, \"GenMarket: Only the creator can flip enable list status\");\n        enable = !enable;\n    }\n\n    function addListing(uint256 _id, uint256 sprice) external {\n        require(enable, \"GenMarketPlace: Market place does not allow listing yet\");\n        Listing memory item = listings[genTicket][_id][msg.sender];\n        require(IERC1155(genTicket).balanceOf(msg.sender, _id) > 0, \"GenMarketPlace: The ticket is not owned by Caller\");\n\n        if (item.listed == true){\n            require(sprice <= item.sprice, \"GenMarketPlace: The new sale price must be lower than the current price. If you need to set a higher price, cancel the listing and re-list.\");\n        }\n\n        listings[genTicket][_id][msg.sender] = Listing(sprice, msg.sender, true);\n    }\n\n    function cancelListing(uint256 _id) external {\n        Listing memory item = listings[genTicket][_id][msg.sender];\n        require(item.seller == msg.sender, \"GenMarketPlace: The caller is not the seller\");\n        require(item.listed == true, \"GenMarketPlace: The item is not listed for sale\");\n        require(IERC1155(genTicket).balanceOf(msg.sender, _id) > 0, \"GenMarketPlace: The ticket is not owned by Caller\");\n\n        listings[genTicket][_id][msg.sender] = Listing(item.sprice, msg.sender, false);\n    }\n\n    function purchase(uint256 _id, uint256 _amount, address _seller) external payable {\n        Listing memory item = listings[genTicket][_id][_seller];\n        require(item.listed == true, \"GenMarketPlace: The item is not listed for sale\");\n        require(IERC1155(genTicket).balanceOf(item.seller, _id) >= _amount, \"GenMarketPlace: Not enough tickets presented/listed from Seller\");\n        // require(IERC1155(genTicket).isApprovedForAll(msg.sender, address(this)), \"GenMarketPlace: Not approved to GenTickets\");\n        require(item.sprice.mul(_amount) <= msg.value, \"GenMarketPlace: Insufficient payment\");\n        \n        if(factory.feeMultiplier() >= 0){\n        (bool sent, bytes memory data) = item.seller.call{value: (msg.value - msg.value.mul(factory.feeMultiplier()).div(10**18).div(100))}(\"\");\n        require(sent, \"GenMarket: Failed to send Ether\");\n        }\n\n        listings[genTicket][_id][msg.sender] = Listing(0, address(0), false);\n\n        bytes memory data;\n        IERC1155(genTicket).safeTransferFrom(item.seller, msg.sender, _id, _amount, data);\n\n        if (IERC1155(genTicket).balanceOf(item.seller, _id) == 0){\n            listings[genTicket][_id][item.seller] = Listing(0, address(0), false);\n        }\n\n    }\n\n    function claim() external {\n        require(msg.sender == creator, \"GenMarketPlace: Only the creator can claim\");\n\n        (bool sent, bytes memory data) = msg.sender.call{value: address(this).balance}(\"\");\n        require(sent, \"GenMarket: Failed to send Ether\");\n    }\n\n    function getBlockTimestamp() internal view returns (uint) {\n        // solium-disable-next-line security/no-block-members\n        return block.timestamp;\n    }\n\n    /**\n     * ERC1155 Token ERC1155Receiver\n     */\n    function onERC1155Received(address _operator, address _from, uint256 _id, uint256 _value, bytes calldata _data) override external returns(bytes4) {\n        if(keccak256(_data) == keccak256(VALIDATOR)){\n            return 0xf23a6e61;\n        }\n    }\n\n    function onERC1155BatchReceived(address _operator, address _from, uint256[] calldata _ids, uint256[] calldata _values, bytes calldata _data) override external returns(bytes4) {\n        if(keccak256(_data) == keccak256(VALIDATOR)){\n            return 0xbc197c81;\n        }\n    }\n}",
  "sourcePath": "/Users/anandsinha/workspace/genesis-shards/contracts/GenMarketPlace.sol",
  "compiler": {
    "name": "solc",
    "version": "0.6.12+commit.27d51765.Emscripten.clang"
  },
  "schemaVersion": "3.4.3",
  "updatedAt": "2022-01-27T12:46:01.917Z",
  "devdoc": {
    "kind": "dev",
    "methods": {
      "supportsInterface(bytes4)": {
        "details": "See {IERC165-supportsInterface}. Time complexity O(1), guaranteed to always use less than 30 000 gas."
      }
    },
    "version": 1
  },
  "userdoc": {
    "kind": "user",
    "methods": {
      "onERC1155Received(address,address,uint256,uint256,bytes)": {
        "notice": "ERC1155 Token ERC1155Receiver"
      }
    },
    "version": 1
  }
}