{
  "contractName": "GenMarketFactory",
  "abi": [
    {
      "inputs": [
        {
          "internalType": "address",
          "name": "_feeToSetter",
          "type": "address"
        }
      ],
      "stateMutability": "nonpayable",
      "type": "constructor"
    },
    {
      "anonymous": false,
      "inputs": [
        {
          "indexed": true,
          "internalType": "address",
          "name": "caller",
          "type": "address"
        },
        {
          "indexed": true,
          "internalType": "address",
          "name": "genMarket",
          "type": "address"
        }
      ],
      "name": "MarketCreated",
      "type": "event"
    },
    {
      "inputs": [],
      "name": "feeDivisor",
      "outputs": [
        {
          "internalType": "uint256",
          "name": "",
          "type": "uint256"
        }
      ],
      "stateMutability": "view",
      "type": "function"
    },
    {
      "inputs": [],
      "name": "feeTo",
      "outputs": [
        {
          "internalType": "address",
          "name": "",
          "type": "address"
        }
      ],
      "stateMutability": "view",
      "type": "function"
    },
    {
      "inputs": [],
      "name": "feeToSetter",
      "outputs": [
        {
          "internalType": "address",
          "name": "",
          "type": "address"
        }
      ],
      "stateMutability": "view",
      "type": "function"
    },
    {
      "inputs": [
        {
          "internalType": "uint256",
          "name": "",
          "type": "uint256"
        }
      ],
      "name": "genMarkets",
      "outputs": [
        {
          "internalType": "address",
          "name": "",
          "type": "address"
        }
      ],
      "stateMutability": "view",
      "type": "function"
    },
    {
      "inputs": [
        {
          "internalType": "address",
          "name": "",
          "type": "address"
        }
      ],
      "name": "getGenMarket",
      "outputs": [
        {
          "internalType": "uint256",
          "name": "",
          "type": "uint256"
        }
      ],
      "stateMutability": "view",
      "type": "function"
    },
    {
      "inputs": [
        {
          "internalType": "address",
          "name": "",
          "type": "address"
        }
      ],
      "name": "ticketToMarket",
      "outputs": [
        {
          "internalType": "address",
          "name": "",
          "type": "address"
        }
      ],
      "stateMutability": "view",
      "type": "function"
    },
    {
      "inputs": [],
      "name": "genMarketsLength",
      "outputs": [
        {
          "internalType": "uint256",
          "name": "",
          "type": "uint256"
        }
      ],
      "stateMutability": "view",
      "type": "function"
    },
    {
      "inputs": [
        {
          "internalType": "address",
          "name": "_genTicket",
          "type": "address"
        },
        {
          "internalType": "address",
          "name": "_usdt",
          "type": "address"
        },
        {
          "internalType": "uint256[]",
          "name": "_prices",
          "type": "uint256[]"
        },
        {
          "internalType": "uint256[]",
          "name": "_numTickets",
          "type": "uint256[]"
        },
        {
          "internalType": "uint256[]",
          "name": "_purchaseLimits",
          "type": "uint256[]"
        }
      ],
      "name": "createGenMarket",
      "outputs": [
        {
          "internalType": "address",
          "name": "",
          "type": "address"
        }
      ],
      "stateMutability": "nonpayable",
      "type": "function"
    },
    {
      "inputs": [
        {
          "internalType": "address",
          "name": "_feeTo",
          "type": "address"
        }
      ],
      "name": "setFeeTo",
      "outputs": [],
      "stateMutability": "nonpayable",
      "type": "function"
    },
    {
      "inputs": [
        {
          "internalType": "address",
          "name": "_feeToSetter",
          "type": "address"
        }
      ],
      "name": "setFeeToSetter",
      "outputs": [],
      "stateMutability": "nonpayable",
      "type": "function"
    },
    {
      "inputs": [
        {
          "internalType": "uint256",
          "name": "_feeDivisor",
          "type": "uint256"
        }
      ],
      "name": "setFeeDivisor",
      "outputs": [],
      "stateMutability": "nonpayable",
      "type": "function"
    }
  ],
  "bytecode": "0x608060405234801561001057600080fd5b50604051614e1f380380614e1f8339818101604052602081101561003357600080fd5b810190808051906020019092919050505080600260006101000a81548173ffffffffffffffffffffffffffffffffffffffff021916908373ffffffffffffffffffffffffffffffffffffffff16021790555050614d8a806100956000396000f3fe60806040523480156200001157600080fd5b5060043610620000b85760003560e01c806341d254d0116200007b57806341d254d014620002265780637216a5ad14620002465780639a36f932146200049c578063a2e74af614620004bc578063b17b21ed1462000503578063f46901ed146200055e57620000b8565b8063017e7e5814620000bd5780630362e30014620000f3578063043531b1146200014e578063094b7415146200017f5780630d56525514620001b5575b600080fd5b620000c7620005a5565b604051808273ffffffffffffffffffffffffffffffffffffffff16815260200191505060405180910390f35b62000122600480360360208110156200010b57600080fd5b8101908080359060200190929190505050620005c9565b604051808273ffffffffffffffffffffffffffffffffffffffff16815260200191505060405180910390f35b6200017d600480360360208110156200016657600080fd5b810190808035906020019092919050505062000606565b005b620001896200072f565b604051808273ffffffffffffffffffffffffffffffffffffffff16815260200191505060405180910390f35b620001fa60048036036020811015620001cd57600080fd5b81019080803573ffffffffffffffffffffffffffffffffffffffff16906020019092919050505062000755565b604051808273ffffffffffffffffffffffffffffffffffffffff16815260200191505060405180910390f35b6200023062000788565b6040518082815260200191505060405180910390f35b62000470600480360360a08110156200025e57600080fd5b81019080803573ffffffffffffffffffffffffffffffffffffffff169060200190929190803573ffffffffffffffffffffffffffffffffffffffff16906020019092919080359060200190640100000000811115620002bc57600080fd5b820183602082011115620002cf57600080fd5b80359060200191846020830284011164010000000083111715620002f257600080fd5b919080806020026020016040519081016040528093929190818152602001838360200280828437600081840152601f19601f820116905080830192505050505050509192919290803590602001906401000000008111156200035357600080fd5b8201836020820111156200036657600080fd5b803590602001918460208302840111640100000000831117156200038957600080fd5b919080806020026020016040519081016040528093929190818152602001838360200280828437600081840152601f19601f82011690508083019250505050505050919291929080359060200190640100000000811115620003ea57600080fd5b820183602082011115620003fd57600080fd5b803590602001918460208302840111640100000000831117156200042057600080fd5b919080806020026020016040519081016040528093929190818152602001838360200280828437600081840152601f19601f82011690508083019250505050505050919291929050505062000795565b604051808273ffffffffffffffffffffffffffffffffffffffff16815260200191505060405180910390f35b620004a662000b10565b6040518082815260200191505060405180910390f35b6200050160048036036020811015620004d457600080fd5b81019080803573ffffffffffffffffffffffffffffffffffffffff16906020019092919050505062000b16565b005b62000548600480360360208110156200051b57600080fd5b81019080803573ffffffffffffffffffffffffffffffffffffffff16906020019092919050505062000c1e565b6040518082815260200191505060405180910390f35b620005a3600480360360208110156200057657600080fd5b81019080803573ffffffffffffffffffffffffffffffffffffffff16906020019092919050505062000c36565b005b60008054906101000a900473ffffffffffffffffffffffffffffffffffffffff1681565b60038181548110620005d757fe5b906000526020600020016000915054906101000a900473ffffffffffffffffffffffffffffffffffffffff1681565b600260009054906101000a900473ffffffffffffffffffffffffffffffffffffffff1673ffffffffffffffffffffffffffffffffffffffff163373ffffffffffffffffffffffffffffffffffffffff1614620006ca576040517f08c379a000000000000000000000000000000000000000000000000000000000815260040180806020018281038252601b8152602001807f47656e4d61726b6574466163746f72793a20464f5242494444454e000000000081525060200191505060405180910390fd5b6000811162000725576040517f08c379a000000000000000000000000000000000000000000000000000000000815260040180806020018281038252602e81526020018062004d27602e913960400191505060405180910390fd5b8060018190555050565b600260009054906101000a900473ffffffffffffffffffffffffffffffffffffffff1681565b60056020528060005260406000206000915054906101000a900473ffffffffffffffffffffffffffffffffffffffff1681565b6000600380549050905090565b60008351835114620007f3576040517f08c379a000000000000000000000000000000000000000000000000000000000815260040180806020018281038252602581526020018062004d026025913960400191505060405180910390fd5b6000868686868630336040516200080a9062000d3d565b808873ffffffffffffffffffffffffffffffffffffffff1681526020018773ffffffffffffffffffffffffffffffffffffffff1681526020018060200180602001806020018673ffffffffffffffffffffffffffffffffffffffff1681526020018573ffffffffffffffffffffffffffffffffffffffff168152602001848103845289818151815260200191508051906020019060200280838360005b83811015620008c4578082015181840152602081019050620008a7565b50505050905001848103835288818151815260200191508051906020019060200280838360005b8381101562000908578082015181840152602081019050620008eb565b50505050905001848103825287818151815260200191508051906020019060200280838360005b838110156200094c5780820151818401526020810190506200092f565b505050509050019a5050505050505050505050604051809103906000f0801580156200097c573d6000803e3d6000fd5b509050600380549050600460008373ffffffffffffffffffffffffffffffffffffffff1673ffffffffffffffffffffffffffffffffffffffff1681526020019081526020016000208190555080600560008973ffffffffffffffffffffffffffffffffffffffff1673ffffffffffffffffffffffffffffffffffffffff16815260200190815260200160002060006101000a81548173ffffffffffffffffffffffffffffffffffffffff021916908373ffffffffffffffffffffffffffffffffffffffff1602179055506003819080600181540180825580915050600190039060005260206000200160009091909190916101000a81548173ffffffffffffffffffffffffffffffffffffffff021916908373ffffffffffffffffffffffffffffffffffffffff1602179055508073ffffffffffffffffffffffffffffffffffffffff163373ffffffffffffffffffffffffffffffffffffffff167f72bd1c1aa0b3cf8d29142bf2c3100320c089ef228d094996deac45cf9cb9453560405160405180910390a38091505095945050505050565b60015481565b600260009054906101000a900473ffffffffffffffffffffffffffffffffffffffff1673ffffffffffffffffffffffffffffffffffffffff163373ffffffffffffffffffffffffffffffffffffffff161462000bda576040517f08c379a000000000000000000000000000000000000000000000000000000000815260040180806020018281038252601b8152602001807f47656e4d61726b6574466163746f72793a20464f5242494444454e000000000081525060200191505060405180910390fd5b80600260006101000a81548173ffffffffffffffffffffffffffffffffffffffff021916908373ffffffffffffffffffffffffffffffffffffffff16021790555050565b60046020528060005260406000206000915090505481565b600260009054906101000a900473ffffffffffffffffffffffffffffffffffffffff1673ffffffffffffffffffffffffffffffffffffffff163373ffffffffffffffffffffffffffffffffffffffff161462000cfa576040517f08c379a000000000000000000000000000000000000000000000000000000000815260040180806020018281038252601b8152602001807f47656e4d61726b6574466163746f72793a20464f5242494444454e000000000081525060200191505060405180910390fd5b806000806101000a81548173ffffffffffffffffffffffffffffffffffffffff021916908373ffffffffffffffffffffffffffffffffffffffff16021790555050565b613fb68062000d4c8339019056fe60806040526000600660146101000a81548160ff0219169083151502179055506000600b60146101000a81548160ff0219169083151502179055507fffffffffffffffffffffffffffffffffffffffffffffffffffffffffffffffff600c553480156200006b57600080fd5b5060405162003fb638038062003fb6833981810160405260e08110156200009157600080fd5b81019080805190602001909291908051906020019092919080516040519392919084640100000000821115620000c657600080fd5b83820191506020820185811115620000dd57600080fd5b8251866020820283011164010000000082111715620000fb57600080fd5b8083526020830192505050908051906020019060200280838360005b838110156200013457808201518184015260208101905062000117565b50505050905001604052602001805160405193929190846401000000008211156200015e57600080fd5b838201915060208201858111156200017557600080fd5b82518660208202830111640100000000821117156200019357600080fd5b8083526020830192505050908051906020019060200280838360005b83811015620001cc578082015181840152602081019050620001af565b5050505090500160405260200180516040519392919084640100000000821115620001f657600080fd5b838201915060208201858111156200020d57600080fd5b82518660208202830111640100000000821117156200022b57600080fd5b8083526020830192505050908051906020019060200280838360005b838110156200026457808201518184015260208101905062000247565b505050509050016040526020018051906020019092919080519060200190929190505050620002a06301ffc9a760e01b6200043260201b60201c565b620002c163bc197c8160e01b63f23a6e6160e01b186200043260201b60201c565b86600160006101000a81548173ffffffffffffffffffffffffffffffffffffffff021916908373ffffffffffffffffffffffffffffffffffffffff16021790555085600b60006101000a81548173ffffffffffffffffffffffffffffffffffffffff021916908373ffffffffffffffffffffffffffffffffffffffff16021790555084600290805190602001906200035b9291906200053b565b508360039080519060200190620003749291906200053b565b5082600490805190602001906200038d9291906200053b565b5081600560006101000a81548173ffffffffffffffffffffffffffffffffffffffff021916908373ffffffffffffffffffffffffffffffffffffffff16021790555080600660006101000a81548173ffffffffffffffffffffffffffffffffffffffff021916908373ffffffffffffffffffffffffffffffffffffffff1602179055506003600a908054620004249291906200058d565b505050505050505062000603565b63ffffffff60e01b817bffffffffffffffffffffffffffffffffffffffffffffffffffffffff19161415620004cf576040517f08c379a000000000000000000000000000000000000000000000000000000000815260040180806020018281038252601c8152602001807f4552433136353a20696e76616c696420696e746572666163652069640000000081525060200191505060405180910390fd5b6001600080837bffffffffffffffffffffffffffffffffffffffffffffffffffffffff19167bffffffffffffffffffffffffffffffffffffffffffffffffffffffff1916815260200190815260200160002060006101000a81548160ff02191690831515021790555050565b8280548282559060005260206000209081019282156200057a579160200282015b82811115620005795782518255916020019190600101906200055c565b5b509050620005899190620005e4565b5090565b828054828255906000526020600020908101928215620005d15760005260206000209182015b82811115620005d0578254825591600101919060010190620005b3565b5b509050620005e09190620005e4565b5090565b5b80821115620005ff576000816000905550600101620005e5565b5090565b6139a380620006136000396000f3fe60806040526004361061019c5760003560e01c80635685235b116100ec578063bc31c1c11161008a578063d0e30db011610064578063d0e30db014610945578063d6febde81461095c578063db59b65a14610994578063f23a6e61146109d95761019c565b8063bc31c1c114610866578063c45a0155146108b5578063ce339d5b146108f65761019c565b80639d648f9b116100c65780639d648f9b1461054a578063a51df99614610625578063ba5ef73614610674578063bc197c81146106c35761019c565b80635685235b146104a357806378e97925146104f257806393282a7b1461051d5761019c565b80631c09e5c61161015957806347de8a901161013357806347de8a90146103ed5780634b25bfce146104045780634e71d92d1461047557806355662c261461048c5761019c565b80631c09e5c6146103125780632f48ab7d146103815780632fbbe937146103c25761019c565b806301ffc9a7146101a157806302d05d3f1461021157806302fb0c5e1461025257806306bcf02f1461027f57806307fc6e51146102ba57806314715d2b146102fb575b600080fd5b3480156101ad57600080fd5b506101f9600480360360208110156101c457600080fd5b8101908080357bffffffffffffffffffffffffffffffffffffffffffffffffffffffff19169060200190929190505050610ae6565b60405180821515815260200191505060405180910390f35b34801561021d57600080fd5b50610226610b4d565b604051808273ffffffffffffffffffffffffffffffffffffffff16815260200191505060405180910390f35b34801561025e57600080fd5b50610267610b73565b60405180821515815260200191505060405180910390f35b34801561028b57600080fd5b506102b8600480360360208110156102a257600080fd5b8101908080359060200190929190505050610b86565b005b3480156102c657600080fd5b506102cf610cf6565b604051808273ffffffffffffffffffffffffffffffffffffffff16815260200191505060405180910390f35b34801561030757600080fd5b50610310610d1c565b005b34801561031e57600080fd5b5061036b6004803603604081101561033557600080fd5b8101908080359060200190929190803573ffffffffffffffffffffffffffffffffffffffff1690602001909291905050506110ef565b6040518082815260200191505060405180910390f35b34801561038d57600080fd5b50610396611114565b604051808273ffffffffffffffffffffffffffffffffffffffff16815260200191505060405180910390f35b3480156103ce57600080fd5b506103d761113a565b6040518082815260200191505060405180910390f35b3480156103f957600080fd5b50610402611147565b005b34801561041057600080fd5b5061045d6004803603604081101561042757600080fd5b8101908080359060200190929190803573ffffffffffffffffffffffffffffffffffffffff1690602001909291905050506114ba565b60405180821515815260200191505060405180910390f35b34801561048157600080fd5b5061048a6114e9565b005b34801561049857600080fd5b506104a1611672565b005b3480156104af57600080fd5b506104dc600480360360208110156104c657600080fd5b8101908080359060200190929190505050611744565b6040518082815260200191505060405180910390f35b3480156104fe57600080fd5b50610507611765565b6040518082815260200191505060405180910390f35b34801561052957600080fd5b5061053261176b565b60405180821515815260200191505060405180910390f35b34801561055657600080fd5b506106236004803603606081101561056d57600080fd5b81019080803590602001909291908035906020019064010000000081111561059457600080fd5b8201836020820111156105a657600080fd5b803590602001918460208302840111640100000000831117156105c857600080fd5b919080806020026020016040519081016040528093929190818152602001838360200280828437600081840152601f19601f82011690508083019250505050505050919291929080351515906020019092919050505061177e565b005b34801561063157600080fd5b5061065e6004803603602081101561064857600080fd5b810190808035906020019092919050505061192f565b6040518082815260200191505060405180910390f35b34801561068057600080fd5b506106ad6004803603602081101561069757600080fd5b8101908080359060200190929190505050611950565b6040518082815260200191505060405180910390f35b3480156106cf57600080fd5b50610831600480360360a08110156106e657600080fd5b81019080803573ffffffffffffffffffffffffffffffffffffffff169060200190929190803573ffffffffffffffffffffffffffffffffffffffff1690602001909291908035906020019064010000000081111561074357600080fd5b82018360208201111561075557600080fd5b8035906020019184602083028401116401000000008311171561077757600080fd5b90919293919293908035906020019064010000000081111561079857600080fd5b8201836020820111156107aa57600080fd5b803590602001918460208302840111640100000000831117156107cc57600080fd5b9091929391929390803590602001906401000000008111156107ed57600080fd5b8201836020820111156107ff57600080fd5b8035906020019184600183028401116401000000008311171561082157600080fd5b9091929391929390505050611968565b60405180827bffffffffffffffffffffffffffffffffffffffffffffffffffffffff1916815260200191505060405180910390f35b34801561087257600080fd5b5061089f6004803603602081101561088957600080fd5b81019080803590602001909291905050506119e8565b6040518082815260200191505060405180910390f35b3480156108c157600080fd5b506108ca611a09565b604051808273ffffffffffffffffffffffffffffffffffffffff16815260200191505060405180910390f35b34801561090257600080fd5b5061092f6004803603602081101561091957600080fd5b8101908080359060200190929190505050611a2f565b6040518082815260200191505060405180910390f35b34801561095157600080fd5b5061095a611a50565b005b6109926004803603604081101561097257600080fd5b810190808035906020019092919080359060200190929190505050611e6f565b005b3480156109a057600080fd5b506109d7600480360360408110156109b757600080fd5b810190808035906020019092919080359060200190929190505050612868565b005b3480156109e557600080fd5b50610ab1600480360360a08110156109fc57600080fd5b81019080803573ffffffffffffffffffffffffffffffffffffffff169060200190929190803573ffffffffffffffffffffffffffffffffffffffff169060200190929190803590602001909291908035906020019092919080359060200190640100000000811115610a6d57600080fd5b820183602082011115610a7f57600080fd5b80359060200191846001830284011164010000000083111715610aa157600080fd5b9091929391929390505050613439565b60405180827bffffffffffffffffffffffffffffffffffffffffffffffffffffffff1916815260200191505060405180910390f35b6000806000837bffffffffffffffffffffffffffffffffffffffffffffffffffffffff19167bffffffffffffffffffffffffffffffffffffffffffffffffffffffff1916815260200190815260200160002060009054906101000a900460ff169050919050565b600660009054906101000a900473ffffffffffffffffffffffffffffffffffffffff1681565b600660149054906101000a900460ff1681565b600660009054906101000a900473ffffffffffffffffffffffffffffffffffffffff1673ffffffffffffffffffffffffffffffffffffffff163373ffffffffffffffffffffffffffffffffffffffff1614610c2c576040517f08c379a000000000000000000000000000000000000000000000000000000000815260040180806020018281038252602d8152602001806137f1602d913960400191505060405180910390fd5b600c54610c376134b7565b10610c8d576040517f08c379a000000000000000000000000000000000000000000000000000000000815260040180806020018281038252602681526020018061379f6026913960400191505060405180910390fd5b80610c966134b7565b10610cec576040517f08c379a000000000000000000000000000000000000000000000000000000000815260040180806020018281038252602f8152602001806138f2602f913960400191505060405180910390fd5b80600c8190555050565b600160009054906101000a900473ffffffffffffffffffffffffffffffffffffffff1681565b600660009054906101000a900473ffffffffffffffffffffffffffffffffffffffff1673ffffffffffffffffffffffffffffffffffffffff163373ffffffffffffffffffffffffffffffffffffffff1614610dc2576040517f08c379a00000000000000000000000000000000000000000000000000000000081526004018080602001828103825260288152602001806139466028913960400191505060405180910390fd5b600660149054906101000a900460ff1615610e45576040517f08c379a000000000000000000000000000000000000000000000000000000000815260040180806020018281038252601b8152602001807f47656e4d61726b65743a204d61726b657420697320616374697665000000000081525060200191505060405180910390fd5b606060038054905067ffffffffffffffff81118015610e6357600080fd5b50604051908082528060200260200182016040528015610e925781602001602082028036833780820191505090505b50905060005b6003805490508160ff161015610ed4578060ff16828260ff1681518110610ebb57fe5b6020026020010181815250508080600101915050610e98565b50600160009054906101000a900473ffffffffffffffffffffffffffffffffffffffff1673ffffffffffffffffffffffffffffffffffffffff16632eb2c2d6303384600a6040518060400160405280600281526020017f4a430000000000000000000000000000000000000000000000000000000000008152506040518663ffffffff1660e01b8152600401808673ffffffffffffffffffffffffffffffffffffffff1681526020018573ffffffffffffffffffffffffffffffffffffffff168152602001806020018060200180602001848103845287818151815260200191508051906020019060200280838360005b83811015610fe0578082015181840152602081019050610fc5565b50505050905001848103835286818154815260200191508054801561102457602002820191906000526020600020905b815481526020019060010190808311611010575b5050848103825285818151815260200191508051906020019080838360005b8381101561105e578082015181840152602081019050611043565b50505050905090810190601f16801561108b5780820380516001836020036101000a031916815260200191505b5098505050505050505050600060405180830381600087803b1580156110b057600080fd5b505af11580156110c4573d6000803e3d6000fd5b505050506040518060200160405280600060ff16815250600a9060016110eb9291906136d9565b5050565b6008602052816000526040600020602052806000526040600020600091509150505481565b600b60009054906101000a900473ffffffffffffffffffffffffffffffffffffffff1681565b6000600380549050905090565b600660009054906101000a900473ffffffffffffffffffffffffffffffffffffffff1673ffffffffffffffffffffffffffffffffffffffff163373ffffffffffffffffffffffffffffffffffffffff16146111ed576040517f08c379a00000000000000000000000000000000000000000000000000000000081526004018080602001828103825260258152602001806139216025913960400191505060405180910390fd5b6000600b60009054906101000a900473ffffffffffffffffffffffffffffffffffffffff1673ffffffffffffffffffffffffffffffffffffffff166370a08231306040518263ffffffff1660e01b8152600401808273ffffffffffffffffffffffffffffffffffffffff16815260200191505060206040518083038186803b15801561127857600080fd5b505afa15801561128c573d6000803e3d6000fd5b505050506040513d60208110156112a257600080fd5b810190808051906020019092919050505011611326576040517f08c379a00000000000000000000000000000000000000000000000000000000081526004018080602001828103825260168152602001807f4e6f2062616c616e636520746f207472616e736665720000000000000000000081525060200191505060405180910390fd5b600b60009054906101000a900473ffffffffffffffffffffffffffffffffffffffff1673ffffffffffffffffffffffffffffffffffffffff1663a9059cbb33600b60009054906101000a900473ffffffffffffffffffffffffffffffffffffffff1673ffffffffffffffffffffffffffffffffffffffff166370a08231306040518263ffffffff1660e01b8152600401808273ffffffffffffffffffffffffffffffffffffffff16815260200191505060206040518083038186803b1580156113ee57600080fd5b505afa158015611402573d6000803e3d6000fd5b505050506040513d602081101561141857600080fd5b81019080805190602001909291905050506040518363ffffffff1660e01b8152600401808373ffffffffffffffffffffffffffffffffffffffff16815260200182815260200192505050602060405180830381600087803b15801561147c57600080fd5b505af1158015611490573d6000803e3d6000fd5b505050506040513d60208110156114a657600080fd5b810190808051906020019092919050505050565b60076020528160005260406000206020528060005260406000206000915091509054906101000a900460ff1681565b600660009054906101000a900473ffffffffffffffffffffffffffffffffffffffff1673ffffffffffffffffffffffffffffffffffffffff163373ffffffffffffffffffffffffffffffffffffffff161461158f576040517f08c379a00000000000000000000000000000000000000000000000000000000081526004018080602001828103825260258152602001806139216025913960400191505060405180910390fd5b600060603373ffffffffffffffffffffffffffffffffffffffff164760405180600001905060006040518083038185875af1925050503d80600081146115f1576040519150601f19603f3d011682016040523d82523d6000602084013e6115f6565b606091505b50915091508161166e576040517f08c379a000000000000000000000000000000000000000000000000000000000815260040180806020018281038252601f8152602001807f47656e4d61726b65743a204661696c656420746f2073656e642045746865720081525060200191505060405180910390fd5b5050565b600660009054906101000a900473ffffffffffffffffffffffffffffffffffffffff1673ffffffffffffffffffffffffffffffffffffffff163373ffffffffffffffffffffffffffffffffffffffff1614611718576040517f08c379a00000000000000000000000000000000000000000000000000000000081526004018080602001828103825260368152602001806138bc6036913960400191505060405180910390fd5b600660149054906101000a900460ff1615600660146101000a81548160ff021916908315150217905550565b6004818154811061175157fe5b906000526020600020016000915090505481565b600c5481565b600b60149054906101000a900460ff1681565b600660009054906101000a900473ffffffffffffffffffffffffffffffffffffffff1673ffffffffffffffffffffffffffffffffffffffff163373ffffffffffffffffffffffffffffffffffffffff1614611824576040517f08c379a000000000000000000000000000000000000000000000000000000000815260040180806020018281038252602c8152602001806137c5602c913960400191505060405180910390fd5b60c882511061187e576040517f08c379a000000000000000000000000000000000000000000000000000000000815260040180806020018281038252602c815260200180613749602c913960400191505060405180910390fd5b60005b60c88160ff1610156119295782518160ff16141561189e57611929565b81600760008681526020019081526020016000206000858460ff16815181106118c357fe5b602002602001015173ffffffffffffffffffffffffffffffffffffffff1673ffffffffffffffffffffffffffffffffffffffff16815260200190815260200160002060006101000a81548160ff0219169083151502179055508080600101915050611881565b50505050565b600a818154811061193c57fe5b906000526020600020016000915090505481565b60096020528060005260406000206000915090505481565b60006040518060400160405280600281526020017f4a43000000000000000000000000000000000000000000000000000000000000815250805190602001208383604051808383808284378083019250505092505050604051809103902014156119db5763bc197c8160e01b90506119dc565b5b98975050505050505050565b600281815481106119f557fe5b906000526020600020016000915090505481565b600560009054906101000a900473ffffffffffffffffffffffffffffffffffffffff1681565b60038181548110611a3c57fe5b906000526020600020016000915090505481565b600660009054906101000a900473ffffffffffffffffffffffffffffffffffffffff1673ffffffffffffffffffffffffffffffffffffffff163373ffffffffffffffffffffffffffffffffffffffff1614611af6576040517f08c379a00000000000000000000000000000000000000000000000000000000081526004018080602001828103825260338152602001806138416033913960400191505060405180910390fd5b600660149054906101000a900460ff1615611b5c576040517f08c379a000000000000000000000000000000000000000000000000000000000815260040180806020018281038252602381526020018061381e6023913960400191505060405180910390fd5b606060038054905067ffffffffffffffff81118015611b7a57600080fd5b50604051908082528060200260200182016040528015611ba95781602001602082028036833780820191505090505b50905060005b6003805490508160ff161015611beb578060ff16828260ff1681518110611bd257fe5b6020026020010181815250508080600101915050611baf565b50600160009054906101000a900473ffffffffffffffffffffffffffffffffffffffff1673ffffffffffffffffffffffffffffffffffffffff16632eb2c2d633308460036040518060400160405280600281526020017f4a430000000000000000000000000000000000000000000000000000000000008152506040518663ffffffff1660e01b8152600401808673ffffffffffffffffffffffffffffffffffffffff1681526020018573ffffffffffffffffffffffffffffffffffffffff168152602001806020018060200180602001848103845287818151815260200191508051906020019060200280838360005b83811015611cf7578082015181840152602081019050611cdc565b505050509050018481038352868181548152602001915080548015611d3b57602002820191906000526020600020905b815481526020019060010190808311611d27575b5050848103825285818151815260200191508051906020019080838360005b83811015611d75578082015181840152602081019050611d5a565b50505050905090810190601f168015611da25780820380516001836020036101000a031916815260200191505b5098505050505050505050600060405180830381600087803b158015611dc757600080fd5b505af1158015611ddb573d6000803e3d6000fd5b50505050600073ffffffffffffffffffffffffffffffffffffffff16600b60009054906101000a900473ffffffffffffffffffffffffffffffffffffffff1673ffffffffffffffffffffffffffffffffffffffff1614611e51576001600b60146101000a81548160ff0219169083151502179055505b6001600660146101000a81548160ff02191690831515021790555050565b600b60149054906101000a900460ff1615611ef2576040517f08c379a00000000000000000000000000000000000000000000000000000000081526004018080602001828103825260188152602001807f47656e4d61726b65743a204163636573732044656e696564000000000000000081525060200191505060405180910390fd5b600660149054906101000a900460ff16611f74576040517f08c379a000000000000000000000000000000000000000000000000000000000815260040180806020018281038252601f8152602001807f47656e4d61726b65743a204d61726b6574206973206e6f74206163746976650081525060200191505060405180910390fd5b600c54611f7f6134b7565b1015611ff3576040517f08c379a000000000000000000000000000000000000000000000000000000000815260040180806020018281038252601f8152602001807f47656e4d61726b65743a2053746172742074696d65206d75737420706173730081525060200191505060405180910390fd5b6007600083815260200190815260200160002060003373ffffffffffffffffffffffffffffffffffffffff1673ffffffffffffffffffffffffffffffffffffffff16815260200190815260200160002060009054906101000a900460ff166120c3576040517f08c379a00000000000000000000000000000000000000000000000000000000081526004018080602001828103825260208152602001807f47656e4d61726b65743a2055736572206e6f74206f6e2077686974656c69737481525060200191505060405180910390fd5b600482815481106120d057fe5b906000526020600020015461213e826008600086815260200190815260200160002060003373ffffffffffffffffffffffffffffffffffffffff1673ffffffffffffffffffffffffffffffffffffffff168152602001908152602001600020546134bf90919063ffffffff16565b1115612195576040517f08c379a000000000000000000000000000000000000000000000000000000000815260040180806020018281038252602a815260200180613775602a913960400191505060405180910390fd5b600382815481106121a257fe5b90600052602060002001546121d38260096000868152602001908152602001600020546134bf90919063ffffffff16565b111561222a576040517f08c379a00000000000000000000000000000000000000000000000000000000081526004018080602001828103825260278152602001806138956027913960400191505060405180910390fd5b34612255826002858154811061223c57fe5b906000526020600020015461354790919063ffffffff16565b11156122c9576040517f08c379a000000000000000000000000000000000000000000000000000000000815260040180806020018281038252601f8152602001807f47656e4d61726b65743a20496e73756666696369656e74207061796d656e740081525060200191505060405180910390fd5b61232c816008600085815260200190815260200160002060003373ffffffffffffffffffffffffffffffffffffffff1673ffffffffffffffffffffffffffffffffffffffff168152602001908152602001600020546134bf90919063ffffffff16565b6008600084815260200190815260200160002060003373ffffffffffffffffffffffffffffffffffffffff1673ffffffffffffffffffffffffffffffffffffffff168152602001908152602001600020819055506123a68160096000858152602001908152602001600020546134bf90919063ffffffff16565b60096000848152602001908152602001600020819055506123fa6009600084815260200190815260200160002054600384815481106123e157fe5b90600052602060002001546135cd90919063ffffffff16565b600a838154811061240757fe5b9060005260206000200181905550600073ffffffffffffffffffffffffffffffffffffffff16600560009054906101000a900473ffffffffffffffffffffffffffffffffffffffff1673ffffffffffffffffffffffffffffffffffffffff1663017e7e586040518163ffffffff1660e01b815260040160206040518083038186803b15801561249557600080fd5b505afa1580156124a9573d6000803e3d6000fd5b505050506040513d60208110156124bf57600080fd5b810190808051906020019092919050505073ffffffffffffffffffffffffffffffffffffffff16146127235760006060600560009054906101000a900473ffffffffffffffffffffffffffffffffffffffff1673ffffffffffffffffffffffffffffffffffffffff1663017e7e586040518163ffffffff1660e01b815260040160206040518083038186803b15801561255757600080fd5b505afa15801561256b573d6000803e3d6000fd5b505050506040513d602081101561258157600080fd5b810190808051906020019092919050505073ffffffffffffffffffffffffffffffffffffffff1661265d600560009054906101000a900473ffffffffffffffffffffffffffffffffffffffff1673ffffffffffffffffffffffffffffffffffffffff16639a36f9326040518163ffffffff1660e01b815260040160206040518083038186803b15801561261357600080fd5b505afa158015612627573d6000803e3d6000fd5b505050506040513d602081101561263d57600080fd5b81019080805190602001909291905050503461365090919063ffffffff16565b60405180600001905060006040518083038185875af1925050503d80600081146126a3576040519150601f19603f3d011682016040523d82523d6000602084013e6126a8565b606091505b509150915081612720576040517f08c379a000000000000000000000000000000000000000000000000000000000815260040180806020018281038252601f8152602001807f47656e4d61726b65743a204661696c656420746f2073656e642045746865720081525060200191505060405180910390fd5b50505b6060600160009054906101000a900473ffffffffffffffffffffffffffffffffffffffff1673ffffffffffffffffffffffffffffffffffffffff1663f242432a30338686866040518663ffffffff1660e01b8152600401808673ffffffffffffffffffffffffffffffffffffffff1681526020018573ffffffffffffffffffffffffffffffffffffffff16815260200184815260200183815260200180602001828103825283818151815260200191508051906020019080838360005b838110156127fb5780820151818401526020810190506127e0565b50505050905090810190601f1680156128285780820380516001836020036101000a031916815260200191505b509650505050505050600060405180830381600087803b15801561284b57600080fd5b505af115801561285f573d6000803e3d6000fd5b50505050505050565b600b60149054906101000a900460ff166128ea576040517f08c379a00000000000000000000000000000000000000000000000000000000081526004018080602001828103825260188152602001807f47656e4d61726b65743a204163636573732044656e696564000000000000000081525060200191505060405180910390fd5b600660149054906101000a900460ff1661296c576040517f08c379a000000000000000000000000000000000000000000000000000000000815260040180806020018281038252601f8152602001807f47656e4d61726b65743a204d61726b6574206973206e6f74206163746976650081525060200191505060405180910390fd5b600c546129776134b7565b10156129eb576040517f08c379a000000000000000000000000000000000000000000000000000000000815260040180806020018281038252601f8152602001807f47656e4d61726b65743a2053746172742074696d65206d75737420706173730081525060200191505060405180910390fd5b6007600083815260200190815260200160002060003373ffffffffffffffffffffffffffffffffffffffff1673ffffffffffffffffffffffffffffffffffffffff16815260200190815260200160002060009054906101000a900460ff16612abb576040517f08c379a00000000000000000000000000000000000000000000000000000000081526004018080602001828103825260208152602001807f47656e4d61726b65743a2055736572206e6f74206f6e2077686974656c69737481525060200191505060405180910390fd5b60048281548110612ac857fe5b9060005260206000200154612b36826008600086815260200190815260200160002060003373ffffffffffffffffffffffffffffffffffffffff1673ffffffffffffffffffffffffffffffffffffffff168152602001908152602001600020546134bf90919063ffffffff16565b1115612b8d576040517f08c379a000000000000000000000000000000000000000000000000000000000815260040180806020018281038252602a815260200180613775602a913960400191505060405180910390fd5b60038281548110612b9a57fe5b9060005260206000200154612bcb8260096000868152602001908152602001600020546134bf90919063ffffffff16565b1115612c22576040517f08c379a00000000000000000000000000000000000000000000000000000000081526004018080602001828103825260278152602001806138956027913960400191505060405180910390fd5b6000612c4e8260028581548110612c3557fe5b906000526020600020015461354790919063ffffffff16565b905080600b60009054906101000a900473ffffffffffffffffffffffffffffffffffffffff1673ffffffffffffffffffffffffffffffffffffffff166370a08231336040518263ffffffff1660e01b8152600401808273ffffffffffffffffffffffffffffffffffffffff16815260200191505060206040518083038186803b158015612cda57600080fd5b505afa158015612cee573d6000803e3d6000fd5b505050506040513d6020811015612d0457600080fd5b81019080805190602001909291905050501015612d89576040517f08c379a000000000000000000000000000000000000000000000000000000000815260040180806020018281038252601f8152602001807f47656e4d61726b65743a20496e73756666696369656e74207061796d656e740081525060200191505060405180910390fd5b612dec826008600086815260200190815260200160002060003373ffffffffffffffffffffffffffffffffffffffff1673ffffffffffffffffffffffffffffffffffffffff168152602001908152602001600020546134bf90919063ffffffff16565b6008600085815260200190815260200160002060003373ffffffffffffffffffffffffffffffffffffffff1673ffffffffffffffffffffffffffffffffffffffff16815260200190815260200160002081905550612e668260096000868152602001908152602001600020546134bf90919063ffffffff16565b6009600085815260200190815260200160002081905550612eba600960008581526020019081526020016000205460038581548110612ea157fe5b90600052602060002001546135cd90919063ffffffff16565b600a8481548110612ec757fe5b906000526020600020018190555060008073ffffffffffffffffffffffffffffffffffffffff16600560009054906101000a900473ffffffffffffffffffffffffffffffffffffffff1673ffffffffffffffffffffffffffffffffffffffff1663017e7e586040518163ffffffff1660e01b815260040160206040518083038186803b158015612f5657600080fd5b505afa158015612f6a573d6000803e3d6000fd5b505050506040513d6020811015612f8057600080fd5b810190808051906020019092919050505073ffffffffffffffffffffffffffffffffffffffff16146131f357613061600560009054906101000a900473ffffffffffffffffffffffffffffffffffffffff1673ffffffffffffffffffffffffffffffffffffffff16639a36f9326040518163ffffffff1660e01b815260040160206040518083038186803b15801561301757600080fd5b505afa15801561302b573d6000803e3d6000fd5b505050506040513d602081101561304157600080fd5b81019080805190602001909291905050508361365090919063ffffffff16565b9050600b60009054906101000a900473ffffffffffffffffffffffffffffffffffffffff1673ffffffffffffffffffffffffffffffffffffffff166323b872dd33600560009054906101000a900473ffffffffffffffffffffffffffffffffffffffff1673ffffffffffffffffffffffffffffffffffffffff1663017e7e586040518163ffffffff1660e01b815260040160206040518083038186803b15801561310a57600080fd5b505afa15801561311e573d6000803e3d6000fd5b505050506040513d602081101561313457600080fd5b8101908080519060200190929190505050846040518463ffffffff1660e01b8152600401808473ffffffffffffffffffffffffffffffffffffffff1681526020018373ffffffffffffffffffffffffffffffffffffffff1681526020018281526020019350505050602060405180830381600087803b1580156131b657600080fd5b505af11580156131ca573d6000803e3d6000fd5b505050506040513d60208110156131e057600080fd5b8101908080519060200190929190505050505b600b60009054906101000a900473ffffffffffffffffffffffffffffffffffffffff1673ffffffffffffffffffffffffffffffffffffffff166323b872dd333061324685876135cd90919063ffffffff16565b6040518463ffffffff1660e01b8152600401808473ffffffffffffffffffffffffffffffffffffffff1681526020018373ffffffffffffffffffffffffffffffffffffffff1681526020018281526020019350505050602060405180830381600087803b1580156132b657600080fd5b505af11580156132ca573d6000803e3d6000fd5b505050506040513d60208110156132e057600080fd5b8101908080519060200190929190505050506060600160009054906101000a900473ffffffffffffffffffffffffffffffffffffffff1673ffffffffffffffffffffffffffffffffffffffff1663f242432a30338888866040518663ffffffff1660e01b8152600401808673ffffffffffffffffffffffffffffffffffffffff1681526020018573ffffffffffffffffffffffffffffffffffffffff16815260200184815260200183815260200180602001828103825283818151815260200191508051906020019080838360005b838110156133ca5780820151818401526020810190506133af565b50505050905090810190601f1680156133f75780820380516001836020036101000a031916815260200191505b509650505050505050600060405180830381600087803b15801561341a57600080fd5b505af115801561342e573d6000803e3d6000fd5b505050505050505050565b60006040518060400160405280600281526020017f4a43000000000000000000000000000000000000000000000000000000000000815250805190602001208383604051808383808284378083019250505092505050604051809103902014156134ac5763f23a6e6160e01b90506134ad565b5b9695505050505050565b600042905090565b60008082840190508381101561353d576040517f08c379a000000000000000000000000000000000000000000000000000000000815260040180806020018281038252601b8152602001807f536166654d6174683a206164646974696f6e206f766572666c6f77000000000081525060200191505060405180910390fd5b8091505092915050565b60008083141561355a57600090506135c7565b600082840290508284828161356b57fe5b04146135c2576040517f08c379a00000000000000000000000000000000000000000000000000000000081526004018080602001828103825260218152602001806138746021913960400191505060405180910390fd5b809150505b92915050565b600082821115613645576040517f08c379a000000000000000000000000000000000000000000000000000000000815260040180806020018281038252601e8152602001807f536166654d6174683a207375627472616374696f6e206f766572666c6f77000081525060200191505060405180910390fd5b818303905092915050565b60008082116136c7576040517f08c379a000000000000000000000000000000000000000000000000000000000815260040180806020018281038252601a8152602001807f536166654d6174683a206469766973696f6e206279207a65726f00000000000081525060200191505060405180910390fd5b8183816136d057fe5b04905092915050565b82805482825590600052602060002090810192821561371a579160200282015b82811115613719578251829060ff169055916020019190600101906136f9565b5b509050613727919061372b565b5090565b5b8082111561374457600081600090555060010161372c565b509056fe47656e4d61726b65743a2057686974656c697374206c657373207468616e2032303020617420612074696d6547656e4d61726b65743a20557365722077696c6c20657863656564207075726368617365206c696d697447656e4d61726b65743a2053746172742074696d6520616c7265616479206f6363757272656447656e4d61726b65743a204f6e6c792063726561746f722063616e207570646174652077686974656c69737447656e4d61726b65743a204f6e6c792063726561746f722063616e207570646174652073746172742074696d6547656e4d61726b65743a204d61726b657420697320616c72656164792061637469766547656e4d61726b65743a204f6e6c79207468652063726561746f722063616e206465706f73697420746865207469636b657473536166654d6174683a206d756c7469706c69636174696f6e206f766572666c6f7747656e4d61726b65743a204e6f7420656e6f756768207469636b6574732072656d61696e696e6747656e4d61726b65743a204f6e6c79207468652063726561746f722063616e20666c697020746865206d61726b65742073746174757347656e4d61726b65743a204e65772073746172742074696d65206d75737420626520696e207468652066757475726547656e4d61726b65743a204f6e6c79207468652063726561746f722063616e20636c61696d47656e4d61726b65743a204f6e6c79207468652063726561746f722063616e207472616e73666572a26469706673582212201c48f900febf8f1f3403ba8b297d38e7fc783c6570eeb70348ff1fc38fbc45bb64736f6c634300060c003347656e4d61726b6574466163746f72793a2041525241592053495a45204d49534d4154434847656e4d61726b6574466163746f72793a204665652064697669736f72206d757374206e6f74206265207a65726fa2646970667358221220d2d130a4c34c86662370171629059f5a7277071a2574d4a85ae81880fa40d2f964736f6c634300060c0033",
  "immutableReferences": {},
  "source": "pragma solidity 0.6.12;\n\nimport {GenMarket} from \"./GenMarket.sol\";\nimport './interfaces/IGenMarketFactory.sol';\nimport \"@openzeppelin/contracts/math/SafeMath.sol\";\n\ncontract GenMarketFactory is IGenMarketFactory {\n    using SafeMath for uint;\n    \n    // Address that receives fees\n    address public override feeTo;\n    uint256 public override feeDivisor;\n    \n    // Address that gets to set the feeTo address\n    address public override feeToSetter;\n    \n    // List of genMarket addresses\n    address[] public override genMarkets;\n    \n    mapping(address => uint) public override getGenMarket;\n    // Base ticket address to market address\n    mapping(address => address) public override ticketToMarket;\n    \n    event MarketCreated(address indexed caller, address indexed genMarket);\n    \n    function genMarketsLength() external override view returns (uint) {\n        return genMarkets.length;\n    }\n    \n    constructor(address _feeToSetter) public {\n        feeToSetter = _feeToSetter;\n    }\n\n    function createGenMarket(\n        address _genTicket,\n        address _usdt,\n        // Prices could be in Native(18 dec) or USDT(6 dec or check usdt's decimals) \n        uint256[] memory _prices,\n        // Number of each ticket type being sold\n        uint256[] memory _numTickets,\n        uint256[] memory _purchaseLimits\n    ) external override returns (address) {\n        require(_numTickets.length == _prices.length, 'GenMarketFactory: ARRAY SIZE MISMATCH');\n        //address creator = msg.sender;\n        GenMarket gm = new GenMarket(_genTicket, _usdt, _prices, _numTickets, _purchaseLimits, this, msg.sender);\n        // Populate mapping\n        getGenMarket[address(gm)] = genMarkets.length;\n        ticketToMarket[_genTicket] = address(gm);\n        // Add to list\n        genMarkets.push(address(gm));\n        emit MarketCreated(msg.sender, address(gm));\n        \n        return address(gm);\n    }\n    \n    function setFeeTo(address _feeTo) external override {\n        require(msg.sender == feeToSetter, 'GenMarketFactory: FORBIDDEN');\n        feeTo = _feeTo;\n    }\n    \n    function setFeeToSetter(address _feeToSetter) external override {\n        require(msg.sender == feeToSetter, 'GenMarketFactory: FORBIDDEN');\n        feeToSetter = _feeToSetter;\n    }\n\n    function setFeeDivisor(uint256 _feeDivisor) external override {\n        require(msg.sender == feeToSetter, 'GenMarketFactory: FORBIDDEN');\n        require(_feeDivisor > 0, \"GenMarketFactory: Fee divisor must not be zero\");\n        feeDivisor = _feeDivisor;\n    }\n}\n",
  "sourcePath": "/Users/anandsinha/workspace/genesis-shards/contracts/GenMarketFactory.sol",
  "compiler": {
    "name": "solc",
    "version": "0.6.12+commit.27d51765.Emscripten.clang"
  },
  "schemaVersion": "3.4.3",
  "updatedAt": "2022-02-28T05:20:40.852Z",
  "devdoc": {
    "kind": "dev",
    "methods": {},
    "version": 1
  },
  "userdoc": {
    "kind": "user",
    "methods": {},
    "version": 1
  }
}