{
  "contractName": "GenNFTFactory",
  "abi": [
    {
      "anonymous": false,
      "inputs": [
        {
          "indexed": true,
          "internalType": "address",
          "name": "caller",
          "type": "address"
        },
        {
          "indexed": true,
          "internalType": "address",
          "name": "genNFT",
          "type": "address"
        }
      ],
      "name": "NFTCreated",
      "type": "event"
    },
    {
      "inputs": [
        {
          "internalType": "uint256",
          "name": "",
          "type": "uint256"
        }
      ],
      "name": "genNFT",
      "outputs": [
        {
          "internalType": "address",
          "name": "",
          "type": "address"
        }
      ],
      "stateMutability": "view",
      "type": "function"
    },
    {
      "inputs": [
        {
          "internalType": "address",
          "name": "",
          "type": "address"
        }
      ],
      "name": "getGenNFT",
      "outputs": [
        {
          "internalType": "uint256",
          "name": "",
          "type": "uint256"
        }
      ],
      "stateMutability": "view",
      "type": "function"
    },
    {
      "inputs": [],
      "name": "genNFTLength",
      "outputs": [
        {
          "internalType": "uint256",
          "name": "",
          "type": "uint256"
        }
      ],
      "stateMutability": "view",
      "type": "function"
    },
    {
      "inputs": [
        {
          "internalType": "string",
          "name": "_name",
          "type": "string"
        },
        {
          "internalType": "string",
          "name": "_symbol",
          "type": "string"
        },
        {
          "internalType": "string",
          "name": "_uri",
          "type": "string"
        }
      ],
      "name": "createGenNFT",
      "outputs": [
        {
          "internalType": "address",
          "name": "",
          "type": "address"
        }
      ],
      "stateMutability": "nonpayable",
      "type": "function"
    }
  ],
  "bytecode": "0x608060405234801561001057600080fd5b50613eaf806100206000396000f3fe608060405234801561001057600080fd5b506004361061004c5760003560e01c80630b14d08e146100515780632264bbcf146100a95780635ca0406b146102bc578063b4c5e62414610314575b600080fd5b61007d6004803603602081101561006757600080fd5b8101908080359060200190929190505050610332565b604051808273ffffffffffffffffffffffffffffffffffffffff16815260200191505060405180910390f35b610290600480360360608110156100bf57600080fd5b81019080803590602001906401000000008111156100dc57600080fd5b8201836020820111156100ee57600080fd5b8035906020019184600183028401116401000000008311171561011057600080fd5b91908080601f016020809104026020016040519081016040528093929190818152602001838380828437600081840152601f19601f8201169050808301925050505050505091929192908035906020019064010000000081111561017357600080fd5b82018360208201111561018557600080fd5b803590602001918460018302840111640100000000831117156101a757600080fd5b91908080601f016020809104026020016040519081016040528093929190818152602001838380828437600081840152601f19601f8201169050808301925050505050505091929192908035906020019064010000000081111561020a57600080fd5b82018360208201111561021c57600080fd5b8035906020019184600183028401116401000000008311171561023e57600080fd5b91908080601f016020809104026020016040519081016040528093929190818152602001838380828437600081840152601f19601f82011690508083019250505050505050919291929050505061036e565b604051808273ffffffffffffffffffffffffffffffffffffffff16815260200191505060405180910390f35b6102fe600480360360208110156102d257600080fd5b81019080803573ffffffffffffffffffffffffffffffffffffffff169060200190929190505050610633565b6040518082815260200191505060405180910390f35b61031c61064b565b6040518082815260200191505060405180910390f35b6000818154811061033f57fe5b906000526020600020016000915054906101000a900473ffffffffffffffffffffffffffffffffffffffff1681565b600080848484303360405161038290610657565b808060200180602001806020018673ffffffffffffffffffffffffffffffffffffffff1681526020018573ffffffffffffffffffffffffffffffffffffffff168152602001848103845289818151815260200191508051906020019080838360005b838110156103ff5780820151818401526020810190506103e4565b50505050905090810190601f16801561042c5780820380516001836020036101000a031916815260200191505b50848103835288818151815260200191508051906020019080838360005b8381101561046557808201518184015260208101905061044a565b50505050905090810190601f1680156104925780820380516001836020036101000a031916815260200191505b50848103825287818151815260200191508051906020019080838360005b838110156104cb5780820151818401526020810190506104b0565b50505050905090810190601f1680156104f85780820380516001836020036101000a031916815260200191505b5098505050505050505050604051809103906000f08015801561051f573d6000803e3d6000fd5b509050600080549050600160008373ffffffffffffffffffffffffffffffffffffffff1673ffffffffffffffffffffffffffffffffffffffff168152602001908152602001600020819055506000819080600181540180825580915050600190039060005260206000200160009091909190916101000a81548173ffffffffffffffffffffffffffffffffffffffff021916908373ffffffffffffffffffffffffffffffffffffffff1602179055508073ffffffffffffffffffffffffffffffffffffffff163373ffffffffffffffffffffffffffffffffffffffff167fe4944a5f0bf5ee82c3c6769e53000a678b52be77b461a2e8f7b3434eff94670e60405160405180910390a3809150509392505050565b60016020528060005260406000206000915090505481565b60008080549050905090565b61381480620006668339019056fe60806040523480156200001157600080fd5b506040516200381438038062003814833981810160405260a08110156200003757600080fd5b81019080805160405193929190846401000000008211156200005857600080fd5b838201915060208201858111156200006f57600080fd5b82518660018202830111640100000000821117156200008d57600080fd5b8083526020830192505050908051906020019080838360005b83811015620000c3578082015181840152602081019050620000a6565b50505050905090810190601f168015620000f15780820380516001836020036101000a031916815260200191505b50604052602001805160405193929190846401000000008211156200011557600080fd5b838201915060208201858111156200012c57600080fd5b82518660018202830111640100000000821117156200014a57600080fd5b8083526020830192505050908051906020019080838360005b838110156200018057808201518184015260208101905062000163565b50505050905090810190601f168015620001ae5780820380516001836020036101000a031916815260200191505b5060405260200180516040519392919084640100000000821115620001d257600080fd5b83820191506020820185811115620001e957600080fd5b82518660018202830111640100000000821117156200020757600080fd5b8083526020830192505050908051906020019080838360005b838110156200023d57808201518184015260208101905062000220565b50505050905090810190601f1680156200026b5780820380516001836020036101000a031916815260200191505b5060405260200180519060200190929190805190602001909291905050508484620002a36301ffc9a760e01b620003ef60201b60201c565b8160069080519060200190620002bb92919062000514565b508060079080519060200190620002d492919062000514565b50620002ed6380ac58cd60e01b620003ef60201b60201c565b62000305635b5e139f60e01b620003ef60201b60201c565b6200031d63780e9d6360e01b620003ef60201b60201c565b505084600a90805190602001906200033792919062000514565b5083600b90805190602001906200035092919062000514565b506200036283620004f860201b60201c565b81600c60006101000a81548173ffffffffffffffffffffffffffffffffffffffff021916908373ffffffffffffffffffffffffffffffffffffffff16021790555080600d60006101000a81548173ffffffffffffffffffffffffffffffffffffffff021916908373ffffffffffffffffffffffffffffffffffffffff1602179055505050505050620005ba565b63ffffffff60e01b817bffffffffffffffffffffffffffffffffffffffffffffffffffffffff191614156200048c576040517f08c379a000000000000000000000000000000000000000000000000000000000815260040180806020018281038252601c8152602001807f4552433136353a20696e76616c696420696e746572666163652069640000000081525060200191505060405180910390fd5b6001600080837bffffffffffffffffffffffffffffffffffffffffffffffffffffffff19167bffffffffffffffffffffffffffffffffffffffffffffffffffffffff1916815260200190815260200160002060006101000a81548160ff02191690831515021790555050565b80600990805190602001906200051092919062000514565b5050565b828054600181600116156101000203166002900490600052602060002090601f016020900481019282601f106200055757805160ff191683800117855562000588565b8280016001018555821562000588579182015b82811115620005875782518255916020019190600101906200056a565b5b5090506200059791906200059b565b5090565b5b80821115620005b65760008160009055506001016200059c565b5090565b61324a80620005ca6000396000f3fe608060405234801561001057600080fd5b50600436106101585760003560e01c80636c0360eb116100c3578063b88d4fde1161007c578063b88d4fde14610860578063bb27fbe314610965578063c45a0155146109e8578063c87b56dd14610a1c578063cd18d5a414610ac3578063e985e9c514610b0757610158565b80636c0360eb146105ce57806370a0823114610651578063825f143c146106a957806395d89b411461070a5780639a33e3001461078d578063a22cb4651461081057610158565b806323b872dd1161011557806323b872dd1461033b5780632f745c59146103a957806342842e0e1461040b5780634f6ccce71461047957806355f804b3146104bb5780636352211e1461057657610158565b806301ffc9a71461015d57806306fdde03146101c0578063081812fc14610243578063095ea7b31461029b57806318160ddd146102e95780631d14384814610307575b600080fd5b6101a86004803603602081101561017357600080fd5b8101908080357bffffffffffffffffffffffffffffffffffffffffffffffffffffffff19169060200190929190505050610b81565b60405180821515815260200191505060405180910390f35b6101c8610be8565b6040518080602001828103825283818151815260200191508051906020019080838360005b838110156102085780820151818401526020810190506101ed565b50505050905090810190601f1680156102355780820380516001836020036101000a031916815260200191505b509250505060405180910390f35b61026f6004803603602081101561025957600080fd5b8101908080359060200190929190505050610c8a565b604051808273ffffffffffffffffffffffffffffffffffffffff16815260200191505060405180910390f35b6102e7600480360360408110156102b157600080fd5b81019080803573ffffffffffffffffffffffffffffffffffffffff16906020019092919080359060200190929190505050610d25565b005b6102f1610e69565b6040518082815260200191505060405180910390f35b61030f610e7a565b604051808273ffffffffffffffffffffffffffffffffffffffff16815260200191505060405180910390f35b6103a76004803603606081101561035157600080fd5b81019080803573ffffffffffffffffffffffffffffffffffffffff169060200190929190803573ffffffffffffffffffffffffffffffffffffffff16906020019092919080359060200190929190505050610ea0565b005b6103f5600480360360408110156103bf57600080fd5b81019080803573ffffffffffffffffffffffffffffffffffffffff16906020019092919080359060200190929190505050610f16565b6040518082815260200191505060405180910390f35b6104776004803603606081101561042157600080fd5b81019080803573ffffffffffffffffffffffffffffffffffffffff169060200190929190803573ffffffffffffffffffffffffffffffffffffffff16906020019092919080359060200190929190505050610f71565b005b6104a56004803603602081101561048f57600080fd5b8101908080359060200190929190505050610f91565b6040518082815260200191505060405180910390f35b610574600480360360208110156104d157600080fd5b81019080803590602001906401000000008111156104ee57600080fd5b82018360208201111561050057600080fd5b8035906020019184600183028401116401000000008311171561052257600080fd5b91908080601f016020809104026020016040519081016040528093929190818152602001838380828437600081840152601f19601f820116905080830192505050505050509192919290505050610fb4565b005b6105a26004803603602081101561058c57600080fd5b8101908080359060200190929190505050611066565b604051808273ffffffffffffffffffffffffffffffffffffffff16815260200191505060405180910390f35b6105d661109d565b6040518080602001828103825283818151815260200191508051906020019080838360005b838110156106165780820151818401526020810190506105fb565b50505050905090810190601f1680156106435780820380516001836020036101000a031916815260200191505b509250505060405180910390f35b6106936004803603602081101561066757600080fd5b81019080803573ffffffffffffffffffffffffffffffffffffffff16906020019092919050505061113f565b6040518082815260200191505060405180910390f35b6106eb600480360360208110156106bf57600080fd5b81019080803573ffffffffffffffffffffffffffffffffffffffff169060200190929190505050611214565b6040518083151581526020018281526020019250505060405180910390f35b610712611245565b6040518080602001828103825283818151815260200191508051906020019080838360005b83811015610752578082015181840152602081019050610737565b50505050905090810190601f16801561077f5780820380516001836020036101000a031916815260200191505b509250505060405180910390f35b6107956112e7565b6040518080602001828103825283818151815260200191508051906020019080838360005b838110156107d55780820151818401526020810190506107ba565b50505050905090810190601f1680156108025780820380516001836020036101000a031916815260200191505b509250505060405180910390f35b61085e6004803603604081101561082657600080fd5b81019080803573ffffffffffffffffffffffffffffffffffffffff169060200190929190803515159060200190929190505050611385565b005b6109636004803603608081101561087657600080fd5b81019080803573ffffffffffffffffffffffffffffffffffffffff169060200190929190803573ffffffffffffffffffffffffffffffffffffffff16906020019092919080359060200190929190803590602001906401000000008111156108dd57600080fd5b8201836020820111156108ef57600080fd5b8035906020019184600183028401116401000000008311171561091157600080fd5b91908080601f016020809104026020016040519081016040528093929190818152602001838380828437600081840152601f19601f82011690508083019250505050505050919291929050505061153b565b005b61096d6115b3565b6040518080602001828103825283818151815260200191508051906020019080838360005b838110156109ad578082015181840152602081019050610992565b50505050905090810190601f1680156109da5780820380516001836020036101000a031916815260200191505b509250505060405180910390f35b6109f0611651565b604051808273ffffffffffffffffffffffffffffffffffffffff16815260200191505060405180910390f35b610a4860048036036020811015610a3257600080fd5b8101908080359060200190929190505050611677565b6040518080602001828103825283818151815260200191508051906020019080838360005b83811015610a88578082015181840152602081019050610a6d565b50505050905090810190601f168015610ab55780820380516001836020036101000a031916815260200191505b509250505060405180910390f35b610b0560048036036020811015610ad957600080fd5b81019080803573ffffffffffffffffffffffffffffffffffffffff169060200190929190505050611948565b005b610b6960048036036040811015610b1d57600080fd5b81019080803573ffffffffffffffffffffffffffffffffffffffff169060200190929190803573ffffffffffffffffffffffffffffffffffffffff169060200190929190505050611b54565b60405180821515815260200191505060405180910390f35b6000806000837bffffffffffffffffffffffffffffffffffffffffffffffffffffffff19167bffffffffffffffffffffffffffffffffffffffffffffffffffffffff1916815260200190815260200160002060009054906101000a900460ff169050919050565b606060068054600181600116156101000203166002900480601f016020809104026020016040519081016040528092919081815260200182805460018160011615610100020316600290048015610c805780601f10610c5557610100808354040283529160200191610c80565b820191906000526020600020905b815481529060010190602001808311610c6357829003601f168201915b5050505050905090565b6000610c9582611be8565b610cea576040517f08c379a000000000000000000000000000000000000000000000000000000000815260040180806020018281038252602c81526020018061313f602c913960400191505060405180910390fd5b6004600083815260200190815260200160002060009054906101000a900473ffffffffffffffffffffffffffffffffffffffff169050919050565b6000610d3082611066565b90508073ffffffffffffffffffffffffffffffffffffffff168373ffffffffffffffffffffffffffffffffffffffff161415610db7576040517f08c379a00000000000000000000000000000000000000000000000000000000081526004018080602001828103825260218152602001806131c36021913960400191505060405180910390fd5b8073ffffffffffffffffffffffffffffffffffffffff16610dd6611c05565b73ffffffffffffffffffffffffffffffffffffffff161480610e055750610e0481610dff611c05565b611b54565b5b610e5a576040517f08c379a00000000000000000000000000000000000000000000000000000000081526004018080602001828103825260388152602001806130636038913960400191505060405180910390fd5b610e648383611c0d565b505050565b6000610e756002611cc6565b905090565b600d60009054906101000a900473ffffffffffffffffffffffffffffffffffffffff1681565b610eb1610eab611c05565b82611cdb565b610f06576040517f08c379a00000000000000000000000000000000000000000000000000000000081526004018080602001828103825260318152602001806131e46031913960400191505060405180910390fd5b610f11838383611dcf565b505050565b6000610f6982600160008673ffffffffffffffffffffffffffffffffffffffff1673ffffffffffffffffffffffffffffffffffffffff16815260200190815260200160002061201290919063ffffffff16565b905092915050565b610f8c8383836040518060200160405280600081525061153b565b505050565b600080610fa883600261202c90919063ffffffff16565b50905080915050919050565b600d60009054906101000a900473ffffffffffffffffffffffffffffffffffffffff1673ffffffffffffffffffffffffffffffffffffffff163373ffffffffffffffffffffffffffffffffffffffff161461105a576040517f08c379a000000000000000000000000000000000000000000000000000000000815260040180806020018281038252602f8152602001806130ee602f913960400191505060405180910390fd5b61106381612058565b50565b6000611096826040518060600160405280602981526020016130c56029913960026120729092919063ffffffff16565b9050919050565b606060098054600181600116156101000203166002900480601f0160208091040260200160405190810160405280929190818152602001828054600181600116156101000203166002900480156111355780601f1061110a57610100808354040283529160200191611135565b820191906000526020600020905b81548152906001019060200180831161111857829003601f168201915b5050505050905090565b60008073ffffffffffffffffffffffffffffffffffffffff168273ffffffffffffffffffffffffffffffffffffffff1614156111c6576040517f08c379a000000000000000000000000000000000000000000000000000000000815260040180806020018281038252602a81526020018061309b602a913960400191505060405180910390fd5b61120d600160008473ffffffffffffffffffffffffffffffffffffffff1673ffffffffffffffffffffffffffffffffffffffff168152602001908152602001600020612091565b9050919050565b600e6020528060005260406000206000915090508060000160009054906101000a900460ff16908060010154905082565b606060078054600181600116156101000203166002900480601f0160208091040260200160405190810160405280929190818152602001828054600181600116156101000203166002900480156112dd5780601f106112b2576101008083540402835291602001916112dd565b820191906000526020600020905b8154815290600101906020018083116112c057829003601f168201915b5050505050905090565b600a8054600181600116156101000203166002900480601f01602080910402602001604051908101604052809291908181526020018280546001816001161561010002031660029004801561137d5780601f106113525761010080835404028352916020019161137d565b820191906000526020600020905b81548152906001019060200180831161136057829003601f168201915b505050505081565b61138d611c05565b73ffffffffffffffffffffffffffffffffffffffff168273ffffffffffffffffffffffffffffffffffffffff16141561142e576040517f08c379a00000000000000000000000000000000000000000000000000000000081526004018080602001828103825260198152602001807f4552433732313a20617070726f766520746f2063616c6c65720000000000000081525060200191505060405180910390fd5b806005600061143b611c05565b73ffffffffffffffffffffffffffffffffffffffff1673ffffffffffffffffffffffffffffffffffffffff16815260200190815260200160002060008473ffffffffffffffffffffffffffffffffffffffff1673ffffffffffffffffffffffffffffffffffffffff16815260200190815260200160002060006101000a81548160ff0219169083151502179055508173ffffffffffffffffffffffffffffffffffffffff166114e8611c05565b73ffffffffffffffffffffffffffffffffffffffff167f17307eab39ab6107e8899845ad3d59bd9653f200f220920489ca2b5937696c318360405180821515815260200191505060405180910390a35050565b61154c611546611c05565b83611cdb565b6115a1576040517f08c379a00000000000000000000000000000000000000000000000000000000081526004018080602001828103825260318152602001806131e46031913960400191505060405180910390fd5b6115ad848484846120a6565b50505050565b600b8054600181600116156101000203166002900480601f0160208091040260200160405190810160405280929190818152602001828054600181600116156101000203166002900480156116495780601f1061161e57610100808354040283529160200191611649565b820191906000526020600020905b81548152906001019060200180831161162c57829003601f168201915b505050505081565b600c60009054906101000a900473ffffffffffffffffffffffffffffffffffffffff1681565b606061168282611be8565b6116d7576040517f08c379a000000000000000000000000000000000000000000000000000000000815260040180806020018281038252602f815260200180613194602f913960400191505060405180910390fd5b6060600860008481526020019081526020016000208054600181600116156101000203166002900480601f0160208091040260200160405190810160405280929190818152602001828054600181600116156101000203166002900480156117805780601f1061175557610100808354040283529160200191611780565b820191906000526020600020905b81548152906001019060200180831161176357829003601f168201915b50505050509050606061179161109d565b90506000815114156117a7578192505050611943565b6000825111156118785780826040516020018083805190602001908083835b602083106117e957805182526020820191506020810190506020830392506117c6565b6001836020036101000a03801982511681845116808217855250505050505090500182805190602001908083835b6020831061183a5780518252602082019150602081019050602083039250611817565b6001836020036101000a0380198251168184511680821785525050505050509050019250505060405160208183030381529060405292505050611943565b8061188285612118565b6040516020018083805190602001908083835b602083106118b85780518252602082019150602081019050602083039250611895565b6001836020036101000a03801982511681845116808217855250505050505090500182805190602001908083835b6020831061190957805182526020820191506020810190506020830392506118e6565b6001836020036101000a03801982511681845116808217855250505050505090500192505050604051602081830303815290604052925050505b919050565b600e60008273ffffffffffffffffffffffffffffffffffffffff1673ffffffffffffffffffffffffffffffffffffffff16815260200190815260200160002060000160009054906101000a900460ff16156119ee576040517f08c379a0000000000000000000000000000000000000000000000000000000008152600401808060200182810382526021815260200180612f9a6021913960400191505060405180910390fd5b600d60009054906101000a900473ffffffffffffffffffffffffffffffffffffffff1673ffffffffffffffffffffffffffffffffffffffff163373ffffffffffffffffffffffffffffffffffffffff1614611a94576040517f08c379a0000000000000000000000000000000000000000000000000000000008152600401808060200182810382526027815260200180612f736027913960400191505060405180910390fd5b6000611a9e610e69565b90506060611aad83838361225f565b6001600e60008573ffffffffffffffffffffffffffffffffffffffff1673ffffffffffffffffffffffffffffffffffffffff16815260200190815260200160002060000160006101000a81548160ff02191690831515021790555081600e60008573ffffffffffffffffffffffffffffffffffffffff1673ffffffffffffffffffffffffffffffffffffffff16815260200190815260200160002060010181905550505050565b6000600560008473ffffffffffffffffffffffffffffffffffffffff1673ffffffffffffffffffffffffffffffffffffffff16815260200190815260200160002060008373ffffffffffffffffffffffffffffffffffffffff1673ffffffffffffffffffffffffffffffffffffffff16815260200190815260200160002060009054906101000a900460ff16905092915050565b6000611bfe8260026122d090919063ffffffff16565b9050919050565b600033905090565b816004600083815260200190815260200160002060006101000a81548173ffffffffffffffffffffffffffffffffffffffff021916908373ffffffffffffffffffffffffffffffffffffffff160217905550808273ffffffffffffffffffffffffffffffffffffffff16611c8083611066565b73ffffffffffffffffffffffffffffffffffffffff167f8c5be1e5ebec7d5bd14f71427d1e84f3dd0314c0f7b2291e5b200ac8c7c3b92560405160405180910390a45050565b6000611cd4826000016122ea565b9050919050565b6000611ce682611be8565b611d3b576040517f08c379a000000000000000000000000000000000000000000000000000000000815260040180806020018281038252602c815260200180613037602c913960400191505060405180910390fd5b6000611d4683611066565b90508073ffffffffffffffffffffffffffffffffffffffff168473ffffffffffffffffffffffffffffffffffffffff161480611db557508373ffffffffffffffffffffffffffffffffffffffff16611d9d84610c8a565b73ffffffffffffffffffffffffffffffffffffffff16145b80611dc65750611dc58185611b54565b5b91505092915050565b8273ffffffffffffffffffffffffffffffffffffffff16611def82611066565b73ffffffffffffffffffffffffffffffffffffffff1614611e5b576040517f08c379a000000000000000000000000000000000000000000000000000000000815260040180806020018281038252602981526020018061316b6029913960400191505060405180910390fd5b600073ffffffffffffffffffffffffffffffffffffffff168273ffffffffffffffffffffffffffffffffffffffff161415611ee1576040517f08c379a0000000000000000000000000000000000000000000000000000000008152600401808060200182810382526024815260200180612fed6024913960400191505060405180910390fd5b611eec8383836122fb565b611ef7600082611c0d565b611f4881600160008673ffffffffffffffffffffffffffffffffffffffff1673ffffffffffffffffffffffffffffffffffffffff16815260200190815260200160002061230090919063ffffffff16565b50611f9a81600160008573ffffffffffffffffffffffffffffffffffffffff1673ffffffffffffffffffffffffffffffffffffffff16815260200190815260200160002061231a90919063ffffffff16565b50611fb1818360026123349092919063ffffffff16565b50808273ffffffffffffffffffffffffffffffffffffffff168473ffffffffffffffffffffffffffffffffffffffff167fddf252ad1be2c89b69c2b068fc378daa952ba7f163c4a11628f55a4df523b3ef60405160405180910390a4505050565b60006120218360000183612369565b60001c905092915050565b60008060008061203f86600001866123ec565b915091508160001c8160001c9350935050509250929050565b806009908051906020019061206e929190612eb3565b5050565b6000612085846000018460001b84612485565b60001c90509392505050565b600061209f8260000161257b565b9050919050565b6120b1848484611dcf565b6120bd8484848461258c565b612112576040517f08c379a0000000000000000000000000000000000000000000000000000000008152600401808060200182810382526032815260200180612fbb6032913960400191505060405180910390fd5b50505050565b60606000821415612160576040518060400160405280600181526020017f3000000000000000000000000000000000000000000000000000000000000000815250905061225a565b600082905060005b6000821461218a578080600101915050600a828161218257fe5b049150612168565b60608167ffffffffffffffff811180156121a357600080fd5b506040519080825280601f01601f1916602001820160405280156121d65781602001600182028036833780820191505090505b50905060006001830390508593505b6000841461225257600a84816121f757fe5b0660300160f81b8282806001900393508151811061221157fe5b60200101907effffffffffffffffffffffffffffffffffffffffffffffffffffffffffffff1916908160001a905350600a848161224a57fe5b0493506121e5565b819450505050505b919050565b61226983836127a5565b612276600084848461258c565b6122cb576040517f08c379a0000000000000000000000000000000000000000000000000000000008152600401808060200182810382526032815260200180612fbb6032913960400191505060405180910390fd5b505050565b60006122e2836000018360001b612999565b905092915050565b600081600001805490509050919050565b505050565b6000612312836000018360001b6129bc565b905092915050565b600061232c836000018360001b612aa4565b905092915050565b6000612360846000018460001b8473ffffffffffffffffffffffffffffffffffffffff1660001b612b14565b90509392505050565b6000818360000180549050116123ca576040517f08c379a0000000000000000000000000000000000000000000000000000000008152600401808060200182810382526022815260200180612f516022913960400191505060405180910390fd5b8260000182815481106123d957fe5b9060005260206000200154905092915050565b6000808284600001805490501161244e576040517f08c379a000000000000000000000000000000000000000000000000000000000815260040180806020018281038252602281526020018061311d6022913960400191505060405180910390fd5b600084600001848154811061245f57fe5b906000526020600020906002020190508060000154816001015492509250509250929050565b6000808460010160008581526020019081526020016000205490506000811415839061254c576040517f08c379a00000000000000000000000000000000000000000000000000000000081526004018080602001828103825283818151815260200191508051906020019080838360005b838110156125115780820151818401526020810190506124f6565b50505050905090810190601f16801561253e5780820380516001836020036101000a031916815260200191505b509250505060405180910390fd5b5084600001600182038154811061255f57fe5b9060005260206000209060020201600101549150509392505050565b600081600001805490509050919050565b60006125ad8473ffffffffffffffffffffffffffffffffffffffff16612bf0565b6125ba576001905061279d565b606061272463150b7a0260e01b6125cf611c05565b888787604051602401808573ffffffffffffffffffffffffffffffffffffffff1681526020018473ffffffffffffffffffffffffffffffffffffffff16815260200183815260200180602001828103825283818151815260200191508051906020019080838360005b83811015612653578082015181840152602081019050612638565b50505050905090810190601f1680156126805780820380516001836020036101000a031916815260200191505b5095505050505050604051602081830303815290604052907bffffffffffffffffffffffffffffffffffffffffffffffffffffffff19166020820180517bffffffffffffffffffffffffffffffffffffffffffffffffffffffff8381831617835250505050604051806060016040528060328152602001612fbb603291398773ffffffffffffffffffffffffffffffffffffffff16612c039092919063ffffffff16565b9050600081806020019051602081101561273d57600080fd5b8101908080519060200190929190505050905063150b7a0260e01b7bffffffffffffffffffffffffffffffffffffffffffffffffffffffff1916817bffffffffffffffffffffffffffffffffffffffffffffffffffffffff191614925050505b949350505050565b600073ffffffffffffffffffffffffffffffffffffffff168273ffffffffffffffffffffffffffffffffffffffff161415612848576040517f08c379a00000000000000000000000000000000000000000000000000000000081526004018080602001828103825260208152602001807f4552433732313a206d696e7420746f20746865207a65726f206164647265737381525060200191505060405180910390fd5b61285181611be8565b156128c4576040517f08c379a000000000000000000000000000000000000000000000000000000000815260040180806020018281038252601c8152602001807f4552433732313a20746f6b656e20616c7265616479206d696e7465640000000081525060200191505060405180910390fd5b6128d0600083836122fb565b61292181600160008573ffffffffffffffffffffffffffffffffffffffff1673ffffffffffffffffffffffffffffffffffffffff16815260200190815260200160002061231a90919063ffffffff16565b50612938818360026123349092919063ffffffff16565b50808273ffffffffffffffffffffffffffffffffffffffff16600073ffffffffffffffffffffffffffffffffffffffff167fddf252ad1be2c89b69c2b068fc378daa952ba7f163c4a11628f55a4df523b3ef60405160405180910390a45050565b600080836001016000848152602001908152602001600020541415905092915050565b60008083600101600084815260200190815260200160002054905060008114612a985760006001820390506000600186600001805490500390506000866000018281548110612a0757fe5b9060005260206000200154905080876000018481548110612a2457fe5b9060005260206000200181905550600183018760010160008381526020019081526020016000208190555086600001805480612a5c57fe5b60019003818190600052602060002001600090559055866001016000878152602001908152602001600020600090556001945050505050612a9e565b60009150505b92915050565b6000612ab08383612c1b565b612b09578260000182908060018154018082558091505060019003906000526020600020016000909190919091505582600001805490508360010160008481526020019081526020016000208190555060019050612b0e565b600090505b92915050565b6000808460010160008581526020019081526020016000205490506000811415612bbb57846000016040518060400160405280868152602001858152509080600181540180825580915050600190039060005260206000209060020201600090919091909150600082015181600001556020820151816001015550508460000180549050856001016000868152602001908152602001600020819055506001915050612be9565b82856000016001830381548110612bce57fe5b90600052602060002090600202016001018190555060009150505b9392505050565b600080823b905060008111915050919050565b6060612c128484600085612c3e565b90509392505050565b600080836001016000848152602001908152602001600020541415905092915050565b606082471015612c99576040517f08c379a00000000000000000000000000000000000000000000000000000000081526004018080602001828103825260268152602001806130116026913960400191505060405180910390fd5b612ca285612bf0565b612d14576040517f08c379a000000000000000000000000000000000000000000000000000000000815260040180806020018281038252601d8152602001807f416464726573733a2063616c6c20746f206e6f6e2d636f6e747261637400000081525060200191505060405180910390fd5b600060608673ffffffffffffffffffffffffffffffffffffffff1685876040518082805190602001908083835b60208310612d645780518252602082019150602081019050602083039250612d41565b6001836020036101000a03801982511681845116808217855250505050505090500191505060006040518083038185875af1925050503d8060008114612dc6576040519150601f19603f3d011682016040523d82523d6000602084013e612dcb565b606091505b5091509150612ddb828286612de7565b92505050949350505050565b60608315612df757829050612eac565b600083511115612e0a5782518084602001fd5b816040517f08c379a00000000000000000000000000000000000000000000000000000000081526004018080602001828103825283818151815260200191508051906020019080838360005b83811015612e71578082015181840152602081019050612e56565b50505050905090810190601f168015612e9e5780820380516001836020036101000a031916815260200191505b509250505060405180910390fd5b9392505050565b828054600181600116156101000203166002900490600052602060002090601f016020900481019282601f10612ef457805160ff1916838001178555612f22565b82800160010185558215612f22579182015b82811115612f21578251825591602001919060010190612f06565b5b509050612f2f9190612f33565b5090565b5b80821115612f4c576000816000905550600101612f34565b509056fe456e756d657261626c655365743a20696e646578206f7574206f6620626f756e64734f6e6c792069737375657220697320616c6c6f77656420746f206169722064726f70204e465473557365722068617320616c7265616479206265656e206169722064726f707065644552433732313a207472616e7366657220746f206e6f6e20455243373231526563656976657220696d706c656d656e7465724552433732313a207472616e7366657220746f20746865207a65726f2061646472657373416464726573733a20696e73756666696369656e742062616c616e636520666f722063616c6c4552433732313a206f70657261746f7220717565727920666f72206e6f6e6578697374656e7420746f6b656e4552433732313a20617070726f76652063616c6c6572206973206e6f74206f776e6572206e6f7220617070726f76656420666f7220616c6c4552433732313a2062616c616e636520717565727920666f7220746865207a65726f20616464726573734552433732313a206f776e657220717565727920666f72206e6f6e6578697374656e7420746f6b656e4f6e6c792069737375657220697320616c6c6f77656420746f206578656375746520746869732066756e6374696f6e456e756d657261626c654d61703a20696e646578206f7574206f6620626f756e64734552433732313a20617070726f76656420717565727920666f72206e6f6e6578697374656e7420746f6b656e4552433732313a207472616e73666572206f6620746f6b656e2074686174206973206e6f74206f776e4552433732314d657461646174613a2055524920717565727920666f72206e6f6e6578697374656e7420746f6b656e4552433732313a20617070726f76616c20746f2063757272656e74206f776e65724552433732313a207472616e736665722063616c6c6572206973206e6f74206f776e6572206e6f7220617070726f766564a2646970667358221220ca9a33727b8666a14cd7204c48f988a9b7b9911f407d66c428f5095b3434168464736f6c634300060c0033a26469706673582212207e82ebdab163ee5daba74396eafbcf3680242af88001044be473bc3b2903f95b64736f6c634300060c0033",
  "immutableReferences": {},
  "source": "pragma solidity 0.6.12;\n\nimport {GenNFT} from \"./GenNFT.sol\";\nimport './interfaces/IGenNFTFactory.sol';\n\ncontract GenNFTFactory is IGenNFTFactory {\n\n    address[] public override genNFT;\n    \n    mapping(address => uint) public override getGenNFT;\n    \n    event NFTCreated(address indexed caller, address indexed genNFT);\n    \n    function genNFTLength() external override view returns (uint) {\n        return genNFT.length;\n    }\n\n    function createGenNFT(\n        string memory _name,\n        string memory _symbol,\n        string memory _uri\n    )  external override returns (address) {\n\n        //address issuer = msg.sender;\n        GenNFT gd = new GenNFT(_name, _symbol, _uri, this, msg.sender);\n        // Populate mapping\n        getGenNFT[address(gd)] = genNFT.length;\n        // Add to list\n        genNFT.push(address(gd));\n        emit NFTCreated(msg.sender, address(gd));\n        \n        return address(gd);\n    }\n    \n}",
  "sourcePath": "/Users/anandsinha/workspace/genesis-shards/contracts/GenNFTFactory.sol",
  "compiler": {
    "name": "solc",
    "version": "0.6.12+commit.27d51765.Emscripten.clang"
  },
  "schemaVersion": "3.4.3",
  "updatedAt": "2022-04-11T07:32:24.620Z",
  "devdoc": {
    "kind": "dev",
    "methods": {},
    "version": 1
  },
  "userdoc": {
    "kind": "user",
    "methods": {},
    "version": 1
  }
}