{
  "contractName": "GenTelegram",
  "abi": [
    {
      "inputs": [
        {
          "internalType": "address",
          "name": "",
          "type": "address"
        }
      ],
      "name": "telegrams",
      "outputs": [
        {
          "internalType": "string",
          "name": "",
          "type": "string"
        }
      ],
      "stateMutability": "view",
      "type": "function",
      "constant": true
    },
    {
      "inputs": [
        {
          "internalType": "string",
          "name": "telegram",
          "type": "string"
        }
      ],
      "name": "setTelegram",
      "outputs": [],
      "stateMutability": "nonpayable",
      "type": "function"
    }
  ],
  "bytecode": "0x608060405234801561001057600080fd5b50610346806100206000396000f3fe608060405234801561001057600080fd5b50600436106100365760003560e01c8063e8e81fe41461003b578063fd88d9f0146100b4575b600080fd5b6100b26004803603602081101561005157600080fd5b810190808035906020019064010000000081111561006e57600080fd5b82018360208201111561008057600080fd5b803590602001918460018302840111640100000000831117156100a257600080fd5b9091929391929390505050610171565b005b6100f6600480360360208110156100ca57600080fd5b81019080803573ffffffffffffffffffffffffffffffffffffffff1690602001909291905050506101c3565b6040518080602001828103825283818151815260200191508051906020019080838360005b8381101561013657808201518184015260208101905061011b565b50505050905090810190601f1680156101635780820380516001836020036101000a031916815260200191505b509250505060405180910390f35b81816000803373ffffffffffffffffffffffffffffffffffffffff1673ffffffffffffffffffffffffffffffffffffffff16815260200190815260200160002091906101be929190610273565b505050565b60006020528060005260406000206000915090508054600181600116156101000203166002900480601f01602080910402602001604051908101604052809291908181526020018280546001816001161561010002031660029004801561026b5780601f106102405761010080835404028352916020019161026b565b820191906000526020600020905b81548152906001019060200180831161024e57829003601f168201915b505050505081565b828054600181600116156101000203166002900490600052602060002090601f016020900481019282601f106102b457803560ff19168380011785556102e2565b828001600101855582156102e2579182015b828111156102e15782358255916020019190600101906102c6565b5b5090506102ef91906102f3565b5090565b5b8082111561030c5760008160009055506001016102f4565b509056fea2646970667358221220c7ed6a19d5f43148176d09788232da919e6368dcd98018e2a09db24e5c65c40164736f6c634300060c0033",
  "immutableReferences": {},
  "source": "pragma solidity 0.6.12;\n\ncontract GenTelegram {\n    mapping(address => string) public telegrams;\n\n    function setTelegram(string calldata telegram) external {\n        telegrams[msg.sender] = telegram;\n    }\n}",
  "sourcePath": "/Users/52150749/My_Repo/genesis-shards/contracts/GenTelegram.sol",
  "compiler": {
    "name": "solc",
    "version": "0.6.12+commit.27d51765.Emscripten.clang"
  },
  "schemaVersion": "3.4.3",
  "updatedAt": "2021-09-28T04:43:47.708Z",
  "networkType": "ethereum",
  "devdoc": {
    "kind": "dev",
    "methods": {},
    "version": 1
  },
  "userdoc": {
    "kind": "user",
    "methods": {},
    "version": 1
  }
}