{
  "contractName": "GenTickets",
  "abi": [
    {
      "inputs": [
        {
          "internalType": "address",
          "name": "_underlyingToken",
          "type": "address"
        },
        {
          "internalType": "uint256[]",
          "name": "_numTickets",
          "type": "uint256[]"
        },
        {
          "internalType": "uint256[]",
          "name": "_ticketSizes",
          "type": "uint256[]"
        },
        {
          "internalType": "uint256[]",
          "name": "_trancheWeightage",
          "type": "uint256[]"
        },
        {
          "internalType": "uint256[]",
          "name": "_trancheLength",
          "type": "uint256[]"
        },
        {
          "internalType": "string",
          "name": "_uri",
          "type": "string"
        },
        {
          "internalType": "contract IGenFactory",
          "name": "_factory",
          "type": "address"
        },
        {
          "internalType": "address",
          "name": "_issuer",
          "type": "address"
        }
      ],
      "stateMutability": "nonpayable",
      "type": "constructor"
    },
    {
      "anonymous": false,
      "inputs": [
        {
          "indexed": true,
          "internalType": "address",
          "name": "account",
          "type": "address"
        },
        {
          "indexed": true,
          "internalType": "address",
          "name": "operator",
          "type": "address"
        },
        {
          "indexed": false,
          "internalType": "bool",
          "name": "approved",
          "type": "bool"
        }
      ],
      "name": "ApprovalForAll",
      "type": "event"
    },
    {
      "anonymous": false,
      "inputs": [
        {
          "indexed": true,
          "internalType": "address",
          "name": "operator",
          "type": "address"
        },
        {
          "indexed": true,
          "internalType": "address",
          "name": "from",
          "type": "address"
        },
        {
          "indexed": true,
          "internalType": "address",
          "name": "to",
          "type": "address"
        },
        {
          "indexed": false,
          "internalType": "uint256[]",
          "name": "ids",
          "type": "uint256[]"
        },
        {
          "indexed": false,
          "internalType": "uint256[]",
          "name": "values",
          "type": "uint256[]"
        }
      ],
      "name": "TransferBatch",
      "type": "event"
    },
    {
      "anonymous": false,
      "inputs": [
        {
          "indexed": true,
          "internalType": "address",
          "name": "operator",
          "type": "address"
        },
        {
          "indexed": true,
          "internalType": "address",
          "name": "from",
          "type": "address"
        },
        {
          "indexed": true,
          "internalType": "address",
          "name": "to",
          "type": "address"
        },
        {
          "indexed": false,
          "internalType": "uint256",
          "name": "id",
          "type": "uint256"
        },
        {
          "indexed": false,
          "internalType": "uint256",
          "name": "value",
          "type": "uint256"
        }
      ],
      "name": "TransferSingle",
      "type": "event"
    },
    {
      "anonymous": false,
      "inputs": [
        {
          "indexed": false,
          "internalType": "string",
          "name": "value",
          "type": "string"
        },
        {
          "indexed": true,
          "internalType": "uint256",
          "name": "id",
          "type": "uint256"
        }
      ],
      "name": "URI",
      "type": "event"
    },
    {
      "inputs": [],
      "name": "TGE",
      "outputs": [
        {
          "internalType": "uint256",
          "name": "",
          "type": "uint256"
        }
      ],
      "stateMutability": "view",
      "type": "function"
    },
    {
      "inputs": [],
      "name": "active",
      "outputs": [
        {
          "internalType": "bool",
          "name": "",
          "type": "bool"
        }
      ],
      "stateMutability": "view",
      "type": "function"
    },
    {
      "inputs": [
        {
          "internalType": "address",
          "name": "account",
          "type": "address"
        },
        {
          "internalType": "uint256",
          "name": "id",
          "type": "uint256"
        }
      ],
      "name": "balanceOf",
      "outputs": [
        {
          "internalType": "uint256",
          "name": "",
          "type": "uint256"
        }
      ],
      "stateMutability": "view",
      "type": "function"
    },
    {
      "inputs": [
        {
          "internalType": "address[]",
          "name": "accounts",
          "type": "address[]"
        },
        {
          "internalType": "uint256[]",
          "name": "ids",
          "type": "uint256[]"
        }
      ],
      "name": "balanceOfBatch",
      "outputs": [
        {
          "internalType": "uint256[]",
          "name": "",
          "type": "uint256[]"
        }
      ],
      "stateMutability": "view",
      "type": "function"
    },
    {
      "inputs": [],
      "name": "factory",
      "outputs": [
        {
          "internalType": "contract IGenFactory",
          "name": "",
          "type": "address"
        }
      ],
      "stateMutability": "view",
      "type": "function"
    },
    {
      "inputs": [
        {
          "internalType": "uint256",
          "name": "",
          "type": "uint256"
        }
      ],
      "name": "genTickets",
      "outputs": [
        {
          "internalType": "uint256",
          "name": "numTickets",
          "type": "uint256"
        },
        {
          "internalType": "uint256",
          "name": "ticketSize",
          "type": "uint256"
        }
      ],
      "stateMutability": "view",
      "type": "function"
    },
    {
      "inputs": [
        {
          "internalType": "address",
          "name": "account",
          "type": "address"
        },
        {
          "internalType": "address",
          "name": "operator",
          "type": "address"
        }
      ],
      "name": "isApprovedForAll",
      "outputs": [
        {
          "internalType": "bool",
          "name": "",
          "type": "bool"
        }
      ],
      "stateMutability": "view",
      "type": "function"
    },
    {
      "inputs": [],
      "name": "issuer",
      "outputs": [
        {
          "internalType": "address",
          "name": "",
          "type": "address"
        }
      ],
      "stateMutability": "view",
      "type": "function"
    },
    {
      "inputs": [],
      "name": "numTicketTypes",
      "outputs": [
        {
          "internalType": "uint256",
          "name": "",
          "type": "uint256"
        }
      ],
      "stateMutability": "view",
      "type": "function"
    },
    {
      "inputs": [
        {
          "internalType": "address",
          "name": "from",
          "type": "address"
        },
        {
          "internalType": "address",
          "name": "to",
          "type": "address"
        },
        {
          "internalType": "uint256[]",
          "name": "ids",
          "type": "uint256[]"
        },
        {
          "internalType": "uint256[]",
          "name": "amounts",
          "type": "uint256[]"
        },
        {
          "internalType": "bytes",
          "name": "data",
          "type": "bytes"
        }
      ],
      "name": "safeBatchTransferFrom",
      "outputs": [],
      "stateMutability": "nonpayable",
      "type": "function"
    },
    {
      "inputs": [
        {
          "internalType": "address",
          "name": "from",
          "type": "address"
        },
        {
          "internalType": "address",
          "name": "to",
          "type": "address"
        },
        {
          "internalType": "uint256",
          "name": "id",
          "type": "uint256"
        },
        {
          "internalType": "uint256",
          "name": "amount",
          "type": "uint256"
        },
        {
          "internalType": "bytes",
          "name": "data",
          "type": "bytes"
        }
      ],
      "name": "safeTransferFrom",
      "outputs": [],
      "stateMutability": "nonpayable",
      "type": "function"
    },
    {
      "inputs": [
        {
          "internalType": "address",
          "name": "operator",
          "type": "address"
        },
        {
          "internalType": "bool",
          "name": "approved",
          "type": "bool"
        }
      ],
      "name": "setApprovalForAll",
      "outputs": [],
      "stateMutability": "nonpayable",
      "type": "function"
    },
    {
      "inputs": [
        {
          "internalType": "bytes4",
          "name": "interfaceId",
          "type": "bytes4"
        }
      ],
      "name": "supportsInterface",
      "outputs": [
        {
          "internalType": "bool",
          "name": "",
          "type": "bool"
        }
      ],
      "stateMutability": "view",
      "type": "function"
    },
    {
      "inputs": [
        {
          "internalType": "uint256",
          "name": "",
          "type": "uint256"
        }
      ],
      "name": "trancheLength",
      "outputs": [
        {
          "internalType": "uint256",
          "name": "",
          "type": "uint256"
        }
      ],
      "stateMutability": "view",
      "type": "function"
    },
    {
      "inputs": [
        {
          "internalType": "uint256",
          "name": "",
          "type": "uint256"
        }
      ],
      "name": "trancheWeightage",
      "outputs": [
        {
          "internalType": "uint256",
          "name": "",
          "type": "uint256"
        }
      ],
      "stateMutability": "view",
      "type": "function"
    },
    {
      "inputs": [],
      "name": "underlyingToken",
      "outputs": [
        {
          "internalType": "address",
          "name": "",
          "type": "address"
        }
      ],
      "stateMutability": "view",
      "type": "function"
    },
    {
      "inputs": [
        {
          "internalType": "uint256",
          "name": "",
          "type": "uint256"
        }
      ],
      "name": "uri",
      "outputs": [
        {
          "internalType": "string",
          "name": "",
          "type": "string"
        }
      ],
      "stateMutability": "view",
      "type": "function"
    },
    {
      "inputs": [],
      "name": "returnTrancheLength",
      "outputs": [
        {
          "internalType": "uint256[]",
          "name": "",
          "type": "uint256[]"
        }
      ],
      "stateMutability": "view",
      "type": "function"
    },
    {
      "inputs": [],
      "name": "returnTrancheWeightage",
      "outputs": [
        {
          "internalType": "uint256[]",
          "name": "",
          "type": "uint256[]"
        }
      ],
      "stateMutability": "view",
      "type": "function"
    },
    {
      "inputs": [],
      "name": "owner",
      "outputs": [
        {
          "internalType": "address",
          "name": "",
          "type": "address"
        }
      ],
      "stateMutability": "view",
      "type": "function"
    },
    {
      "inputs": [
        {
          "internalType": "uint256",
          "name": "timestamp",
          "type": "uint256"
        }
      ],
      "name": "updateTGE",
      "outputs": [],
      "stateMutability": "nonpayable",
      "type": "function"
    },
    {
      "inputs": [
        {
          "internalType": "address",
          "name": "_to",
          "type": "address"
        }
      ],
      "name": "issue",
      "outputs": [],
      "stateMutability": "nonpayable",
      "type": "function"
    },
    {
      "inputs": [
        {
          "internalType": "address[]",
          "name": "_to",
          "type": "address[]"
        },
        {
          "internalType": "uint256",
          "name": "_id",
          "type": "uint256"
        },
        {
          "internalType": "uint256",
          "name": "_amount",
          "type": "uint256"
        }
      ],
      "name": "bulkAirdropTickets",
      "outputs": [],
      "stateMutability": "nonpayable",
      "type": "function"
    },
    {
      "inputs": [
        {
          "internalType": "uint256",
          "name": "_id",
          "type": "uint256"
        },
        {
          "internalType": "uint256",
          "name": "_amount",
          "type": "uint256"
        }
      ],
      "name": "redeemIssuerTicket",
      "outputs": [],
      "stateMutability": "nonpayable",
      "type": "function"
    },
    {
      "inputs": [
        {
          "internalType": "address",
          "name": "_to",
          "type": "address"
        },
        {
          "internalType": "uint256",
          "name": "_id",
          "type": "uint256"
        },
        {
          "internalType": "uint256",
          "name": "_amount",
          "type": "uint256"
        }
      ],
      "name": "redeemTicket",
      "outputs": [],
      "stateMutability": "nonpayable",
      "type": "function"
    },
    {
      "inputs": [
        {
          "internalType": "address",
          "name": "_operator",
          "type": "address"
        },
        {
          "internalType": "address",
          "name": "_from",
          "type": "address"
        },
        {
          "internalType": "uint256",
          "name": "_id",
          "type": "uint256"
        },
        {
          "internalType": "uint256",
          "name": "_value",
          "type": "uint256"
        },
        {
          "internalType": "bytes",
          "name": "_data",
          "type": "bytes"
        }
      ],
      "name": "onERC1155Received",
      "outputs": [
        {
          "internalType": "bytes4",
          "name": "",
          "type": "bytes4"
        }
      ],
      "stateMutability": "nonpayable",
      "type": "function"
    },
    {
      "inputs": [
        {
          "internalType": "address",
          "name": "_operator",
          "type": "address"
        },
        {
          "internalType": "address",
          "name": "_from",
          "type": "address"
        },
        {
          "internalType": "uint256[]",
          "name": "_ids",
          "type": "uint256[]"
        },
        {
          "internalType": "uint256[]",
          "name": "_values",
          "type": "uint256[]"
        },
        {
          "internalType": "bytes",
          "name": "_data",
          "type": "bytes"
        }
      ],
      "name": "onERC1155BatchReceived",
      "outputs": [
        {
          "internalType": "bytes4",
          "name": "",
          "type": "bytes4"
        }
      ],
      "stateMutability": "nonpayable",
      "type": "function"
    }
  ],
  "bytecode": "0x60806040526000600a60146101000a81548160ff0219169083151502179055506000600b557fffffffffffffffffffffffffffffffffffffffffffffffffffffffffffffffff600c553480156200005557600080fd5b50604051620049983803806200499883398181016040526101008110156200007c57600080fd5b810190808051906020019092919080516040519392919084640100000000821115620000a757600080fd5b83820191506020820185811115620000be57600080fd5b8251866020820283011164010000000082111715620000dc57600080fd5b8083526020830192505050908051906020019060200280838360005b8381101562000115578082015181840152602081019050620000f8565b50505050905001604052602001805160405193929190846401000000008211156200013f57600080fd5b838201915060208201858111156200015657600080fd5b82518660208202830111640100000000821117156200017457600080fd5b8083526020830192505050908051906020019060200280838360005b83811015620001ad57808201518184015260208101905062000190565b5050505090500160405260200180516040519392919084640100000000821115620001d757600080fd5b83820191506020820185811115620001ee57600080fd5b82518660208202830111640100000000821117156200020c57600080fd5b8083526020830192505050908051906020019060200280838360005b838110156200024557808201518184015260208101905062000228565b50505050905001604052602001805160405193929190846401000000008211156200026f57600080fd5b838201915060208201858111156200028657600080fd5b8251866020820283011164010000000082111715620002a457600080fd5b8083526020830192505050908051906020019060200280838360005b83811015620002dd578082015181840152602081019050620002c0565b50505050905001604052602001805160405193929190846401000000008211156200030757600080fd5b838201915060208201858111156200031e57600080fd5b82518660018202830111640100000000821117156200033c57600080fd5b8083526020830192505050908051906020019080838360005b838110156200037257808201518184015260208101905062000355565b50505050905090810190601f168015620003a05780820380516001836020036101000a031916815260200191505b50604052602001805190602001909291908051906020019092919050505082620003d76301ffc9a760e01b6200062860201b60201c565b620003e8816200073160201b60201c565b6200040063d9b67a2660e01b6200062860201b60201c565b62000418630e89341c60e01b6200062860201b60201c565b506200043a63bc197c8160e01b63f23a6e6160e01b186200062860201b60201c565b87600460006101000a81548173ffffffffffffffffffffffffffffffffffffffff021916908373ffffffffffffffffffffffffffffffffffffffff160217905550836005908051906020019062000493929190620007d8565b508460069080519060200190620004ac929190620007d8565b5081600960006101000a81548173ffffffffffffffffffffffffffffffffffffffff021916908373ffffffffffffffffffffffffffffffffffffffff16021790555080600a60006101000a81548173ffffffffffffffffffffffffffffffffffffffff021916908373ffffffffffffffffffffffffffffffffffffffff16021790555060005b60328110156200061957808851141562000553578060088190555062000619565b620005958782815181106200056457fe5b60200260200101518983815181106200057957fe5b60200260200101516200074d60201b62002f4a1790919060201c565b600b600082825401925050819055506040518060400160405280898381518110620005bc57fe5b60200260200101518152602001888381518110620005d657fe5b6020026020010151815250600760008381526020019081526020016000206000820151816000015560208201518160010155905050808060010191505062000532565b505050505050505050620008d0565b63ffffffff60e01b817bffffffffffffffffffffffffffffffffffffffffffffffffffffffff19161415620006c5576040517f08c379a000000000000000000000000000000000000000000000000000000000815260040180806020018281038252601c8152602001807f4552433136353a20696e76616c696420696e746572666163652069640000000081525060200191505060405180910390fd5b6001600080837bffffffffffffffffffffffffffffffffffffffffffffffffffffffff19167bffffffffffffffffffffffffffffffffffffffffffffffffffffffff1916815260200190815260200160002060006101000a81548160ff02191690831515021790555050565b8060039080519060200190620007499291906200082a565b5050565b600080831415620007625760009050620007d2565b60008284029050828482816200077457fe5b0414620007cd576040517f08c379a0000000000000000000000000000000000000000000000000000000008152600401808060200182810382526021815260200180620049776021913960400191505060405180910390fd5b809150505b92915050565b82805482825590600052602060002090810192821562000817579160200282015b8281111562000816578251825591602001919060010190620007f9565b5b509050620008269190620008b1565b5090565b828054600181600116156101000203166002900490600052602060002090601f016020900481019282601f106200086d57805160ff19168380011785556200089e565b828001600101855582156200089e579182015b828111156200089d57825182559160200191906001019062000880565b5b509050620008ad9190620008b1565b5090565b5b80821115620008cc576000816000905550600101620008b2565b5090565b61409780620008e06000396000f3fe608060405234801561001057600080fd5b50600436106101a85760003560e01c8063833ce3e1116100f9578063bbc517fc11610097578063e118658b11610071578063e118658b14610d2a578063e985e9c514610d48578063f23a6e6114610dc2578063f242432a14610ec2576101a8565b8063bbc517fc14610b01578063bc197c8114610b60578063c45a015514610cf6576101a8565b80638da5cb5b116100d35780638da5cb5b146109ed578063a22cb46514610a21578063a27c282e14610a71578063b74fa2bd14610ac9576101a8565b8063833ce3e1146109425780638867596f146109705780638899a6461461098e576101a8565b80632495a599116101665780634e1273f4116101405780634e1273f4146106d25780637145a6b21461087357806371e928af146108bc57806375208f4d14610900576101a8565b80632495a5991461043957806329e943051461046d5780632eb2c2d6146104af576101a8565b8062fdd58e146101ad578063013e52771461020f57806301ffc9a7146102db57806302fb0c5e1461033e5780630e89341c1461035e5780631d14384814610405575b600080fd5b6101f9600480360360408110156101c357600080fd5b81019080803573ffffffffffffffffffffffffffffffffffffffff16906020019092919080359060200190929190505050610fd1565b6040518082815260200191505060405180910390f35b6102d96004803603606081101561022557600080fd5b810190808035906020019064010000000081111561024257600080fd5b82018360208201111561025457600080fd5b8035906020019184602083028401116401000000008311171561027657600080fd5b919080806020026020016040519081016040528093929190818152602001838360200280828437600081840152601f19601f82011690508083019250505050505050919291929080359060200190929190803590602001909291905050506110b1565b005b610326600480360360208110156102f157600080fd5b8101908080357bffffffffffffffffffffffffffffffffffffffffffffffffffffffff191690602001909291905050506112e2565b60405180821515815260200191505060405180910390f35b610346611349565b60405180821515815260200191505060405180910390f35b61038a6004803603602081101561037457600080fd5b810190808035906020019092919050505061135c565b6040518080602001828103825283818151815260200191508051906020019080838360005b838110156103ca5780820151818401526020810190506103af565b50505050905090810190601f1680156103f75780820380516001836020036101000a031916815260200191505b509250505060405180910390f35b61040d611400565b604051808273ffffffffffffffffffffffffffffffffffffffff16815260200191505060405180910390f35b610441611426565b604051808273ffffffffffffffffffffffffffffffffffffffff16815260200191505060405180910390f35b6104996004803603602081101561048357600080fd5b810190808035906020019092919050505061144c565b6040518082815260200191505060405180910390f35b6106d0600480360360a08110156104c557600080fd5b81019080803573ffffffffffffffffffffffffffffffffffffffff169060200190929190803573ffffffffffffffffffffffffffffffffffffffff1690602001909291908035906020019064010000000081111561052257600080fd5b82018360208201111561053457600080fd5b8035906020019184602083028401116401000000008311171561055657600080fd5b919080806020026020016040519081016040528093929190818152602001838360200280828437600081840152601f19601f820116905080830192505050505050509192919290803590602001906401000000008111156105b657600080fd5b8201836020820111156105c857600080fd5b803590602001918460208302840111640100000000831117156105ea57600080fd5b919080806020026020016040519081016040528093929190818152602001838360200280828437600081840152601f19601f8201169050808301925050505050505091929192908035906020019064010000000081111561064a57600080fd5b82018360208201111561065c57600080fd5b8035906020019184600183028401116401000000008311171561067e57600080fd5b91908080601f016020809104026020016040519081016040528093929190818152602001838380828437600081840152601f19601f82011690508083019250505050505050919291929050505061146d565b005b61081c600480360360408110156106e857600080fd5b810190808035906020019064010000000081111561070557600080fd5b82018360208201111561071757600080fd5b8035906020019184602083028401116401000000008311171561073957600080fd5b919080806020026020016040519081016040528093929190818152602001838360200280828437600081840152601f19601f8201169050808301925050505050505091929192908035906020019064010000000081111561079957600080fd5b8201836020820111156107ab57600080fd5b803590602001918460208302840111640100000000831117156107cd57600080fd5b919080806020026020016040519081016040528093929190818152602001838360200280828437600081840152601f19601f8201169050808301925050505050505091929192905050506118f8565b6040518080602001828103825283818151815260200191508051906020019060200280838360005b8381101561085f578082015181840152602081019050610844565b505050509050019250505060405180910390f35b61089f6004803603602081101561088957600080fd5b8101908080359060200190929190505050611a0a565b604051808381526020018281526020019250505060405180910390f35b6108fe600480360360208110156108d257600080fd5b81019080803573ffffffffffffffffffffffffffffffffffffffff169060200190929190505050611a2e565b005b61092c6004803603602081101561091657600080fd5b8101908080359060200190929190505050611dd5565b6040518082815260200191505060405180910390f35b61096e6004803603602081101561095857600080fd5b8101908080359060200190929190505050611df6565b005b610978611f83565b6040518082815260200191505060405180910390f35b610996611f89565b6040518080602001828103825283818151815260200191508051906020019060200280838360005b838110156109d95780820151818401526020810190506109be565b505050509050019250505060405180910390f35b6109f5611fe1565b604051808273ffffffffffffffffffffffffffffffffffffffff16815260200191505060405180910390f35b610a6f60048036036040811015610a3757600080fd5b81019080803573ffffffffffffffffffffffffffffffffffffffff16906020019092919080351515906020019092919050505061200b565b005b610ac760048036036060811015610a8757600080fd5b81019080803573ffffffffffffffffffffffffffffffffffffffff16906020019092919080359060200190929190803590602001909291905050506121a4565b005b610aff60048036036040811015610adf57600080fd5b810190808035906020019092919080359060200190929190505050612775565b005b610b096129bf565b6040518080602001828103825283818151815260200191508051906020019060200280838360005b83811015610b4c578082015181840152602081019050610b31565b505050509050019250505060405180910390f35b610cc1600480360360a0811015610b7657600080fd5b81019080803573ffffffffffffffffffffffffffffffffffffffff169060200190929190803573ffffffffffffffffffffffffffffffffffffffff16906020019092919080359060200190640100000000811115610bd357600080fd5b820183602082011115610be557600080fd5b80359060200191846020830284011164010000000083111715610c0757600080fd5b909192939192939080359060200190640100000000811115610c2857600080fd5b820183602082011115610c3a57600080fd5b80359060200191846020830284011164010000000083111715610c5c57600080fd5b909192939192939080359060200190640100000000811115610c7d57600080fd5b820183602082011115610c8f57600080fd5b80359060200191846001830284011164010000000083111715610cb157600080fd5b9091929391929390505050612a17565b60405180827bffffffffffffffffffffffffffffffffffffffffffffffffffffffff1916815260200191505060405180910390f35b610cfe612a97565b604051808273ffffffffffffffffffffffffffffffffffffffff16815260200191505060405180910390f35b610d32612abd565b6040518082815260200191505060405180910390f35b610daa60048036036040811015610d5e57600080fd5b81019080803573ffffffffffffffffffffffffffffffffffffffff169060200190929190803573ffffffffffffffffffffffffffffffffffffffff169060200190929190505050612ac3565b60405180821515815260200191505060405180910390f35b610e8d600480360360a0811015610dd857600080fd5b81019080803573ffffffffffffffffffffffffffffffffffffffff169060200190929190803573ffffffffffffffffffffffffffffffffffffffff169060200190929190803590602001909291908035906020019092919080359060200190640100000000811115610e4957600080fd5b820183602082011115610e5b57600080fd5b80359060200191846001830284011164010000000083111715610e7d57600080fd5b9091929391929390505050612b57565b60405180827bffffffffffffffffffffffffffffffffffffffffffffffffffffffff1916815260200191505060405180910390f35b610fcf600480360360a0811015610ed857600080fd5b81019080803573ffffffffffffffffffffffffffffffffffffffff169060200190929190803573ffffffffffffffffffffffffffffffffffffffff169060200190929190803590602001909291908035906020019092919080359060200190640100000000811115610f4957600080fd5b820183602082011115610f5b57600080fd5b80359060200191846001830284011164010000000083111715610f7d57600080fd5b91908080601f016020809104026020016040519081016040528093929190818152602001838380828437600081840152601f19601f820116905080830192505050505050509192919290505050612bd5565b005b60008073ffffffffffffffffffffffffffffffffffffffff168373ffffffffffffffffffffffffffffffffffffffff161415611058576040517f08c379a000000000000000000000000000000000000000000000000000000000815260040180806020018281038252602b815260200180613d63602b913960400191505060405180910390fd5b6001600083815260200190815260200160002060008473ffffffffffffffffffffffffffffffffffffffff1673ffffffffffffffffffffffffffffffffffffffff16815260200190815260200160002054905092915050565b600a60009054906101000a900473ffffffffffffffffffffffffffffffffffffffff1673ffffffffffffffffffffffffffffffffffffffff163373ffffffffffffffffffffffffffffffffffffffff1614611157576040517f08c379a000000000000000000000000000000000000000000000000000000000815260040180806020018281038252602d815260200180613fa7602d913960400191505060405180910390fd5b61116e816001855103612f4a90919063ffffffff16565b3073ffffffffffffffffffffffffffffffffffffffff1662fdd58e33856040518363ffffffff1660e01b8152600401808373ffffffffffffffffffffffffffffffffffffffff1681526020018281526020019250505060206040518083038186803b1580156111dc57600080fd5b505afa1580156111f0573d6000803e3d6000fd5b505050506040513d602081101561120657600080fd5b8101908080519060200190929190505050101561126e576040517f08c379a000000000000000000000000000000000000000000000000000000000815260040180806020018281038252604a815260200180613ff5604a913960600191505060405180910390fd5b60005b83518110156112dc576112cf3385838151811061128a57fe5b602002602001015185856040518060400160405280600281526020017f4a43000000000000000000000000000000000000000000000000000000000000815250612bd5565b8080600101915050611271565b50505050565b6000806000837bffffffffffffffffffffffffffffffffffffffffffffffffffffffff19167bffffffffffffffffffffffffffffffffffffffffffffffffffffffff1916815260200190815260200160002060009054906101000a900460ff169050919050565b600a60149054906101000a900460ff1681565b606060038054600181600116156101000203166002900480601f0160208091040260200160405190810160405280929190818152602001828054600181600116156101000203166002900480156113f45780601f106113c9576101008083540402835291602001916113f4565b820191906000526020600020905b8154815290600101906020018083116113d757829003601f168201915b50505050509050919050565b600a60009054906101000a900473ffffffffffffffffffffffffffffffffffffffff1681565b600460009054906101000a900473ffffffffffffffffffffffffffffffffffffffff1681565b6005818154811061145957fe5b906000526020600020016000915090505481565b81518351146114c7576040517f08c379a0000000000000000000000000000000000000000000000000000000008152600401808060200182810382526028815260200180613f536028913960400191505060405180910390fd5b600073ffffffffffffffffffffffffffffffffffffffff168473ffffffffffffffffffffffffffffffffffffffff16141561154d576040517f08c379a0000000000000000000000000000000000000000000000000000000008152600401808060200182810382526025815260200180613dda6025913960400191505060405180910390fd5b611555612fd0565b73ffffffffffffffffffffffffffffffffffffffff168573ffffffffffffffffffffffffffffffffffffffff16148061159b575061159a85611595612fd0565b612ac3565b5b6115f0576040517f08c379a0000000000000000000000000000000000000000000000000000000008152600401808060200182810382526032815260200180613dff6032913960400191505060405180910390fd5b60006115fa612fd0565b905061160a818787878787612fd8565b60005b84518110156117db57600085828151811061162457fe5b60200260200101519050600085838151811061163c57fe5b602002602001015190506116c3816040518060600160405280602a8152602001613e31602a91396001600086815260200190815260200160002060008d73ffffffffffffffffffffffffffffffffffffffff1673ffffffffffffffffffffffffffffffffffffffff16815260200190815260200160002054612fe09092919063ffffffff16565b6001600084815260200190815260200160002060008b73ffffffffffffffffffffffffffffffffffffffff1673ffffffffffffffffffffffffffffffffffffffff1681526020019081526020016000208190555061177a816001600085815260200190815260200160002060008b73ffffffffffffffffffffffffffffffffffffffff1673ffffffffffffffffffffffffffffffffffffffff1681526020019081526020016000205461309a90919063ffffffff16565b6001600084815260200190815260200160002060008a73ffffffffffffffffffffffffffffffffffffffff1673ffffffffffffffffffffffffffffffffffffffff16815260200190815260200160002081905550505080600101905061160d565b508473ffffffffffffffffffffffffffffffffffffffff168673ffffffffffffffffffffffffffffffffffffffff168273ffffffffffffffffffffffffffffffffffffffff167f4a39dc06d4c0dbc64b70af90fd698a233a518aa5d07e595d983b8c0526c8f7fb8787604051808060200180602001838103835285818151815260200191508051906020019060200280838360005b8381101561188b578082015181840152602081019050611870565b50505050905001838103825284818151815260200191508051906020019060200280838360005b838110156118cd5780820151818401526020810190506118b2565b5050505090500194505050505060405180910390a46118f0818787878787613122565b505050505050565b60608151835114611954576040517f08c379a0000000000000000000000000000000000000000000000000000000008152600401808060200182810382526029815260200180613f2a6029913960400191505060405180910390fd5b6060835167ffffffffffffffff8111801561196e57600080fd5b5060405190808252806020026020018201604052801561199d5781602001602082028036833780820191505090505b50905060005b84518110156119ff576119dc8582815181106119bb57fe5b60200260200101518583815181106119cf57fe5b6020026020010151610fd1565b8282815181106119e857fe5b6020026020010181815250508060010190506119a3565b508091505092915050565b60076020528060005260406000206000915090508060000154908060010154905082565b600a60009054906101000a900473ffffffffffffffffffffffffffffffffffffffff1673ffffffffffffffffffffffffffffffffffffffff163373ffffffffffffffffffffffffffffffffffffffff1614611ad4576040517f08c379a000000000000000000000000000000000000000000000000000000000815260040180806020018281038252602c815260200180613f7b602c913960400191505060405180910390fd5b600a60149054906101000a900460ff1615611b3a576040517f08c379a000000000000000000000000000000000000000000000000000000000815260040180806020018281038252602381526020018061403f6023913960400191505060405180910390fd5b600460009054906101000a900473ffffffffffffffffffffffffffffffffffffffff1673ffffffffffffffffffffffffffffffffffffffff166323b872dd3330600b546040518463ffffffff1660e01b8152600401808473ffffffffffffffffffffffffffffffffffffffff1681526020018373ffffffffffffffffffffffffffffffffffffffff1681526020018281526020019350505050602060405180830381600087803b158015611bed57600080fd5b505af1158015611c01573d6000803e3d6000fd5b505050506040513d6020811015611c1757600080fd5b8101908080519060200190929190505050506000600960009054906101000a900473ffffffffffffffffffffffffffffffffffffffff1673ffffffffffffffffffffffffffffffffffffffff1663017e7e586040518163ffffffff1660e01b815260040160206040518083038186803b158015611c9357600080fd5b505afa158015611ca7573d6000803e3d6000fd5b505050506040513d6020811015611cbd57600080fd5b81019080805190602001909291905050509050606060005b6032811015611db457806008541415611ced57611db4565b611cf5613b5e565b6007600083815260200190815260200160002060405180604001604052908160008201548152602001600182015481525050905060008073ffffffffffffffffffffffffffffffffffffffff168573ffffffffffffffffffffffffffffffffffffffff1614611d9357611d76606483600001516134b190919063ffffffff16565b90506000811415611d8657600190505b611d928584838761353a565b5b611da58684838560000151038761353a565b50508080600101915050611cd5565b506001600a60146101000a81548160ff021916908315150217905550505050565b60068181548110611de257fe5b906000526020600020016000915090505481565b600a60009054906101000a900473ffffffffffffffffffffffffffffffffffffffff1673ffffffffffffffffffffffffffffffffffffffff163373ffffffffffffffffffffffffffffffffffffffff1614611e9c576040517f08c379a0000000000000000000000000000000000000000000000000000000008152600401808060200182810382526026815260200180613edb6026913960400191505060405180910390fd5b600c54611ea761373d565b10611f1a576040517f08c379a00000000000000000000000000000000000000000000000000000000081526004018080602001828103825260208152602001807f47656e5469636b6574733a2054474520616c7265616479206f6363757272656481525060200191505060405180910390fd5b80611f2361373d565b10611f79576040517f08c379a0000000000000000000000000000000000000000000000000000000008152600401808060200182810382526029815260200180613d3a6029913960400191505060405180910390fd5b80600c8190555050565b600c5481565b60606005805480602002602001604051908101604052809291908181526020018280548015611fd757602002820191906000526020600020905b815481526020019060010190808311611fc3575b5050505050905090565b6000600a60009054906101000a900473ffffffffffffffffffffffffffffffffffffffff16905090565b8173ffffffffffffffffffffffffffffffffffffffff1661202a612fd0565b73ffffffffffffffffffffffffffffffffffffffff161415612097576040517f08c379a0000000000000000000000000000000000000000000000000000000008152600401808060200182810382526029815260200180613f016029913960400191505060405180910390fd5b80600260006120a4612fd0565b73ffffffffffffffffffffffffffffffffffffffff1673ffffffffffffffffffffffffffffffffffffffff16815260200190815260200160002060008473ffffffffffffffffffffffffffffffffffffffff1673ffffffffffffffffffffffffffffffffffffffff16815260200190815260200160002060006101000a81548160ff0219169083151502179055508173ffffffffffffffffffffffffffffffffffffffff16612151612fd0565b73ffffffffffffffffffffffffffffffffffffffff167f17307eab39ab6107e8899845ad3d59bd9653f200f220920489ca2b5937696c318360405180821515815260200191505060405180910390a35050565b6000811161221a576040517f08c379a00000000000000000000000000000000000000000000000000000000081526004018080602001828103825260188152602001807f47656e5469636b65743a20496e76616c696420656e747279000000000000000081525060200191505060405180910390fd5b803073ffffffffffffffffffffffffffffffffffffffff1662fdd58e33856040518363ffffffff1660e01b8152600401808373ffffffffffffffffffffffffffffffffffffffff1681526020018281526020019250505060206040518083038186803b15801561228957600080fd5b505afa15801561229d573d6000803e3d6000fd5b505050506040513d60208110156122b357600080fd5b8101908080519060200190929190505050101561231b576040517f08c379a000000000000000000000000000000000000000000000000000000000815260040180806020018281038252603e815260200180613c81603e913960400191505060405180910390fd5b60006123326008548461374590919063ffffffff16565b905061233c613b5e565b60076000838152602001908152602001600020604051806040016040529081600082015481526020016001820154815250509050600c5461237b61373d565b116123d1576040517f08c379a0000000000000000000000000000000000000000000000000000000008152600401808060200182810382526023815260200180613db76023913960400191505060405180910390fd5b60008060008060006123ee6008548a6134b190919063ffffffff16565b9050600580549050811061244d576040517f08c379a000000000000000000000000000000000000000000000000000000000815260040180806020018281038252602a815260200180613d10602a913960400191505060405180910390fd5b60005b60058054905081101561252a57818110156124a057612495655af3107a40006006838154811061247c57fe5b90600052602060002001546134b190919063ffffffff16565b850194506001830192505b6124a861373d565b6124d4600583815481106124b857fe5b9060005260206000200154600c5461309a90919063ffffffff16565b1161251857612509655af3107a4000600683815481106124f057fe5b90600052602060002001546134b190919063ffffffff16565b8601955060018401935061251d565b61252a565b8080600101915050612450565b5060008511612584576040517f08c379a0000000000000000000000000000000000000000000000000000000008152600401808060200182810382526029815260200180613ce76029913960400191505060405180910390fd5b8183116125dc576040517f08c379a0000000000000000000000000000000000000000000000000000000008152600401808060200182810382526033815260200180613e7c6033913960400191505060405180910390fd5b600061261e620f42406126108789036126028d8c60200151612f4a90919063ffffffff16565b612f4a90919063ffffffff16565b6134b190919063ffffffff16565b905061266233308c8c6040518060400160405280600281526020017f4a43000000000000000000000000000000000000000000000000000000000000815250612bd5565b600460009054906101000a900473ffffffffffffffffffffffffffffffffffffffff1673ffffffffffffffffffffffffffffffffffffffff1663a9059cbb8c836040518363ffffffff1660e01b8152600401808373ffffffffffffffffffffffffffffffffffffffff16815260200182815260200192505050602060405180830381600087803b1580156126f557600080fd5b505af1158015612709573d6000803e3d6000fd5b505050506040513d602081101561271f57600080fd5b81019080805190602001909291905050505060606127678c612760612751878903600854612f4a90919063ffffffff16565b8e61309a90919063ffffffff16565b8c8461353a565b505050505050505050505050565b600a60009054906101000a900473ffffffffffffffffffffffffffffffffffffffff1673ffffffffffffffffffffffffffffffffffffffff163373ffffffffffffffffffffffffffffffffffffffff161461281b576040517f08c379a000000000000000000000000000000000000000000000000000000000815260040180806020018281038252602c815260200180613eaf602c913960400191505060405180910390fd5b60006128326008548461374590919063ffffffff16565b905061283c613b5e565b600760008381526020019081526020016000206040518060400160405290816000820154815260200160018201548152505090506128b2333086866040518060400160405280600281526020017f4a43000000000000000000000000000000000000000000000000000000000000815250612bd5565b600460009054906101000a900473ffffffffffffffffffffffffffffffffffffffff1673ffffffffffffffffffffffffffffffffffffffff1663a9059cbb600a60009054906101000a900473ffffffffffffffffffffffffffffffffffffffff1661292a846020015187612f4a90919063ffffffff16565b6040518363ffffffff1660e01b8152600401808373ffffffffffffffffffffffffffffffffffffffff16815260200182815260200192505050602060405180830381600087803b15801561297d57600080fd5b505af1158015612991573d6000803e3d6000fd5b505050506040513d60208110156129a757600080fd5b81019080805190602001909291905050505050505050565b60606006805480602002602001604051908101604052809291908181526020018280548015612a0d57602002820191906000526020600020905b8154815260200190600101908083116129f9575b5050505050905090565b60006040518060400160405280600281526020017f4a4300000000000000000000000000000000000000000000000000000000000081525080519060200120838360405180838380828437808301925050509250505060405180910390201415612a8a5763bc197c8160e01b9050612a8b565b5b98975050505050505050565b600960009054906101000a900473ffffffffffffffffffffffffffffffffffffffff1681565b60085481565b6000600260008473ffffffffffffffffffffffffffffffffffffffff1673ffffffffffffffffffffffffffffffffffffffff16815260200190815260200160002060008373ffffffffffffffffffffffffffffffffffffffff1673ffffffffffffffffffffffffffffffffffffffff16815260200190815260200160002060009054906101000a900460ff16905092915050565b60006040518060400160405280600281526020017f4a4300000000000000000000000000000000000000000000000000000000000081525080519060200120838360405180838380828437808301925050509250505060405180910390201415612bca5763f23a6e6160e01b9050612bcb565b5b9695505050505050565b600073ffffffffffffffffffffffffffffffffffffffff168473ffffffffffffffffffffffffffffffffffffffff161415612c5b576040517f08c379a0000000000000000000000000000000000000000000000000000000008152600401808060200182810382526025815260200180613dda6025913960400191505060405180910390fd5b612c63612fd0565b73ffffffffffffffffffffffffffffffffffffffff168573ffffffffffffffffffffffffffffffffffffffff161480612ca95750612ca885612ca3612fd0565b612ac3565b5b612cfe576040517f08c379a0000000000000000000000000000000000000000000000000000000008152600401808060200182810382526029815260200180613d8e6029913960400191505060405180910390fd5b6000612d08612fd0565b9050612d28818787612d19886137ce565b612d22886137ce565b87612fd8565b612da5836040518060600160405280602a8152602001613e31602a91396001600088815260200190815260200160002060008a73ffffffffffffffffffffffffffffffffffffffff1673ffffffffffffffffffffffffffffffffffffffff16815260200190815260200160002054612fe09092919063ffffffff16565b6001600086815260200190815260200160002060008873ffffffffffffffffffffffffffffffffffffffff1673ffffffffffffffffffffffffffffffffffffffff16815260200190815260200160002081905550612e5c836001600087815260200190815260200160002060008873ffffffffffffffffffffffffffffffffffffffff1673ffffffffffffffffffffffffffffffffffffffff1681526020019081526020016000205461309a90919063ffffffff16565b6001600086815260200190815260200160002060008773ffffffffffffffffffffffffffffffffffffffff1673ffffffffffffffffffffffffffffffffffffffff168152602001908152602001600020819055508473ffffffffffffffffffffffffffffffffffffffff168673ffffffffffffffffffffffffffffffffffffffff168273ffffffffffffffffffffffffffffffffffffffff167fc3d58168c5ae7397731d063d5bbf3d657854427343f4c083240f7aacaa2d0f628787604051808381526020018281526020019250505060405180910390a4612f4281878787878761383e565b505050505050565b600080831415612f5d5760009050612fca565b6000828402905082848281612f6e57fe5b0414612fc5576040517f08c379a0000000000000000000000000000000000000000000000000000000008152600401808060200182810382526021815260200180613e5b6021913960400191505060405180910390fd5b809150505b92915050565b600033905090565b505050505050565b600083831115829061308d576040517f08c379a00000000000000000000000000000000000000000000000000000000081526004018080602001828103825283818151815260200191508051906020019080838360005b83811015613052578082015181840152602081019050613037565b50505050905090810190601f16801561307f5780820380516001836020036101000a031916815260200191505b509250505060405180910390fd5b5082840390509392505050565b600080828401905083811015613118576040517f08c379a000000000000000000000000000000000000000000000000000000000815260040180806020018281038252601b8152602001807f536166654d6174683a206164646974696f6e206f766572666c6f77000000000081525060200191505060405180910390fd5b8091505092915050565b6131418473ffffffffffffffffffffffffffffffffffffffff16613b4b565b156134a9578373ffffffffffffffffffffffffffffffffffffffff1663bc197c8187878686866040518663ffffffff1660e01b8152600401808673ffffffffffffffffffffffffffffffffffffffff1681526020018573ffffffffffffffffffffffffffffffffffffffff168152602001806020018060200180602001848103845287818151815260200191508051906020019060200280838360005b838110156131f95780820151818401526020810190506131de565b50505050905001848103835286818151815260200191508051906020019060200280838360005b8381101561323b578082015181840152602081019050613220565b50505050905001848103825285818151815260200191508051906020019080838360005b8381101561327a57808201518184015260208101905061325f565b50505050905090810190601f1680156132a75780820380516001836020036101000a031916815260200191505b5098505050505050505050602060405180830381600087803b1580156132cc57600080fd5b505af192505050801561330057506040513d60208110156132ec57600080fd5b810190808051906020019092919050505060015b61340a5761330c613b96565b8061331757506133b9565b806040517f08c379a00000000000000000000000000000000000000000000000000000000081526004018080602001828103825283818151815260200191508051906020019080838360005b8381101561337e578082015181840152602081019050613363565b50505050905090810190601f1680156133ab5780820380516001836020036101000a031916815260200191505b509250505060405180910390fd5b6040517f08c379a0000000000000000000000000000000000000000000000000000000008152600401808060200182810382526034815260200180613c4d6034913960400191505060405180910390fd5b63bc197c8160e01b7bffffffffffffffffffffffffffffffffffffffffffffffffffffffff1916817bffffffffffffffffffffffffffffffffffffffffffffffffffffffff1916146134a7576040517f08c379a0000000000000000000000000000000000000000000000000000000008152600401808060200182810382526028815260200180613cbf6028913960400191505060405180910390fd5b505b505050505050565b6000808211613528576040517f08c379a000000000000000000000000000000000000000000000000000000000815260040180806020018281038252601a8152602001807f536166654d6174683a206469766973696f6e206279207a65726f00000000000081525060200191505060405180910390fd5b81838161353157fe5b04905092915050565b600073ffffffffffffffffffffffffffffffffffffffff168473ffffffffffffffffffffffffffffffffffffffff1614156135c0576040517f08c379a0000000000000000000000000000000000000000000000000000000008152600401808060200182810382526021815260200180613fd46021913960400191505060405180910390fd5b60006135ca612fd0565b90506135eb816000876135dc886137ce565b6135e5886137ce565b87612fd8565b61364e836001600087815260200190815260200160002060008873ffffffffffffffffffffffffffffffffffffffff1673ffffffffffffffffffffffffffffffffffffffff1681526020019081526020016000205461309a90919063ffffffff16565b6001600086815260200190815260200160002060008773ffffffffffffffffffffffffffffffffffffffff1673ffffffffffffffffffffffffffffffffffffffff168152602001908152602001600020819055508473ffffffffffffffffffffffffffffffffffffffff16600073ffffffffffffffffffffffffffffffffffffffff168273ffffffffffffffffffffffffffffffffffffffff167fc3d58168c5ae7397731d063d5bbf3d657854427343f4c083240f7aacaa2d0f628787604051808381526020018281526020019250505060405180910390a46137368160008787878761383e565b5050505050565b600042905090565b60008082116137bc576040517f08c379a00000000000000000000000000000000000000000000000000000000081526004018080602001828103825260188152602001807f536166654d6174683a206d6f64756c6f206279207a65726f000000000000000081525060200191505060405180910390fd5b8183816137c557fe5b06905092915050565b606080600167ffffffffffffffff811180156137e957600080fd5b506040519080825280602002602001820160405280156138185781602001602082028036833780820191505090505b509050828160008151811061382957fe5b60200260200101818152505080915050919050565b61385d8473ffffffffffffffffffffffffffffffffffffffff16613b4b565b15613b43578373ffffffffffffffffffffffffffffffffffffffff1663f23a6e6187878686866040518663ffffffff1660e01b8152600401808673ffffffffffffffffffffffffffffffffffffffff1681526020018573ffffffffffffffffffffffffffffffffffffffff16815260200184815260200183815260200180602001828103825283818151815260200191508051906020019080838360005b838110156139165780820151818401526020810190506138fb565b50505050905090810190601f1680156139435780820380516001836020036101000a031916815260200191505b509650505050505050602060405180830381600087803b15801561396657600080fd5b505af192505050801561399a57506040513d602081101561398657600080fd5b810190808051906020019092919050505060015b613aa4576139a6613b96565b806139b15750613a53565b806040517f08c379a00000000000000000000000000000000000000000000000000000000081526004018080602001828103825283818151815260200191508051906020019080838360005b83811015613a185780820151818401526020810190506139fd565b50505050905090810190601f168015613a455780820380516001836020036101000a031916815260200191505b509250505060405180910390fd5b6040517f08c379a0000000000000000000000000000000000000000000000000000000008152600401808060200182810382526034815260200180613c4d6034913960400191505060405180910390fd5b63f23a6e6160e01b7bffffffffffffffffffffffffffffffffffffffffffffffffffffffff1916817bffffffffffffffffffffffffffffffffffffffffffffffffffffffff191614613b41576040517f08c379a0000000000000000000000000000000000000000000000000000000008152600401808060200182810382526028815260200180613cbf6028913960400191505060405180910390fd5b505b505050505050565b600080823b905060008111915050919050565b604051806040016040528060008152602001600081525090565b6000601f19601f8301169050919050565b60008160e01c9050919050565b600060443d1015613ba657613c49565b60046000803e613bb7600051613b89565b6308c379a08114613bc85750613c49565b60405160043d036004823e80513d602482011167ffffffffffffffff82111715613bf457505050613c49565b808201805167ffffffffffffffff811115613c13575050505050613c49565b8060208301013d8501811115613c2e57505050505050613c49565b613c3782613b78565b60208401016040528296505050505050505b9056fe455243313135353a207472616e7366657220746f206e6f6e2045524331313535526563656976657220696d706c656d656e74657247656e5469636b6574733a204e6f7420656e6f756768207469636b6574732c2074686520616d6f756e742065786365656473207468652062616c616e6365455243313135353a204552433131353552656365697665722072656a656374656420746f6b656e7347656e5469636b6574733a207a65726f20616d6f756e742063616e6e6f7420626520636c61696d656447656e5469636b6574733a205469636b6574206861732072656465656d656420616c6c20746f6b656e7347656e5469636b6574733a204e657720544745206d75737420626520696e2074686520667574757265455243313135353a2062616c616e636520717565727920666f7220746865207a65726f2061646472657373455243313135353a2063616c6c6572206973206e6f74206f776e6572206e6f7220617070726f76656447656e5469636b6574733a2050726f6a65637420544745206e6f74206f636375726564455243313135353a207472616e7366657220746f20746865207a65726f2061646472657373455243313135353a207472616e736665722063616c6c6572206973206e6f74206f776e6572206e6f7220617070726f766564455243313135353a20696e73756666696369656e742062616c616e636520666f72207472616e73666572536166654d6174683a206d756c7469706c69636174696f6e206f766572666c6f7747656e5469636b6574733a20546f6b656e7320666f722074686973207469636b657420617265206265696e672076657374656447656e5469636b6574733a204f6e6c792069737375657220697320616c6c6f77656420746f2072656465656d47656e5469636b6574733a204f6e6c79206973737565722063616e2075706461746520544745455243313135353a2073657474696e6720617070726f76616c2073746174757320666f722073656c66455243313135353a206163636f756e747320616e6420696473206c656e677468206d69736d61746368455243313135353a2069647320616e6420616d6f756e7473206c656e677468206d69736d6174636847656e5469636b6574733a204f6e6c79206973737565722063616e2069737375652074686520746f6b656e7347656e5469636b6574733a204f6e6c792069737375657220697320616c6c6f77656420746f2041697244726f70455243313135353a206d696e7420746f20746865207a65726f206164647265737347656e5469636b6574733a204e6f7420656e6f756768207469636b6574732c2074686520616d6f756e742063616c63756c6174696f6e2065786365656473207468652062616c616e636547656e5469636b6574733a20546f6b656e20697320616c726561647920616374697665a26469706673582212206734083ec49755e8daa053d0b2d20e36202ab426e58702b034cc27ec1a6f893164736f6c634300060c0033536166654d6174683a206d756c7469706c69636174696f6e206f766572666c6f77",
  "immutableReferences": {},
  "source": "\npragma solidity 0.6.12;\n\nimport \"@openzeppelin/contracts/introspection/ERC165Checker.sol\";\nimport \"@openzeppelin/contracts/token/ERC1155/ERC1155.sol\";\nimport \"@openzeppelin/contracts/token/ERC1155/ERC1155Receiver.sol\";\nimport \"@openzeppelin/contracts/math/SafeMath.sol\";\nimport \"./interfaces/IGenFactory.sol\";\nimport \"@openzeppelin/contracts/token/ERC20/IERC20.sol\";\n//import \"@openzeppelin/contracts/token/ERC20/SafeERC20.sol\";\n\ncontract GenTickets is ERC1155, ERC1155Receiver {\n    using SafeMath for uint;\n    //using SafeERC20 for IERC20;\n\n    struct GenTicket {\n        uint256 numTickets;\n        uint256 ticketSize;\n    }\n    // Ticket id mod numTicketTypes determines tier\n    // Ticket id div numTicketTypes determines tranche of ticket\n    // When ticket is swapped in for tokens, the next ticket is minted to the user\n\n    address public underlyingToken;\n    uint256[] public trancheLength;\n    uint256[] public trancheWeightage;\n    mapping(uint256 => GenTicket) public genTickets;\n    uint public numTicketTypes;\n    IGenFactory public factory;\n    address public issuer;\n    bool public active = false;\n    uint256 private balanceNeeded = 0;\n    // Expected TGE timestamp, start at max uint256\n    uint public TGE = type(uint).max;\n\n    bytes private constant VALIDATOR = bytes('JC');\n    constructor (\n        address _underlyingToken,\n        uint256[] memory _numTickets,\n        uint256[] memory _ticketSizes,//in wei\n        uint[] memory _trancheWeightage,//in wei\n        uint[] memory _trancheLength,//in seconds\n        string memory _uri,\n        IGenFactory _factory,\n        address _issuer\n    ) \n        public \n        ERC1155(_uri)\n    {\n        underlyingToken = _underlyingToken;\n        trancheLength = _trancheLength;\n        trancheWeightage = _trancheWeightage;\n        factory = _factory;\n        issuer = _issuer;\n\n         for (uint i = 0; i < 50; i++){\n            if (_numTickets.length == i){\n                numTicketTypes = i;\n                break;\n            }\n            \n            balanceNeeded += _numTickets[i].mul(_ticketSizes[i]);\n            genTickets[i] = GenTicket(_numTickets[i], _ticketSizes[i]);\n        }\n    }\n\n    function returnTrancheLength() public view returns (uint256[] memory) {\n        return (trancheLength);\n    }\n    function returnTrancheWeightage() public view returns (uint256[] memory) {\n        return (trancheWeightage);\n    }\n\n    // For OpenSea\n    function owner() public view virtual returns (address) {\n        return issuer;\n    }\n\n    function updateTGE(uint timestamp) external {\n        require(msg.sender == issuer, \"GenTickets: Only issuer can update TGE\");\n        require(getBlockTimestamp() < TGE, \"GenTickets: TGE already occurred\");\n        require(getBlockTimestamp() < timestamp, \"GenTickets: New TGE must be in the future\");\n        // Determine whether we want to restrict this or not\n        //require(!active, \"Tokens are already active\");\n\n        TGE = timestamp;\n    }\n\n    function issue(address _to) external {\n        require(msg.sender == issuer, \"GenTickets: Only issuer can issue the tokens\");\n        require(!active, \"GenTickets: Token is already active\");\n        IERC20(underlyingToken).transferFrom(msg.sender, address(this), balanceNeeded);\n\n        address feeTo = factory.feeTo();\n        bytes memory data;\n        for (uint i = 0; i < 50; i++){\n            if (numTicketTypes == i){\n                break;\n            }\n\n            GenTicket memory ticketType = genTickets[i];\n            \n            uint256 feeAmount = 0;\n            if (feeTo != address(0)) {\n                // 1% of tickets generated is sent to feeTo address\n                feeAmount = ticketType.numTickets.div(100);\n                if (feeAmount == 0) {\n                    feeAmount = 1;\n                }\n                _mint(feeTo, i, feeAmount, data);\n            }\n\n            _mint(_to, i, ticketType.numTickets - feeAmount, data);\n        }\n\n        active = true;\n    }\n\n    // to buld drop NFTs to users //emergency service// onlyIssuer\n    function bulkAirdropTickets(address[] memory _to, uint256 _id, uint256 _amount) public {\n\n        require(msg.sender == issuer, \"GenTickets: Only issuer is allowed to AirDrop\");\n        require(IERC1155(address(this)).balanceOf(msg.sender, _id) >= (_to.length-1).mul(_amount), \"GenTickets: Not enough tickets, the amount calculation exceeds the balance\");\n\n        for (uint256 i = 0; i < _to.length; i++) {\n            safeTransferFrom(msg.sender, _to[i], _id, _amount, VALIDATOR);\n        }\n    }\n\n    // In case, wants all tokens back after minting tickets //onlyIssuer\n    function redeemIssuerTicket(uint256 _id, uint256 _amount) public {\n\n        require(msg.sender == issuer, \"GenTickets: Only issuer is allowed to redeem\");\n\n        uint tier = _id.mod(numTicketTypes);\n        GenTicket memory ticketType = genTickets[tier];\n\n        safeTransferFrom(address(msg.sender), address(this), _id, _amount, VALIDATOR);\n\n        // Transfer underlying tokens with corresponding ticket size\n        IERC20(underlyingToken).transfer(issuer, _amount.mul(ticketType.ticketSize));\n    }\n\n    function redeemTicket(address _to, uint256 _id, uint256 _amount) public {\n\n        require(_amount > 0, \"GenTicket: Invalid entry\");\n        require(IERC1155(address(this)).balanceOf(msg.sender, _id) >= _amount, \"GenTickets: Not enough tickets, the amount exceeds the balance\");\n\n        uint tier = _id.mod(numTicketTypes);\n        GenTicket memory ticketType = genTickets[tier];\n        require(getBlockTimestamp() > TGE, \"GenTickets: Project TGE not occured\");\n\n        uint256 redeemablePercentage;\n        uint256 redeemedPercentage;\n        uint256 redeemableCounter;\n        uint256 redeemedCounter;\n\n        uint tranche = _id.div(numTicketTypes);\n        require(tranche < trancheLength.length, \"GenTickets: Ticket has redeemed all tokens\");//true\n\n        for (uint i=0; i< trancheLength.length ; i++){\n            \n            if (i < tranche ){\n                redeemedPercentage += (trancheWeightage[i].div(10**14));\n                redeemedCounter += 1;\n            }\n\n            if (TGE.add(trancheLength[i]) <= getBlockTimestamp()){\n                redeemablePercentage += (trancheWeightage[i].div(10**14));\n                redeemableCounter += 1;\n            } else{\n                break;\n            }\n        }\n        require(redeemablePercentage > 0, \"GenTickets: zero amount cannot be claimed\");\n        require(redeemableCounter > redeemedCounter, \"GenTickets: Tokens for this ticket are being vested\");\n\n        uint256 tokens = (ticketType.ticketSize).mul(_amount).mul(redeemablePercentage - redeemedPercentage).div(1000000);\n\n        safeTransferFrom(address(msg.sender), address(this), _id, _amount, VALIDATOR);//4\n\n        // Transfer underlying tokens with corresponding ticket size\n        IERC20(underlyingToken).transfer(_to, tokens);\n        bytes memory data;\n        _mint(_to, _id.add(numTicketTypes.mul(redeemableCounter - redeemedCounter)), _amount, data);//12\n\n    }\n\n    function getBlockTimestamp() internal view returns (uint) {\n        // solium-disable-next-line security/no-block-members\n        return block.timestamp;\n    }\n\n    /**\n     * ERC1155 Token ERC1155Receiver\n     */\n    function onERC1155Received(address _operator, address _from, uint256 _id, uint256 _value, bytes calldata _data) override external returns(bytes4) {\n        if(keccak256(_data) == keccak256(VALIDATOR)){\n            return 0xf23a6e61;\n        }\n    }\n\n    function onERC1155BatchReceived(address _operator, address _from, uint256[] calldata _ids, uint256[] calldata _values, bytes calldata _data) override external returns(bytes4) {\n        if(keccak256(_data) == keccak256(VALIDATOR)){\n            return 0xbc197c81;\n        }\n    }\n}",
  "sourcePath": "/Users/anandsinha/workspace/genesis-shards/contracts/GenTickets.sol",
  "compiler": {
    "name": "solc",
    "version": "0.6.12+commit.27d51765.Emscripten.clang"
  },
  "schemaVersion": "3.4.3",
  "updatedAt": "2022-03-24T15:03:17.526Z",
  "devdoc": {
    "kind": "dev",
    "methods": {
      "balanceOf(address,uint256)": {
        "details": "See {IERC1155-balanceOf}. Requirements: - `account` cannot be the zero address."
      },
      "balanceOfBatch(address[],uint256[])": {
        "details": "See {IERC1155-balanceOfBatch}. Requirements: - `accounts` and `ids` must have the same length."
      },
      "isApprovedForAll(address,address)": {
        "details": "See {IERC1155-isApprovedForAll}."
      },
      "safeBatchTransferFrom(address,address,uint256[],uint256[],bytes)": {
        "details": "See {IERC1155-safeBatchTransferFrom}."
      },
      "safeTransferFrom(address,address,uint256,uint256,bytes)": {
        "details": "See {IERC1155-safeTransferFrom}."
      },
      "setApprovalForAll(address,bool)": {
        "details": "See {IERC1155-setApprovalForAll}."
      },
      "supportsInterface(bytes4)": {
        "details": "See {IERC165-supportsInterface}. Time complexity O(1), guaranteed to always use less than 30 000 gas."
      },
      "uri(uint256)": {
        "details": "See {IERC1155MetadataURI-uri}. This implementation returns the same URI for *all* token types. It relies on the token type ID substitution mechanism https://eips.ethereum.org/EIPS/eip-1155#metadata[defined in the EIP]. Clients calling this function must replace the `\\{id\\}` substring with the actual token type ID."
      }
    },
    "version": 1
  },
  "userdoc": {
    "kind": "user",
    "methods": {
      "onERC1155Received(address,address,uint256,uint256,bytes)": {
        "notice": "ERC1155 Token ERC1155Receiver"
      }
    },
    "version": 1
  }
}