{
  "_format": "hh-sol-artifact-1",
  "contractName": "GSMPP",
  "sourceName": "contracts/Dec8GenshardsMarketplace.sol",
  "abi": [
    {
      "anonymous": false,
      "inputs": [
        {
          "indexed": true,
          "internalType": "uint256",
          "name": "auctionItemId",
          "type": "uint256"
        },
        {
          "indexed": false,
          "internalType": "address",
          "name": "bidder",
          "type": "address"
        },
        {
          "indexed": false,
          "internalType": "uint256",
          "name": "bidPrice",
          "type": "uint256"
        }
      ],
      "name": "BidMade",
      "type": "event"
    },
    {
      "anonymous": false,
      "inputs": [
        {
          "indexed": true,
          "internalType": "uint256",
          "name": "fixedItemId",
          "type": "uint256"
        },
        {
          "indexed": false,
          "internalType": "address",
          "name": "buyer",
          "type": "address"
        },
        {
          "indexed": false,
          "internalType": "uint256",
          "name": "amount",
          "type": "uint256"
        },
        {
          "indexed": false,
          "internalType": "address",
          "name": "seller",
          "type": "address"
        },
        {
          "indexed": false,
          "internalType": "uint256",
          "name": "sellTime",
          "type": "uint256"
        }
      ],
      "name": "BoughtFixedPriceItem",
      "type": "event"
    },
    {
      "anonymous": false,
      "inputs": [
        {
          "indexed": true,
          "internalType": "uint256",
          "name": "auctionItemId",
          "type": "uint256"
        }
      ],
      "name": "CanceledAuction",
      "type": "event"
    },
    {
      "anonymous": false,
      "inputs": [
        {
          "indexed": true,
          "internalType": "uint256",
          "name": "dutchItemId",
          "type": "uint256"
        }
      ],
      "name": "CanceledDutchAuction",
      "type": "event"
    },
    {
      "anonymous": false,
      "inputs": [
        {
          "indexed": true,
          "internalType": "uint256",
          "name": "auctionItemId",
          "type": "uint256"
        },
        {
          "indexed": false,
          "internalType": "address",
          "name": "seller",
          "type": "address"
        },
        {
          "indexed": false,
          "internalType": "uint256",
          "name": "bid",
          "type": "uint256"
        },
        {
          "indexed": false,
          "internalType": "address",
          "name": "buyer",
          "type": "address"
        },
        {
          "indexed": false,
          "internalType": "uint256",
          "name": "sellTime",
          "type": "uint256"
        }
      ],
      "name": "FinishedAuction",
      "type": "event"
    },
    {
      "anonymous": false,
      "inputs": [
        {
          "indexed": true,
          "internalType": "uint256",
          "name": "dutchItemId",
          "type": "uint256"
        },
        {
          "indexed": false,
          "internalType": "address",
          "name": "buyer",
          "type": "address"
        },
        {
          "indexed": false,
          "internalType": "uint256",
          "name": "currentPrice",
          "type": "uint256"
        },
        {
          "indexed": false,
          "internalType": "address",
          "name": "seller",
          "type": "address"
        },
        {
          "indexed": false,
          "internalType": "uint256",
          "name": "sellTime",
          "type": "uint256"
        }
      ],
      "name": "FinishedDutchAuction",
      "type": "event"
    },
    {
      "anonymous": false,
      "inputs": [
        {
          "indexed": false,
          "internalType": "uint8",
          "name": "version",
          "type": "uint8"
        }
      ],
      "name": "Initialized",
      "type": "event"
    },
    {
      "anonymous": false,
      "inputs": [
        {
          "indexed": true,
          "internalType": "uint256",
          "name": "auctionItemId",
          "type": "uint256"
        },
        {
          "indexed": false,
          "internalType": "address",
          "name": "seller",
          "type": "address"
        },
        {
          "indexed": false,
          "internalType": "address",
          "name": "asset",
          "type": "address"
        },
        {
          "indexed": false,
          "internalType": "uint256",
          "name": "tokenId",
          "type": "uint256"
        },
        {
          "indexed": false,
          "internalType": "uint256",
          "name": "amount",
          "type": "uint256"
        },
        {
          "indexed": false,
          "internalType": "uint128",
          "name": "startDate",
          "type": "uint128"
        },
        {
          "indexed": false,
          "internalType": "uint128",
          "name": "endDate",
          "type": "uint128"
        }
      ],
      "name": "ListedAuction",
      "type": "event"
    },
    {
      "anonymous": false,
      "inputs": [
        {
          "indexed": true,
          "internalType": "uint256",
          "name": "dutchItemId",
          "type": "uint256"
        },
        {
          "indexed": false,
          "internalType": "address",
          "name": "seller",
          "type": "address"
        },
        {
          "indexed": false,
          "internalType": "address",
          "name": "asset",
          "type": "address"
        },
        {
          "indexed": false,
          "internalType": "uint256",
          "name": "tokenId",
          "type": "uint256"
        },
        {
          "indexed": false,
          "internalType": "uint256",
          "name": "amount",
          "type": "uint256"
        },
        {
          "indexed": false,
          "internalType": "uint128",
          "name": "startDate",
          "type": "uint128"
        },
        {
          "indexed": false,
          "internalType": "uint128",
          "name": "endDate",
          "type": "uint128"
        }
      ],
      "name": "ListedDutchAuction",
      "type": "event"
    },
    {
      "anonymous": false,
      "inputs": [
        {
          "indexed": true,
          "internalType": "uint256",
          "name": "fixedItemId",
          "type": "uint256"
        },
        {
          "indexed": false,
          "internalType": "address",
          "name": "seller",
          "type": "address"
        },
        {
          "indexed": false,
          "internalType": "address",
          "name": "asset",
          "type": "address"
        },
        {
          "indexed": false,
          "internalType": "uint256",
          "name": "tokenId",
          "type": "uint256"
        },
        {
          "indexed": false,
          "internalType": "uint256",
          "name": "amount",
          "type": "uint256"
        },
        {
          "indexed": false,
          "internalType": "uint96",
          "name": "price",
          "type": "uint96"
        },
        {
          "indexed": false,
          "internalType": "uint128",
          "name": "startDate",
          "type": "uint128"
        },
        {
          "indexed": false,
          "internalType": "uint128",
          "name": "endDate",
          "type": "uint128"
        }
      ],
      "name": "ListedFixedPriceItem",
      "type": "event"
    },
    {
      "anonymous": false,
      "inputs": [
        {
          "indexed": true,
          "internalType": "uint256",
          "name": "offerItemId",
          "type": "uint256"
        },
        {
          "indexed": false,
          "internalType": "address",
          "name": "seller",
          "type": "address"
        },
        {
          "indexed": false,
          "internalType": "address",
          "name": "buyer",
          "type": "address"
        },
        {
          "indexed": false,
          "internalType": "uint256",
          "name": "amount",
          "type": "uint256"
        },
        {
          "indexed": false,
          "internalType": "uint96",
          "name": "offerPrice",
          "type": "uint96"
        },
        {
          "indexed": false,
          "internalType": "uint256",
          "name": "sellTime",
          "type": "uint256"
        }
      ],
      "name": "OfferAccepted",
      "type": "event"
    },
    {
      "anonymous": false,
      "inputs": [
        {
          "indexed": true,
          "internalType": "uint256",
          "name": "offerItemId",
          "type": "uint256"
        }
      ],
      "name": "OfferCancelled",
      "type": "event"
    },
    {
      "anonymous": false,
      "inputs": [
        {
          "indexed": true,
          "internalType": "uint256",
          "name": "offerItemId",
          "type": "uint256"
        },
        {
          "indexed": false,
          "internalType": "address",
          "name": "buyer",
          "type": "address"
        },
        {
          "indexed": false,
          "internalType": "address",
          "name": "asset",
          "type": "address"
        },
        {
          "indexed": false,
          "internalType": "uint256",
          "name": "tokenId",
          "type": "uint256"
        },
        {
          "indexed": false,
          "internalType": "uint256",
          "name": "amount",
          "type": "uint256"
        },
        {
          "indexed": false,
          "internalType": "uint96",
          "name": "offerPrice",
          "type": "uint96"
        },
        {
          "indexed": false,
          "internalType": "uint128",
          "name": "startDate",
          "type": "uint128"
        },
        {
          "indexed": false,
          "internalType": "uint128",
          "name": "endDate",
          "type": "uint128"
        }
      ],
      "name": "OfferMade",
      "type": "event"
    },
    {
      "anonymous": false,
      "inputs": [
        {
          "indexed": true,
          "internalType": "address",
          "name": "previousOwner",
          "type": "address"
        },
        {
          "indexed": true,
          "internalType": "address",
          "name": "newOwner",
          "type": "address"
        }
      ],
      "name": "OwnershipTransferred",
      "type": "event"
    },
    {
      "anonymous": false,
      "inputs": [
        {
          "indexed": true,
          "internalType": "uint256",
          "name": "fixedItemId",
          "type": "uint256"
        }
      ],
      "name": "UnlistedFixedPriceItem",
      "type": "event"
    },
    {
      "inputs": [
        {
          "internalType": "uint256",
          "name": "itemId",
          "type": "uint256"
        },
        {
          "internalType": "uint256",
          "name": "_amount",
          "type": "uint256"
        }
      ],
      "name": "acceptOffer",
      "outputs": [],
      "stateMutability": "nonpayable",
      "type": "function"
    },
    {
      "inputs": [],
      "name": "allItemIdCounts",
      "outputs": [
        {
          "internalType": "uint256",
          "name": "fixedItemId",
          "type": "uint256"
        },
        {
          "internalType": "uint256",
          "name": "offerItemId",
          "type": "uint256"
        },
        {
          "internalType": "uint256",
          "name": "auctionItemId",
          "type": "uint256"
        },
        {
          "internalType": "uint256",
          "name": "dutchItemId",
          "type": "uint256"
        }
      ],
      "stateMutability": "view",
      "type": "function"
    },
    {
      "inputs": [
        {
          "internalType": "uint256",
          "name": "",
          "type": "uint256"
        }
      ],
      "name": "bidCount",
      "outputs": [
        {
          "internalType": "uint32",
          "name": "",
          "type": "uint32"
        }
      ],
      "stateMutability": "view",
      "type": "function"
    },
    {
      "inputs": [
        {
          "internalType": "uint256",
          "name": "",
          "type": "uint256"
        },
        {
          "internalType": "uint32",
          "name": "",
          "type": "uint32"
        }
      ],
      "name": "bidInfo",
      "outputs": [
        {
          "internalType": "uint256",
          "name": "auctionItemId",
          "type": "uint256"
        },
        {
          "internalType": "address",
          "name": "bidder",
          "type": "address"
        },
        {
          "internalType": "uint128",
          "name": "bidPrice",
          "type": "uint128"
        },
        {
          "internalType": "uint128",
          "name": "bidTime",
          "type": "uint128"
        },
        {
          "internalType": "enum ICommon.Status",
          "name": "status",
          "type": "uint8"
        }
      ],
      "stateMutability": "view",
      "type": "function"
    },
    {
      "inputs": [
        {
          "internalType": "uint64",
          "name": "itemId",
          "type": "uint64"
        }
      ],
      "name": "buyDutchAuction",
      "outputs": [],
      "stateMutability": "nonpayable",
      "type": "function"
    },
    {
      "inputs": [
        {
          "internalType": "uint256[]",
          "name": "_itemIds",
          "type": "uint256[]"
        },
        {
          "internalType": "uint256[]",
          "name": "_amountsPerItem",
          "type": "uint256[]"
        }
      ],
      "name": "buyFixedPriceItems",
      "outputs": [],
      "stateMutability": "nonpayable",
      "type": "function"
    },
    {
      "inputs": [
        {
          "internalType": "uint256",
          "name": "itemId",
          "type": "uint256"
        }
      ],
      "name": "cancelAuction",
      "outputs": [],
      "stateMutability": "nonpayable",
      "type": "function"
    },
    {
      "inputs": [
        {
          "internalType": "uint256",
          "name": "itemId",
          "type": "uint256"
        }
      ],
      "name": "cancelDutchAuction",
      "outputs": [],
      "stateMutability": "nonpayable",
      "type": "function"
    },
    {
      "inputs": [
        {
          "internalType": "uint256",
          "name": "itemId",
          "type": "uint256"
        }
      ],
      "name": "cancelOffer",
      "outputs": [],
      "stateMutability": "nonpayable",
      "type": "function"
    },
    {
      "inputs": [
        {
          "internalType": "uint256",
          "name": "itemId",
          "type": "uint256"
        }
      ],
      "name": "finishAuction",
      "outputs": [],
      "stateMutability": "nonpayable",
      "type": "function"
    },
    {
      "inputs": [
        {
          "internalType": "address",
          "name": "_nft",
          "type": "address"
        },
        {
          "internalType": "uint256",
          "name": "_tokenId",
          "type": "uint256"
        },
        {
          "internalType": "enum ICommon.Status",
          "name": "status",
          "type": "uint8"
        }
      ],
      "name": "getAllItemIdss",
      "outputs": [
        {
          "internalType": "uint256[]",
          "name": "allListedItemIds",
          "type": "uint256[]"
        },
        {
          "internalType": "uint256[]",
          "name": "allOfferedItemIds",
          "type": "uint256[]"
        },
        {
          "internalType": "uint256[]",
          "name": "allAuctionedItemIds",
          "type": "uint256[]"
        },
        {
          "internalType": "uint256[]",
          "name": "allDutchItemIds",
          "type": "uint256[]"
        }
      ],
      "stateMutability": "view",
      "type": "function"
    },
    {
      "inputs": [],
      "name": "getComissionsInfo",
      "outputs": [
        {
          "internalType": "uint256",
          "name": "_totalComissionsEarned",
          "type": "uint256"
        },
        {
          "internalType": "uint96",
          "name": "_comissionSet",
          "type": "uint96"
        },
        {
          "internalType": "uint256",
          "name": "_toWithdraw",
          "type": "uint256"
        }
      ],
      "stateMutability": "view",
      "type": "function"
    },
    {
      "inputs": [
        {
          "internalType": "uint256",
          "name": "itemId",
          "type": "uint256"
        },
        {
          "internalType": "uint256",
          "name": "itemType",
          "type": "uint256"
        }
      ],
      "name": "getCommonItem",
      "outputs": [
        {
          "components": [
            {
              "internalType": "address",
              "name": "asset",
              "type": "address"
            },
            {
              "internalType": "uint96",
              "name": "price",
              "type": "uint96"
            },
            {
              "internalType": "uint256",
              "name": "tokenId",
              "type": "uint256"
            },
            {
              "internalType": "uint256",
              "name": "amount",
              "type": "uint256"
            },
            {
              "internalType": "address",
              "name": "buyerorseller",
              "type": "address"
            },
            {
              "internalType": "enum ICommon.AssetType",
              "name": "assetType",
              "type": "uint8"
            },
            {
              "internalType": "uint128",
              "name": "startDate",
              "type": "uint128"
            },
            {
              "internalType": "uint128",
              "name": "endDate",
              "type": "uint128"
            },
            {
              "internalType": "uint256",
              "name": "sellTime",
              "type": "uint256"
            },
            {
              "internalType": "enum ICommon.Status",
              "name": "status",
              "type": "uint8"
            }
          ],
          "internalType": "struct GSMPP2312.ItemInfo",
          "name": "",
          "type": "tuple"
        }
      ],
      "stateMutability": "view",
      "type": "function"
    },
    {
      "inputs": [
        {
          "internalType": "uint96",
          "name": "comission_",
          "type": "uint96"
        },
        {
          "internalType": "address",
          "name": "weth_",
          "type": "address"
        }
      ],
      "name": "initialize",
      "outputs": [],
      "stateMutability": "nonpayable",
      "type": "function"
    },
    {
      "inputs": [
        {
          "internalType": "address",
          "name": "asset",
          "type": "address"
        },
        {
          "internalType": "uint96",
          "name": "startPrice",
          "type": "uint96"
        },
        {
          "internalType": "uint256",
          "name": "tokenId",
          "type": "uint256"
        },
        {
          "internalType": "uint256",
          "name": "amount",
          "type": "uint256"
        },
        {
          "internalType": "enum ICommon.AssetType",
          "name": "assetType",
          "type": "uint8"
        },
        {
          "internalType": "uint128",
          "name": "startDate",
          "type": "uint128"
        },
        {
          "internalType": "uint128",
          "name": "endDate",
          "type": "uint128"
        }
      ],
      "name": "listAuction",
      "outputs": [],
      "stateMutability": "nonpayable",
      "type": "function"
    },
    {
      "inputs": [
        {
          "internalType": "address",
          "name": "asset",
          "type": "address"
        },
        {
          "internalType": "uint96",
          "name": "startPrice",
          "type": "uint96"
        },
        {
          "internalType": "uint96",
          "name": "endPrice",
          "type": "uint96"
        },
        {
          "internalType": "uint256",
          "name": "tokenId",
          "type": "uint256"
        },
        {
          "internalType": "uint256",
          "name": "amount",
          "type": "uint256"
        },
        {
          "internalType": "enum ICommon.AssetType",
          "name": "assetType",
          "type": "uint8"
        },
        {
          "internalType": "uint128",
          "name": "startDate",
          "type": "uint128"
        },
        {
          "internalType": "uint128",
          "name": "endDate",
          "type": "uint128"
        }
      ],
      "name": "listDutchAuction",
      "outputs": [],
      "stateMutability": "nonpayable",
      "type": "function"
    },
    {
      "inputs": [
        {
          "internalType": "address",
          "name": "asset",
          "type": "address"
        },
        {
          "internalType": "uint96",
          "name": "price",
          "type": "uint96"
        },
        {
          "internalType": "uint256",
          "name": "tokenId",
          "type": "uint256"
        },
        {
          "internalType": "uint256",
          "name": "amount",
          "type": "uint256"
        },
        {
          "internalType": "enum ICommon.AssetType",
          "name": "assetType",
          "type": "uint8"
        },
        {
          "internalType": "uint128",
          "name": "startDate",
          "type": "uint128"
        },
        {
          "internalType": "uint128",
          "name": "endDate",
          "type": "uint128"
        }
      ],
      "name": "listFixedPriceItem",
      "outputs": [],
      "stateMutability": "nonpayable",
      "type": "function"
    },
    {
      "inputs": [
        {
          "internalType": "uint256",
          "name": "_auctionItmId",
          "type": "uint256"
        },
        {
          "internalType": "uint96",
          "name": "bidPrice",
          "type": "uint96"
        }
      ],
      "name": "makeBid",
      "outputs": [],
      "stateMutability": "nonpayable",
      "type": "function"
    },
    {
      "inputs": [
        {
          "internalType": "address",
          "name": "asset",
          "type": "address"
        },
        {
          "internalType": "uint96",
          "name": "offerPrice",
          "type": "uint96"
        },
        {
          "internalType": "uint256",
          "name": "tokenId",
          "type": "uint256"
        },
        {
          "internalType": "uint256",
          "name": "amount",
          "type": "uint256"
        },
        {
          "internalType": "enum ICommon.AssetType",
          "name": "assetType",
          "type": "uint8"
        },
        {
          "internalType": "uint128",
          "name": "startDate",
          "type": "uint128"
        },
        {
          "internalType": "uint128",
          "name": "endDate",
          "type": "uint128"
        }
      ],
      "name": "makeOffer",
      "outputs": [],
      "stateMutability": "nonpayable",
      "type": "function"
    },
    {
      "inputs": [
        {
          "internalType": "address",
          "name": "",
          "type": "address"
        },
        {
          "internalType": "address",
          "name": "",
          "type": "address"
        },
        {
          "internalType": "uint256[]",
          "name": "",
          "type": "uint256[]"
        },
        {
          "internalType": "uint256[]",
          "name": "",
          "type": "uint256[]"
        },
        {
          "internalType": "bytes",
          "name": "",
          "type": "bytes"
        }
      ],
      "name": "onERC1155BatchReceived",
      "outputs": [
        {
          "internalType": "bytes4",
          "name": "",
          "type": "bytes4"
        }
      ],
      "stateMutability": "pure",
      "type": "function"
    },
    {
      "inputs": [
        {
          "internalType": "address",
          "name": "",
          "type": "address"
        },
        {
          "internalType": "address",
          "name": "",
          "type": "address"
        },
        {
          "internalType": "uint256",
          "name": "",
          "type": "uint256"
        },
        {
          "internalType": "uint256",
          "name": "",
          "type": "uint256"
        },
        {
          "internalType": "bytes",
          "name": "",
          "type": "bytes"
        }
      ],
      "name": "onERC1155Received",
      "outputs": [
        {
          "internalType": "bytes4",
          "name": "",
          "type": "bytes4"
        }
      ],
      "stateMutability": "pure",
      "type": "function"
    },
    {
      "inputs": [
        {
          "internalType": "address",
          "name": "",
          "type": "address"
        },
        {
          "internalType": "address",
          "name": "",
          "type": "address"
        },
        {
          "internalType": "uint256",
          "name": "",
          "type": "uint256"
        },
        {
          "internalType": "bytes",
          "name": "",
          "type": "bytes"
        }
      ],
      "name": "onERC721Received",
      "outputs": [
        {
          "internalType": "bytes4",
          "name": "",
          "type": "bytes4"
        }
      ],
      "stateMutability": "pure",
      "type": "function"
    },
    {
      "inputs": [],
      "name": "owner",
      "outputs": [
        {
          "internalType": "address",
          "name": "",
          "type": "address"
        }
      ],
      "stateMutability": "view",
      "type": "function"
    },
    {
      "inputs": [],
      "name": "renounceOwnership",
      "outputs": [],
      "stateMutability": "nonpayable",
      "type": "function"
    },
    {
      "inputs": [
        {
          "internalType": "uint8",
          "name": "amount",
          "type": "uint8"
        }
      ],
      "name": "setComission",
      "outputs": [],
      "stateMutability": "nonpayable",
      "type": "function"
    },
    {
      "inputs": [
        {
          "internalType": "bytes4",
          "name": "interfaceId",
          "type": "bytes4"
        }
      ],
      "name": "supportsInterface",
      "outputs": [
        {
          "internalType": "bool",
          "name": "",
          "type": "bool"
        }
      ],
      "stateMutability": "pure",
      "type": "function"
    },
    {
      "inputs": [
        {
          "internalType": "address",
          "name": "newOwner",
          "type": "address"
        }
      ],
      "name": "transferOwnership",
      "outputs": [],
      "stateMutability": "nonpayable",
      "type": "function"
    },
    {
      "inputs": [
        {
          "internalType": "uint256",
          "name": "itemId",
          "type": "uint256"
        }
      ],
      "name": "unlistFixedPriceItem",
      "outputs": [],
      "stateMutability": "nonpayable",
      "type": "function"
    },
    {
      "inputs": [],
      "name": "withdrawComission",
      "outputs": [],
      "stateMutability": "nonpayable",
      "type": "function"
    }
  ],
  "bytecode": "0x608060405234801561001057600080fd5b50614eea806100206000396000f3fe608060405234801561001057600080fd5b506004361061015f5760003560e01c806301ffc9a7146101645780630942f5691461019d57806311f2d740146101b2578063150b7a02146101d55780633240cec71461020d5780634c62a6441461025a5780635927b2151461026257806360e947a014610282578063613a210f146102ad57806365833561146102c057806371264b4e146102d3578063715018a6146103465780637e1f12e21461034e57806381257bd5146103615780638da5cb5b14610374578063946b17571461038957806396b5a7551461039c578063a18a594f146103af578063b9a958b4146103c2578063bc197c81146103fd578063bc2872a01461041f578063bcfa3b9d14610432578063bfeb20be14610445578063cf266ed014610458578063ddee84331461046b578063e2e835de1461047e578063ef706adf14610491578063f23a6e61146104a4578063f2fde38b146104b7575b600080fd5b610188610172366004614768565b6001600160e01b0319166301ffc9a760e01b1490565b60405190151581526020015b60405180910390f35b6101b06101ab366004614658565b6104ca565b005b6101c56101c0366004614598565b610778565b6040516101949493929190614a64565b6101f46101e336600461447d565b630a85bd0160e11b95945050505050565b6040516001600160e01b03199091168152602001610194565b606c54606d5460408051600160a01b9093046001600160401b0390811684528083166020850152600160401b8304811691840191909152600160801b909104166060820152608001610194565b6101b0610a31565b6102756102703660046147c4565b610b38565b6040516101949190614c39565b61028a610e80565b604080519384526001600160601b03909216602084015290820152606001610194565b6101b06102bb36600461481f565b610f24565b6101b06102ce3660046145de565b611329565b6103356102e13660046147e6565b606a602090815260009283526040808420909152908252902080546001820154600283015460039093015491926001600160a01b03909116916001600160801b0380831692600160801b9004169060ff1685565b604051610194959493929190614cee565b6101b0611848565b6101b061035c366004614897565b61185c565b6101b061036f3660046147c4565b6119a5565b61037c611c50565b604051610194919061493c565b6101b061039736600461484b565b611c5f565b6101b06103aa366004614792565b611f1e565b6101b06103bd3660046145de565b612104565b6103e86103d0366004614792565b60696020526000908152604090205463ffffffff1681565b60405163ffffffff9091168152602001610194565b6101f461040b3660046143bf565b63bc197c8160e01b98975050505050505050565b6101b061042d3660046146e3565b61233e565b6101b06104403660046145de565b612398565b6101b0610453366004614874565b612a24565b6101b0610466366004614792565b612a47565b6101b0610479366004614792565b612d2b565b6101b061048c366004614792565b612eb6565b6101b061049f366004614792565b613012565b6101f46104b23660046144ef565b613172565b6101b06104c5366004614385565b613185565b6000866001600160601b03161180156104e35750600084115b6105085760405162461bcd60e51b81526004016104ff90614bbd565b60405180910390fd5b866001600160601b0316866001600160601b0316106105595760405162461bcd60e51b815260206004820152600d60248201526c496e76616c696420507269636560981b60448201526064016104ff565b6103846105668383614da9565b6001600160801b031610156105b05760405162461bcd60e51b815260206004820152601060248201526f111d5c985d1a5bdb88125b9d985b1a5960821b60448201526064016104ff565b6105be8589333088886131fb565b6040518060e00160405280600081526020018681526020018581526020016105e68a8a61368b565b81526020016105f533866136b5565b815260200161060484846136f0565b8152602001876001600160601b031681525060686000606d601081819054906101000a90046001600160401b031661063b90614e20565b82546001600160401b039182166101009390930a83810292021916179091558152602080820192909252604090810160009081208451815584840151600182810191909155858401516002830155606086015160038301556080860151600483015560a0860151600583015560c0909501516006909101556001600160a01b038c168152606b835281812089825290925281209160038111156106e0576106e0614e5d565b815260208082019290925260409081016000908120606d805460039092018054600181018255908452949092206001600160401b03600160801b9283900481169190950155905491519104909116907f5bf20c9fe4c31933ef5f5a1c969ed7de6fecbdb1e793eda19af04e1a45ff1056906107669033908c908a908a908990899061498e565b60405180910390a25050505050505050565b6001600160a01b0383166000908152606b602090815260408083208584529091528120606091829182918291908660038111156107b7576107b7614e5d565b60038111156107c8576107c8614e5d565b815260200190815260200160002060000180548060200260200160405190810160405280929190818152602001828054801561082357602002820191906000526020600020905b81548152602001906001019080831161080f575b505050506001600160a01b0389166000908152606b602090815260408083208b84529091528120929650905086600381111561086157610861614e5d565b600381111561087257610872614e5d565b81526020019081526020016000206001018054806020026020016040519081016040528092919081815260200182805480156108cd57602002820191906000526020600020905b8154815260200190600101908083116108b9575b505050506001600160a01b0389166000908152606b602090815260408083208b84529091528120929550905086600381111561090b5761090b614e5d565b600381111561091c5761091c614e5d565b815260200190815260200160002060020180548060200260200160405190810160405280929190818152602001828054801561097757602002820191906000526020600020905b815481526020019060010190808311610963575b505050506001600160a01b0389166000908152606b602090815260408083208b8452909152812092945090508660038111156109b5576109b5614e5d565b60038111156109c6576109c6614e5d565b8152602001908152602001600020600301805480602002602001604051908101604052809291908181526020018280548015610a2157602002820191906000526020600020905b815481526020019060010190808311610a0d575b5050505050905093509350935093565b610a39613713565b606c546040516370a0823160e01b81526001600160a01b03909116906323b872dd903090339084906370a0823190610a7590859060040161493c565b60206040518083038186803b158015610a8d57600080fd5b505afa158015610aa1573d6000803e3d6000fd5b505050506040513d601f19601f82011682018060405250810190610ac591906147ab565b6040518463ffffffff1660e01b8152600401610ae39392919061496a565b602060405180830381600087803b158015610afd57600080fd5b505af1158015610b11573d6000803e3d6000fd5b505050506040513d601f19601f82011682018060405250810190610b359190614746565b50565b610b406141c4565b610b806040518060e00160405280600081526020016000815260200160008152602001600081526020016000815260200160008152602001600081525090565b8260011415610bf457606560008581526020019081526020016000206040518060e00160405290816000820154815260200160018201548152602001600282015481526020016003820154815260200160048201548152602001600582015481526020016006820154815250509050610d88565b8260021415610c6857606660008581526020019081526020016000206040518060e00160405290816000820154815260200160018201548152602001600282015481526020016003820154815260200160048201548152602001600582015481526020016006820154815250509050610d88565b8260031415610cdc57606760008581526020019081526020016000206040518060e00160405290816000820154815260200160018201548152602001600282015481526020016003820154815260200160048201548152602001600582015481526020016006820154815250509050610d88565b8260041415610d5057606860008581526020019081526020016000206040518060e00160405290816000820154815260200160018201548152602001600282015481526020016003820154815260200160048201548152602001600582015481526020016006820154815250509050610d88565b60405162461bcd60e51b815260206004820152600d60248201526c496e76616c696420517565727960981b60448201526064016104ff565b610d906141c4565b610da08260a00151608081901c91565b6001600160801b0390811660e08401521660c08201526080820151610dc490613772565b836080018460a0018561012001836003811115610de357610de3614e5d565b6003811115610df457610df4614e5d565b9052836002811115610e0857610e08614e5d565b6002811115610e1957610e19614e5d565b90526001600160a01b0390931690925250506060820151610e3c90606081901c91565b6001600160601b03166020808401919091526001600160a01b0390911682528251610100830152820151604080830191909152909101516060820152905092915050565b606e54606f54606c546040516370a0823160e01b81526000938493849391926001600160601b03909116916001600160a01b0316906370a0823190610ec990309060040161493c565b60206040518083038186803b158015610ee157600080fd5b505afa158015610ef5573d6000803e3d6000fd5b505050506040513d601f19601f82011682018060405250810190610f1991906147ab565b925092509250909192565b6000610f31836003610b38565b9050610f418161012001516137b2565b80602001516001600160601b0316826001600160601b03161015610fa75760405162461bcd60e51b815260206004820181905260248201527f474d503a20626964206265206d6f7265207468616e206d696e20616d6f756e7460448201526064016104ff565b6000838152606960205260408120805460019290610fcc90849063ffffffff16614d40565b82546101009290920a63ffffffff818102199093169183160217909155600085815260696020908152604080832054606a909252822092169250611011600184614de8565b63ffffffff1681526020810191909152604001600020600201546001600160801b03166001600160601b0384161161108b5760405162461bcd60e51b815260206004820181905260248201527f474d503a20426964206265206d6f7265207468616e20746f702062696464657260448201526064016104ff565b8160c001516001600160801b0316421180156110b357508160e001516001600160801b031642105b6110ff5760405162461bcd60e51b815260206004820152601f60248201527f474d503a2041756374696f6e20696e76616c6964206f7220657870697265640060448201526064016104ff565b6060820151611117906001600160601b038516614d8a565b606c54604051636eb1769f60e11b81526001600160a01b039091169063dd62ed3e906111499033903090600401614950565b60206040518083038186803b15801561116157600080fd5b505afa158015611175573d6000803e3d6000fd5b505050506040513d601f19601f8201168201806040525081019061119991906147ab565b10156111df5760405162461bcd60e51b8152602060048201526015602482015274474d503a20417070726f76652074786e707269636560581b60448201526064016104ff565b6040518060a00160405280858152602001336001600160a01b03168152602001846001600160601b03166001600160801b03168152602001426001600160801b03168152602001836101200151600381111561123d5761123d614e5d565b90526000858152606a6020908152604080832063ffffffff861684528252918290208351815590830151600180830180546001600160a01b039093166001600160a01b0319909316929092179091559183015160608401516001600160801b03908116600160801b02911617600282015560808301516003808301805493949293909260ff199091169184908111156112d8576112d8614e5d565b021790555050604080513381526001600160601b03861660208201528692507f1deb95696ada9b84bb35fed5fed94d6f185f9b547732b7e1b48df32597b5dfba91015b60405180910390a250505050565b6000866001600160601b03161180156113425750600084115b61135e5760405162461bcd60e51b81526004016104ff90614bbd565b611371846001600160601b038816614d8a565b606c54604051636eb1769f60e11b81526001600160a01b039091169063dd62ed3e906113a39033903090600401614950565b60206040518083038186803b1580156113bb57600080fd5b505afa1580156113cf573d6000803e3d6000fd5b505050506040513d601f19601f820116820180604052508101906113f391906147ab565b101561144c5760405162461bcd60e51b815260206004820152602260248201527f506c6561736520617070726f7665206f6666657220707269636520746f2057456044820152610a8960f31b60648201526084016104ff565b600183600281111561146057611460614e5d565b1415611576576040516301ffc9a760e01b81526001600160a01b038816906301ffc9a790611496906380ac58cd90600401614abc565b60206040518083038186803b1580156114ae57600080fd5b505afa1580156114c2573d6000803e3d6000fd5b505050506040513d601f19601f820116820180604052508101906114e69190614746565b15156001146115075760405162461bcd60e51b81526004016104ff90614b8e565b836001146115715760405162461bcd60e51b815260206004820152603160248201527f474d503a20696e76616c696420616d6f756e74207061737365642c203120726560448201527071756972656420666f722045524337323160781b60648201526084016104ff565b611677565b600283600281111561158a5761158a614e5d565b1415611631576040516301ffc9a760e01b81526001600160a01b038816906301ffc9a7906115c09063d9b67a2690600401614abc565b60206040518083038186803b1580156115d857600080fd5b505afa1580156115ec573d6000803e3d6000fd5b505050506040513d601f19601f820116820180604052508101906116109190614746565b15156001146115715760405162461bcd60e51b81526004016104ff90614b8e565b60405162461bcd60e51b815260206004820152601b60248201527a105cdcd95d081d1e5c19481a5cc81b9bdd081cdd5c1c1bdc9d1959602a1b60448201526064016104ff565b6103846116848383614da9565b6001600160801b031610156116ab5760405162461bcd60e51b81526004016104ff90614aca565b6040518060e00160405280600081526020018681526020018581526020016116d3898961368b565b81526020016116e233866136b5565b81526020016116f184846136f0565b815260006020909101819052606d80546066929190829061171a906001600160401b0316614e20565b82546001600160401b039182166101009390930a83810292021916179091558152602080820192909252604090810160009081208451815584840151600182810191909155858401516002830155606086015160038301556080860151600483015560a0860151600583015560c0909501516006909101556001600160a01b038b168152606b835281812089825290925281209160038111156117bf576117bf614e5d565b815260208082019290925260409081016000908120606d80546001928301805493840181558452949092206001600160401b039485169101555490519116907f85e51dac280f0e92b54a2b720188b39b322c9a8632f890218572813c706ac68c906118379033908b908a908a908d908a908a906149cf565b60405180910390a250505050505050565b611850613713565b61185a6000613826565b565b600054610100900460ff161580801561187c5750600054600160ff909116105b806118965750303b158015611896575060005460ff166001145b6118f95760405162461bcd60e51b815260206004820152602e60248201527f496e697469616c697a61626c653a20636f6e747261637420697320616c72656160448201526d191e481a5b9a5d1a585b1a5e995960921b60648201526084016104ff565b6000805460ff19166001179055801561191c576000805461ff0019166101001790555b606f80546001600160601b0319166001600160601b038516179055606c80546001600160a01b0319166001600160a01b03841617905561195a613878565b80156119a0576000805461ff0019169055604051600181527f7f26b83ff96e1f2b6a682f133852f6798a09c465da95921460cefb38474024989060200160405180910390a15b505050565b6000828152606660209081526040808320815160e08101835281548152600182015493810193909352600280820154928401929092526003810154606084015260048101546080840152600581015460a08401526006015460c0830152909190611a10908590610b38565b9050600083118015611a26575080606001518311155b611a425760405162461bcd60e51b81526004016104ff90614b0d565b8060c001516001600160801b031642118015611a6a57508060e001516001600160801b031642105b611ab65760405162461bcd60e51b815260206004820152601d60248201527f474d503a204f6666657220696e76616c6964206f72206578706972656400000060448201526064016104ff565b611ac48161012001516137b2565b611af58382602001516001600160601b0316611ae09190614d8a565b826080015133846000015185604001516138a7565b611b1381604001518260000151338460800151878660a001516131fb565b828160600151611b239190614dd1565b611b7f57611b3660028360800151613e96565b608083015280516001600160a01b03166000908152606b602090815260408083208185015184528252808320600284528252822060019081018054918201815583529120018490555b4282526060810151611b92908490614dd1565b60408381019182526000868152606660209081529082902085518155818601516001820155925160028401556060808601516003850155608080870151600486015560a080880151600587015560c0880151600690960195909555858101518684015185513381526001600160a01b03909216948201949094529384018890526001600160601b0390921690830152429082015285917f7f113c4059fa8d9afbf9c920158ae5dec7e23d9aaf7673062a9c47fe8c79e207910161131b565b6033546001600160a01b031690565b6001600160401b0381166000818152606860209081526040808320815160e08101835281548152600182015493810193909352600281015491830191909152600381015460608301526004808201546080840152600582015460a084015260069091015460c08301529092611cd391610b38565b90508060c001516001600160801b031642118015611cfd57508060e001516001600160801b031642105b611d495760405162461bcd60e51b815260206004820152601f60248201527f474d503a20496e76616c69642041756374696f6e206f7220457870697265640060448201526064016104ff565b60008160c001518260e00151611d5f9190614da9565b6001600160801b03168360c0015183602001516001600160601b0316611d859190614dd1565b611d8f9190614d68565b60c0830151611da7906001600160801b031642614dd1565b611db19190614d8a565b82602001516001600160601b0316611dc99190614dd1565b9050611dd98261012001516137b2565b611e01826060015182611dec9190614d8a565b338460800151856000015186604001516138a7565b611e1f82604001518360000151303386606001518760a001516131fb565b81516001600160a01b03166000908152606b60209081526040808320818601518452825280832060028085529083529083206003018054600181018255908452919092206001600160401b0387169101556080840151611e7f9190613e96565b60808085019182524285526001600160401b0386166000818152606860209081526040918290208851808255918901516001820155828901516002820155606089015160038201559451600486015560a0880151600586015560c088015160069095019490945591850151915190927fdcbed40e2a15845ca7275f7282c245407f8e291638985ec7f1797323568a5ebf9261131b923392879291614a3a565b6001600160401b03811660009081526069602052604090205463ffffffff1615611f785760405162461bcd60e51b815260206004820152600b60248201526a139bdd08185b1b1bddd95960aa1b60448201526064016104ff565b6000606760008381526020019081526020016000206040518060e001604052908160008201548152602001600182015481526020016002820154815260200160038201548152602001600482015481526020016005820154815260200160068201548152505090506000611fed836003610b38565b9050611ffd8161012001516137b2565b61200b816080015133613eb7565b61202d8160400151826000015130846080015185606001518660a001516131fb565b80516001600160a01b03166000908152606b60209081526040808320818501518452825280832060038085529083529083206002018054600181018255908452919092200184905560808301516120849190613e96565b60808301908152600084815260676020908152604080832086518155918601516001830155808601516002830155606086015160038301559251600482015560a0850151600582015560c0850151600690910155905184917fa6a57b9d0d6354f98906d6cd9068958bf91665197a3d5f51e635f52e9f9307c791a2505050565b6000866001600160601b031611801561211d5750600084115b6121395760405162461bcd60e51b81526004016104ff90614bbd565b6103846121468383614da9565b6001600160801b031610156121905760405162461bcd60e51b815260206004820152601060248201526f24b73b30b634b210323ab930ba34b7b760811b60448201526064016104ff565b61219e8588333088886131fb565b6040518060e00160405280600081526020018681526020018581526020016121c6898961368b565b81526020016121d533866136b5565b81526020016121e484846136f0565b8152602001600081525060676000606d600881819054906101000a90046001600160401b031661221390614e20565b82546001600160401b039182166101009390930a83810292021916179091558152602080820192909252604090810160009081208451815584840151600182810191909155858401516002830155606086015160038301556080860151600483015560a0860151600583015560c0909501516006909101556001600160a01b038b168152606b835281812089825290925281209160038111156122b8576122b8614e5d565b815260208082019290925260409081016000908120606d805460029092018054600181018255908452949092206001600160401b03600160401b9283900481169190950155905491519104909116907f19a886cafe09c56fc1c2f14d1474b849f4567f89533c358633dcfd499fb771e4906118379033908b908a908a908990899061498e565b60005b82518110156119a05761238683828151811061235f5761235f614e73565b602002602001015183838151811061237957612379614e73565b6020026020010151613f18565b8061239081614e05565b915050612341565b6000866001600160601b03161180156123b15750600084115b6123cd5760405162461bcd60e51b81526004016104ff90614bbd565b6103846123da8383614da9565b6001600160801b031610156124015760405162461bcd60e51b81526004016104ff90614aca565b600183600281111561241557612415614e5d565b141561266b576040516301ffc9a760e01b81526001600160a01b038816906301ffc9a79061244b906380ac58cd90600401614abc565b60206040518083038186803b15801561246357600080fd5b505afa158015612477573d6000803e3d6000fd5b505050506040513d601f19601f8201168201806040525081019061249b9190614746565b15156001146124bc5760405162461bcd60e51b81526004016104ff90614b35565b836001146125055760405162461bcd60e51b8152602060048201526016602482015275115490cdcc8c4e88125b9d985b1a5908185b5bdd5b9d60521b60448201526064016104ff565b6040516331a9108f60e11b81526004810186905233906001600160a01b03891690636352211e9060240160206040518083038186803b15801561254757600080fd5b505afa15801561255b573d6000803e3d6000fd5b505050506040513d601f19601f8201168201806040525081019061257f91906143a2565b6001600160a01b0316146125c65760405162461bcd60e51b815260206004820152600e60248201526d23a6a81d102737ba1037bbb732b960911b60448201526064016104ff565b60405163020604bf60e21b81526004810186905230906001600160a01b0389169063081812fc9060240160206040518083038186803b15801561260857600080fd5b505afa15801561261c573d6000803e3d6000fd5b505050506040513d601f19601f8201168201806040525081019061264091906143a2565b6001600160a01b0316146126665760405162461bcd60e51b81526004016104ff90614b61565b612887565b600283600281111561267f5761267f614e5d565b1415611631576040516301ffc9a760e01b81526001600160a01b038816906301ffc9a7906126b59063d9b67a2690600401614abc565b60206040518083038186803b1580156126cd57600080fd5b505afa1580156126e1573d6000803e3d6000fd5b505050506040513d601f19601f820116820180604052508101906127059190614746565b15156001146127265760405162461bcd60e51b81526004016104ff90614b35565b604051627eeac760e11b815284906001600160a01b0389169062fdd58e906127549033908a90600401614a21565b60206040518083038186803b15801561276c57600080fd5b505afa158015612780573d6000803e3d6000fd5b505050506040513d601f19601f820116820180604052508101906127a491906147ab565b10156127e85760405162461bcd60e51b815260206004820152601360248201527211d3540e88125b9d985b1a5908185b5bdd5b9d606a1b60448201526064016104ff565b60405163e985e9c560e01b81526001600160a01b0388169063e985e9c5906128169033903090600401614950565b60206040518083038186803b15801561282e57600080fd5b505afa158015612842573d6000803e3d6000fd5b505050506040513d601f19601f820116820180604052508101906128669190614746565b15156001146126665760405162461bcd60e51b81526004016104ff90614b61565b6040518060e00160405280600081526020018681526020018581526020016128af898961368b565b81526020016128be33866136b5565b81526020016128cd84846136f0565b8152602001600081525060656000606c601481819054906101000a90046001600160401b03166128fc90614e20565b82546001600160401b039182166101009390930a83810292021916179091558152602080820192909252604090810160009081208451815584840151600182810191909155858401516002830155606086015160038301556080860151600483015560a0860151600583015560c0909501516006909101556001600160a01b038b168152606b835281812089825290925281209160038111156129a1576129a1614e5d565b815260208082019290925260409081016000908120606c80548254600181018455928452949092206001600160401b03600160a01b9586900481169190920155905491519290910416907fdbec1b87ebd8d580c02fdc28a240ead1e1e979742d86537cb4a4a25abf447b00906118379033908b908a908a908d908a908a906149cf565b612a2c613713565b606f80546001600160601b03191660ff909216919091179055565b6000606760008381526020019081526020016000206040518060e001604052908160008201548152602001600182015481526020016002820154815260200160038201548152602001600482015481526020016005820154815260200160068201548152505090506000612abc836003610b38565b600084815260696020908152604080832054606a835281842063ffffffff909116808552908352818420825160a0810184528154815260018201546001600160a01b03169481019490945260028101546001600160801b0380821694860194909452600160801b900490921660608401526003808301549596509094608084019160ff90911690811115612b5257612b52614e5d565b6003811115612b6357612b63614e5d565b9052506020810151606085015160408301519293509091600091612b8f916001600160801b0316614d8a565b9050612b9f8561012001516137b2565b612bad856080015133613eb7565b612bc681838760800151886000015189604001516138a7565b612be485604001518660000151308589606001518a60a001516131fb565b606d54600160401b90046001600160401b03166000908152606a6020908152604080832063ffffffff8816845282528083206003018054600260ff19909116811790915588516001600160a01b03168452606b8352818420898301518552835281842081855283529083208101805460018101825590845291909220018890556080870151612c739190613e96565b60808781019182524288526000898152606760209081526040918290208a51808255828c01516001830155838c015160028301556060808d015160038401559551600483015560a08c0151600583015560c08c01516006909201919091558783015183513381526001600160801b03909116928101929092526001600160a01b038716928201929092529283015288917f53d125641d23f6c716b3ba7c2ed2020d25bacf3e59e6d0e51ff16c8a4b667e449101611837565b6000606860008381526020019081526020016000206040518060e001604052908160008201548152602001600182015481526020016002820154815260200160038201548152602001600482015481526020016005820154815260200160068201548152505090506000612da0836004610b38565b9050612db08161012001516137b2565b612dbe816080015133613eb7565b612de08160400151826000015130846080015185606001518660a001516131fb565b80516001600160a01b03166000908152606b60209081526040808320818501518452825280832060038085529083529083208101805460018101825590845291909220018490556080830151612e369190613e96565b60808301908152600084815260686020908152604080832086518155918601516001830155808601516002830155606086015160038301559251600482015560a0850151600582015560c0850151600690910155905184917f8cf3f0da525f7bcc0799fcc623374c04c2a120919aaa70269eb5dc20f776ebd091a2505050565b6000818152606560209081526040808320815160e08101835281548152600180830154948201949094526002820154928101929092526003810154606083015260048101546080830152600581015460a08301526006015460c08201529190612f20908490610b38565b9050612f308161012001516137b2565b612f3e816080015133613eb7565b80516001600160a01b03166000908152606b6020908152604080832081850151845282528083206003808552908352908320805460018101825590845291909220018490556080830151612f929190613e96565b60808301908152600084815260656020908152604080832086518155918601516001830155808601516002830155606086015160038301559251600482015560a0850151600582015560c0850151600690910155905184917f48e5bd5392ff3b30951033029736f4d798690fa441b7725fb9bd45397063936491a2505050565b6000818152606660209081526040808320815160e08101835281548152600182015493810193909352600280820154928401929092526003810154606084015260048101546080840152600581015460a08401526006015460c083015290919061307d908490610b38565b905061308d8161012001516137b2565b61309b816080015133613eb7565b80516001600160a01b03166000908152606b60209081526040808320818501518452825280832060038085529083529083206001908101805491820181558452919092200184905560808301516130f29190613e96565b60808301908152600084815260666020908152604080832086518155918601516001830155808601516002830155606086015160038301559251600482015560a0850151600582015560c0850151600690910155905184917fc28b4aed030bfacc245c0501326e1beb8c0ef0d60e4edc21067fdeb52da2a7aa91a2505050565b63f23a6e6160e01b5b9695505050505050565b61318d613713565b6001600160a01b0381166131f25760405162461bcd60e51b815260206004820152602660248201527f4f776e61626c653a206e6577206f776e657220697320746865207a65726f206160448201526564647265737360d01b60648201526084016104ff565b610b3581613826565b600181600281111561320f5761320f614e5d565b141561343d57816001146132625760405162461bcd60e51b815260206004820152601a602482015279474d503a203120726571756972656420666f722045524337323160301b60448201526064016104ff565b6040516331a9108f60e11b8152600481018790526001600160a01b038086169190871690636352211e9060240160206040518083038186803b1580156132a757600080fd5b505afa1580156132bb573d6000803e3d6000fd5b505050506040513d601f19601f820116820180604052508101906132df91906143a2565b6001600160a01b0316146133265760405162461bcd60e51b815260206004820152600e60248201526d11d3540e88139bdd081bdddb995960921b60448201526064016104ff565b6001600160a01b03841630146133d65760405163020604bf60e21b81526004810187905230906001600160a01b0387169063081812fc9060240160206040518083038186803b15801561337857600080fd5b505afa15801561338c573d6000803e3d6000fd5b505050506040513d601f19601f820116820180604052508101906133b091906143a2565b6001600160a01b0316146133d65760405162461bcd60e51b81526004016104ff90614b61565b604051632142170760e11b81526001600160a01b038616906342842e0e9061340690879087908b9060040161496a565b600060405180830381600087803b15801561342057600080fd5b505af1158015613434573d6000803e3d6000fd5b50505050613683565b600281600281111561345157613451614e5d565b141561363d57604051627eeac760e11b815282906001600160a01b0387169062fdd58e906134859088908b90600401614a21565b60206040518083038186803b15801561349d57600080fd5b505afa1580156134b1573d6000803e3d6000fd5b505050506040513d601f19601f820116820180604052508101906134d591906147ab565b10156135155760405162461bcd60e51b815260206004820152600f60248201526e11d3540e8e88139bdd081bdddb9959608a1b60448201526064016104ff565b6001600160a01b03841630146135eb5760405163e985e9c560e01b81526001600160a01b0386169063e985e9c5906135539087903090600401614950565b60206040518083038186803b15801561356b57600080fd5b505afa15801561357f573d6000803e3d6000fd5b505050506040513d601f19601f820116820180604052508101906135a39190614746565b15156001146135eb5760405162461bcd60e51b815260206004820152601460248201527311d3540e8e8813919508155b985c1c1c9bdd995960621b60448201526064016104ff565b604051637921219560e11b81526001600160a01b0385811660048301528481166024830152604482018890526064820184905260a06084830152600060a483015286169063f242432a9060c401613406565b60405162461bcd60e51b815260206004820152601b60248201527a11d3540e88105cdcd95d081d1e5c19481d5b9cdd5c1c1bdc9d1959602a1b60448201526064016104ff565b505050505050565b60006136ae6001600160601b0383166001600160601b0319606086901b16614d28565b9392505050565b6000600160588360028111156136cd576136cd614e5d565b6136e6911b6001600160601b0319606087901b16614d28565b6136ae9190614d28565b60006136ae6001600160801b0383166001600160801b0319608086901b16614d28565b3361371c611c50565b6001600160a01b03161461185a5760405162461bcd60e51b815260206004820181905260248201527f4f776e61626c653a2063616c6c6572206973206e6f7420746865206f776e657260448201526064016104ff565b606081901c60008060ff605885901c16600281111561379357613793614e5d565b91508360ff1660038111156137aa576137aa614e5d565b929491935050565b60018160038111156137c6576137c6614e5d565b14610b355760405162461bcd60e51b815260206004820152602a60248201527f474d503a204f6e6c79206974656d2077697468206372656174656420737461746044820152691d5cc8185b1b1bddd95960b21b60648201526084016104ff565b603380546001600160a01b038381166001600160a01b0319831681179093556040519116919082907f8be0079c531659141344cd1fd0a4f28419497f9722a3daafe3b4186f6b6457e090600090a35050565b600054610100900460ff1661389f5760405162461bcd60e51b81526004016104ff90614bee565b61185a614194565b606c54604051636eb1769f60e11b815286916001600160a01b03169063dd62ed3e906138d99088903090600401614950565b60206040518083038186803b1580156138f157600080fd5b505afa158015613905573d6000803e3d6000fd5b505050506040513d601f19601f8201168201806040525081019061392991906147ab565b101561396f5760405162461bcd60e51b8152602060048201526015602482015274474d503a20417070726f76652074786e507269636560581b60448201526064016104ff565b606c546040516370a0823160e01b815286916001600160a01b0316906370a082319061399f90889060040161493c565b60206040518083038186803b1580156139b757600080fd5b505afa1580156139cb573d6000803e3d6000fd5b505050506040513d601f19601f820116820180604052508101906139ef91906147ab565b1015613a395760405162461bcd60e51b8152602060048201526019602482015278474d503a204275796572206f7574206f662062616c616e636560381b60448201526064016104ff565b6040516301ffc9a760e01b81526001600160a01b038316906301ffc9a790613a6990632a55205a90600401614abc565b60206040518083038186803b158015613a8157600080fd5b505afa158015613a95573d6000803e3d6000fd5b505050506040513d601f19601f82011682018060405250810190613ab99190614746565b15613d375760405163152a902d60e11b8152600481018290526024810186905260009081906001600160a01b03851690632a55205a90604401604080518083038186803b158015613b0957600080fd5b505afa158015613b1d573d6000803e3d6000fd5b505050506040513d601f19601f82011682018060405250810190613b41919061456a565b606f5491935091506000906103e890613b63906001600160601b03168a614d8a565b613b6d9190614d68565b606c549091506001600160a01b03166323b872dd888884613b8e878e614dd1565b613b989190614dd1565b6040518463ffffffff1660e01b8152600401613bb69392919061496a565b602060405180830381600087803b158015613bd057600080fd5b505af1158015613be4573d6000803e3d6000fd5b505050506040513d601f19601f82011682018060405250810190613c089190614746565b50606c546040516323b872dd60e01b81526001600160a01b03909116906323b872dd90613c3d908a908790879060040161496a565b602060405180830381600087803b158015613c5757600080fd5b505af1158015613c6b573d6000803e3d6000fd5b505050506040513d601f19601f82011682018060405250810190613c8f9190614746565b50606c546040516323b872dd60e01b81526001600160a01b03909116906323b872dd90613cc4908a903090869060040161496a565b602060405180830381600087803b158015613cde57600080fd5b505af1158015613cf2573d6000803e3d6000fd5b505050506040513d601f19601f82011682018060405250810190613d169190614746565b5080606e6000828254613d299190614d28565b90915550613e8f9350505050565b606f546000906103e890613d54906001600160601b031688614d8a565b613d5e9190614d68565b606c549091506001600160a01b03166323b872dd8686613d7e858b614dd1565b6040518463ffffffff1660e01b8152600401613d9c9392919061496a565b602060405180830381600087803b158015613db657600080fd5b505af1158015613dca573d6000803e3d6000fd5b505050506040513d601f19601f82011682018060405250810190613dee9190614746565b50606c546040516323b872dd60e01b81526001600160a01b03909116906323b872dd90613e239088903090869060040161496a565b602060405180830381600087803b158015613e3d57600080fd5b505af1158015613e51573d6000803e3d6000fd5b505050506040513d601f19601f82011682018060405250810190613e759190614746565b5080606e6000828254613e889190614d28565b9091555050505b5050505050565b6000826003811115613eaa57613eaa614e5d565b6136e660ff841684614dd1565b806001600160a01b0316826001600160a01b031614613f145760405162461bcd60e51b8152602060048201526019602482015278474d503a204f6e6c792063726561746f72206163636573732160381b60448201526064016104ff565b5050565b6000828152606560209081526040808320815160e08101835281548152600180830154948201949094526002820154928101929092526003810154606083015260048101546080830152600581015460a08301526006015460c08201529190613f82908590610b38565b905080606001518311158015613f985750600083115b613fb45760405162461bcd60e51b81526004016104ff90614b0d565b8060c001516001600160801b031642118015613fdc57508060e001516001600160801b031642105b6140285760405162461bcd60e51b815260206004820152601f60248201527f474d503a20496e76616c6964204c697374696e67206f7220457870697265640060448201526064016104ff565b6140368161012001516137b2565b6140678382602001516001600160601b03166140529190614d8a565b338360800151846000015185604001516138a7565b61408581604001518260000151836080015133878660a001516131fb565b8281606001516140959190614dd1565b6140ee576140a860028360800151613e96565b608083015280516001600160a01b03166000908152606b602090815260408083208185015184528252808320600284528252822080546001810182559083529120018490555b4282526060810151614101908490614dd1565b604080840191825260008681526065602090815290829020855181559085015160018201559151600283015560608401516003830155608080850151600484015560a0850151600584015560c085015160069093019290925590820151905185917f69292c5eb8acea18bb09bc2d802d187c777a845ee0595d8286c75a826a8bff5e9161131b9133918891904290614a3a565b600054610100900460ff166141bb5760405162461bcd60e51b81526004016104ff90614bee565b61185a33613826565b604080516101408101825260008082526020820181905291810182905260608101829052608081018290529060a08201908152600060208201819052604082018190526060820181905260809091015290565b60008083601f84011261422957600080fd5b5081356001600160401b0381111561424057600080fd5b6020830191508360208260051b850101111561425b57600080fd5b9250929050565b600082601f83011261427357600080fd5b813560206001600160401b038083111561428f5761428f614e89565b8260051b604051601f19603f830116810181811084821117156142b4576142b4614e89565b604052848152838101925086840182880185018910156142d357600080fd5b600092505b858310156142f65780358452928401926001929092019184016142d8565b50979650505050505050565b60008083601f84011261431457600080fd5b5081356001600160401b0381111561432b57600080fd5b60208301915083602082850101111561425b57600080fd5b80356003811061435257600080fd5b919050565b80356001600160801b038116811461435257600080fd5b80356001600160601b038116811461435257600080fd5b60006020828403121561439757600080fd5b81356136ae81614e9f565b6000602082840312156143b457600080fd5b81516136ae81614e9f565b60008060008060008060008060a0898b0312156143db57600080fd5b88356143e681614e9f565b975060208901356143f681614e9f565b965060408901356001600160401b038082111561441257600080fd5b61441e8c838d01614217565b909850965060608b013591508082111561443757600080fd5b6144438c838d01614217565b909650945060808b013591508082111561445c57600080fd5b506144698b828c01614302565b999c989b5096995094979396929594505050565b60008060008060006080868803121561449557600080fd5b85356144a081614e9f565b945060208601356144b081614e9f565b93506040860135925060608601356001600160401b038111156144d257600080fd5b6144de88828901614302565b969995985093965092949392505050565b60008060008060008060a0878903121561450857600080fd5b863561451381614e9f565b9550602087013561452381614e9f565b9450604087013593506060870135925060808701356001600160401b0381111561454c57600080fd5b61455889828a01614302565b979a9699509497509295939492505050565b6000806040838503121561457d57600080fd5b825161458881614e9f565b6020939093015192949293505050565b6000806000606084860312156145ad57600080fd5b83356145b881614e9f565b9250602084013591506040840135600481106145d357600080fd5b809150509250925092565b600080600080600080600060e0888a0312156145f957600080fd5b873561460481614e9f565b96506146126020890161436e565b9550604088013594506060880135935061462e60808901614343565b925061463c60a08901614357565b915061464a60c08901614357565b905092959891949750929550565b600080600080600080600080610100898b03121561467557600080fd5b883561468081614e9f565b975061468e60208a0161436e565b965061469c60408a0161436e565b955060608901359450608089013593506146b860a08a01614343565b92506146c660c08a01614357565b91506146d460e08a01614357565b90509295985092959890939650565b600080604083850312156146f657600080fd5b82356001600160401b038082111561470d57600080fd5b61471986838701614262565b9350602085013591508082111561472f57600080fd5b5061473c85828601614262565b9150509250929050565b60006020828403121561475857600080fd5b815180151581146136ae57600080fd5b60006020828403121561477a57600080fd5b81356001600160e01b0319811681146136ae57600080fd5b6000602082840312156147a457600080fd5b5035919050565b6000602082840312156147bd57600080fd5b5051919050565b600080604083850312156147d757600080fd5b50508035926020909101359150565b600080604083850312156147f957600080fd5b82359150602083013563ffffffff8116811461481457600080fd5b809150509250929050565b6000806040838503121561483257600080fd5b823591506148426020840161436e565b90509250929050565b60006020828403121561485d57600080fd5b81356001600160401b03811681146136ae57600080fd5b60006020828403121561488657600080fd5b813560ff811681146136ae57600080fd5b600080604083850312156148aa57600080fd5b6148b38361436e565b9150602083013561481481614e9f565b6001600160a01b03169052565b600081518084526020808501945080840160005b83811015614900578151875295820195908201906001016148e4565b509495945050505050565b6003811061491b5761491b614e5d565b9052565b6004811061491b5761491b614e5d565b6001600160801b03169052565b6001600160a01b0391909116815260200190565b6001600160a01b0392831681529116602082015260400190565b6001600160a01b039384168152919092166020820152604081019190915260600190565b6001600160a01b039687168152949095166020850152604084019290925260608301526001600160801b03908116608083015290911660a082015260c00190565b6001600160a01b039788168152959096166020860152604085019390935260608401919091526001600160601b031660808301526001600160801b0390811660a083015290911660c082015260e00190565b6001600160a01b03929092168252602082015260400190565b6001600160a01b039485168152602081019390935292166040820152606081019190915260800190565b608081526000614a7760808301876148d0565b8281036020840152614a8981876148d0565b90508281036040840152614a9d81866148d0565b90508281036060840152614ab181856148d0565b979650505050505050565b60e09190911b815260200190565b60208082526023908201527f4475726174696f6e2073686f756c64206265203e3d20746f203135206d696e7560408201526274657360e81b606082015260800190565b6020808252600e908201526d125b9d985b1a5908185b5bdd5b9d60921b604082015260600190565b60208082526012908201527111d3540e88125b9d985b1a5908105cdcd95d60721b604082015260600190565b60208082526013908201527211d3540e8813919508155b985c1c1c9bdd9959606a1b604082015260600190565b602080825260159082015274105cdcd95d081d1e5c19481a5cc81a5b9d985b1a59605a1b604082015260600190565b602080825260179082015276125b9d985b1a5908141c9a58d9481bdc88105b5bdd5b9d604a1b604082015260600190565b6020808252602b908201527f496e697469616c697a61626c653a20636f6e7472616374206973206e6f74206960408201526a6e697469616c697a696e6760a81b606082015260800190565b600061014082019050614c4d8284516148c3565b6020830151614c6760208401826001600160601b03169052565b5060408301516040830152606083015160608301526080830151614c8e60808401826148c3565b5060a0830151614ca160a084018261490b565b5060c0830151614cb460c084018261492f565b5060e0830151614cc760e084018261492f565b50610100838101519083015261012080840151614ce68285018261491f565b505092915050565b8581526001600160a01b03851660208201526001600160801b0384811660408301528316606082015260a0810161317b608083018461491f565b60008219821115614d3b57614d3b614e47565b500190565b600063ffffffff808316818516808303821115614d5f57614d5f614e47565b01949350505050565b600082614d8557634e487b7160e01b600052601260045260246000fd5b500490565b6000816000190483118215151615614da457614da4614e47565b500290565b60006001600160801b0383811690831681811015614dc957614dc9614e47565b039392505050565b600082821015614de357614de3614e47565b500390565b600063ffffffff83811690831681811015614dc957614dc9614e47565b6000600019821415614e1957614e19614e47565b5060010190565b60006001600160401b0382811680821415614e3d57614e3d614e47565b6001019392505050565b634e487b7160e01b600052601160045260246000fd5b634e487b7160e01b600052602160045260246000fd5b634e487b7160e01b600052603260045260246000fd5b634e487b7160e01b600052604160045260246000fd5b6001600160a01b0381168114610b3557600080fdfea26469706673582212203343478db7f2ac3b3fedfea735daa569db759d786d2169cebb7b0621a6f104ae64736f6c63430008070033",
  "linkReferences": {},
  "deployedLinkReferences": {}
}