{
    "contractName": "GenMarket",
    "abi": [
        {
            "inputs": [],
            "stateMutability": "nonpayable",
            "type": "constructor"
        },
        {
            "anonymous": false,
            "inputs": [
                {
                    "indexed": true,
                    "internalType": "address",
                    "name": "owner",
                    "type": "address"
                },
                {
                    "indexed": true,
                    "internalType": "address",
                    "name": "spender",
                    "type": "address"
                },
                {
                    "indexed": false,
                    "internalType": "uint256",
                    "name": "value",
                    "type": "uint256"
                }
            ],
            "name": "Approval",
            "type": "event"
        },
        {
            "anonymous": false,
            "inputs": [
                {
                    "indexed": false,
                    "internalType": "address",
                    "name": "userAddress",
                    "type": "address"
                },
                {
                    "indexed": false,
                    "internalType": "address payable",
                    "name": "relayerAddress",
                    "type": "address"
                },
                {
                    "indexed": false,
                    "internalType": "bytes",
                    "name": "functionSignature",
                    "type": "bytes"
                }
            ],
            "name": "MetaTransactionExecuted",
            "type": "event"
        },
        {
            "anonymous": false,
            "inputs": [
                {
                    "indexed": true,
                    "internalType": "bytes32",
                    "name": "role",
                    "type": "bytes32"
                },
                {
                    "indexed": true,
                    "internalType": "bytes32",
                    "name": "previousAdminRole",
                    "type": "bytes32"
                },
                {
                    "indexed": true,
                    "internalType": "bytes32",
                    "name": "newAdminRole",
                    "type": "bytes32"
                }
            ],
            "name": "RoleAdminChanged",
            "type": "event"
        },
        {
            "anonymous": false,
            "inputs": [
                {
                    "indexed": true,
                    "internalType": "bytes32",
                    "name": "role",
                    "type": "bytes32"
                },
                {
                    "indexed": true,
                    "internalType": "address",
                    "name": "account",
                    "type": "address"
                },
                {
                    "indexed": true,
                    "internalType": "address",
                    "name": "sender",
                    "type": "address"
                }
            ],
            "name": "RoleGranted",
            "type": "event"
        },
        {
            "anonymous": false,
            "inputs": [
                {
                    "indexed": true,
                    "internalType": "bytes32",
                    "name": "role",
                    "type": "bytes32"
                },
                {
                    "indexed": true,
                    "internalType": "address",
                    "name": "account",
                    "type": "address"
                },
                {
                    "indexed": true,
                    "internalType": "address",
                    "name": "sender",
                    "type": "address"
                }
            ],
            "name": "RoleRevoked",
            "type": "event"
        },
        {
            "anonymous": false,
            "inputs": [
                {
                    "indexed": true,
                    "internalType": "address",
                    "name": "from",
                    "type": "address"
                },
                {
                    "indexed": true,
                    "internalType": "address",
                    "name": "to",
                    "type": "address"
                },
                {
                    "indexed": false,
                    "internalType": "uint256",
                    "name": "value",
                    "type": "uint256"
                }
            ],
            "name": "Transfer",
            "type": "event"
        },
        {
            "inputs": [],
            "name": "CHILD_CHAIN_ID",
            "outputs": [
                {
                    "internalType": "uint256",
                    "name": "",
                    "type": "uint256"
                }
            ],
            "stateMutability": "view",
            "type": "function"
        },
        {
            "inputs": [],
            "name": "CHILD_CHAIN_ID_BYTES",
            "outputs": [
                {
                    "internalType": "bytes",
                    "name": "",
                    "type": "bytes"
                }
            ],
            "stateMutability": "view",
            "type": "function"
        },
        {
            "inputs": [],
            "name": "DEFAULT_ADMIN_ROLE",
            "outputs": [
                {
                    "internalType": "bytes32",
                    "name": "",
                    "type": "bytes32"
                }
            ],
            "stateMutability": "view",
            "type": "function"
        },
        {
            "inputs": [],
            "name": "DEPOSITOR_ROLE",
            "outputs": [
                {
                    "internalType": "bytes32",
                    "name": "",
                    "type": "bytes32"
                }
            ],
            "stateMutability": "view",
            "type": "function"
        },
        {
            "inputs": [],
            "name": "ERC712_VERSION",
            "outputs": [
                {
                    "internalType": "string",
                    "name": "",
                    "type": "string"
                }
            ],
            "stateMutability": "view",
            "type": "function"
        },
        {
            "inputs": [],
            "name": "ROOT_CHAIN_ID",
            "outputs": [
                {
                    "internalType": "uint256",
                    "name": "",
                    "type": "uint256"
                }
            ],
            "stateMutability": "view",
            "type": "function"
        },
        {
            "inputs": [],
            "name": "ROOT_CHAIN_ID_BYTES",
            "outputs": [
                {
                    "internalType": "bytes",
                    "name": "",
                    "type": "bytes"
                }
            ],
            "stateMutability": "view",
            "type": "function"
        },
        {
            "inputs": [
                {
                    "internalType": "address",
                    "name": "owner",
                    "type": "address"
                },
                {
                    "internalType": "address",
                    "name": "spender",
                    "type": "address"
                }
            ],
            "name": "allowance",
            "outputs": [
                {
                    "internalType": "uint256",
                    "name": "",
                    "type": "uint256"
                }
            ],
            "stateMutability": "view",
            "type": "function"
        },
        {
            "inputs": [
                {
                    "internalType": "address",
                    "name": "spender",
                    "type": "address"
                },
                {
                    "internalType": "uint256",
                    "name": "amount",
                    "type": "uint256"
                }
            ],
            "name": "approve",
            "outputs": [
                {
                    "internalType": "bool",
                    "name": "",
                    "type": "bool"
                }
            ],
            "stateMutability": "nonpayable",
            "type": "function"
        },
        {
            "inputs": [
                {
                    "internalType": "address",
                    "name": "account",
                    "type": "address"
                }
            ],
            "name": "balanceOf",
            "outputs": [
                {
                    "internalType": "uint256",
                    "name": "",
                    "type": "uint256"
                }
            ],
            "stateMutability": "view",
            "type": "function"
        },
        {
            "inputs": [
                {
                    "internalType": "string",
                    "name": "name_",
                    "type": "string"
                }
            ],
            "name": "changeName",
            "outputs": [],
            "stateMutability": "nonpayable",
            "type": "function"
        },
        {
            "inputs": [],
            "name": "decimals",
            "outputs": [
                {
                    "internalType": "uint8",
                    "name": "",
                    "type": "uint8"
                }
            ],
            "stateMutability": "view",
            "type": "function"
        },
        {
            "inputs": [
                {
                    "internalType": "address",
                    "name": "spender",
                    "type": "address"
                },
                {
                    "internalType": "uint256",
                    "name": "subtractedValue",
                    "type": "uint256"
                }
            ],
            "name": "decreaseAllowance",
            "outputs": [
                {
                    "internalType": "bool",
                    "name": "",
                    "type": "bool"
                }
            ],
            "stateMutability": "nonpayable",
            "type": "function"
        },
        {
            "inputs": [
                {
                    "internalType": "address",
                    "name": "user",
                    "type": "address"
                },
                {
                    "internalType": "bytes",
                    "name": "depositData",
                    "type": "bytes"
                }
            ],
            "name": "deposit",
            "outputs": [],
            "stateMutability": "nonpayable",
            "type": "function"
        },
        {
            "inputs": [
                {
                    "internalType": "address",
                    "name": "userAddress",
                    "type": "address"
                },
                {
                    "internalType": "bytes",
                    "name": "functionSignature",
                    "type": "bytes"
                },
                {
                    "internalType": "bytes32",
                    "name": "sigR",
                    "type": "bytes32"
                },
                {
                    "internalType": "bytes32",
                    "name": "sigS",
                    "type": "bytes32"
                },
                {
                    "internalType": "uint8",
                    "name": "sigV",
                    "type": "uint8"
                }
            ],
            "name": "executeMetaTransaction",
            "outputs": [
                {
                    "internalType": "bytes",
                    "name": "",
                    "type": "bytes"
                }
            ],
            "stateMutability": "payable",
            "type": "function"
        },
        {
            "inputs": [],
            "name": "getChainId",
            "outputs": [
                {
                    "internalType": "uint256",
                    "name": "",
                    "type": "uint256"
                }
            ],
            "stateMutability": "pure",
            "type": "function"
        },
        {
            "inputs": [],
            "name": "getDomainSeperator",
            "outputs": [
                {
                    "internalType": "bytes32",
                    "name": "",
                    "type": "bytes32"
                }
            ],
            "stateMutability": "view",
            "type": "function"
        },
        {
            "inputs": [
                {
                    "internalType": "address",
                    "name": "user",
                    "type": "address"
                }
            ],
            "name": "getNonce",
            "outputs": [
                {
                    "internalType": "uint256",
                    "name": "nonce",
                    "type": "uint256"
                }
            ],
            "stateMutability": "view",
            "type": "function"
        },
        {
            "inputs": [
                {
                    "internalType": "bytes32",
                    "name": "role",
                    "type": "bytes32"
                }
            ],
            "name": "getRoleAdmin",
            "outputs": [
                {
                    "internalType": "bytes32",
                    "name": "",
                    "type": "bytes32"
                }
            ],
            "stateMutability": "view",
            "type": "function"
        },
        {
            "inputs": [
                {
                    "internalType": "bytes32",
                    "name": "role",
                    "type": "bytes32"
                },
                {
                    "internalType": "uint256",
                    "name": "index",
                    "type": "uint256"
                }
            ],
            "name": "getRoleMember",
            "outputs": [
                {
                    "internalType": "address",
                    "name": "",
                    "type": "address"
                }
            ],
            "stateMutability": "view",
            "type": "function"
        },
        {
            "inputs": [
                {
                    "internalType": "bytes32",
                    "name": "role",
                    "type": "bytes32"
                }
            ],
            "name": "getRoleMemberCount",
            "outputs": [
                {
                    "internalType": "uint256",
                    "name": "",
                    "type": "uint256"
                }
            ],
            "stateMutability": "view",
            "type": "function"
        },
        {
            "inputs": [
                {
                    "internalType": "bytes32",
                    "name": "role",
                    "type": "bytes32"
                },
                {
                    "internalType": "address",
                    "name": "account",
                    "type": "address"
                }
            ],
            "name": "grantRole",
            "outputs": [],
            "stateMutability": "nonpayable",
            "type": "function"
        },
        {
            "inputs": [
                {
                    "internalType": "bytes32",
                    "name": "role",
                    "type": "bytes32"
                },
                {
                    "internalType": "address",
                    "name": "account",
                    "type": "address"
                }
            ],
            "name": "hasRole",
            "outputs": [
                {
                    "internalType": "bool",
                    "name": "",
                    "type": "bool"
                }
            ],
            "stateMutability": "view",
            "type": "function"
        },
        {
            "inputs": [
                {
                    "internalType": "address",
                    "name": "spender",
                    "type": "address"
                },
                {
                    "internalType": "uint256",
                    "name": "addedValue",
                    "type": "uint256"
                }
            ],
            "name": "increaseAllowance",
            "outputs": [
                {
                    "internalType": "bool",
                    "name": "",
                    "type": "bool"
                }
            ],
            "stateMutability": "nonpayable",
            "type": "function"
        },
        {
            "inputs": [
                {
                    "internalType": "string",
                    "name": "name_",
                    "type": "string"
                },
                {
                    "internalType": "string",
                    "name": "symbol_",
                    "type": "string"
                },
                {
                    "internalType": "uint8",
                    "name": "decimals_",
                    "type": "uint8"
                },
                {
                    "internalType": "address",
                    "name": "childChainManager",
                    "type": "address"
                }
            ],
            "name": "initialize",
            "outputs": [],
            "stateMutability": "nonpayable",
            "type": "function"
        },
        {
            "inputs": [],
            "name": "name",
            "outputs": [
                {
                    "internalType": "string",
                    "name": "",
                    "type": "string"
                }
            ],
            "stateMutability": "view",
            "type": "function"
        },
        {
            "inputs": [
                {
                    "internalType": "bytes32",
                    "name": "role",
                    "type": "bytes32"
                },
                {
                    "internalType": "address",
                    "name": "account",
                    "type": "address"
                }
            ],
            "name": "renounceRole",
            "outputs": [],
            "stateMutability": "nonpayable",
            "type": "function"
        },
        {
            "inputs": [
                {
                    "internalType": "bytes32",
                    "name": "role",
                    "type": "bytes32"
                },
                {
                    "internalType": "address",
                    "name": "account",
                    "type": "address"
                }
            ],
            "name": "revokeRole",
            "outputs": [],
            "stateMutability": "nonpayable",
            "type": "function"
        },
        {
            "inputs": [],
            "name": "symbol",
            "outputs": [
                {
                    "internalType": "string",
                    "name": "",
                    "type": "string"
                }
            ],
            "stateMutability": "view",
            "type": "function"
        },
        {
            "inputs": [],
            "name": "totalSupply",
            "outputs": [
                {
                    "internalType": "uint256",
                    "name": "",
                    "type": "uint256"
                }
            ],
            "stateMutability": "view",
            "type": "function"
        },
        {
            "inputs": [
                {
                    "internalType": "address",
                    "name": "recipient",
                    "type": "address"
                },
                {
                    "internalType": "uint256",
                    "name": "amount",
                    "type": "uint256"
                }
            ],
            "name": "transfer",
            "outputs": [
                {
                    "internalType": "bool",
                    "name": "",
                    "type": "bool"
                }
            ],
            "stateMutability": "nonpayable",
            "type": "function"
        },
        {
            "inputs": [
                {
                    "internalType": "address",
                    "name": "sender",
                    "type": "address"
                },
                {
                    "internalType": "address",
                    "name": "recipient",
                    "type": "address"
                },
                {
                    "internalType": "uint256",
                    "name": "amount",
                    "type": "uint256"
                }
            ],
            "name": "transferFrom",
            "outputs": [
                {
                    "internalType": "bool",
                    "name": "",
                    "type": "bool"
                }
            ],
            "stateMutability": "nonpayable",
            "type": "function"
        },
        {
            "inputs": [
                {
                    "internalType": "uint256",
                    "name": "amount",
                    "type": "uint256"
                }
            ],
            "name": "withdraw",
            "outputs": [],
            "stateMutability": "nonpayable",
            "type": "function"
        }
    ],
    "bytecode": "0x60806040526000600660146101000a81548160ff0219169083151502179055507fffffffffffffffffffffffffffffffffffffffffffffffffffffffffffffffff600c553480156200005057600080fd5b506040516200414f3803806200414f833981810160405260e08110156200007657600080fd5b81019080805190602001909291908051906020019092919080516040519392919084640100000000821115620000ab57600080fd5b83820191506020820185811115620000c257600080fd5b8251866020820283011164010000000082111715620000e057600080fd5b8083526020830192505050908051906020019060200280838360005b8381101562000119578082015181840152602081019050620000fc565b50505050905001604052602001805160405193929190846401000000008211156200014357600080fd5b838201915060208201858111156200015a57600080fd5b82518660208202830111640100000000821117156200017857600080fd5b8083526020830192505050908051906020019060200280838360005b83811015620001b157808201518184015260208101905062000194565b5050505090500160405260200180516040519392919084640100000000821115620001db57600080fd5b83820191506020820185811115620001f257600080fd5b82518660208202830111640100000000821117156200021057600080fd5b8083526020830192505050908051906020019060200280838360005b83811015620002495780820151818401526020810190506200022c565b505050509050016040526020018051906020019092919080519060200190929190505050620002856301ffc9a760e01b6200041760201b60201c565b620002a663bc197c8160e01b63f23a6e6160e01b186200041760201b60201c565b86600160006101000a81548173ffffffffffffffffffffffffffffffffffffffff021916908373ffffffffffffffffffffffffffffffffffffffff16021790555085600b60006101000a81548173ffffffffffffffffffffffffffffffffffffffff021916908373ffffffffffffffffffffffffffffffffffffffff16021790555084600290805190602001906200034092919062000520565b5083600390805190602001906200035992919062000520565b5082600490805190602001906200037292919062000520565b5081600560006101000a81548173ffffffffffffffffffffffffffffffffffffffff021916908373ffffffffffffffffffffffffffffffffffffffff16021790555080600660006101000a81548173ffffffffffffffffffffffffffffffffffffffff021916908373ffffffffffffffffffffffffffffffffffffffff1602179055506003600a9080546200040992919062000572565b5050505050505050620005e8565b63ffffffff60e01b817bffffffffffffffffffffffffffffffffffffffffffffffffffffffff19161415620004b4576040517f08c379a000000000000000000000000000000000000000000000000000000000815260040180806020018281038252601c8152602001807f4552433136353a20696e76616c696420696e746572666163652069640000000081525060200191505060405180910390fd5b6001600080837bffffffffffffffffffffffffffffffffffffffffffffffffffffffff19167bffffffffffffffffffffffffffffffffffffffffffffffffffffffff1916815260200190815260200160002060006101000a81548160ff02191690831515021790555050565b8280548282559060005260206000209081019282156200055f579160200282015b828111156200055e57825182559160200191906001019062000541565b5b5090506200056e9190620005c9565b5090565b828054828255906000526020600020908101928215620005b65760005260206000209182015b82811115620005b557825482559160010191906001019062000598565b5b509050620005c59190620005c9565b5090565b5b80821115620005e4576000816000905550600101620005ca565b5090565b613b5780620005f86000396000f3fe60806040526004361061019c5760003560e01c806355662c26116100ec578063bc31c1c11161008a578063d0e30db011610064578063d0e30db01461092f578063d6febde814610946578063db59b65a1461097e578063f23a6e61146109c35761019c565b8063bc31c1c114610850578063c45a01551461089f578063ce339d5b146108e05761019c565b80639d648f9b116100c65780639d648f9b14610534578063a51df9961461060f578063ba5ef7361461065e578063bc197c81146106ad5761019c565b806355662c26146104a35780635685235b146104ba57806378e97925146105095761019c565b80631c09e5c61161015957806347de8a901161013357806347de8a90146103ed5780634b25bfce146104045780634e71d92d14610475578063509af8e51461048c5761019c565b80631c09e5c6146103125780632f48ab7d146103815780632fbbe937146103c25761019c565b806301ffc9a7146101a157806302d05d3f1461021157806302fb0c5e1461025257806306bcf02f1461027f57806307fc6e51146102ba57806314715d2b146102fb575b600080fd5b3480156101ad57600080fd5b506101f9600480360360208110156101c457600080fd5b8101908080357bffffffffffffffffffffffffffffffffffffffffffffffffffffffff19169060200190929190505050610ad0565b60405180821515815260200191505060405180910390f35b34801561021d57600080fd5b50610226610b37565b604051808273ffffffffffffffffffffffffffffffffffffffff16815260200191505060405180910390f35b34801561025e57600080fd5b50610267610b5d565b60405180821515815260200191505060405180910390f35b34801561028b57600080fd5b506102b8600480360360208110156102a257600080fd5b8101908080359060200190929190505050610b70565b005b3480156102c657600080fd5b506102cf610ce0565b604051808273ffffffffffffffffffffffffffffffffffffffff16815260200191505060405180910390f35b34801561030757600080fd5b50610310610d06565b005b34801561031e57600080fd5b5061036b6004803603604081101561033557600080fd5b8101908080359060200190929190803573ffffffffffffffffffffffffffffffffffffffff1690602001909291905050506110b5565b6040518082815260200191505060405180910390f35b34801561038d57600080fd5b506103966110da565b604051808273ffffffffffffffffffffffffffffffffffffffff16815260200191505060405180910390f35b3480156103ce57600080fd5b506103d7611100565b6040518082815260200191505060405180910390f35b3480156103f957600080fd5b5061040261110d565b005b34801561041057600080fd5b5061045d6004803603604081101561042757600080fd5b8101908080359060200190929190803573ffffffffffffffffffffffffffffffffffffffff169060200190929190505050611480565b60405180821515815260200191505060405180910390f35b34801561048157600080fd5b5061048a6114af565b005b34801561049857600080fd5b506104a1611638565b005b3480156104af57600080fd5b506104b86119e5565b005b3480156104c657600080fd5b506104f3600480360360208110156104dd57600080fd5b8101908080359060200190929190505050611ab7565b6040518082815260200191505060405180910390f35b34801561051557600080fd5b5061051e611ad8565b6040518082815260200191505060405180910390f35b34801561054057600080fd5b5061060d6004803603606081101561055757600080fd5b81019080803590602001909291908035906020019064010000000081111561057e57600080fd5b82018360208201111561059057600080fd5b803590602001918460208302840111640100000000831117156105b257600080fd5b919080806020026020016040519081016040528093929190818152602001838360200280828437600081840152601f19601f820116905080830192505050505050509192919290803515159060200190929190505050611ade565b005b34801561061b57600080fd5b506106486004803603602081101561063257600080fd5b8101908080359060200190929190505050611c8f565b6040518082815260200191505060405180910390f35b34801561066a57600080fd5b506106976004803603602081101561068157600080fd5b8101908080359060200190929190505050611cb0565b6040518082815260200191505060405180910390f35b3480156106b957600080fd5b5061081b600480360360a08110156106d057600080fd5b81019080803573ffffffffffffffffffffffffffffffffffffffff169060200190929190803573ffffffffffffffffffffffffffffffffffffffff1690602001909291908035906020019064010000000081111561072d57600080fd5b82018360208201111561073f57600080fd5b8035906020019184602083028401116401000000008311171561076157600080fd5b90919293919293908035906020019064010000000081111561078257600080fd5b82018360208201111561079457600080fd5b803590602001918460208302840111640100000000831117156107b657600080fd5b9091929391929390803590602001906401000000008111156107d757600080fd5b8201836020820111156107e957600080fd5b8035906020019184600183028401116401000000008311171561080b57600080fd5b9091929391929390505050611cc8565b60405180827bffffffffffffffffffffffffffffffffffffffffffffffffffffffff1916815260200191505060405180910390f35b34801561085c57600080fd5b506108896004803603602081101561087357600080fd5b8101908080359060200190929190505050611d48565b6040518082815260200191505060405180910390f35b3480156108ab57600080fd5b506108b4611d69565b604051808273ffffffffffffffffffffffffffffffffffffffff16815260200191505060405180910390f35b3480156108ec57600080fd5b506109196004803603602081101561090357600080fd5b8101908080359060200190929190505050611d8f565b6040518082815260200191505060405180910390f35b34801561093b57600080fd5b50610944611db0565b005b61097c6004803603604081101561095c57600080fd5b81019080803590602001909291908035906020019092919050505061215d565b005b34801561098a57600080fd5b506109c1600480360360408110156109a157600080fd5b810190808035906020019092919080359060200190929190505050612ad3565b005b3480156109cf57600080fd5b50610a9b600480360360a08110156109e657600080fd5b81019080803573ffffffffffffffffffffffffffffffffffffffff169060200190929190803573ffffffffffffffffffffffffffffffffffffffff169060200190929190803590602001909291908035906020019092919080359060200190640100000000811115610a5757600080fd5b820183602082011115610a6957600080fd5b80359060200191846001830284011164010000000083111715610a8b57600080fd5b9091929391929390505050613622565b60405180827bffffffffffffffffffffffffffffffffffffffffffffffffffffffff1916815260200191505060405180910390f35b6000806000837bffffffffffffffffffffffffffffffffffffffffffffffffffffffff19167bffffffffffffffffffffffffffffffffffffffffffffffffffffffff1916815260200190815260200160002060009054906101000a900460ff169050919050565b600660009054906101000a900473ffffffffffffffffffffffffffffffffffffffff1681565b600660149054906101000a900460ff1681565b600660009054906101000a900473ffffffffffffffffffffffffffffffffffffffff1673ffffffffffffffffffffffffffffffffffffffff163373ffffffffffffffffffffffffffffffffffffffff1614610c16576040517f08c379a000000000000000000000000000000000000000000000000000000000815260040180806020018281038252602d81526020018061396b602d913960400191505060405180910390fd5b600c54610c216136a0565b10610c77576040517f08c379a00000000000000000000000000000000000000000000000000000000081526004018080602001828103825260268152602001806139196026913960400191505060405180910390fd5b80610c806136a0565b10610cd6576040517f08c379a000000000000000000000000000000000000000000000000000000000815260040180806020018281038252602f815260200180613a6c602f913960400191505060405180910390fd5b80600c8190555050565b600160009054906101000a900473ffffffffffffffffffffffffffffffffffffffff1681565b600660009054906101000a900473ffffffffffffffffffffffffffffffffffffffff1673ffffffffffffffffffffffffffffffffffffffff163373ffffffffffffffffffffffffffffffffffffffff1614610dac576040517f08c379a0000000000000000000000000000000000000000000000000000000008152600401808060200182810382526028815260200180613afa6028913960400191505060405180910390fd5b600660149054906101000a900460ff1615610e2f576040517f08c379a000000000000000000000000000000000000000000000000000000000815260040180806020018281038252601b8152602001807f47656e4d61726b65743a204d61726b657420697320616374697665000000000081525060200191505060405180910390fd5b606060038054905067ffffffffffffffff81118015610e4d57600080fd5b50604051908082528060200260200182016040528015610e7c5781602001602082028036833780820191505090505b50905060005b6003805490508160ff161015610ebe578060ff16828260ff1681518110610ea557fe5b6020026020010181815250508080600101915050610e82565b50600160009054906101000a900473ffffffffffffffffffffffffffffffffffffffff1673ffffffffffffffffffffffffffffffffffffffff16632eb2c2d6303384600a6040518060400160405280600281526020017f4a430000000000000000000000000000000000000000000000000000000000008152506040518663ffffffff1660e01b8152600401808673ffffffffffffffffffffffffffffffffffffffff1681526020018573ffffffffffffffffffffffffffffffffffffffff168152602001806020018060200180602001848103845287818151815260200191508051906020019060200280838360005b83811015610fca578082015181840152602081019050610faf565b50505050905001848103835286818154815260200191508054801561100e57602002820191906000526020600020905b815481526020019060010190808311610ffa575b5050848103825285818151815260200191508051906020019080838360005b8381101561104857808201518184015260208101905061102d565b50505050905090810190601f1680156110755780820380516001836020036101000a031916815260200191505b5098505050505050505050600060405180830381600087803b15801561109a57600080fd5b505af11580156110ae573d6000803e3d6000fd5b5050505050565b6008602052816000526040600020602052806000526040600020600091509150505481565b600b60009054906101000a900473ffffffffffffffffffffffffffffffffffffffff1681565b6000600380549050905090565b600660009054906101000a900473ffffffffffffffffffffffffffffffffffffffff1673ffffffffffffffffffffffffffffffffffffffff163373ffffffffffffffffffffffffffffffffffffffff16146111b3576040517f08c379a0000000000000000000000000000000000000000000000000000000008152600401808060200182810382526025815260200180613ad56025913960400191505060405180910390fd5b6000600b60009054906101000a900473ffffffffffffffffffffffffffffffffffffffff1673ffffffffffffffffffffffffffffffffffffffff166370a08231306040518263ffffffff1660e01b8152600401808273ffffffffffffffffffffffffffffffffffffffff16815260200191505060206040518083038186803b15801561123e57600080fd5b505afa158015611252573d6000803e3d6000fd5b505050506040513d602081101561126857600080fd5b8101908080519060200190929190505050116112ec576040517f08c379a00000000000000000000000000000000000000000000000000000000081526004018080602001828103825260168152602001807f4e6f2062616c616e636520746f207472616e736665720000000000000000000081525060200191505060405180910390fd5b600b60009054906101000a900473ffffffffffffffffffffffffffffffffffffffff1673ffffffffffffffffffffffffffffffffffffffff1663a9059cbb33600b60009054906101000a900473ffffffffffffffffffffffffffffffffffffffff1673ffffffffffffffffffffffffffffffffffffffff166370a08231306040518263ffffffff1660e01b8152600401808273ffffffffffffffffffffffffffffffffffffffff16815260200191505060206040518083038186803b1580156113b457600080fd5b505afa1580156113c8573d6000803e3d6000fd5b505050506040513d60208110156113de57600080fd5b81019080805190602001909291905050506040518363ffffffff1660e01b8152600401808373ffffffffffffffffffffffffffffffffffffffff16815260200182815260200192505050602060405180830381600087803b15801561144257600080fd5b505af1158015611456573d6000803e3d6000fd5b505050506040513d602081101561146c57600080fd5b810190808051906020019092919050505050565b60076020528160005260406000206020528060005260406000206000915091509054906101000a900460ff1681565b600660009054906101000a900473ffffffffffffffffffffffffffffffffffffffff1673ffffffffffffffffffffffffffffffffffffffff163373ffffffffffffffffffffffffffffffffffffffff1614611555576040517f08c379a0000000000000000000000000000000000000000000000000000000008152600401808060200182810382526025815260200180613ad56025913960400191505060405180910390fd5b600060603373ffffffffffffffffffffffffffffffffffffffff164760405180600001905060006040518083038185875af1925050503d80600081146115b7576040519150601f19603f3d011682016040523d82523d6000602084013e6115bc565b606091505b509150915081611634576040517f08c379a000000000000000000000000000000000000000000000000000000000815260040180806020018281038252601f8152602001807f47656e4d61726b65743a204661696c656420746f2073656e642045746865720081525060200191505060405180910390fd5b5050565b600660009054906101000a900473ffffffffffffffffffffffffffffffffffffffff1673ffffffffffffffffffffffffffffffffffffffff163373ffffffffffffffffffffffffffffffffffffffff16146116de576040517f08c379a000000000000000000000000000000000000000000000000000000000815260040180806020018281038252603a815260200180613a9b603a913960400191505060405180910390fd5b600660149054906101000a900460ff1615611744576040517f08c379a00000000000000000000000000000000000000000000000000000000081526004018080602001828103825260238152602001806139986023913960400191505060405180910390fd5b606060038054905067ffffffffffffffff8111801561176257600080fd5b506040519080825280602002602001820160405280156117915781602001602082028036833780820191505090505b50905060005b6003805490508160ff1610156117d3578060ff16828260ff16815181106117ba57fe5b6020026020010181815250508080600101915050611797565b50600160009054906101000a900473ffffffffffffffffffffffffffffffffffffffff1673ffffffffffffffffffffffffffffffffffffffff16632eb2c2d6333084600a6040518060400160405280600281526020017f4a430000000000000000000000000000000000000000000000000000000000008152506040518663ffffffff1660e01b8152600401808673ffffffffffffffffffffffffffffffffffffffff1681526020018573ffffffffffffffffffffffffffffffffffffffff168152602001806020018060200180602001848103845287818151815260200191508051906020019060200280838360005b838110156118df5780820151818401526020810190506118c4565b50505050905001848103835286818154815260200191508054801561192357602002820191906000526020600020905b81548152602001906001019080831161190f575b5050848103825285818151815260200191508051906020019080838360005b8381101561195d578082015181840152602081019050611942565b50505050905090810190601f16801561198a5780820380516001836020036101000a031916815260200191505b5098505050505050505050600060405180830381600087803b1580156119af57600080fd5b505af11580156119c3573d6000803e3d6000fd5b505050506001600660146101000a81548160ff02191690831515021790555050565b600660009054906101000a900473ffffffffffffffffffffffffffffffffffffffff1673ffffffffffffffffffffffffffffffffffffffff163373ffffffffffffffffffffffffffffffffffffffff1614611a8b576040517f08c379a0000000000000000000000000000000000000000000000000000000008152600401808060200182810382526036815260200180613a366036913960400191505060405180910390fd5b600660149054906101000a900460ff1615600660146101000a81548160ff021916908315150217905550565b60048181548110611ac457fe5b906000526020600020016000915090505481565b600c5481565b600660009054906101000a900473ffffffffffffffffffffffffffffffffffffffff1673ffffffffffffffffffffffffffffffffffffffff163373ffffffffffffffffffffffffffffffffffffffff1614611b84576040517f08c379a000000000000000000000000000000000000000000000000000000000815260040180806020018281038252602c81526020018061393f602c913960400191505060405180910390fd5b60c8825110611bde576040517f08c379a000000000000000000000000000000000000000000000000000000000815260040180806020018281038252602c8152602001806138c3602c913960400191505060405180910390fd5b60005b60c88160ff161015611c895782518160ff161415611bfe57611c89565b81600760008681526020019081526020016000206000858460ff1681518110611c2357fe5b602002602001015173ffffffffffffffffffffffffffffffffffffffff1673ffffffffffffffffffffffffffffffffffffffff16815260200190815260200160002060006101000a81548160ff0219169083151502179055508080600101915050611be1565b50505050565b600a8181548110611c9c57fe5b906000526020600020016000915090505481565b60096020528060005260406000206000915090505481565b60006040518060400160405280600281526020017f4a4300000000000000000000000000000000000000000000000000000000000081525080519060200120838360405180838380828437808301925050509250505060405180910390201415611d3b5763bc197c8160e01b9050611d3c565b5b98975050505050505050565b60028181548110611d5557fe5b906000526020600020016000915090505481565b600560009054906101000a900473ffffffffffffffffffffffffffffffffffffffff1681565b60038181548110611d9c57fe5b906000526020600020016000915090505481565b600660009054906101000a900473ffffffffffffffffffffffffffffffffffffffff1673ffffffffffffffffffffffffffffffffffffffff163373ffffffffffffffffffffffffffffffffffffffff1614611e56576040517f08c379a00000000000000000000000000000000000000000000000000000000081526004018080602001828103825260338152602001806139bb6033913960400191505060405180910390fd5b600660149054906101000a900460ff1615611ebc576040517f08c379a00000000000000000000000000000000000000000000000000000000081526004018080602001828103825260238152602001806139986023913960400191505060405180910390fd5b606060038054905067ffffffffffffffff81118015611eda57600080fd5b50604051908082528060200260200182016040528015611f095781602001602082028036833780820191505090505b50905060005b6003805490508160ff161015611f4b578060ff16828260ff1681518110611f3257fe5b6020026020010181815250508080600101915050611f0f565b50600160009054906101000a900473ffffffffffffffffffffffffffffffffffffffff1673ffffffffffffffffffffffffffffffffffffffff16632eb2c2d633308460036040518060400160405280600281526020017f4a430000000000000000000000000000000000000000000000000000000000008152506040518663ffffffff1660e01b8152600401808673ffffffffffffffffffffffffffffffffffffffff1681526020018573ffffffffffffffffffffffffffffffffffffffff168152602001806020018060200180602001848103845287818151815260200191508051906020019060200280838360005b8381101561205757808201518184015260208101905061203c565b50505050905001848103835286818154815260200191508054801561209b57602002820191906000526020600020905b815481526020019060010190808311612087575b5050848103825285818151815260200191508051906020019080838360005b838110156120d55780820151818401526020810190506120ba565b50505050905090810190601f1680156121025780820380516001836020036101000a031916815260200191505b5098505050505050505050600060405180830381600087803b15801561212757600080fd5b505af115801561213b573d6000803e3d6000fd5b505050506001600660146101000a81548160ff02191690831515021790555050565b600660149054906101000a900460ff166121df576040517f08c379a000000000000000000000000000000000000000000000000000000000815260040180806020018281038252601f8152602001807f47656e4d61726b65743a204d61726b6574206973206e6f74206163746976650081525060200191505060405180910390fd5b600c546121ea6136a0565b101561225e576040517f08c379a000000000000000000000000000000000000000000000000000000000815260040180806020018281038252601f8152602001807f47656e4d61726b65743a2053746172742074696d65206d75737420706173730081525060200191505060405180910390fd5b6007600083815260200190815260200160002060003373ffffffffffffffffffffffffffffffffffffffff1673ffffffffffffffffffffffffffffffffffffffff16815260200190815260200160002060009054906101000a900460ff1661232e576040517f08c379a00000000000000000000000000000000000000000000000000000000081526004018080602001828103825260208152602001807f47656e4d61726b65743a2055736572206e6f74206f6e2077686974656c69737481525060200191505060405180910390fd5b6004828154811061233b57fe5b90600052602060002001546123a9826008600086815260200190815260200160002060003373ffffffffffffffffffffffffffffffffffffffff1673ffffffffffffffffffffffffffffffffffffffff168152602001908152602001600020546136a890919063ffffffff16565b1115612400576040517f08c379a000000000000000000000000000000000000000000000000000000000815260040180806020018281038252602a8152602001806138ef602a913960400191505060405180910390fd5b6003828154811061240d57fe5b906000526020600020015461243e8260096000868152602001908152602001600020546136a890919063ffffffff16565b1115612495576040517f08c379a0000000000000000000000000000000000000000000000000000000008152600401808060200182810382526027815260200180613a0f6027913960400191505060405180910390fd5b346124c082600285815481106124a757fe5b906000526020600020015461373090919063ffffffff16565b1115612534576040517f08c379a000000000000000000000000000000000000000000000000000000000815260040180806020018281038252601f8152602001807f47656e4d61726b65743a20496e73756666696369656e74207061796d656e740081525060200191505060405180910390fd5b612597816008600085815260200190815260200160002060003373ffffffffffffffffffffffffffffffffffffffff1673ffffffffffffffffffffffffffffffffffffffff168152602001908152602001600020546136a890919063ffffffff16565b6008600084815260200190815260200160002060003373ffffffffffffffffffffffffffffffffffffffff1673ffffffffffffffffffffffffffffffffffffffff168152602001908152602001600020819055506126118160096000858152602001908152602001600020546136a890919063ffffffff16565b600960008481526020019081526020016000208190555061266560096000848152602001908152602001600020546003848154811061264c57fe5b90600052602060002001546137b690919063ffffffff16565b600a838154811061267257fe5b9060005260206000200181905550600073ffffffffffffffffffffffffffffffffffffffff16600560009054906101000a900473ffffffffffffffffffffffffffffffffffffffff1673ffffffffffffffffffffffffffffffffffffffff1663017e7e586040518163ffffffff1660e01b815260040160206040518083038186803b15801561270057600080fd5b505afa158015612714573d6000803e3d6000fd5b505050506040513d602081101561272a57600080fd5b810190808051906020019092919050505073ffffffffffffffffffffffffffffffffffffffff161461298e5760006060600560009054906101000a900473ffffffffffffffffffffffffffffffffffffffff1673ffffffffffffffffffffffffffffffffffffffff1663017e7e586040518163ffffffff1660e01b815260040160206040518083038186803b1580156127c257600080fd5b505afa1580156127d6573d6000803e3d6000fd5b505050506040513d60208110156127ec57600080fd5b810190808051906020019092919050505073ffffffffffffffffffffffffffffffffffffffff166128c8600560009054906101000a900473ffffffffffffffffffffffffffffffffffffffff1673ffffffffffffffffffffffffffffffffffffffff16639a36f9326040518163ffffffff1660e01b815260040160206040518083038186803b15801561287e57600080fd5b505afa158015612892573d6000803e3d6000fd5b505050506040513d60208110156128a857600080fd5b81019080805190602001909291905050503461383990919063ffffffff16565b60405180600001905060006040518083038185875af1925050503d806000811461290e576040519150601f19603f3d011682016040523d82523d6000602084013e612913565b606091505b50915091508161298b576040517f08c379a000000000000000000000000000000000000000000000000000000000815260040180806020018281038252601f8152602001807f47656e4d61726b65743a204661696c656420746f2073656e642045746865720081525060200191505060405180910390fd5b50505b6060600160009054906101000a900473ffffffffffffffffffffffffffffffffffffffff1673ffffffffffffffffffffffffffffffffffffffff1663f242432a30338686866040518663ffffffff1660e01b8152600401808673ffffffffffffffffffffffffffffffffffffffff1681526020018573ffffffffffffffffffffffffffffffffffffffff16815260200184815260200183815260200180602001828103825283818151815260200191508051906020019080838360005b83811015612a66578082015181840152602081019050612a4b565b50505050905090810190601f168015612a935780820380516001836020036101000a031916815260200191505b509650505050505050600060405180830381600087803b158015612ab657600080fd5b505af1158015612aca573d6000803e3d6000fd5b50505050505050565b600660149054906101000a900460ff16612b55576040517f08c379a000000000000000000000000000000000000000000000000000000000815260040180806020018281038252601f8152602001807f47656e4d61726b65743a204d61726b6574206973206e6f74206163746976650081525060200191505060405180910390fd5b600c54612b606136a0565b1015612bd4576040517f08c379a000000000000000000000000000000000000000000000000000000000815260040180806020018281038252601f8152602001807f47656e4d61726b65743a2053746172742074696d65206d75737420706173730081525060200191505060405180910390fd5b6007600083815260200190815260200160002060003373ffffffffffffffffffffffffffffffffffffffff1673ffffffffffffffffffffffffffffffffffffffff16815260200190815260200160002060009054906101000a900460ff16612ca4576040517f08c379a00000000000000000000000000000000000000000000000000000000081526004018080602001828103825260208152602001807f47656e4d61726b65743a2055736572206e6f74206f6e2077686974656c69737481525060200191505060405180910390fd5b60048281548110612cb157fe5b9060005260206000200154612d1f826008600086815260200190815260200160002060003373ffffffffffffffffffffffffffffffffffffffff1673ffffffffffffffffffffffffffffffffffffffff168152602001908152602001600020546136a890919063ffffffff16565b1115612d76576040517f08c379a000000000000000000000000000000000000000000000000000000000815260040180806020018281038252602a8152602001806138ef602a913960400191505060405180910390fd5b60038281548110612d8357fe5b9060005260206000200154612db48260096000868152602001908152602001600020546136a890919063ffffffff16565b1115612e0b576040517f08c379a0000000000000000000000000000000000000000000000000000000008152600401808060200182810382526027815260200180613a0f6027913960400191505060405180910390fd5b6000612e378260028581548110612e1e57fe5b906000526020600020015461373090919063ffffffff16565b905080600b60009054906101000a900473ffffffffffffffffffffffffffffffffffffffff1673ffffffffffffffffffffffffffffffffffffffff166370a08231336040518263ffffffff1660e01b8152600401808273ffffffffffffffffffffffffffffffffffffffff16815260200191505060206040518083038186803b158015612ec357600080fd5b505afa158015612ed7573d6000803e3d6000fd5b505050506040513d6020811015612eed57600080fd5b81019080805190602001909291905050501015612f72576040517f08c379a000000000000000000000000000000000000000000000000000000000815260040180806020018281038252601f8152602001807f47656e4d61726b65743a20496e73756666696369656e74207061796d656e740081525060200191505060405180910390fd5b612fd5826008600086815260200190815260200160002060003373ffffffffffffffffffffffffffffffffffffffff1673ffffffffffffffffffffffffffffffffffffffff168152602001908152602001600020546136a890919063ffffffff16565b6008600085815260200190815260200160002060003373ffffffffffffffffffffffffffffffffffffffff1673ffffffffffffffffffffffffffffffffffffffff1681526020019081526020016000208190555061304f8260096000868152602001908152602001600020546136a890919063ffffffff16565b60096000858152602001908152602001600020819055506130a360096000858152602001908152602001600020546003858154811061308a57fe5b90600052602060002001546137b690919063ffffffff16565b600a84815481106130b057fe5b906000526020600020018190555060008073ffffffffffffffffffffffffffffffffffffffff16600560009054906101000a900473ffffffffffffffffffffffffffffffffffffffff1673ffffffffffffffffffffffffffffffffffffffff1663017e7e586040518163ffffffff1660e01b815260040160206040518083038186803b15801561313f57600080fd5b505afa158015613153573d6000803e3d6000fd5b505050506040513d602081101561316957600080fd5b810190808051906020019092919050505073ffffffffffffffffffffffffffffffffffffffff16146133dc5761324a600560009054906101000a900473ffffffffffffffffffffffffffffffffffffffff1673ffffffffffffffffffffffffffffffffffffffff16639a36f9326040518163ffffffff1660e01b815260040160206040518083038186803b15801561320057600080fd5b505afa158015613214573d6000803e3d6000fd5b505050506040513d602081101561322a57600080fd5b81019080805190602001909291905050508361383990919063ffffffff16565b9050600b60009054906101000a900473ffffffffffffffffffffffffffffffffffffffff1673ffffffffffffffffffffffffffffffffffffffff166323b872dd33600560009054906101000a900473ffffffffffffffffffffffffffffffffffffffff1673ffffffffffffffffffffffffffffffffffffffff1663017e7e586040518163ffffffff1660e01b815260040160206040518083038186803b1580156132f357600080fd5b505afa158015613307573d6000803e3d6000fd5b505050506040513d602081101561331d57600080fd5b8101908080519060200190929190505050846040518463ffffffff1660e01b8152600401808473ffffffffffffffffffffffffffffffffffffffff1681526020018373ffffffffffffffffffffffffffffffffffffffff1681526020018281526020019350505050602060405180830381600087803b15801561339f57600080fd5b505af11580156133b3573d6000803e3d6000fd5b505050506040513d60208110156133c957600080fd5b8101908080519060200190929190505050505b600b60009054906101000a900473ffffffffffffffffffffffffffffffffffffffff1673ffffffffffffffffffffffffffffffffffffffff166323b872dd333061342f85876137b690919063ffffffff16565b6040518463ffffffff1660e01b8152600401808473ffffffffffffffffffffffffffffffffffffffff1681526020018373ffffffffffffffffffffffffffffffffffffffff1681526020018281526020019350505050602060405180830381600087803b15801561349f57600080fd5b505af11580156134b3573d6000803e3d6000fd5b505050506040513d60208110156134c957600080fd5b8101908080519060200190929190505050506060600160009054906101000a900473ffffffffffffffffffffffffffffffffffffffff1673ffffffffffffffffffffffffffffffffffffffff1663f242432a30338888866040518663ffffffff1660e01b8152600401808673ffffffffffffffffffffffffffffffffffffffff1681526020018573ffffffffffffffffffffffffffffffffffffffff16815260200184815260200183815260200180602001828103825283818151815260200191508051906020019080838360005b838110156135b3578082015181840152602081019050613598565b50505050905090810190601f1680156135e05780820380516001836020036101000a031916815260200191505b509650505050505050600060405180830381600087803b15801561360357600080fd5b505af1158015613617573d6000803e3d6000fd5b505050505050505050565b60006040518060400160405280600281526020017f4a43000000000000000000000000000000000000000000000000000000000000815250805190602001208383604051808383808284378083019250505092505050604051809103902014156136955763f23a6e6160e01b9050613696565b5b9695505050505050565b600042905090565b600080828401905083811015613726576040517f08c379a000000000000000000000000000000000000000000000000000000000815260040180806020018281038252601b8152602001807f536166654d6174683a206164646974696f6e206f766572666c6f77000000000081525060200191505060405180910390fd5b8091505092915050565b60008083141561374357600090506137b0565b600082840290508284828161375457fe5b04146137ab576040517f08c379a00000000000000000000000000000000000000000000000000000000081526004018080602001828103825260218152602001806139ee6021913960400191505060405180910390fd5b809150505b92915050565b60008282111561382e576040517f08c379a000000000000000000000000000000000000000000000000000000000815260040180806020018281038252601e8152602001807f536166654d6174683a207375627472616374696f6e206f766572666c6f77000081525060200191505060405180910390fd5b818303905092915050565b60008082116138b0576040517f08c379a000000000000000000000000000000000000000000000000000000000815260040180806020018281038252601a8152602001807f536166654d6174683a206469766973696f6e206279207a65726f00000000000081525060200191505060405180910390fd5b8183816138b957fe5b0490509291505056fe47656e4d61726b65743a2057686974656c697374206c657373207468616e2032303020617420612074696d6547656e4d61726b65743a20557365722077696c6c20657863656564207075726368617365206c696d697447656e4d61726b65743a2053746172742074696d6520616c7265616479206f6363757272656447656e4d61726b65743a204f6e6c792063726561746f722063616e207570646174652077686974656c69737447656e4d61726b65743a204f6e6c792063726561746f722063616e207570646174652073746172742074696d6547656e4d61726b65743a204d61726b657420697320616c72656164792061637469766547656e4d61726b65743a204f6e6c79207468652063726561746f722063616e206465706f73697420746865207469636b657473536166654d6174683a206d756c7469706c69636174696f6e206f766572666c6f7747656e4d61726b65743a204e6f7420656e6f756768207469636b6574732072656d61696e696e6747656e4d61726b65743a204f6e6c79207468652063726561746f722063616e20666c697020746865206d61726b65742073746174757347656e4d61726b65743a204e65772073746172742074696d65206d75737420626520696e207468652066757475726547656e4d61726b65743a204f6e6c79207468652063726561746f722063616e206465706f7369742074686520756e736f6c64207469636b65747347656e4d61726b65743a204f6e6c79207468652063726561746f722063616e20636c61696d47656e4d61726b65743a204f6e6c79207468652063726561746f722063616e207472616e73666572a2646970667358221220c08a912d955cbeda1e63bee1b8e10851f511683d5f501eab4d23a7943c032d5564736f6c634300060c0033",
    "immutableReferences": {},
    "source": "\npragma solidity 0.6.12;\n\nimport \"@openzeppelin/contracts/token/ERC20/IERC20.sol\";\nimport \"@openzeppelin/contracts/token/ERC1155/IERC1155.sol\";\nimport \"@openzeppelin/contracts/token/ERC1155/ERC1155Receiver.sol\";\nimport \"@openzeppelin/contracts/math/SafeMath.sol\";\nimport \"./interfaces/IGenMarketFactory.sol\";\n\ncontract GenMarket is ERC1155Receiver {\n    using SafeMath for uint;\n\n    address public genTicket;\n\n    uint256[] public prices;\n    uint256[] public numTickets;\n    uint256[] public purchaseLimits;\n    IGenMarketFactory public factory;\n    address public creator;\n    bool public active = false;\n    mapping(uint256 => mapping(address => bool)) public whitelist;\n    mapping(uint256 => mapping(address => uint256)) public purchases;\n    mapping(uint256 => uint256) public ticketsPurchased;\n    uint256[] public ticketsRemaining;\n    IERC20 public usdt;\n\n    // Expected start time, start at max uint256\n    uint public startTime = type(uint).max;\n\n    bytes private constant VALIDATOR = bytes('JC');\n    \n    constructor (\n        address _genTicket,\n        address _usdt,\n        uint256[] memory _prices,\n        uint256[] memory _numTickets,\n        uint256[] memory _purchaseLimits,\n        IGenMarketFactory _factory,\n        address _creator\n    ) \n        public \n    {\n        genTicket = _genTicket;\n        usdt = IERC20(_usdt);\n        prices = _prices;\n        numTickets = _numTickets;\n        purchaseLimits = _purchaseLimits;\n        factory = _factory;\n        creator = _creator;\n        ticketsRemaining = numTickets;\n    }\n\n    function ticketTypes() external view returns (uint) {\n        return numTickets.length;\n    }\n\n    function updateStartTime(uint timestamp) external {\n        require(msg.sender == creator, \"GenMarket: Only creator can update start time\");\n        require(getBlockTimestamp() < startTime, \"GenMarket: Start time already occurred\");\n        require(getBlockTimestamp() < timestamp, \"GenMarket: New start time must be in the future\");\n\n        startTime = timestamp;\n    }\n\n    function setWhiteList(uint256 id, address[] memory addresses, bool whiteListOn) external {\n        require(msg.sender == creator, \"GenMarket: Only creator can update whitelist\");\n        require(addresses.length < 200, \"GenMarket: Whitelist less than 200 at a time\");\n\n        for (uint8 i=0; i<200; i++) {\n            if (i == addresses.length) {\n                break;\n            }\n\n            whitelist[id][addresses[i]] = whiteListOn;\n        }\n    }\n\n    function deposit() external {\n        require(msg.sender == creator, \"GenMarket: Only the creator can deposit the tickets\");\n        require(!active, \"GenMarket: Market is already active\");\n\n        uint256[] memory tokenIDs = new uint256[](numTickets.length);\n        for (uint8 i = 0; i < numTickets.length; i++)\n            tokenIDs[i] = i;\n        IERC1155(genTicket).safeBatchTransferFrom(msg.sender, address(this), tokenIDs, numTickets, VALIDATOR);\n\n        active = true;\n    }\n\n    function depositUnsoldBackToMarket() external {\n        require(msg.sender == creator, \"GenMarket: Only the creator can deposit the unsold tickets\");\n        require(!active, \"GenMarket: Market is already active\");\n\n        uint256[] memory tokenIDs = new uint256[](numTickets.length);\n        for (uint8 i = 0; i < numTickets.length; i++)\n            tokenIDs[i] = i;\n        IERC1155(genTicket).safeBatchTransferFrom(msg.sender, address(this), tokenIDs, ticketsRemaining, VALIDATOR);\n\n        active = true;\n    }\n\n    function buy(uint256 _id, uint256 _amount) external payable {\n        require(active, \"GenMarket: Market is not active\");\n        require(getBlockTimestamp() >= startTime, \"GenMarket: Start time must pass\");\n        require(whitelist[_id][msg.sender], \"GenMarket: User not on whitelist\");\n        require(purchases[_id][msg.sender].add(_amount) <= purchaseLimits[_id], \"GenMarket: User will exceed purchase limit\");\n        require(ticketsPurchased[_id].add(_amount) <= numTickets[_id], \"GenMarket: Not enough tickets remaining\");\n        require(prices[_id].mul(_amount) <= msg.value, \"GenMarket: Insufficient payment\");\n\n        purchases[_id][msg.sender] = purchases[_id][msg.sender].add(_amount);\n        ticketsPurchased[_id] = ticketsPurchased[_id].add(_amount);\n        ticketsRemaining[_id] = numTickets[_id].sub(ticketsPurchased[_id]);\n\n        if (factory.feeTo() != address(0)) {\n            // Send fees to fee address\n            (bool sent, bytes memory data) = factory.feeTo().call{value: msg.value.div(factory.feeDivisor())}(\"\");\n            require(sent, \"GenMarket: Failed to send Ether\");\n        }\n        \n        bytes memory data;\n        IERC1155(genTicket).safeTransferFrom(address(this), msg.sender, _id, _amount, data);\n    }\n\n    function buyUsingUSDT(uint256 _id, uint256 _amount) external {\n        require(active, \"GenMarket: Market is not active\");\n        require(getBlockTimestamp() >= startTime, \"GenMarket: Start time must pass\");\n        require(whitelist[_id][msg.sender], \"GenMarket: User not on whitelist\");\n        require(purchases[_id][msg.sender].add(_amount) <= purchaseLimits[_id], \"GenMarket: User will exceed purchase limit\");\n        require(ticketsPurchased[_id].add(_amount) <= numTickets[_id], \"GenMarket: Not enough tickets remaining\");\n        \n        uint256 tktPrice = prices[_id].mul(_amount);\n        require (usdt.balanceOf(address(msg.sender)) >= tktPrice, \"GenMarket: Insufficient payment\");\n\n        purchases[_id][msg.sender] = purchases[_id][msg.sender].add(_amount);\n        ticketsPurchased[_id] = ticketsPurchased[_id].add(_amount);\n        ticketsRemaining[_id] = numTickets[_id].sub(ticketsPurchased[_id]);\n\n        uint256 fees=0;\n\n        if (factory.feeTo() != address(0)) {\n            // Send fees to fee address\n            fees = tktPrice.div(factory.feeDivisor());\n            usdt.transferFrom(msg.sender, factory.feeTo(), fees);\n        }\n        \n        usdt.transferFrom(msg.sender, address(this), tktPrice.sub(fees));\n\n        bytes memory data;\n        IERC1155(genTicket).safeTransferFrom(address(this), msg.sender, _id, _amount, data);\n    }\n\n    function transferUnsoldTickets() external {\n        require(msg.sender == creator, \"GenMarket: Only the creator can transfer\");\n        require(!active, \"GenMarket: Market is active\");\n\n        uint256[] memory tokenIDs = new uint256[](numTickets.length);\n\n        for (uint8 i=0; i < numTickets.length; i++) {\n            tokenIDs[i] = i;\n        }\n        IERC1155(genTicket).safeBatchTransferFrom(address(this), msg.sender, tokenIDs, ticketsRemaining, VALIDATOR);      \n    }\n\n    function flipMarketStatus() external {\n        require(msg.sender == creator, \"GenMarket: Only the creator can flip the market status\");\n        active = !active;\n    }\n\n    function claim() external {\n        require(msg.sender == creator, \"GenMarket: Only the creator can claim\");\n\n        (bool sent, bytes memory data) = msg.sender.call{value: address(this).balance}(\"\");\n        require(sent, \"GenMarket: Failed to send Ether\");\n    }\n\n    function claimUsdt() external {\n        require(msg.sender == creator, \"GenMarket: Only the creator can claim\");\n        require (usdt.balanceOf(address(this)) > 0, \"No balance to transfer\");\n\n        usdt.transfer(msg.sender, usdt.balanceOf(address(this)));\n    }\n\n    function getBlockTimestamp() internal view returns (uint) {\n        // solium-disable-next-line security/no-block-members\n        return block.timestamp;\n    }\n\n    /**\n     * ERC1155 Token ERC1155Receiver\n     */\n    function onERC1155Received(address _operator, address _from, uint256 _id, uint256 _value, bytes calldata _data) override external returns(bytes4) {\n        if(keccak256(_data) == keccak256(VALIDATOR)){\n            return 0xf23a6e61;\n        }\n    }\n\n    function onERC1155BatchReceived(address _operator, address _from, uint256[] calldata _ids, uint256[] calldata _values, bytes calldata _data) override external returns(bytes4) {\n        if(keccak256(_data) == keccak256(VALIDATOR)){\n            return 0xbc197c81;\n        }\n    }\n}",
    "sourcePath": "/Users/anandsinha/workspace/genesis-shards/contracts/GenMarket.sol",
    "compiler": {
        "name": "solc",
        "version": "0.6.12+commit.27d51765.Emscripten.clang"
    },
    "schemaVersion": "3.4.3",
    "updatedAt": "2022-02-10T05:54:09.465Z",
    "devdoc": {
        "kind": "dev",
        "methods": {
            "supportsInterface(bytes4)": {
                "details": "See {IERC165-supportsInterface}. Time complexity O(1), guaranteed to always use less than 30 000 gas."
            }
        },
        "version": 1
    },
    "userdoc": {
        "kind": "user",
        "methods": {
            "onERC1155Received(address,address,uint256,uint256,bytes)": {
                "notice": "ERC1155 Token ERC1155Receiver"
            }
        },
        "version": 1
    }
}